:020000040800F2
:100000006807002009020008BD2F0008692B0008BE
:10001000B92F00081D070008813900080000000002
:10002000000000000000000000000000C1330008D4
:100030002107000800000000BD330008C533000898
:1000400023020008230200082302000823020008FC
:1000500023020008230200082302000823020008EC
:1000600023020008230200082302000823020008DC
:1000700023020008230200082302000823020008CC
:1000800023020008230200082302000823020008BC
:1000900000000000230200082302000823020008D9
:1000A000230200082302000823020008230200089C
:1000B000230200082302000823020008230200088C
:1000C000230200082302000823020008230200087C
:1000D00023020008753900082302000823020008E3
:1000E000230200082302000823020008230200085C
:1000F00023020008000000000000000023020008A6
:10010000230200082302000823020008230200083B
:10011000230200082302000823020008230200082B
:10012000230200082302000823020008230200081B
:10013000230200082302000800F002F800F055F83E
:1001400014A696E8000CB244B344DA4501D100F09D
:100150004CF8BAE80F000FA696E83000A5EB0405AE
:1001600004EB0607AAEB0704A7F101074FEA1515F0
:100170004FEA3414A4F10104AC4201D300F035F885
:1001800013F0010F18BFFB1A43F0010300F001F850
:10019000DBE71847E441000004420000103A24BFA6
:1001A00078C878C1FAD8520724BF30C830C144BFDC
:1001B00004680C60704700007047000000230024B2
:1001C00000250026103A28BF78C1FBD8520728BF67
:1001D00030C148BF0B607047642900F0E9800020FF
:1001E00070471FB51FBD10B510BD00F05AFA11467B
:1001F000FFF7F7FF03F0C6FB00F078FA03B4FFF750
:10020000F2FF03BC00F080FA094880470948004724
:10021000FEE7FEE7FEE7FEE7FEE7FEE7FEE7FEE7B6
:10022000FEE7FEE704480549054A064B7047000013
:10023000F933000839010008680100206807002030
:10024000680300206803002053EA020C00F0698074
:100250002DE9F04B4FF00006002B1FBFB3FA83F5DA
:1002600003FA05F424FA05F65E4012BF1643B2FA0B
:1002700082F502FA05F4C5F120051EBF22FA05FC3D
:1002800044EA0C04203556EA044C4FEA144418BFE3
:10029000641C4FF000084FF00009904271EB030C12
:1002A00039D3002919BFB1FA81F701FA07F6B0FA7C
:1002B00080F700FA07F6C7F120071EBF20FA07FCF7
:1002C00046EA0C062037B6FBF4FCA7EB0507103F07
:1002D00007F01F0BCBF120062CFA06F60CFA0BFBED
:1002E00044BFB3460026202FA4BF5E464FF0000B4C
:1002F0005BEA060C08BF4FF0010B19EB0B0948EB4A
:100300000608ABFB027C06FB02CC0BFB03CCC01B3C
:1003100071EB0C01C1E70B46024641464846BDE879
:10032000F08B13B5084318BF4FF0FF300146AFF311
:100330000080BDE81C4070470FB41CB5074B06AAEF
:100340007B4469460090059800F093F900206946C7
:1003500000F0A2F91CBC5DF814FB0000550300007E
:1003600070B5044685690068C10601D5302600E0F5
:100370002026C00707D070BDD4E901213046904740
:10038000206A401C20626D1EF6D570BD70B5044613
:1003900085690078C00707D170BDD4E9012120200C
:1003A0009047206A401C20626D1EF6D570BD00008B
:1003B0002DE9F0410646002410687529314616A53E
:1003C00010D0AFF30080002802DA404213A507E006
:1003D00031688A0701D512A502E0490704D511A5A5
:1003E000012401E0AFF3008000210A2206F1240776
:1003F00009E0B0FBF2FCB0FBF2F302FB1C00303072
:1004000078541846491C0028F3D123462A46304622
:10041000BDE8F04100F0CEB8000000002D00000063
:100420002B000000200000002DE9F05F8946044603
:100430004FF0000ADFF824B1FB44C0F820A02046AA
:10044000E168884700287DD0252806D0D4E901211D
:100450009047206A401C2062F1E700255F46204655
:10046000E16888472028064607DB312E05D2B819F7
:1004700010F8200C08B10543F1E7A80701D525F0D5
:100480000405C4F81CA00027C4F818A02A2E09D01F
:10049000304603F0E3FA38B304EB8708303EC8F87F
:1004A000186019E059F8041B204604EB870291619B
:1004B000E1688847012F064618D1E069002820DA54
:1004C00025F020051DE0D8F8180000EB800006EBB1
:1004D00040003038C8F818002046E16888470646D2
:1004E00003F0BCFA0028EED1012F0AD02E2E08D13D
:1004F0002046E16888477F1C0646022F45F020050C
:10050000C4DBA069002803DA404245F00105A06180
:10051000E80701D025F01005A6B1A6F14100192881
:1005200002D8203645F400654A463146204625600B
:100530004D46FFF751FE60B1012807D0ED1D25F0B3
:10054000070000E007E000F1080978E705F1040979
:1005500075E730467AE7206ABDE8F09F2E36000046
:100560004FF0000200B5134694469646203922BF4C
:10057000A0E80C50A0E80C50B1F12001BFF4F7AF97
:10058000090728BFA0E80C5048BF0CC05DF804EB79
:10059000890028BF40F8042B08BF704748BF20F8E7
:1005A000022B11F0804F18BF00F8012B70477047E5
:1005B000704770472DE9F0470D469946924604462C
:1005C00000F124080168880604D5E06921F01001D3
:1005D000216000E00120A84201DD471B00E0002768
:1005E000A1697A1902EB0900081AA0612078C006F7
:1005F00002D42046FFF7B4FE002608E0D4E901212A
:100600001AF806009047206A401C761C20624E456E
:10061000F4DB2078C0060AD52046FFF7A1FE06E0ED
:10062000D4E9012130209047206A401C2062381E06
:10063000A7F10107F4DC07E0D4E9012118F805006F
:100640009047206A401C2062281EA5F10105F3DCBA
:100650002046FFF79BFE2078000602D50220BDE869
:10066000F0870120FBE7000001694A1C026108785D
:10067000704700B58FB0CDE90131002105910549E2
:100680007944CDE9031011466846FFF7CDFE0FB05F
:1006900000BD0000E5FFFFFF0A6802F8010B0A60D9
:1006A0007047754600F02CF8AE4605006946534683
:1006B00020F00700854618B020B5FFF7B3FDBDE870
:1006C00020404FF000064FF000074FF000084FF0B9
:1006D000000BAC46ACE8C009ACE8C009ACE8C00906
:1006E000ACE8C00921F007018D46704710B50446FB
:1006F000AFF300802046BDE81040FFF77FBD00004B
:10070000004870471000002001491820ABBEFEE7EA
:10071000260002007047000002F0ACBCFEE70000BB
:100720007047000080B584B002460120CDE900107A
:1007300040F27C004FF0640CC2F20000A0210123C3
:10074000CDF808C000F028FB04B080BD80B584B0AF
:1007500002468DF80F1001200DF10F01CDE90010B8
:1007600040F27C004FF0640CC2F20000A021012393
:10077000CDF808C000F080FC04B080BDEFF310801D
:1007800072B600BFFEE70000002804BF01207047DA
:1007900090F8251002292DD180B50168D0E910CE3E
:1007A000826C0B6823F00E030B60136823F48073D4
:1007B00013600A6822F001020A600EF01C02012197
:1007C00001FA02F2CCF80420D0E913325A60426DEB
:1007D00032B1136823F480731360D0E91623536099
:1007E00080F825100021BDE88040002280F82420F8
:1007F000084670470421C1630121002280F82420AB
:100800000846704790F82510022931D180B501685B
:10081000D0E910CE826C0B6823F00E030B600B68DE
:1008200023F001030B60116821F4807111600EF058
:100830001C02012101FA02F2CCF80420D0E91332A3
:100840005A60426D32B1136823F480731360D0E9AB
:100850001623536080F82510826B002180F8241045
:100860000AB190470021BDE880400846704700BFAC
:100870000421C16301207047B0B5044600F0EEF8D2
:10088000054640F20000C2F200000078611C18BF6B
:10089000044400BF00F0E2F8401BA042FAD3B0BD10
:1008A0002DE9F04F81B00E68002E00F0C78040F6B1
:1008B0000003C4F6000398424FF007024FF0000B0C
:1008C0004FF001034FF000074FF0000508BF022270
:1008D000009250E040F20042C4F60002DDF800E071
:1008E000904208BF4FF0010E0BF00C06072303FAED
:1008F00006F42CEA04040EFA06F60823AA08264396
:10090000C4F2010340F6000C43F82260C5F6000C67
:10091000DCF800204E6842EA0804F30258BF22EADD
:100920000804CCF80040DCF80420B40242EA0803D2
:1009300058BF22EA0803CCF80430DCF88020F40326
:1009400042EA080358BF22EA0803CCF88030DCF8FA
:100950008420B60342EA080358BF22EA0803CCF811
:10096000843001230E68013536FA05F207F10207DB
:100970000BF1040B62D003FA05FE16EA0E08F1D063
:10098000D1F804A003220AF0030CACF1010402FA2E
:1009900007F6012C6FEA060910D88468CE6804EACD
:1009A0000904BE4034438460446824EA0E06CAF356
:1009B0000014AC402643466006E000BFBCF1030FC4
:1009C00002D14FF0030C21E0C6688C6806EA0906E4
:1009D000BC402643BCF1020FC66017D16FF0030282
:1009E00002EA550606440BF01C020F24D6F820C07C
:1009F00004FA02FE0C692CEA0E0C04FA02F242EA36
:100A00000C023262D1F804A00AF0030C02680CFA5E
:100A100007F602EA090232431AF4403F0260A1D00D
:100A2000082325F00302C4F2010352F803C0B0F119
:100A3000904F7FF44FAF4FF0000E55E701B0BDE887
:100A4000F08F00000069084018BF012070470000C7
:100A50001823002A08BF2823C150704740F26410B1
:100A6000C2F200000068704790F84120202A03D1AC
:100A700090F84020012A01D102207047242280F8FA
:100A800041200268136823F001031360136823F404
:100A900080531360136819431160116841F001011C
:100AA0001160202180F84110002180F84010084694
:100AB0007047000090F84120202A03D190F8402090
:100AC000012A01D102207047242280F841200268C7
:100AD000136823F001031360136823F4706343EA7F
:100AE00001211160116841F001011160202180F89D
:100AF0004110002180F8401008467047002804BFCC
:100B00000120704710B5044690F8410028B9002034
:100B100084F84000204600F003FC242084F84100C3
:100B200094E80910E2680168012A21F001010160DE
:100B300023F070610161816821F40041816003D17B
:100B40004CF40041816007E04CF40441022A8160CA
:100B500004BF4FF400614160416804F1100C41F0A2
:100B6000007141F400414160C16821F40041C1605D
:100B70009CE80E10114341EA0321C160216A41EA59
:100B80000C010160016841F0010101600020202199
:100B9000606484F84110206384F8420010BD0000B6
:100BA0002DE9F04F81B0044690F84100202803D190
:100BB00094F84000012803D1022001B0BDE8F08F75
:100BC00001201F461646884684F84000FFF746FF7E
:100BD000216805468A6912040AD500BFFFF73EFF67
:100BE000401B192800F2C880216888690004F5D4E8
:100BF000212084F84100102084F842000020606425
:100C0000666267856063608D49F6000C40F20009FA
:100C1000CFF6004CC0F2FF19B0F5807F6FF39F282C
:100C20000AD30B4653F8040F09F5005600EA0C07E7
:100C3000FF2240460BE000BF628D0B4653F8046F65
:100C4000D0B248EA004706EA0C0009F5903638436E
:100C5000304318602285608D0A9F00285CD007F120
:100C6000010B4FF0FF0A0CF5806611E0628D08461B
:100C7000228550F8043FD2B2334043EA02424FF09B
:100C8000007342EA08021A430260608D002843D0D4
:100C9000204639462A4602F04DF8002857D1606AAE
:100CA000216810F8012B8A626062608D01386085CE
:100CB000208D01382085628D002AE6D00004E4D121
:100CC000886900060ED4BBF1000F17D0002F51D059
:100CD000FFF7C4FE401BB8424ED821688869000661
:100CE000F6D500BF608DB0F5807FBFD3A4F828A0F3
:100CF000084650F8042F4B463240C2E78869000688
:100D0000F0D4886900065CBF88695FEA0060E9D4B6
:100D100088690006F2D5E5E787B100BF21688869D8
:100D2000800619D4204639462A4601F01FFF70B9C3
:100D3000FFF794FE401BB842F0D91DE08869800699
:100D40000AD4204600212A4601F010FF90B101206C
:100D500001B0BDE8F08F00BF2020C8614A684EF6A0
:100D60000003CFF600631A404A6084F84100002077
:100D70000AE000BFFFF772FE606C40F02000606484
:100D8000202084F841000120002184F8421084F8DA
:100D9000401001B0BDE8F08F2DE9F04F81B004465E
:100DA00090F8410020280DD1DDF828A0BAF1000FFD
:100DB0000CD0DDF82C80B8F1000F07D094F840007B
:100DC00001280BD1022001B0BDE8F08F4FF4007074
:100DD0006064012001B0BDE8F08F00BF01201D4616
:100DE0001746894684F84000FFF738FE216806461A
:100DF0008A6912040AD500BFFFF730FE801B19284C
:100E000000F22A81216888690004F5D422200C9A16
:100E100084F8410040204FF0000B84F84200C4F8F1
:100E200044B0C4F824A0A4F82A80C4F834B049F629
:100E3000000390464A68CFF600436FF39F29E8B25B
:100E400049EA00401A40104400F50050486020462E
:100E5000414632469A4601F06DFF28B184F840B011
:100E6000012001B0BDE8F08F2068012D09D0390ABA
:100E7000816220464146324601F05CFF0028EDD1F8
:100E80002068F9B281628169490613D4B8F1000F74
:100E900000F0B28018F1010122D18169490609D41C
:100EA000816949065CBF81695FEA416102D4816959
:100EB0004906F2D5618D40F2000BB1F5807FC0F29A
:100EC000FF1B13D350F8041F554601EA0A020BF525
:100ED0001053FF2115E000BF206881694906E9D45D
:100EE000FFF7BCFD801B4045F6D987E0618D50F8C7
:100EF000042FCBB202EA0A02554642EA03420BF53E
:100F000092331A4342EA090208F101074FF0FF0A3F
:100F100005F580650260218511E000BF618D2185A6
:100F200050F8042FC9B22A4042EA01414FF0007242
:100F3000114341EA09010160608D00286ED02068EC
:100F4000816949070ED4DFB3B8F1000F00F0828049
:100F5000FFF784FD801B404500F27E802068816998
:100F60004907F5D5406A616A0870606A218D0130D1
:100F70006062481E2085618D01396185618D00297F
:100F8000DAD00004D8D12068816909060CD42FB3C7
:100F9000B8F1000F5ED0FFF761FD801B40455BD8C4
:100FA000206881690906F6D5618DB1F5807FB5D3DA
:100FB000A4F828A050F8041F5A462940B8E700BFFB
:100FC00081694907CED4816949075CBF81695FEABD
:100FD0004171C7D481694907F2D5C3E78169090620
:100FE000E2D4816909065CBF81695FEA0161DBD4F3
:100FF00081690906F2D5D7E7FFF730FD606C40F054
:1010000020006064202084F84100002084F8420021
:1010100084F840B0012001B0BDE8F08F2046414681
:10102000324601F051FE00287FF4D3AE2068202123
:10103000C16142684EF60003CFF600631A40426079
:10104000002084F8411084F8420084F8400001B088
:10105000BDE8F08FFFF702FD606C40F02000606497
:10106000202084F84100002084F8420084F84000E9
:10107000012001B0BDE8F08F2DE9F04F81B00446AA
:1010800090F8410020280DD1DDF828A0BAF1000F1A
:101090000CD0DDF82C80B8F1000F07D094F8400098
:1010A00001280BD1022001B0BDE8F08F4FF4007091
:1010B0006064012001B0BDE8F08F00BF01201D4633
:1010C0001746894684F84000FFF7C8FC21680646A9
:1010D0008A6912040AD500BFFFF7C0FC801B1928DB
:1010E00000F20E81216888690004F5D421200C9A51
:1010F00084F8410040204FF0000B49F6004384F88B
:101100004200C4F844B0C4F824A0A4F82A80C4F86B
:1011100034B0CFF6004390464A689A466FF39F2951
:10112000E8B2A3F5806349EA00401A40104440F059
:10113000807040F40050486020464146324601F03D
:10114000F9FD28B184F840B0012001B0BDE8F08F6E
:101150002068012D09D0390A816220464146324675
:1011600001F0E8FD0028EDD12068F9B281628169C3
:10117000090613D4B8F1000F00F0AE8018F1010198
:1011800020D18169090609D4816909065CBF81699A
:101190005FEA016102D481690906F2D5618D40F2EE
:1011A000000BB1F5807FC0F2FF1B11D350F8041F74
:1011B0005B4601EA0A02FF2114E000BF2068816952
:1011C0000906EBD4FFF74AFC801B4045F6D985E0C1
:1011D000618D50F8042FCBB202EA0A0242EA0342C0
:1011E0004FF000731A4342EA090208F10107FF2594
:1011F0000260218512E000BF618D218550F8042F27
:10120000C9B202EA0A0242EA01414FF000721143F8
:1012100041EA09010160608D002841D02046414625
:10122000324601F087FD00287FF443AF616A2068F1
:1012300011F8012B82626162618D01396185218D16
:1012400001392185628D002AE5D00904E3D1816945
:1012500009060CD4B7B1B8F1000F4FD0FFF7FEFB71
:10126000801B40454CD8206881690906F6D5618D00
:10127000B1F5807FC0D3258550F8041F5A4601EA96
:101280000A01C4E781690906F1D4816909065CBFD6
:1012900081695FEA0161EAD481690906F2D5E6E76E
:1012A00020464146324601F00FFD00287FF401AF91
:1012B00020682021C16142684EF60003CFF600632A
:1012C0001A404260002084F8411084F8420084F8FB
:1012D000400001B0BDE8F08FFFF7C0FB606C40F04C
:1012E00020006064202084F84100002084F842003F
:1012F00084F840B0012001B0BDE8F08FFFF7AEFBED
:10130000606C40F020006064202084F841000020E0
:1013100084F8420084F84000012001B0BDE8F08F5D
:1013200010B594B00446684604303421FFF718F92C
:10133000206845F20041C4F20001884202D014B096
:1013400010BD00BF402000904FF44030059068462B
:1013500000F0D8F8002818BFFFF710FA4C24C5F6A3
:10136000000420680EA940F002002060206800F010
:1013700002000E900E98C0200E9012200F900020B8
:10138000CDE910000420129040F20040C4F60000A5
:10139000FFF786FAE06840F40010E060E06800F4CF
:1013A00000101390139814B010BD000040F200001C
:1013B00040F26411C2F20000C2F2000100780A6833
:1013C000104408607047000080B5032000F078F8F2
:1013D00000F0A4FA40F20801C2F200010860002007
:1013E00000F008F800281CBF012080BD00F026F89E
:1013F000002080BD70B540F20006C2F200063178D0
:10140000D1B1044600F08AFA31784FF47A72B2FB17
:10141000F1F1B0FBF1F000F009FF0F2C4FF00105E6
:1014200008D838B94FF0FF3021460022002500F0DF
:101430001BF87460284670BD012070BD052000F0C7
:101440003FB80000002848BF704700F01F0101228C
:1014500002FA01F11C2202EAD0004EF20012CEF292
:10146000000281507047000010B54EF60C5CCEF2C1
:10147000000CDCF80030C3F3022E8EF00704042CBD
:1014800028BF0424BEF103034FF0FF3E0EFA04F41C
:1014900038BF0023A14399400EFA03F39A43114346
:1014A00000F00F0200F160430901043A03F56443C0
:1014B0006244002848BF02F10C03197010BD0000FF
:1014C0004EF60C51CEF200010A684FF6FF031A40A7
:1014D00060F30A2242F0806040F0FD7008607047BF
:1014E00040F20040C5F60000006800F4C06070479C
:1014F00040F20040C5F60000016841F480710160CF
:1015000070470000F0B581B0044680788826C00797
:10151000C5F6000600F0AC80FFF7EAFFFFF79EFA81
:10152000054600BFD6F87803C00577D4FFF796FAD2
:10153000401B0228F6D903202168CA0700F09D80CD
:101540006268336823EA124392B21A4332608A0710
:1015500040F19680A268336823EA124392B21A439C
:1015600032608A0640F18F802269336823F4406339
:101570001A4332608A0540F18980226A33684FF647
:10158000FF7767EA02073B4043EA024232604A05BE
:1015900040F17F80626A33684FF6FF7767EA02079F
:1015A0003B4043EA024232600A0575D5A26A3368BD
:1015B0004FF6FF7767EA02073B4043EA0242326098
:1015C0004A066BD5626933686FF47F2767EA1217A2
:1015D0003B4002F47F4243EA021232600A065FD5C2
:1015E000A26933686FF47F2767EA12173B4002F461
:1015F0007F4243EA02123260CA0553D5E26933687A
:101600006FF47F2767EA12173B4002F47F4243EAF8
:1016100002123260CA0657D546E000BFB168606B5F
:1016200001F4407181421ED0B168B26821F4407368
:1016300042F48032B260B268890722F480320146F7
:10164000B260B3600FD5FFF709FA054641F288375B
:10165000B068800706D4FFF701FA401BB842F7D9FB
:1016600069E700BF616BB06820F440700843B06068
:1016700000202168CA077FF463AF8A073FF56AAF8D
:101680008A063FF571AF8A053FF577AF4A053FF50A
:1016900081AF0A053FF58AAF4A0693D40A069FD464
:1016A000CA05ABD4CA060FD5E2683368B2F5807FAD
:1016B00023F4407343EA0203336005D156F87C2CCF
:1016C00042F0807246F87C2C0A0407D5226B3368FE
:1016D00023F0404343EA020333609AB1490419D529
:1016E000E16A3268B1F1005F22F0405242EA010241
:1016F00032600FD156F87C1C41F4803146F87C1CD6
:1017000001B0F0BD56F87C2C42F0807246F87C2C7B
:101710004904E5D401B0F0BD2DE9F04381B00028C3
:1017200000F0B38044F20008C5F600080546D8F87A
:1017300000000C4600F00700884215D2D8F80000DF
:1017400020F007002043C8F80000FFF787F906469D
:10175000D8F8000000F00700A04205D0FFF77EF99E
:10176000801B0228F4D95FE0286808278107C5F6A6
:10177000000714D5A868396821F0F00108433860E3
:10178000FFF76CF9064600BF3868C00306D4FFF7C0
:1017900065F9801B0228F7D946E000BF286841069A
:1017A00017D56869D7F8001121F00F0141EA101030
:1017B000C7F80001FFF752F9064600BFD7F800014D
:1017C000C00305D4FFF74AF9801B0228F6D92BE0A5
:1017D0002868410713D5E868396821F4E0610843B7
:1017E0003860FFF73BF906463868800306D4FFF7F8
:1017F00035F9801B0228F7D916E000BF28680107D9
:1018000017D52869396821F4605141EAC000386071
:10181000FFF724F9064600BF3868400308D4FFF7F5
:101820001DF9801B0228F7D9032001B0BDE8F08321
:101830002868C0071ED1D8F8000000F00700A042B9
:1018400028D9D8F8000020F007002043C8F800008D
:10185000FFF704F9054600BFD8F8000000F00700C4
:10186000A04217D0FFF7FAF8401B02284FF0030000
:10187000F2D947E068684FF0B04138B3032845D04B
:10188000022847D10968890323D4012001B0BDE8AB
:10189000F08300BF00F08CF839683C2202EA910125
:1018A00043F68822C0F60002515840F20802B0FB0D
:1018B000F1F140F20400C2F200000068C2F200023E
:1018C000116001B0BDE8F043FFF794BD09688907D6
:1018D000DBD5396821F0030108433860FFF7BEF813
:1018E000064641F2883900BF3868696800F00C008C
:1018F000B0EB810F9FD0FFF7B1F8801B48454FF048
:101900000300F1D901B0BDE8F08300BF0968890187
:10191000BBD5DEE709684905B7D5DAE780B500F041
:1019200047F80821C5F6000109683C2202EA910146
:1019300043F68822C0F600025158B0FBF1F080BD9A
:1019400080B500F035F80821C5F600010A683C238F
:1019500003EA920243F68823C0F600039A58096806
:10196000B0FBF2F043F6C822C1F30221C0F6000238
:1019700052F82110C84080BD80B500F019F8082148
:10198000C5F600010A683C2303EA920243F6882365
:10199000C0F600039A580968B0FBF2F043F6C8227B
:1019A000C1F3C221C0F6000252F82110C84080BD28
:1019B0000C21C5F6000151F8040C10F00C02086867
:1019C00005D00C2A16D100F00300012812D14FF0E7
:1019D000B040036800681B0706D400071CD4D1F888
:1019E0008800C0F3032022E000071BD4D1F8880050
:1019F00015E000BF42F20040042AC0F2F40022D0F9
:101A0000082A1FD14FF0B0421268D2025CBF44F6E0
:101A10000000C0F2E81016E04FF0B040006800206F
:101A200005E000BF4FF0B0400068C0F3031043F67C
:101A3000E823C0F6000353F82030002A184618BFE8
:101A4000002001E00020002351F8042C02F00C02D9
:101A50000C2A18BF7047086800F0030242F20040E9
:101A6000022AC0F2F4000AD0032A09D14FF0B04292
:101A70001268D2025CBF44F60000C0F2E8100346D0
:101A800008680A68C0F30620C2F302125843013204
:101A90000968B0FBF2F0012202EB5171B0FBF1F0EA
:101AA00070470000002804BF012070472DE9F04F67
:101AB00081B040F2900B0446C5F6000B5BF8880C31
:101AC0005BF8841C227800F00C08900601F0030AF1
:101AD00026D42078C00759D0B8F1080F52D0B8F1F9
:101AE0000C0F08BFBAF1030F4CD04FF0B0400268A2
:101AF000D4E9011322F480121A43B1F5803F026049
:101B000009D0B1F5041F40F035824FF0B0410A68AA
:101B100042F400120A60016841F48031016036E24B
:101B2000B8F1000F1ED0B8F10C0F08BFBAF1010FC9
:101B300018D0216A4FF0B0463068002900F0688163
:101B400040F001003060FEF789FF054630688007ED
:101B500000F18681FEF782FF401B02284FF0030050
:101B6000F4D95FE3206A002800F0BC824FF0B04156
:101B7000A06A0A68120700F1D380DBF80410090993
:101B8000CFE000BF6068002800F0AC8220788007BA
:101B90002FD5B8F1040F1FD0B8F10C0F08BFBAF160
:101BA000020F19D021694FF0B0463068002900F0CB
:101BB000FF8140F480703060FEF750FF054600BFA3
:101BC000306840050CD4FEF749FF401B02284FF057
:101BD0000300F5D926E300BF2069002800F08282C7
:101BE00060695BF88C1C21F0FE4141EA00604BF813
:101BF0008C0C2078000729D42078400752D4E56A5D
:101C0000002D00F0AC82B8F10C0F40F03F81012DA7
:101C100000F068825BF8840C216B00F003028A42BA
:101C200040F06082616B00F070028A4240F05A829C
:101C3000A16B00F4FE42B2EB012F40F05382616CC5
:101C400000F06040884200F08A824BE2A069DBF835
:101C50000410002800F0EE80E06901F010029042CC
:101C600000F0CA8201F00302022A00F03B82C90799
:101C700000F0BB82DBF8040020F00100CBF8040088
:101C8000FEF7ECFE054600BFDBF80400800740F1DC
:101C9000AB82FEF7E3FE401B11284FF00300F3D99F
:101CA000C0E200BFDBF87003C00511D4FFF720FCD1
:101CB000FEF7D4FE054600BFDBF87003C00507D46D
:101CC000FEF7CCFE401B02284FF00300F4D9A9E236
:101CD000E068002800F07E81852801D0052805D124
:101CE000DBF8000040F00400CBF80000FEF7B6FE81
:101CF000DBF80010054641F0010041F28836CBF8D0
:101D0000000000BFDBF80000800700F11381FEF740
:101D1000A5FE401BB0424FF00300F3D982E200BFA2
:101D2000096801F0F00143F688298842C0F60009ED
:101D30002CD93C2101EA900043F6E821C0F60001CD
:101D40000858DBF8781001F00F0159F82110B0FBAA
:101D5000F1F5FFF7C5FBB0F5007F40F0BB804EF614
:101D6000BF20C0F22110854240F2E08049F23F30AE
:101D7000C0F23420854240F247814AF63F60C0F20B
:101D8000EB20854240F2BA80002644E14FF0B0419A
:101D90000A6842F008020A600A6822F0F002024370
:101DA0000A60616A5BF88C2C22F47F4242EA0121CE
:101DB0004BF88C1C3C2101EA900043F6E821C0F668
:101DC00000010858DBF8781001F00F0159F82110D4
:101DD000B0FBF1F5FFF784FBB0F5007F40F0908099
:101DE0004EF6BF20C0F22110854240F2A18049F298
:101DF0003F30C0F23420854240F256814AF63F60BF
:101E0000C0F2EB20854240F28F80002653E100BFF4
:101E100020F001003060FEF721FE054630688007A3
:101E20007FF557AEFEF71AFE401B02284FF0030065
:101E3000F4D9F7E121F00100CBF80400FEF70EFE23
:101E4000054600BFDBF8040080077FF5D5AEFEF73E
:101E500005FE401B11284FF00300F3D9E2E100BF5B
:101E60004FF0B040016841F0080101600168D4E919
:101E7000092321F0F001194301605BF88C0C20F478
:101E80007F4040EA02204BF88C0C22E64FF0B0462F
:101E9000306820F080703060FEF7E0FD022D0546CE
:101EA0000CD100BF3068800140F12081FEF7D6FDE3
:101EB000401B0A284FF00300F4D9B3E130688001D9
:101EC00040F14481FEF7CAFD401B0A284FF0030091
:101ED000F4D9A7E14CF6BF70C0F26A00854225D95B
:101EE00045F63F50C0F2C600854240F28D8046F272
:101EF0003F60C0F2031085423FF646AF022084E007
:101F00004CF6BF70C0F26A00854211D945F63F50C9
:101F1000C0F2C600854240F2C78046F23F60C0F280
:101F2000031085423FF671AF0220BEE000206CE056
:101F30000020BAE0E06840F00400852840F01481F9
:101F4000FEF78CFDDBF80010054641F0800041F201
:101F50008836CBF8000000BFDBF8000000053FF535
:101F60004EAEFEF77BFD401BB0424FF00300F3D9AD
:101F700058E100BF4FF0B0463068002920F48030AF
:101F80003060306820F40010306000F01D81FEF7F2
:101F900065FD05464FF0B046306880033FF5F6AD6D
:101FA000FEF75CFD401B64284FF00300F4D939E1D3
:101FB00020F480703060FEF751FD05463068400522
:101FC0007FF517AEFEF74AFD401B02284FF00300D5
:101FD000F4D927E1FEF742FDDBF80010064621F0B8
:101FE000800041F28837CBF8000000BFDBF80050DA
:101FF000FEF734FD2905054640F1D080A81BB84204
:102000004FF00300F2D90DE1012043F67C21C0F628
:10201000000151F8206044F20007C5F60007386857
:1020200020F0070030433860FEF718FD054600BF7A
:10203000386800F00700B04206D0FEF70FFD401BE5
:102040000228F5D94EE000BF4FF0B040016841F0E2
:10205000080101600168D4E9092321F0F001194366
:1020600001605BF88C0C20F47F4040EA02204BF8C2
:102070008C0CFFF79DFC5BF8881C3C2202EA910166
:1020800059F8011040F20802B0FBF1F140F20400EF
:10209000C2F200000068C2F200021160FFF7AAF964
:1020A000002840F0BF8014E5012043F67C21C0F6F3
:1020B000000151F8206044F20007C5F600073868B7
:1020C00020F0070030433860FEF7C8FC054600BF2B
:1020D000386800F00700B042CBD0FEF7BFFC401BD1
:1020E0000228F5D9012001B0BDE8F08F5BF8840C1F
:1020F00048F28C01C1F2C11104F1300708408ECFC3
:10210000D4E910650843104340EA032038433043C4
:1021100028434BF8840C4FF0B045286840F080709D
:1021200028605BF8840C40F080504BF8840CFEF77C
:1021300095FC04462868800111D4FEF78FFC001B33
:102140000A284FF00300F5D96CE000BF5BF8840C5F
:102150004FF6FC71CEF6FE6108404BF8840C00206F
:1021600001B0BDE8F08F00BFFEF778FCDBF800108F
:10217000054621F0800041F28836CBF8000000BF10
:10218000DBF8000000057FF53AADFEF767FC401B69
:10219000B0424FF00300F3D944E000BFDBF8000089
:1021A00041F2883620F00100CBF80000DBF8000097
:1021B00080077FF524ADFEF751FC401BB0424FF085
:1021C0000300F3D92EE000BFFEF748FC054600BF30
:1021D000306880037FF5DAACFEF740FC401B6428D2
:1021E0004FF00300F4D91DE0E069DBF8041021F0A2
:1021F00010010843CBF80400DBF8040040F00100B4
:10220000CBF80400FEF72AFC054600BFDBF804000B
:1022100080073FF5F1ACFEF721FC401B11284FF081
:102220000300F3D901B0BDE8F08F0000411E00208B
:10223000B0EB116F1CBF012070474EF21002CEF2BE
:10224000000251604EF62351CEF20001F0230B70D4
:10225000072190601160704790F88410012904BF35
:10226000022070472421C0F88810026811681368A2
:1022700023F00103136021F0005300214166136035
:102280002022C0F8882080F884100846704700009B
:10229000704700007047000090F88420012A04BFB6
:1022A00002207047B0B52422C0F888200268D0F818
:1022B00064E0D2F800C01368BEF1000F23F0010300
:1022C0001360936823F0606341EA0301916019D0C1
:1022D0009368916843F6503E490FC0F6000E43F6EE
:1022E00058351EF80140C0F60005695CC3F342632F
:1022F000E400B4FBF1F11EF80340EB5CE500B5FB34
:10230000F3F301E001210123A0F86A102021A0F8D5
:102310006830C2F800C0C0F88810002180F884102E
:10232000BDE8B0400846704790F88420012A04BFF9
:1023300002207047B0B52422C0F888200268D0F887
:1023400064E0D2F800C01368BEF1000F23F001036F
:102350001360936823F0604341EA0301916019D050
:102360009368916843F6503E490FC0F6000E43F65D
:1023700058351EF80140C0F60005695CC3F342639E
:10238000E400B4FBF1F11EF80340EB5CE500B5FBA3
:10239000F3F301E001210123A0F86A102021A0F845
:1023A0006830C2F800C0C0F88810002180F884109E
:1023B000BDE8B04008467047704700007047000015
:1023C0007047000070B5016840F62F03CA690446E3
:1023D00008688E681340202B0CD100F0200306F013
:1023E00080555B1917D0616F69B32046BDE8704016
:1023F000084700BF40F60F031A420CD00123C1F278
:10240000000306EA030C40F22013C0F2004303402D
:1024100013EB0C0328D1E36ED50615D5012B13D190
:1024200010F0100310D0102008628868400627D4EE
:10243000B4F85C00B4F85E10B4F85E20002A18BF4F
:10244000884240F03F8270BDD30240F1D58016F43F
:10245000800300F0D1804FF4801220460A62BDE86C
:102460007040FFF7ABBF00BFD30718BF10F48073F5
:1024700040F00C81930706F0010E00F113811CE17E
:10248000D4F88000006841688AB2002ADBD0B4F832
:102490005C309A42D7D2A4F85E100068800600F142
:1024A0009E80206850E8000F216820F4807041E889
:1024B0000002DAB1206850E8000F216820F4807033
:1024C00041E8000292B1206850E8000F216820F432
:1024D000807041E800024AB1206850E8000F21688E
:1024E00020F4807041E80002002ADAD1206850E828
:1024F000020F216820F0010041E80202BAB320680F
:1025000050E8020F216820F0010041E8020272B396
:10251000206850E8020F216820F0010041E8020223
:102520002AB3206850E8020F216820F0010041E83A
:102530000202002ADAD11AE0206850E8020F21686E
:1025400020F0400041E80202DAB1206850E8020FB2
:10255000216820F0400041E8020292B1206850E872
:10256000020F216820F0400041E802024AB12068D1
:1025700050E8020F216820F0400041E80202002AE2
:10258000DAD12020C4F88C000020E066206850E8F2
:10259000000F216820F0100041E80002DAB1206845
:1025A00050E8000F216820F0100041E8000292B1CD
:1025B000206850E8000F216820F0100041E8000278
:1025C0004AB1206850E8000F216820F0100041E86F
:1025D0000002002ADAD1D4F88000FEF7D5F80220F4
:1025E0002067B4F85C00B4F85E10401A81B220464F
:1025F000BDE87040FFF74CBE110606D500F0800123
:1026000006F40003C91840F0DF81510632D510F0FE
:1026100040012FD0206850E8000F216820F04000D2
:1026200041E80002DAB1206850E8000F216820F08C
:10263000400041E8000292B1206850E8000F216894
:1026400020F0400041E800024AB1206850E8000F45
:10265000216820F0400041E80002002ADAD1202061
:102660000021C4F888002046A167BDE8704000F052
:1026700079BA00BF110240F1B38110F0804100F03F
:10268000AF812046BDE87040FFF796BE01230B6284
:10269000D4F8903043F00103C4F89030930706F06B
:1026A000010E0AD5BEF1000F07D002230B62D4F849
:1026B000903043F00403C4F8903053070AD5BEF1BC
:1026C000000F07D004230B62D4F8903043F00203CC
:1026D000C4F8903013070CD500F0200353EA0C0324
:1026E00007D008230B62D4F8903043F00803C4F8F5
:1026F000903013050BD510F0806308D04FF40063C1
:102700000B62D4F8903043F02003C4F89030D4F832
:102710009030002B3FF497AE92060AD500F02000CF
:1027200006F08052801804D0626F12B120469047A4
:102730002168D4F89000896800F0280001F0400179
:10274000401807D12046FFF73BFE0020C4F8900058
:1027500070BD00BF206850E8000F216820F4907021
:1027600041E80002DAB1206850E8000F216820F447
:10277000907041E8000292B1206850E8000F216893
:1027800020F4907041E800024AB1206850E8000F40
:10279000216820F4907041E80002002ADAD14FF657
:1027A000FE70CEF6FF7000BF216851E8021F22685C
:1027B000014042E80213C3B1216851E8021F2268B8
:1027C000014042E8021383B1216851E8021F2268E8
:1027D000014042E8021343B1216851E8021F226818
:1027E000014042E80213002BDED1E06E012824D123
:1027F000206850E8000F216820F0100041E8000236
:10280000DAB1206850E8000F216820F0100041E89C
:10281000000292B1206850E8000F216820F01000FB
:1028200041E800024AB1206850E8000F216820F01A
:10283000100041E80002002ADAD12020C4F88C0000
:102840000020E066216860678868400640F1C28029
:10285000206850E8020F216820F0400041E80202A1
:10286000DAB1206850E8020F216820F0400041E80A
:10287000020292B1206850E8020F216820F0400067
:1028800041E802024AB1206850E8020F216820F0B6
:10289000400041E80202002ADAD1D4F88000002882
:1028A00000F0988043F2E941C0F600018163FDF732
:1028B000A9FF00283FF4C7ADD4F88000816BBDE8C4
:1028C00070400847401A00BF216851E8001F226885
:1028D00021F4907142E80013DBB1216851E8001F38
:1028E000226821F4907142E8001393B1216851E805
:1028F000001F226821F4907142E800134BB1216857
:1029000051E8001F226821F4907142E80013002B67
:10291000DAD14FF6FE71CEF6FF7100BF226852E8A1
:10292000022F23680A4043E80226C6B1226852E813
:10293000022F23680A4043E8022686B1226852E843
:10294000022F23680A4043E8022646B1226852E873
:10295000022F23680A4043E80226002EDED1202100
:10296000C4F88C100021E166616700BF216851E85E
:10297000001F226821F0100142E80013DBB121683A
:1029800051E8001F226821F0100142E8001393B1C2
:10299000216851E8001F226821F0100142E800136D
:1029A0004BB1216851E8001F226821F0100142E874
:1029B0000013002BDAD1022281B220462267BDE843
:1029C0007040FFF765BC00BFA16F00297FF40DAD1B
:1029D00039E500BF2046BDE87040FFF7F1BC00BFFD
:1029E000D1017FF530ADB0F1FF3FC8BF70BD2046CB
:1029F000BDE87040FFF74EBC002804BF01207047BF
:102A0000B0B582B00446D0F8880028B9002084F818
:102A10008400204600F05CF82420C4F88800206878
:102A2000016821F001010160204600F065FD18B148
:102A3000012002B0B0BD00BFA06A10B1204600F076
:102A4000DDFC2068416821F490414160816821F0FB
:102A50002A018160016841F0010101600020C4F891
:102A60009000FDF7FBFF216805460A68120710D5A4
:102A70006FF07E4C20464FF4001100222B46CDF81B
:102A800000C000F06FFE18B1032002B0B0BD00BF5F
:102A90002168086840070FD56FF07E4C20464FF440
:102AA000800100222B46CDF800C000F05BFE18B17B
:102AB000032002B0B0BD00BF2020C4F88800C4F8D5
:102AC0008C000020E066206784F8840002B0B0BD6E
:102AD00010B594B0044601A804303421FDF740FD40
:102AE000206844F20041C4F20001884202D014B0D0
:102AF00010BD00BF4FF440200224039001A80194B0
:102B0000FEF700FD002818BFFDF738FE4C20C5F683
:102B10000000C16841F40031C160C16801F40031B6
:102B20000F910F99016841F00101016000680FA940
:102B300000F001000F900F980C20CDE90F04002049
:102B4000CDE91100072013904FF09040FDF7A8FE4B
:102B5000252001210022FEF787FC2520FEF772FCCC
:102B600014B010BD70470000FEE7000070B50446C9
:102B7000006815468369DA0602D40021002266E067
:102B80000E461021C161816989065CD4711C50D048
:102B90002EBBFDF763FF2068426894F842108369FA
:102BA0001B040BD512F4804208D1202906D04168BD
:102BB00041F480414160FDF751FF0546206881697D
:102BC000890605D4FDF74AFF401B1A28F6D328E0F2
:102BD00081698906DDD536E08169890633D4FDF740
:102BE0003DFF411B2068B142F6D9426894F842107B
:102BF00083691B040CD512F4804209D1202907D027
:102C0000416841F480414160FDF728FF054600BF5F
:102C1000206881698906DFD4FDF720FF401B1A2850
:102C2000F6D3206801228169242110E08169890698
:102C300009D48169890606D4816989065CBF8169E6
:102C40005FEA8161F2D52021C161012204218369FB
:102C5000DE0505D54FF4807241F00101C261012209
:102C60005E0505D49B050AD472B9002070BD00BF73
:102C700041F008014FF480629B05C26104D541F028
:102C800002014FF40072C2618269920744BF0022C0
:102C900082628269D20703D1826942F001028261B5
:102CA00042684EF60003CFF600631A404260606C43
:102CB00008436064202084F84100002084F842002A
:102CC00084F84000012070BD70B51546044689B1F6
:102CD0000E4600BF20688069800619D42046314620
:102CE0002A46FFF743FF88B9FDF7B8FE401BB04204
:102CF000F0D911E020688069800644BF002070BDD3
:102D0000204600212A46FFF731FF18B1012070BD8F
:102D1000002070BDFDF7A2FE606C40F020006064F2
:102D2000202084F84100002084F8420084F840000C
:102D3000012070BD70B5044600688069800710D41A
:102D400015460E4611B3701C17D100BF20464FF038
:102D5000FF312A46FFF70AFFF0B920688069800733
:102D6000F4D5002070BD00BFFDF778FE401BB042D7
:102D700016D8206880698007F3D4204631462A4659
:102D8000FFF7F4FE0028EFD006E000BF2046002148
:102D90002A46FFF7EBFE08B1012070BDFDF75EFE8D
:102DA000606C40F020006064202084F84100002026
:102DB00084F8420084F84000012070BD10B540F254
:102DC0007004C2F20004E0780A2833D30020E070D7
:102DD0004FF090404FF48071FDF734FE60B140F247
:102DE0000040C4F600004FF48071FDF72BFEB0FAEE
:102DF00080F04009400000E00120A27AA07220EAA1
:102E00000201824302292172627207D0012911D185
:102E1000207803280ED240F2012106E02078022813
:102E200088BF10BD0221C0F20101C000C0B221FA6A
:102E300000F0207010BD00002DE9F04186B00026A2
:102E40004C200496C5F60000016840F2004441F0B1
:102E5000020101600168C4F6000401F0020105915D
:102E600005990168012241F001010160006841F209
:102E7000240100F0010005900598204641F2240548
:102E80004FF00108FDF7E4FDCDE900586D462046FE
:102E90002946CDE90266FDF703FD4FF48077204611
:102EA0002946CDE90076CDF80880FDF7F9FC4FF012
:102EB00090402946CDE90076CDF80880FDF7F0FC7A
:102EC00006B0BDE8F081000080B540F27C0045F21C
:102ED0000041C2F20000C4F2000140F61A120023C1
:102EE000C2F210024FF0010C80E80E10C0E904336A
:102EF000C0E906330362FDF701FE002818BFFDF7A5
:102F00003DFC40F27C00C2F200000021FDF7ACFD68
:102F1000002818BFFDF732FC40F27C00C2F200002E
:102F20000021FDF7C7FD002808BF80BDBDE8804037
:102F3000FDF724BC80B540F2D00044F20041C2F25B
:102F40000000C4F2000100234FF00C0C4FF41652A5
:102F500080E80E00C0E90333C0E905C3C0E90733C8
:102F6000C0E90933FFF748FD002818BFFDF706FC4C
:102F700040F2D000C2F200000021FFF7D5F900288E
:102F800018BFFDF7FBFB40F2D000C2F200000021A9
:102F9000FFF782F9002818BFFDF7F0FB40F2D000E0
:102FA000C2F20000FFF758F9002808BF80BDBDE855
:102FB0008040FDF7E3BB0000FEE70000FEE70000F5
:102FC00010B500200021002400F0E2F900201021BB
:102FD00000F0DEF90020B02100F0DAF940200021F5
:102FE00000F0D6F9601C44B2B4F1FF3FF6DC0020DB
:102FF0000021002400F0CCF90020102100F0C8F9D5
:103000000020B12100F0C4F94020002100F0C0F9F7
:10301000601C44B2B4F1FF3FF6DC00200021002424
:1030200000F0B6F90020102100F0B2F90020B22122
:1030300000F0AEF94020002100F0AAF9601C44B273
:10304000B4F1FF3FF6DC00200021002400F0A0F9DD
:103050000020102100F09CF90020B32100F098F925
:103060004020002100F094F9601C44B2B4F1FF3F0D
:10307000F6DC10BD80B56420FDF7FEFB0020AE211C
:1030800000F086F90020D52100F082F9002080218F
:1030900000F07EF90020A82100F07AF900201F211D
:1030A00000F076F90020D32100F072F90020002111
:1030B00000F06EF90020402100F06AF900208D2117
:1030C00000F066F90020142100F062F90020A1212F
:1030D00000F05EF90020C82100F05AF90020DA2142
:1030E00000F056F90020002100F052F90020812163
:1030F00000F04EF900208F2100F04AF90020D9217C
:1031000000F046F900201F2100F042F90020DB21E9
:1031100000F03EF90020402100F03AF90020A421FF
:1031200000F036F9FFF74CFF0020AF2100F030F936
:103130006420BDE88040FDF79FBB000010B58AB059
:1031400040F27004C2F2000421790020C829CDE9C0
:103150000800CDE90600CDE90400CDE902000190A8
:1031600000903FD321782071022923D0012917D064
:1031700061BB607818B100206070FFF721FF44F652
:103180005240C0F24400079045F64F70C4F65770A5
:10319000069044F24850C4F64C40059016E000BF3B
:1031A0006078012803D001206070FFF709FFE288F2
:1031B00010A108E06078022803D002206070FFF7B9
:1031C000FFFEA27808A105A8FDF7B6F805AA002021
:1031D0000021102300F0BCF86A46002002211023D1
:1031E00000F0B6F80AB010BD4B45593A25303364AB
:1031F0000000000054696D653A2530356400000018
:103200002DE9F0471E4643B223EAE375C0F3C01030
:1032100005F00F0801EB400A00204146A2F120040E
:1032200000F0B6F8102040EA15150020294600F0FD
:10323000AFF8AAF15000C1B2002000F0A9F8102E9A
:10324000E0B25DD143F688520101C0F60002515C44
:1032500002EB0014402000F09BF86178A678E77834
:1032600094F80490402000F093F84020314600F09C
:103270008FF84020394600F08BF84020494600F096
:1032800087F86179402000F083F8A179402000F0B0
:103290007FF8E179402000F07BF80020414600F003
:1032A00077F8E9B2002000F073F8AAF14F00C1B23C
:1032B000002000F06DF8217A402000F069F8617A72
:1032C000402000F065F8A17A402000F061F8E17A32
:1032D000402000F05DF8217B402000F059F8617B30
:1032E000402000F055F8A17B402000F051F804F197
:1032F0000F0001784020BDE8F04700F049B800BF5A
:1033000043F6603200EB4000C0F6000212F81010E5
:1033100002EB4007402000F03BF87978BC78FD785C
:103320003E79402000F034F84020214600F030F88B
:103330004020294600F02CF84020314600F028F8C3
:10334000781D01784020BDE8F04700F021B800006A
:103350002DE9F04115461278002A08BFBDE8F0813A
:1033600098460E4607460024F8B2F1B2D2B2434660
:10337000FFF746FF0837F8B201347828E0B288BF7B
:1033800002362A5C88BF0027002AEDD1BDE8F08113
:1033900080B582B08DF8060040F27C008DF80710F1
:1033A0004FF00A0CC2F200000DF106027821022350
:1033B000CDF800C0FDF7F4FB02B080BD70470000FF
:1033C0007047000080B5FDF7F1FF40F27300C2F2D4
:1033D0000000017809299CBF013101704178C7299B
:1033E0009CBF0131417040F27600C2F200000188BA
:1033F0000131018080BD000070470000816ACA076A
:103400000ED18A0717D44A0720D40A0729D4CA063E
:1034100032D48A063BD480B54A0644D458E000BF73
:103420000268D0F82CC0536823F4003343EA0C033D
:1034300053608A07E7D50268D0F830C0536823F498
:10344000803343EA0C0353604A07DED50268D0F8A4
:1034500034C0536823F4802343EA0C0353600A0703
:10346000D5D50268D0F838C0536823F4004343EA46
:103470000C035360CA06CCD50268D0F83CC09368F0
:1034800023F4805343EA0C0393608A06C3D5026891
:10349000D0F840C0936823F4005343EA0C039360D0
:1034A00080B54A0614D50268D0F844C05368BCF50C
:1034B000801F23F4801343EA0C03536008D1D2F831
:1034C00004C0D0F848E02CF4C00343EA0E03536074
:1034D000090658BF80BD0168C06C4A6822F400220A
:1034E0001043486080BD0000806A0021A0F85E1093
:1034F000A0F85610FEF764BFB0B5054605F1080404
:103500001ECC0068194341EA0403D5F81CE00468A6
:1035100046F6F311CCF6FF712140194341EA0E0142
:103520000160416848F2000321F4405111434160B9
:10353000AA69C4F2000398421CBF296A0A43816841
:103540004FF2FF44C1F2FF14214011438160C16A70
:10355000D5F824C044F2004221F00F01C4F2000269
:1035600041EA0C019042C16210D098421AD043F651
:103570000001C4F2010188424ED18821C5F6000144
:10358000096874A201F0030116E000BF8821C5F6A6
:103590000001096843F6403201F00C01C0F6000258
:1035A0000A440BE08821C5F60001096843F6403261
:1035B000C1F38121C0F6000202EB81021268984239
:1035C00042F20040C0F2F4002DD0BEF5004F11D100
:1035D000082A4FF0010100F2B480DFE802F0056331
:1035E00071B267B2B2B26F00FEF7AAF9002840F0DC
:1035F0006180A2E0082A4FF0010100F2A280DFE81A
:1036000002F0057B87A07FA0A0A08500FEF798F9B7
:10361000002840F0788090E01022984242F200406A
:10362000C0F2F400D1D1082A4FF0010100F28980E4
:10363000DFE802F0068714870A878787120000BF39
:10364000FEF77EF920B978E0FEF7B2F9002874D0D1
:10365000D5F824C002E000BF4FF4004043F6283103
:10366000C0F6000131F81C106A68B0FBF1F002EB03
:10367000420188424FF0010163D31303984260D89E
:10368000010E000210EB520041F100010023FCF793
:10369000DBFD4FF60052A0F54071C0F20F029142DF
:1036A00049D34DE0FEF768F920B946E0FEF780F90E
:1036B000002842D0D5F824C002E000BF4FF40040FB
:1036C00043F62831C0F6000131F81C106A68B0FBDF
:1036D000F1F0510801EB4000B0FBF2F04FF6EF7251
:1036E000A0F1100191422BD84FF6F0710140C0F3C8
:1036F000420008441FE000BFFEF73EF918B91CE085
:10370000FEF756F9C8B1D5F824C001E04FF40040E7
:1037100043F62831C0F6000131F81C104FF6EF7265
:10372000B0FBF1F0696800EB5100B0FBF1F0A0F1E3
:103730001001914204D82968C860002101E000BF4F
:1037400001214FF00110A866002208466A67AA67A7
:10375000B0BD00BF01000000040000000200000036
:10376000080000002DE9F041044600681546C269D2
:103770000E461140891BB1FA81F14909A94240F076
:103780009E80DDF81880B8F1000F27D018F10101F4
:1037900040F07E80C1693140891BB1FA81F149094D
:1037A000A94240F08C80C1693140891BB1FA81F196
:1037B0004909A94240F08380C1693140891BB1FAAF
:1037C00081F14909A9427AD1C1693140891BB1FA15
:1037D00081F14909A942DDD071E000BFFDF73EF952
:1037E000206850E8000F216820F4D07041E8000202
:1037F000BAB3206850E8000F216820F4D07041E887
:10380000000272B3206850E8000F216820F4D070E5
:1038100041E800022AB3206850E8000F216820F434
:10382000D07041E80002002ADAD11AE0206850E89E
:10383000020F216820F0010041E80202DAB120689D
:1038400050E8020F216820F0010041E8020292B125
:10385000206850E8020F216820F0010041E80202D0
:103860004AB1206850E8020F216820F0010041E8C9
:103870000202002ADAD12020C4F8880004F18C006A
:1038800020210160002084F884000320BDE8F0813D
:103890001F4600BFFDF7E2F8C01B4045A0D82068D6
:1038A0000168490744BFC1695FEA01510AD4C06990
:1038B0003040801BB0FA80F04009A842EAD00020D6
:1038C000BDE8F0814FF40061016200BF206850E85C
:1038D000000F216820F4D07041E80002BAB32068DC
:1038E00050E8000F216820F4D07041E8000272B364
:1038F000206850E8000F216820F4D07041E80002F1
:103900002AB3206850E8000F216820F4D07041E805
:103910000002002ADAD11AE0206850E8020F21687C
:1039200020F0010041E80202DAB1206850E8020FFD
:10393000216820F0010041E8020292B1206850E8BD
:10394000020F216820F0010041E802024AB120681C
:1039500050E8020F216820F0010041E80202002A2D
:10396000DAD12020C4F88800C4F88C0004F190005B
:1039700086E7000040F2D000C2F20000FEF722BD50
:10398000FEE7000098B0FDF71FFD06AC201D4421A6
:10399000FCF7E6FD40F20040C5F600000168012298
:1039A00062F34A2101600068002500F4C0600090C5
:1039B000009820200690B020CDE9100520460E92F8
:1039C0000F95FEF76FF828B1EFF3108072B600BFC5
:1039D000FEE700BF4F20CDE9000568460221CDE992
:1039E0000255CDE90455FDF797FE28B1EFF310809D
:1039F00072B600BFFEE700BFFFF71EFAFFF764FADA
:103A0000FFF798FAFCF788FE69460020FCF78AFE6B
:103A10009DF8002006AC0EA12046FCF78DFC00208E
:103A2000002122461023FFF793FC9DF8000001308F
:103A30008DF80000C1B20020FCF788FE4FF47A70C8
:103A4000FCF71AFFFFF77AFBFFF7B8F9FAE700BFB8
:103A5000454550524F4D3A253364000030380A280E
:103A600001D20120704700207047040000080000C8
:103A70000000000000020001000010000000000033
:103A8000010000000200000001000000030000002F
:103A90000500000001000000010000000600000019
:103AA0000A000000200000000200000004000000E6
:103AB000080000001000000040000000800000002E
:103AC00000010000000200000000000000000000F3
:103AD00000000000000000000100000002000000E3
:103AE0000300000004000000A0860100400D030058
:103AF000801A060000350C0040420F0080841E0032
:103B000000093D0000127A000024F40000366E0126
:103B10000048E801006CDC0200000000000000002A
:103B20000000000000000000010002000400060088
:103B300008000A000C001000200040008000000176
:103B40000000000004000000020000000800000067
:103B5000010101030701000008040204080101013A
:103B60000000000000000000002F0000000007001F
:103B7000070000147F147F1400242A7F2A12006299
:103B80006408132300364955225000000503000045
:103B900000001C224100000041221C000014083ECD
:103BA00008140008083E0808000000A06000000893
:103BB00008080808000060600000002010080402E7
:103BC000003E5149453E0000427F400000426151A5
:103BD0004946002141454B31001814127F1000273F
:103BE00045454539003C4A49493000017109050302
:103BF00000364949493600064949291E0000363633
:103C00000000000056360000000814224100001495
:103C10001414141400004122140800020151090672
:103C200000324959513E007C1211127C007F4949F3
:103C30004936003E41414122007F4141221C007F24
:103C400049494941007F09090901003E4149497A32
:103C5000007F0808087F0000417F410000204041AC
:103C60003F01007F08142241007F40404040007F18
:103C7000020C027F007F0408107F003E4141413E5C
:103C8000007F09090906003E4151215E007F0919A4
:103C900029460046494949310001017F0101003FA1
:103CA0004040403F001F2040201F003F4038403F21
:103CB0000063140814630007087008070061514985
:103CC000454300007F41410000552A552A55000018
:103CD00041417F0000040201020400404040404096
:103CE000000001020400002054545478007F48442E
:103CF000443800384444442000384444487F003865
:103D00005454541800087E0901020018A4A4A47C8D
:103D1000007F080404780000447D40000040808457
:103D20007D00007F102844000000417F4000007C9F
:103D300004180478007C08040478003844444438AB
:103D400000FC242424180018242418FC007C0804F7
:103D5000040800485454542000043F444020003CD0
:103D60004040207C001C2040201C003C4030403C57
:103D7000004428102844001CA0A0A07C00446454E7
:103D80004C4414141414141400000000000000002B
:103D90000000000000000000000000F8000000002B
:103DA000000000333000000000100C06100C06006C
:103DB000000000000000000040C07840C0784000D3
:103DC000043F04043F040400007088FC0830000035
:103DD000001820FF211E0000F008F000E01800008D
:103DE00000211C031E211E0000F008887000000046
:103DF0001E2123241927211010160E000000000098
:103E00000000000000000000000000E018040200B4
:103E1000000000071820400000020418E000000025
:103E20000040201807000000404080F08040400023
:103E30000202010F01020200000000F00000000079
:103E40000101011F0101010000000000000000004D
:103E500080B07000000000000000000000000000C2
:103E6000000101010101010100000000000000004B
:103E700000303000000000000000000080601804E6
:103E8000006018060100000000E010080810E000C3
:103E9000000F102020100F00001010F8000000008C
:103EA0000020203F202000000070080808887000D3
:103EB0000030282422213000003008888848300053
:103EC0000018202020110E000000C02010F8000073
:103ED00000070424243F240000F80888880808000C
:103EE0000019212020110E0000E010888818000021
:103EF000000F112020110E0000380808C8380800F3
:103F00000000003F00000000007088080888700072
:103F1000001C222121221C0000E010080810E000F3
:103F20000000312222110F00000000C0C00000007C
:103F300000000030300000000000008000000000A1
:103F40000000806000000000000080402010080099
:103F50000001020408102000404040404040400062
:103F6000040404040404040000081020408000003D
:103F70000020100804020100007048080808F00042
:103F80000000003036010000C030C828E810E00012
:103F90000718272423140B000000C038E00000009D
:103FA000203C23020227382008F888888870000007
:103FB000203F202020110E00C030080808083800DB
:103FC000071820202010080008F808080810E00052
:103FD000203F202020100F0008F88888E8081000F3
:103FE000203F20202320180008F88888E8081000C7
:103FF000203F200003000000C030080808380000FF
:1040000007182020221E020008F808000008F808FF
:10401000203F210101213F20000808F80808000086
:104020000020203F2020000000000808F8080800B9
:10403000C08080807F00000008F888C02818080031
:10404000203F20012638200008F80800000000006A
:10405000203F20202020300008F8F800F8F8080061
:10406000203F003F003F200008F830C00008F8085B
:10407000203F200007183F00E01008080810E0006B
:104080000F10202020100F0008F808080808F00082
:10409000203F210101010000E01008080810E000A5
:1040A0000F18242438504F0008F88888888870003A
:1040B000203F2000030C30200070880808083800DA
:1040C0000038202121221C00180808F808081800D0
:1040D0000000203F2000000008F808000008F80851
:1040E000001F202020201F000878880000C8380802
:1040F000000007380E010000F80800F80008F8007A
:10410000033C0700073C0300081868808068180813
:1041100020302C03032C30200838C800C838080091
:104120000000203F2000000010080808C8380800E0
:104130002038262120201800000000FE0202020084
:104140000000007F40404000000C30C00000000034
:10415000000000010638C00000020202FE0000005C
:10416000004040407F000000000004020202040002
:10417000000000000000000000000000000000003F
:104180008080808080808080000202040000000027
:10419000000000000000000000008080808000001F
:1041A0000019242222223F2008F80080800000000D
:1041B000003F112020110E000000008080800000D0
:1041C000000E112020201100000000808088F800DF
:1041D000000E112020103F20000080808080000011
:1041E000001F222222221300008080F08888881875
:1041F0000020203F20200000000080808080800080
:10420000006B94949493600008F800808080000014
:10421000203F210000203F200080989800000000EF
:104220000020203F2020000000000080989800001F
:1042300000C08080807F000008F80000808080003F
:10424000203F24022D302000000808F80000000064
:104250000020203F2020000080808080808080001F
:10426000203F20003F20003F8080008080800000B1
:10427000203F210000203F2000008080808000003F
:10428000001F202020201F00808000808000000070
:1042900080FFA12020110E0000000080808080009F
:1042A000000E112020A0FF80808080008080800090
:1042B00020203F21200001000000808080808000BD
:1042C0000033242424241900008080E08080000032
:1042D0000000001F2020000080800000008080007F
:1042E000001F202020103F208080800000808080E0
:1042F00000010E3008060100808000800080808070
:104300000F300C030C300F00008080008080800094
:104310000020312E0E3120008080800000808080BF
:1043200080818E701806010000808080808080006F
:104330000021302C2221300000000000807C02028D
:1043400000000000003F404000000000FF000000AF
:1043500000000000FF0000000002027C800000005E
:104360000040403F0000000000060101020204047A
:10437000000000000000000098430008000000203A
:10438000100000009C010008A84300081000002055
:1043900058070000BC0100080100000010000000E8
:0843A00000093D0000000000CF
:0400000508000139B5
:00000001FF
