:020000040800F2
:1000000070060020D5010008C70E0008F10D000899
:10001000C50E0008DB0200081B10000800000000ED
:10002000000000000000000000000000A10F000818
:10003000DD02000800000000C90E0008A30F000840
:10004000EF010008EF010008EF010008EF010008D0
:10005000EF010008EF010008EF010008EF010008C0
:10006000EF010008EF010008EF010008EF010008B0
:10007000EF010008EF010008EF010008EF010008A0
:10008000EF010008EF010008EF010008EF01000890
:1000900000000000EF010008EF010008EF01000878
:1000A000EF010008EF010008EF010008EF01000870
:1000B000EF010008EF010008EF010008EF01000860
:1000C000EF010008EF010008EF010008EF01000850
:1000D000EF010008EF010008EF010008EF01000840
:1000E000EF010008EF010008EF010008EF01000830
:1000F000EF0100080000000000000000EF01000810
:10010000EF010008EF010008EF010008EF0100080F
:10011000EF010008EF010008EF010008EF010008FF
:10012000EF010008EF010008EF010008EF010008EF
:10013000EF010008EF01000800F002F800F03AF8C3
:100140000AA090E8000C82448344AAF10107DA4532
:1001500001D100F02FF8AFF2090EBAE80F0013F04A
:10016000010F18BFFB1A43F001031847D80F000016
:10017000F80F0000103A24BF78C878C1FAD85207A7
:1001800024BF30C830C144BF04680C607047000011
:100190000023002400250026103A28BF78C1FBD890
:1001A000520728BF30C148BF0B6070471FB51FBD45
:1001B00010B510BD00F058F81146FFF7F7FF00F03A
:1001C0003DFF00F076F803B4FFF7F2FF03BC00F048
:1001D0007DF800000948804709480047FEE7FEE730
:1001E000FEE7FEE7FEE7FEE7FEE7FEE7FEE7FEE7E7
:1001F00004480549054A064B7047000019100008DD
:1002000039010008700000207006002070020020F4
:10021000700200204FF0000200B513469446964647
:10022000203922BFA0E80C50A0E80C50B1F1200109
:10023000BFF4F7AF090728BFA0E80C5048BF0CC0B7
:100240005DF804EB890028BF40F8042B08BF704715
:1002500048BF20F8022B11F0804F18BF00F8012B87
:100260007047704770477047754600F02BF8AE46F0
:1002700005006946534620F00700854618B020B5B2
:10028000FFF7B6FFBDE820404FF000064FF0000733
:100290004FF000084FF0000B21F00701AC46ACE82E
:1002A000C009ACE8C009ACE8C009ACE8C0098D469B
:1002B000704710B50446AFF300802046BDE81040FB
:1002C000FFF781BF00487047100000200149182047
:1002D000ABBEFEE7260002007047FEE77047000055
:1002E00070B5044600F0F4F80546601C02D00448DE
:1002F0000078044400F0ECF8401BA042FAD370BD33
:10030000000000202DE9F04FDFF894A1DFF890C144
:10031000002301250AF1800A85B00324DFF87CE17F
:100320000CF104090AF1040BB0E000BF05FA03F672
:10033000324072D00F7907F00307012F01D0022F4E
:100340001BD1876800975F0004FA07F80497009FA5
:1003500027EA08070097D1F80C80049F08FA07F8ED
:10036000009F48EA0708C0F808804768B7430E793D
:10037000C6F300169E403E4346600E79F643B6072C
:100380000AD0C6684FEA430804FA08F7BE438F68EC
:1003900007FA08F73743C7600E7906F00306022E06
:1003A00015D1DE0800EB86060296366A5F07FF0E5F
:1003B0004FF00F0808FA07F826EA0806D1F810806F
:1003C00008FA07F848EA0608029EC6F82080066880
:1003D0004FEA430804FA08F7BE430F7907F0030712
:1003E00007FA08F7374307604E6816F4403F4CD0D1
:1003F00023F0030707EB0E060296B6689F074FEA45
:100400001778072707FA08F7BE43B0F1904F05D0D9
:10041000244FB84204D1012708E036E0002705E068
:10042000214FB84201D1022700E0072707FA08F759
:100430003743029EB760DCF800604F689643FF02C6
:1004400000D51643CCF80060D9F800604F46D1F8CB
:10045000048096435FEA882800D516433E60DAF8A8
:1004600000605746D1F8048096435FEAC83800D54B
:1004700016433E60DBF800605F46D1F80480964387
:100480005FEA883800D516433E605B1C0A6832FA82
:1004900003F67FF44BAF05B0BDE8F08F00000140DC
:1004A000000800580004004800080048006908409F
:1004B00000D001207047426921EA02030A4043EA62
:1004C0000241816170470AB1816170478162704762
:1004D00001488068704700000000002002488168E1
:1004E00002781144816070470000002010B500249C
:1004F000032000F053F800F059F9064908600F2076
:1005000000F00AF808B1012401E000F025F82046C7
:1005100010BD00000C00002070B50E4E05460024F2
:100520003078A0B100F042F931784FF47A72B2FB22
:10053000F1F1B0FBF1F000F047FC40B9102D06D20C
:1005400000222946501E00F009F8756000E00124E1
:10055000204670BD0000002070470000F0B40E4B34
:100560001B680C46C3F30223C3F10705042D00D911
:100570000425191D072901D2002300E0DB1E0126F6
:1005800006FA05F1491E214099409E40761E16400C
:100590003143F0BC00F042BD0CED00E0064900F034
:1005A000070208684FF6FF03184040EA0220034A9A
:1005B00010430860704700000CED00E00000FA05F1
:1005C0000248006800F4C060704700000004005852
:1005D0000248016841F480710160704700040058CE
:1005E0002DE9F0410F46050077D06D4E306800F0E0
:1005F0000700B84212D2306820F00700384330605C
:10060000FFF766FF044604E0FFF762FF001B0228C5
:100610007CD8306800F00700B842F5D128784FF058
:10062000B044800715D5A868A16821F0F001014306
:10063000A160FFF74DFF804606E000BFFFF748FFCF
:10064000A0EB0800022861D8A068C0F30040002891
:10065000F4D02878400619D56869D4F8081121F03B
:100660000F0141EA1010C4F80801FFF731FF80467E
:1006700006E000BFFFF72CFFA0EB080002287ED8A1
:10068000D4F80801C0F300400028F3D028784007D0
:1006900015D5E868A16821F4E0610143A160FFF786
:1006A00017FF804606E000BFFFF712FFA0EB08002F
:1006B000022864D8A068C0F340400028F4D028780D
:1006C000000716D52869A16821F4605141EAC001EC
:1006D000A160FFF7FDFE804606E02DE0FFF7F8FE83
:1006E000A0EB080002284AD8A068C0F38040002888
:1006F000F4D02878C0072ED06868022807D00328D5
:1007000008D0B0B12068C0F3802005E037E000F0E9
:1007100080FB01E000F09BFB70B16868A16821F0EC
:1007200003010143A160FFF7D3FE044641F288387C
:100730000BE000F07DFBEFE70120BDE8F08100BF9A
:10074000FFF7C6FE011B414519D800F05CFB696844
:10075000B0EB810FF4D1306800F00700B84215D932
:10076000306820F0070038433060FFF7B1FE0446E0
:1007700007E000BFFFF7ACFE001B022801D90320F1
:10078000DBE7306800F00700B842F3D100F00EF864
:100790000449086004480068BDE8F041FFF7BCBEAA
:1007A000004000580C0000200400002010B500F0AC
:1007B0000FF84FF0B0418968044A01F0F00102EBF4
:1007C00091010968B0FBF1F010BD0000C4100008F1
:1007D0002DE9F04100273C4600F015FB4FF0B045F5
:1007E0000100E868314E00F003004FEA460808D0E7
:1007F0000C2904D0042930D008292AD030E001285F
:100800002ED128682A4AC0F3C00000282868C0F307
:10081000C00004D088B1286800F0F00011E018B1E1
:10082000286800F0F00003E0D5F8940000F4706050
:1008300000F4706002EB901007E0D5F8940000F42B
:10084000706000F0F00002EB9000046841B92746A8
:1008500006E02868C0F3005008B1374600E047467C
:1008600000F0D1FA0C281ED1E86800F0030002283D
:1008700005D0032806D12868C0F3005008B13446DB
:1008800000E04446E868C0F30621E868614300F0F0
:100890007002012000EB1212B1FBF2F2E96800EBEA
:1008A0005170B2FBF0F73846BDE8F0810024F40047
:1008B000041100082DE9F047040075D000F0A3FAF8
:1008C0004FF0B0450646E86800F003072078800640
:1008D0007CD576B10C2E01D1012F0AD0206A0028D8
:1008E000286862D040F001002860FFF7F1FD8046E3
:1008F00048E0206A0028E0D0A16A2868000703D5F4
:10090000286800F0F00004E0D5F89400F02202EA34
:100910001010814212D9084600F020FB002843D174
:10092000286840F0080028602868A16A20F0F000DC
:1009300008432860606A00F081FA11E0286840F0FE
:10094000080028602868A16A20F0F00008432860A9
:10095000606A00F073FAA06A00F000FB0028DED1A4
:10096000FFF724FFF6490860F6480068FFF7D4FD5A
:1009700000287DD12AE000BFFFF7AAFDA0EB080008
:10098000022876D800F054FA0028F5D0286840F004
:10099000080028602868A16A20F0F0000843286059
:1009A000606A00F04BFA11E0AAE020F00100286034
:1009B000FFF78EFD804605E0FFF78AFDA0EB0800FB
:1009C0000228DED800F034FA0028F5D12078C007DC
:1009D00046D0082E1ED00C2E01D1032F1AD0286825
:1009E000A16820F48010084328606068B0F5803F5B
:1009F00014D0B0F5041F286814D020F4803028608B
:100A0000286820F4001028606068D0B1FFF760FD0E
:100A1000804611E06068002872D021E0286840F428
:100A20008030F0E740F400102860F7E7FFF750FD52
:100A3000A0EB08006428A4D800F0EBF90028F5D05A
:100A40000EE0FFF745FD804606E000BFFFF740FDE2
:100A5000A0EB0800642894D800F0DBF90028F5D159
:100A60002078800738D5042E11D00C2E04D101E057
:100A700080E1D5E0022F0AD020690028286819D02B
:100A800040F480702860FFF723FD074609E02069E5
:100A90000028C1D00AE000BFFFF71AFDC01B0228E2
:100AA0008FD82868C0F380200028F5D0606900F056
:100AB000B6F911E020F480702860FFF709FD0746C1
:100AC00005E000BFFFF704FDC01B0228B3D828686B
:100AD000C0F380200028F5D12078000759D5A069FF
:100AE0000028D5F8940041D0E16900F0100291424D
:100AF00025D081074FEAC07003D500288CD001E0D3
:100B00005BE1A0B1D5F8940020F00100C5F8940095
:100B1000FFF7DEFC074604E0FFF7DAFCC01B1128F4
:100B20007ED8D5F89400C0F340000028F4D1D5F861
:100B30009400E16920F010000843C5F89400D5F84E
:100B4000940040F00100C5F89400FFF7C1FC07468F
:100B500005E000BFFFF7BCFCC01B112860D8D5F82A
:100B60009400C0F340000028F4D012E020F001000F
:100B7000C5F89400FFF7ACFC074604E0FFF7A8FCBB
:100B8000C01B11284CD8D5F89400C0F340000028B1
:100B9000F4D12078400763D5DFF8AC81D8F80000A5
:100BA000C0F3002088B9FFF713FDFFF791FC07465B
:100BB00005E000BFFFF78CFCC01B022830D8D8F836
:100BC0000000C0F300200028F4D0E06841F288392A
:100BD00038B3852801D0052805D1D5F8900040F01C
:100BE0000400C5F89000FFF773FC8046D5F890002C
:100BF00040F00100C5F890004F4605E0FFF768FCA3
:100C0000A0EB0800B8420BD8D5F89000C0F3400024
:100C10000028F3D0E06881280ED085280CD001E0B0
:100C200097E02AE0FFF754FC8046D5F8900020F0CA
:100C30008000C5F890001BE0FFF74AFC8046D5F81D
:100C4000900040F08000C5F8900005E0FFF740FC00
:100C5000A0EB0800B8427CD8D5F890000005F5D587
:100C600035E000BFFFF734FCA0EB0800B84270D8B5
:100C7000D5F890000005F5D429E0FFF729FC0746D8
:100C8000D5F8900020F08000C5F89000C84604E038
:100C9000FFF71EFCC11B41456BD8D5F8900000053D
:100CA000F6D4FFF715FC0746D5F8900020F00100B8
:100CB000C5F8900005E000BFFFF70AFCC11B4145E5
:100CC00057D8D5F89000C0F340000028F4D1E06A6E
:100CD000F0B30C2E59D00228286820F080702860CC
:100CE00003D0FFF7F5FB044646E0FFF7F1FB0646AD
:100CF00005E000BFFFF7ECFB801B0A2839D800F0A5
:100D0000A6F80028F6D1D4E90C010843D4E90E2155
:100D100041EA02210843216C0843616C0843E968F9
:100D20000A4A11400843E860286840F08070286053
:100D3000E86840F08050E860FFF7CAFB04460EE028
:100D40000C00002004000020000400588C80C11119
:100D500035E00EE0FFF7BCFB001B0A2809D800F0C5
:100D600076F80028F6D02AE0FFF7B2FB001B0A282D
:100D700002D90320BDE8F08700F069F80028F3D11C
:100D8000E86810490840E86019E00128F2D0E868F6
:100D9000226B00F0030191420FD1626B00F07001F1
:100DA00091420AD1A26B00F4FE41B1EB022F04D1B3
:100DB000616C00F06040884201D00120DAE7002039
:100DC000D8E70000FCFFFEEE10B5401EB0F1807FBA
:100DD00001D3012010BD4FF0E02460610F216017A6
:100DE00000F01CF90020A06107202061002010BD48
:100DF000FEE708B54FF0B041CA6C0243CA64C96C43
:100E00000140009108BD4FF0B040806800F00C0038
:100E100070474FF0B0400068C0F3404070474FF05B
:100E2000B0414A6822F0FE4242EA006048607047E2
:100E30004FF0B0400068C0F3400070474FF0B04141
:100E40004A6822F47F4242EA0020486070474FF02F
:100E5000B0400068C0F340607047000070B586B0D5
:100E600014216846FFF7D6F90220FFF7C2FF0120E0
:100E7000FFF7BFFF124E41F2240401222146304603
:100E8000FFF721FB0120CDE90040002402946946D0
:100E900030460394FFF736FA4FF48075CDE90054DD
:100EA000694630460294FFF72DFACDE900546946B1
:100EB0004FF090400294FFF725FA06B070BD000095
:100EC00000040048FEE7FEE77047000070B5214AC5
:100ED00088B0F2E80234CDE90334F2E80234CDE917
:100EE00005341CCA8DE81C000024B1F5007F6A4659
:100EF000214608D00DF1140333F8115085420BD36D
:100F000052F821400BE003AB33F811508542F7D281
:100F1000491C0329F8D302E0491C0329ECD30E4EE7
:100F2000306820F0070020433060FFF7D1FA054613
:100F300008E000BFFFF7CCFA401B022802D90320CB
:100F400008B070BD306800F00700A042F2D1002068
:100F5000F6E70000A8100008004000583C2101EA14
:100F600090000C4910B508584FF0B041D1F8081165
:100F7000094A01F00F0152F82110B0FBF1F4FFF71C
:100F80001FFB01460548B4FBF0F0BDE81040FFF739
:100F90009DBF000004110008C410000840420F006B
:100FA0007047FFF79BBA000010B59AB04821684619
:100FB000FFF730F9182112A8FFF72CF9154801683E
:100FC00021F4C06141F4007101600068002400F464
:100FD000C0601890202000900120CDE90804B020C6
:100FE000CDE90A046846FFF765FC08B172B6FEE772
:100FF0004F20CDE91204149415941694022112A8DE
:101000001794FFF7EDFA002801D072B6FEE71AB088
:1010100010BD0000000400587047FEE70907090EE4
:10102000002804DB00F1E02080F80014704700F095
:101030000F0000F1E02080F8141D7047FFF756FA0A
:10104000FFF7B2FFFFF70AFF164F4FF090454FF43E
:101050008076344631462846FFF728FA60B90421E5
:101060003846FFF728FAC820FFF73AF92146284604
:10107000FFF71CFA0028F9D0264621463C463846A0
:10108000FFF714FA0028E4D120212046FFF713FAD5
:10109000C820FFF725F931462046FFF707FA002858
:1010A000F9D0D6E700040048120024003000000008
:1010B00006000C001000000000000000010000000D
:1010C0000200000001000000030000000500000015
:1010D0000100000001000000060000000A000000FE
:1010E00020000000020000000400000008000000D2
:1010F000100000004000000080000000000100001F
:1011000000020000A0860100400D0300801A0600C6
:1011100000350C0040420F0080841E0000093D0095
:1011200000127A000024F40000366E010048E80145
:10113000006CDC0200000000000000000000000065
:1011400000000000641100080000002010000000F2
:1011500074010008741100081000002060060000EF
:1011600090010008010000001000000000000000D5
:0411700000093D0035
:0400000508000139B5
:00000001FF
