:020000040800F2
:10000000700500204D010008692900083525000809
:1000100065290008AD0300085D43000800000000EA
:10002000000000000000000000000000912D00080A
:10003000B1030008000000008D2D0008952D000878
:1000400067010008670100086701000867010008F0
:1000500067010008670100086701000867010008E0
:1000600067010008670100086701000867010008D0
:1000700067010008670100086701000867010008C0
:1000800067010008670100086701000867010008B0
:100090000000000067010008670100086701000810
:1000A0006701000867010008670100086701000890
:1000B0006701000867010008670100086701000880
:1000C0006701000867010008670100086701000870
:1000D0006701000851430008670100086701000834
:1000E0006701000867010008670100086701000850
:1000F0006701000800000000000000006701000820
:10010000670100086701000867010008670100082F
:10011000670100086701000867010008670100081F
:10012000670100086701000867010008670100080F
:100130006701000867010008DFF80CD000F098F8AC
:1001400000480047854300087005002006488047A6
:1001500006480047FEE7FEE7FEE7FEE7FEE7FEE7AC
:10016000FEE7FEE7FEE7FEE7C92D000839010008BB
:100170002DE9F05F0546002092469B4688460646DC
:10018000814640241BE0284641464746224600F06F
:100190005EF853465A46C01A914110D3114618468C
:1001A000224600F045F82D1A67EB01084F4622461B
:1001B0000120002100F03CF817EB00094E41201E01
:1001C000A4F10104DFDC484631462A464346BDE837
:1001D000F09FD2B201E000F8012B491EFBD270471C
:1001E0000022F6E710B513460A4604461946FFF703
:1001F000F0FF204610BD421C10F8011B0029FBD166
:10020000801A704730B50B46014600202022012499
:1002100009E021FA02F59D4205D303FA02F5491BD4
:1002200004FA02F52844151EA2F10102F1DC30BDEA
:10023000202A04DB203A00FA02F1002070479140A6
:10024000C2F1200320FA03F3194390407047202A9B
:1002500004DB203A21FA02F00021704721FA02F370
:10026000D040C2F120029140084319467047000077
:10027000064C074D06E0E06840F0010394E80700F3
:1002800098471034AC42F6D3FFF75AFFF0500008FD
:100290001051000870B582B002F0C2FB40F21005A8
:1002A00040F2D804C2F20005C2F2000405F10B01CD
:1002B0002046042201F0DEFF0220A87045F2D4009F
:1002C000C0F6000004F076FA14A004F073FA18A047
:1002D00004F070FA1CA004F06DFA45F2E6060F3542
:1002E000C0F600061EA126A228463E23009604F072
:1002F00097F882B220462946C82302F021F824A1AB
:1003000028463F22334604F08BF882B22046294625
:10031000C82302B0BDE8704002F012B85B7461738C
:100320006B5D696E666F3A496E69745F4F4B0D0085
:100330005B7461736B5D64656275673A496E69747D
:100340005F4F4B0D000000005B7461736B5D657265
:10035000726F723A496E69745F4F4B0D0000000076
:100360005B44454255475D2025733A25642025733B
:1003700028293A20496E69745F4F4B0A000000003B
:100380002E2E2F4253502F7461736B2E630000008A
:100390005B494E464F5D20256420257328293A206D
:1003A000496E69745F4F4B0A00000000FEE70000D1
:1003B00070470000EFF3108072B600BFFEE7000048
:1003C000002804BF0120704780B590F8251002294D
:1003D00026D10168D0E910CE826C0B6823F00E03A1
:1003E0000B60136823F4807313600A6822F0010223
:1003F0000A600EF01C02012101FA02F2CCF804207E
:10040000D0E913325A60426D32B1136823F480731D
:100410001360D0E91623536080F82510002102E014
:100420000421C1630121002280F82420BDE880401E
:100430000846704780B590F8251002292DD1016833
:10044000D0E910CE826C0B6823F00E030B600B68B2
:1004500023F001030B60116821F4807111600EF02C
:100460001C02012101FA02F2CCF80420D0E9133277
:100470005A60426D32B1136823F480731360D0E97F
:100480001623536080F82510826B002180F8241019
:100490000AB190470021084680BD0421C1630121B3
:1004A000084680BDB0B5044600F006F9054640F2A6
:1004B0000400C2F200000078611C18BF044400BFB1
:1004C00000F0FAF8401BA042FAD3B0BD2DE9F04F7E
:1004D00084B00E680390002E00F0DF8040F600022A
:1004E0000398C4F600028E4690424FF007004FF08A
:1004F00000044FF001074FF000054FF0000808BF5F
:1005000002200090029148E040F20040C4F6000052
:100510008242009A08BF012202FA03F0082140EA51
:100520000C00C4F2010141F8260040F60006C5F6B1
:1005300000063068DEF8041040EA0902CB0258BF1A
:1005400020EA0902326070688B0240EA090258BF53
:1005500020EA09027260D6F88000CB0340EA090263
:1005600058BF20EA0902C6F88020D6F88400890323
:1005700040EA090258BF20EA0902C6F88420DEF8E2
:10058000006008F1010836FA07F005F1020507F1ED
:10059000010704F1040400F08080A7F1010A0120A2
:1005A00000FA0AF316EA0309E9D0DEF804B00BF00A
:1005B000030CACF10102012A1ED803984FEA48024D
:1005C00081680192032202FA05F6029AB143D2F839
:1005D0000CE0F6430EFA05F21143DDF808E0816005
:1005E0004168994303460198CBF3001202FA0AF2DC
:1005F000114359600CE000BF0320A840039BC64391
:10060000BCF1030F284603D128464FF0030C26E027
:10061000D968DEF80820314082401143BCF1020F56
:10062000D9601CD102466FF0030000EA5A01194458
:1006300004F01C030F20D1F820C000FA03FE10467E
:10064000029A2CEA0E0C1269DDF808E09A4042EAA0
:100650000C02039B0A62DEF804B00BF0030C19686D
:100660000CFA00F0314008431BF4403F18603FF49F
:1006700086AF08204FEA9A06C4F2010050F826001F
:1006800004F00C030721039A9940B2F1904F20EA3D
:10069000010C7FF439AF00223EE704B0BDE8F08FD3
:1006A0000069084018BF0120704700001823002A85
:1006B00008BF2823C150704740F26C10C2F20000FE
:1006C0000068704790F84120202A03D190F840201C
:1006D000012A01D102207047242280F841200268BB
:1006E000136823F001031360136823F4805313602D
:1006F000136819431160116841F001011160202154
:1007000080F84110002180F8401008467047000032
:1007100090F84120202A03D190F84020012A01D1ED
:1007200002207047242280F841200268136823F0D9
:1007300001031360136823F4706343EA012111601D
:10074000116841F001011160202180F84110002161
:1007500080F8401008467047002804BF0120704709
:1007600010B5044690F8410028B9002084F84000F4
:10077000204600F07BF9242084F8410094E8091019
:10078000E2680168012A21F00101016023F0706133
:100790000161816821F40041816003D14CF4004182
:1007A000816007E04CF40441022A816004BF4FF4E9
:1007B00000614160416804F1100C41F0007141F4A6
:1007C00000414160C16821F40041C1609CE80E1005
:1007D000114341EA0321C160216A41EA0C01016031
:1007E000016841F00101016000202021606484F86B
:1007F0004110206384F8420010BD00002DE9F0474D
:10080000044690F84100202803D194F840000128C4
:1008100002D10220BDE8F08701201E461746884617
:1008200084F84000FFF748FF216805468A691204F2
:100830000AD500BFFFF740FF401B192800F2F580E2
:10084000216888690004F5D4212084F84100102033
:1008500084F8420000206064676266856063608D92
:1008600049F6004940F2000CCFF60049B0F5807F10
:10087000C0F2FF1C0DD30A4652F8047F4346A9F587
:1008800080666FF39F2337401F430CF50056FF230C
:1008900010E0638D0A46474652F8040F6FF39F2716
:1008A0005FFA83FEA9F58066304047EA0E470743AA
:1008B0000CF5903647EA060010602385608D089E8F
:1008C000002800F08F806FF39F2808F1007A701CD9
:1008D00048EA0C074FF0FF0851D10BE0A4F828803C
:1008E000084650F8042F02EA09023A430260608D7C
:1008F000002877D020464FF0FF312A4601F0D0FE85
:10090000002840F09E80606A216810F8012B8A62FE
:100910006062608D01386085208D421E2285608D69
:100920001204E4D10028E2D0886900065FBF88691C
:100930005FEA006088695FEA006003D488690006A6
:10094000F2D500BF608DFF28C8D8628D0846228589
:1009500050F8043FD2B203EA09034AEA02421A43BA
:10096000C4E7628D0846228550F8043FD2B203EAFC
:1009700009034AEA02421A430260608D90B320469E
:1009800031462A4601F08CFE00285AD1606A21685F
:1009900010F8012B8A626062608D01386085208DBD
:1009A000421E2285608D1204E7D10028E5D08869B7
:1009B00000060AD4BEB300BFFFF77EFE401BB04264
:1009C00033D8216888690006F6D5608DB0F5807F40
:1009D000C7D3A4F82880084650F8042F02EA090279
:1009E0003A43C9E7886900F020008EB160BB00BFC0
:1009F000204631462A4601F09FFD10BBFFF75CFE02
:100A0000401BB04211D8216888698006F0D51BE0F0
:100A1000D0B9204600212A4601F08EFD00281CBFD7
:100A20000120BDE8F087FFF747FE606C40F0200032
:100A30006064202084F84100002084F8420084F89B
:100A400040000120BDE8F0872020C8614A684EF6CA
:100A50000003CFF600631A404A6084F8410000208A
:100A600084F8420084F84000BDE8F08710B594B0E7
:100A7000044600201290CDE91000CDE90E00684632
:100A80003821FFF7ADFB206845F20041C4F20001B8
:100A9000884201D014B010BD402000904FF4403087
:100AA0000590684600F0D8F8002818BFFFF782FCD0
:100AB0004C24C5F6000420680EA940F00200206016
:100AC000206800F0020013901398C0200E901220AE
:100AD0000F900020CDE910000420129040F2004059
:100AE000C4F60000FFF7F2FCE06840F40010E0609C
:100AF000E06800F400101390139814B010BD0000CB
:100B000040F2040040F26C11C2F20000C2F2000197
:100B100000780A68104408607047000080B5032020
:100B200000F078F800F09AFA40F20C01C2F20001ED
:100B30000860002000F008F800281CBF012080BDDC
:100B400000F028F8002080BD70B540F20406C2F223
:100B500000063178D1B1044600F080FA31784FF4C4
:100B60007A72B2FBF1F1B0FBF1F000F0E7FE0F2C6E
:100B70004FF0010508D838B94FF0FF302146002268
:100B8000002500F01BF87460284670BD012528463A
:100B900070BD0000052000F03DB80000002848BFEF
:100BA000704700F01F01012202FA01F14EF200121B
:100BB0004009CEF2000242F82010704710B54EF600
:100BC0000C5CCEF2000CDCF80030C3F3022E8EF089
:100BD0000704042C28BF0424BEF103034FF0FF3E9A
:100BE0000EFA04F438BF0023A14399400EFA03F330
:100BF0009A4300F00F03043B1143634409010C3393
:100C000000F16042B0F1FF3FC8BF02F564431970C4
:100C100010BD00004EF60C51CEF200010A684FF6EE
:100C2000FF031A4060F30A2242F0806040F0FD703A
:100C30000860704740F20040C5F60000006800F40C
:100C4000C060704740F20040C5F60000016841F402
:100C50008071016070470000F0B581B00446807873
:100C60008826C007C5F6000600F0A980FFF7EAFF56
:100C7000FFF722FD054600BFD6F87803C00575D4FE
:100C8000FFF71AFD401B0228F6D903202168CA0786
:100C900000F09A806268336823EA124392B21A43E2
:100CA00032608A0740F19380A268336823EA1243D6
:100CB00092B21A4332608A0640F18C80226933680E
:100CC00023F440631A4332608A0540F18680226A29
:100CD00033684FF6FF7767EA02073B4043EA024278
:100CE00032604A057CD5626A33684FF6FF7767EA5F
:100CF00002073B4043EA024232600A0572D5A26A0B
:100D000033684FF6FF7767EA02073B4043EA024247
:100D100032604A0668D5626933686FF47F2767EAF4
:100D200012173B4002F47F4243EA021232600A0685
:100D30005CD5A26933686FF47F2767EA12173B40DE
:100D400002F47F4243EA02123260CA0550D5E269DA
:100D500033686FF47F2767EA12173B4002F47F4243
:100D600043EA02123260CA0654D543E0B168606BB0
:100D700001F4407181421DD0B168B26821F4407322
:100D800042F48032B260B268890722F480320146B0
:100D9000B260B3600ED5FFF78FFC054641F288378D
:100DA000B068800705D4FFF787FC401BB842F7D92D
:100DB0006BE7616BB06820F440700843B0600020BE
:100DC0002168CA077FF466AF8A073FF56DAF8A06D0
:100DD0003FF574AF8A053FF57AAF4A053FF583AF1B
:100DE0000A058CD44A0696D40A06A2D4CA05AED403
:100DF000CA060FD5E2683368B2F5807F23F44073EA
:100E000043EA0203336005D156F87C2C42F080722D
:100E100046F87C2C0A0407D5226B336823F0404344
:100E200043EA0203336092B1490418D5E16A32689B
:100E3000B1F1005F22F0405242EA010232600ED16D
:100E400056F87C1C41F4803146F87C1C07E056F8CB
:100E50007C2C42F0807246F87C2C4904E6D401B028
:100E6000F0BD00002DE9F04381B0002800F0AF8014
:100E700044F20008C5F600080546D8F800000C4604
:100E800000F00700884215D2D8F8000020F00700D3
:100E90002043C8F80000FFF70FFC0646D8F8000012
:100EA00000F00700A04205D0FFF706FC801B0228D7
:100EB000F4D95BE0286808278107C5F6000713D539
:100EC000A868396821F0F00108433860FFF7F4FBA7
:100ED000064600BF3868C00305D4FFF7EDFB801B52
:100EE0000228F7D942E02868410616D56869D7F884
:100EF000001121F00F0141EA1010C7F80001FFF7BF
:100F0000DBFB0646D7F80001C00305D4FFF7D4FB8E
:100F1000801B0228F6D929E02868410712D5E86825
:100F2000396821F4E06108433860FFF7C5FB0646E5
:100F30003868800305D4FFF7BFFB801B0228F7D970
:100F400014E02868010716D52869396821F4605132
:100F500041EAC0003860FFF7AFFB0646386840033F
:100F600008D4FFF7A9FB801B0228F7D9032001B0A2
:100F7000BDE8F0832868C0071ED1D8F8000000F053
:100F80000700A04227D9D8F8000020F0070020432E
:100F9000C8F80000FFF790FB054600BFD8F8000036
:100FA00000F00700A04216D0FFF786FB401B022886
:100FB0004FF00300F2D945E068684FF0B04130B31C
:100FC000032842D0022844D10968890322D4012091
:100FD00001B0BDE8F08300F08BF839683C2202EAEA
:100FE000910144F2E472C0F60002515840F20C0242
:100FF000B0FBF1F140F20800C2F200000068C2F25A
:101000000002116001B0BDE8F043FFF79DBD096823
:101010008907DCD5396821F0030108433860FFF700
:101020004BFB064641F288393868696800F00C00CD
:10103000B0EB810FA1D0FFF73FFB801B48454FF07D
:101040000300F1D901B0BDE8F08309688901BED57C
:10105000E0E709684905BAD5DCE7000080B500F093
:1010600047F80821C5F6000109683C2202EA91010F
:1010700044F2E472C0F600025158B0FBF1F080BDBA
:1010800080B500F035F80821C5F600010A683C2358
:1010900003EA920244F2E473C0F600039A58096826
:1010A000B0FBF2F044F62402C1F30221C0F60002C4
:1010B00052F82110C84080BD80B500F019F8082111
:1010C000C5F600010A683C2303EA920244F2E47385
:1010D000C0F600039A580968B0FBF2F044F6240207
:1010E000C1F3C221C0F6000252F82110C84080BDF1
:1010F0000C21C5F6000151F8040C10F00C02086830
:1011000005D00C2A17D100F00300012813D14FF0AD
:10111000B040036800681B0700F0080004D4E0B189
:101120004FF0B04000681FE0E0B14FF0B040006801
:10113000C0F3031019E042F20040042AC0F2F400A8
:101140001FD0082A1CD14FF0B0421268D2025CBFF7
:1011500044F60000C0F2E81013E0D1F88800C0F3B4
:10116000032002E0D1F88800002044F64403C0F6D2
:10117000000353F82030002A184618BF002001E071
:101180000020002351F8042C02F00C020C2A18BF96
:101190007047086800F0030242F20040022AC0F2E1
:1011A000F4000AD0032A09D14FF0B0421268D202EB
:1011B0005CBF44F60000C0F2E81003460868C0F3C4
:1011C00006200A685843C2F3021201320968B0FBD4
:1011D000F2F0012202EB5171B0FBF1F07047000018
:1011E0002DE9F04F81B0002800F01A8340F2900BF7
:1011F0000446C5F6000B5BF8880C5BF8841C22786B
:1012000000F00C08900601F0030A29D42078C007EA
:101210005BD0B8F1080F54D0B8F10C0F08BFBAF189
:10122000030F4ED04FF0B0400168D4E9015221F4D1
:1012300080111143B5F5803F016009D0B5F5041F59
:1012400040F02D824FF0B0410A6842F400120A606B
:10125000016841F480310160FFF72EFA05462DE266
:10126000B8F1000F1ED0B8F10C0F08BFBAF1010F92
:1012700018D0216A4FF0B0463068002900F0608134
:1012800040F001003060FFF717FA0546306880072C
:1012900000F17D81FFF710FA401B02284FF0030098
:1012A000F4D947E3206A002800F0BA824FF0B04139
:1012B000A06A0A68120700F1CC80DBF80410090963
:1012C000C8E06068002800F0AB82207880072DD548
:1012D000B8F1040F1DD0B8F10C0F08BFBAF1020F1E
:1012E00017D021694FF0B0463068002900F0008225
:1012F00040F480703060FFF7DFF905463068400544
:101300000BD4FFF7D9F9401B02284FF00300F5D9A1
:1013100010E32069002800F0838260695BF88C1C70
:1013200021F0FE4141EA00604BF88C0C2078000768
:1013300029D42078400750D4E56A002D00F0AC8213
:10134000B8F10C0F40F03981012D00F069825BF893
:10135000840C216B00F003028A4240F06182616BD1
:1013600000F070028A4240F05B82A16B00F4FE4202
:10137000B2EB012F40F05482616C00F06040884273
:1013800040F04E8288E2A069DBF80410002800F0EB
:10139000E980E06901F01002904200F0B68201F0AD
:1013A0000302022A00F03C82C90700F0A782DBF8A2
:1013B000040020F00100CBF80400FFF77DF905469A
:1013C000DBF80400800740F19882FFF775F9401BB5
:1013D00011284FF00300F3D9ACE2DBF87003C0052D
:1013E00010D4FFF72FFCFFF767F90546DBF8700311
:1013F000C00507D4FFF760F9401B02284FF0030037
:10140000F4D997E2E068002800F08481852801D0B3
:10141000052805D1DBF8000040F00400CBF80000FF
:10142000FFF74AF9DBF80010054641F0010041F2F0
:101430008836CBF8000000BFDBF80000800700F121
:101440000F81FFF739F9401BB0424FF00300F3D989
:1014500070E2096801F0F00144F2E4798842C0F6D4
:1014600000092CD93C2101EA900044F64401DBF844
:101470007820C0F60001085802F00F0159F8211039
:10148000B0FBF1F5FFF7D6FBB0F5007F40F0B88078
:101490004EF6BF20C0F22110854240F2DD8049F2B5
:1014A0003F30C0F23420854240F24E814AF63F6020
:1014B000C0F2EB20854240F2B78000264BE14FF0AE
:1014C000B0410A6842F008020A600A6822F0F0029D
:1014D00002430A60616A5BF88C2C22F47F4242EA84
:1014E00001214BF88C1C3C2101EA900044F6440198
:1014F000DBF87820C0F60001085802F00F0159F817
:101500002110B0FBF1F5FFF795FBB0F5007F40F03F
:101510008D804EF6BF20C0F22110854240F29E80A1
:1015200049F23F30C0F23420854240F25C814AF6F5
:101530003F60C0F2EB20854240F28C80002659E1EA
:1015400020F001003060FFF7B7F8054630688007EB
:101550007FF55CAEFFF7B0F8401B02284FF00300A8
:10156000F4D9E7E121F00100CBF80400FFF7A4F87B
:10157000054600BFDBF8040080077FF5DAAEFFF711
:101580009BF8401B11284FF00300F3D9D2E14FF034
:10159000B040016841F0080101600168D4E90932F6
:1015A00021F0F001114301605BF88C0C20F47F40C6
:1015B00040EA03204BF88C0C28E64FF0B046306828
:1015C00020F080703060FFF777F8022D05460BD1D0
:1015D0003068800140F12881FFF76EF8401B0A282F
:1015E0004FF00300F4D9A5E13068800140F14B8150
:1015F000FFF762F8401B0A284FF00300F4D999E185
:101600004CF6BF70C0F26A00854225D945F63F50BE
:10161000C0F2C600854240F2978046F23F60C0F2B9
:10162000031085423FF649AF02208EE04CF6BF70B2
:10163000C0F26A00854211D945F63F50C0F2C6009B
:10164000854240F2D08046F23F60C0F203108542EE
:101650003FF674AF0220C7E0002076E00020C3E030
:10166000E06840F00400852840F01A81FFF724F874
:10167000DBF80010054641F0800041F28836CBF8D7
:10168000000000BFDBF8000000053FF555AEFFF796
:1016900013F8401BB0424FF00300F3D94AE14FF07A
:1016A000B046306820F480303060306820F400109C
:1016B0003060FFF701F8002D054615D04FF0B04619
:1016C000306880033FF501AEFEF7F6FF401B64284B
:1016D0004FF00300F4D92DE1FEF7EEFF401B642824
:1016E0004FF0030000F2268130688003F4D4ECE56B
:1016F00020F480703060FEF7DFFF0546306840055B
:101700007FF514AEFEF7D8FF401B02284FF0030010
:10171000F4D90FE1FEF7D0FFDBF80010064621F008
:10172000800041F28837CBF8000000BFDBF80050A2
:10173000FEF7C2FF2905054640F1CA80A81BB84242
:101740004FF00300F2D9F5E0012044F2D871C0F661
:10175000000151F8206044F20007C5F60007386820
:1017600020F0070030433860FEF7A6FF054600BFB3
:10177000386800F00700B04205D0FEF79DFF401B1F
:101780000228F5D94CE04FF0B040016841F0080163
:1017900001600168D4E9093221F0F00111430160D0
:1017A0005BF88C0C20F47F4040EA03204BF88C0C53
:1017B000FFF79EFC5BF8881C3C2202EA910159F875
:1017C000011040F20C02B0FBF1F140F20800C2F24D
:1017D00000000068C2F200021160FFF7B5F90028AE
:1017E00040F0A88012E5012044F2D871C0F6000153
:1017F00051F8206044F20007C5F60007386820F071
:10180000070030433860FEF757FF0546386800F0A0
:101810000700B042CCD0FEF74FFF401B0228F5D99D
:10182000012001B0BDE8F08F5BF8840C48F28C0118
:10183000C1F2C11104F1300708408ECFD4E9106520
:101840000843104340EA03203843304328434BF811
:10185000840C4FF0B045286840F0807028605BF839
:10186000840C40F080504BF8840CFEF725FF0446B2
:101870002868800110D4FEF71FFF001B0A284FF0D4
:101880000300F5D956E05BF8840C4FF6FC71CEF6F8
:10189000FE6108404BF8840C002001B0BDE8F08FD9
:1018A000FEF70AFFDBF80010054621F0800041F248
:1018B0008836CBF80000DBF8000000057FF53CAD72
:1018C000FEF7FAFE401BB0424FF00300F3D931E0BF
:1018D000DBF8000041F2883620F00100CBF8000070
:1018E000DBF8000080077FF527ADFEF7E5FE401B23
:1018F000B0424FF00300F3D91CE0E069DBF80410BC
:1019000021F010010843CBF80400DBF8040040F09C
:101910000100CBF80400FEF7CFFE0546DBF804001B
:1019200080073FF506ADFEF7C7FE401B11284FF0BC
:101930000300F3D901B0BDE8F08F0000411E002084
:10194000B0EB116F1CBF012070474EF21002CEF2B7
:10195000000251604EF62351CEF20001F0230B70CD
:10196000072190601160704790F88410012904BF2E
:10197000022070472421C0F888100268116813689B
:1019800023F00103136021F000530021416613602E
:101990002022C0F8882080F8841008467047000094
:1019A0007047000070470000B0B590F88420012A0D
:1019B00004BF0220B0BD0123242280F88430C0F887
:1019C00088200268D0F864E0D2F800C01468BEF144
:1019D000000F24F001041460946824F0606441EA6C
:1019E0000401916019D0916844F6AC0EC1F34261D4
:1019F0009368C0F6000E5B0F44F6B4051EF8034072
:101A0000C0F60005EB5CE400B4FBF3F31EF8014004
:101A1000695CE500B5FBF1F100E00121A0F8681078
:101A20002021A0F86A30C2F800C0C0F88810002158
:101A300080F884100846B0BDB0B590F88420012A23
:101A400004BF0220B0BD0123242280F88430C0F8F6
:101A500088200268D0F864E0D2F800C01468BEF1B3
:101A6000000F24F001041460946824F0604441EAFB
:101A70000401916019D0916844F6AC0EC1F3426143
:101A80009368C0F6000E5B0F44F6B4051EF80340E1
:101A9000C0F60005EB5CE400B4FBF3F31EF8014074
:101AA000695CE500B5FBF1F100E00121A0F86810E8
:101AB0002021A0F86A30C2F800C0C0F888100021C8
:101AC00080F884100846B0BD7047000070470000E1
:101AD0007047000070B501680446CA6940F62F00DF
:101AE0000E68D1F808E0104020280BD106F0200045
:101AF0000EF08053C01822D0616FC9B32046BDE8F4
:101B00007040084740F60F00024218D00120C1F291
:101B100000000EEA000C40F22010C0F200403040FD
:101B200010EB0C000BD0D00718BF16F4807040F0FB
:101B30008A8190070EF0010300F1918198E1E06E37
:101B400006EA0203DD0614D5012812D1102008622E
:101B50008868400600F19B80B4F85C00B4F85E2011
:101B6000B4F85E30002B1CBF801A5FEA00422BD114
:101B700070BDD00240F14B811EF4800000F047811F
:101B80004FF4801220460A62BDE87040FFF79EBF06
:101B9000216851E8001F226821F4907142E8001387
:101BA000DBB1216851E8001F226821F4907142E8FE
:101BB000001393B1216851E8001F226821F490714D
:101BC00042E800134BB1216851E8001F226821F45C
:101BD000907142E80013002BDAD14FF6FE71CEF679
:101BE000FF7100BF226852E8022F23680A4043E8D1
:101BF0000226C6B1226852E8022F23680A4043E851
:101C0000022686B1226852E8022F23680A4043E880
:101C1000022646B1226852E8022F23680A4043E8B0
:101C20000226002EDED12021C4F88C100021E166AE
:101C3000616700BF216851E8001F226821F0100190
:101C400042E80013DBB1216851E8001F226821F04F
:101C5000100142E8001393B1216851E8001F226887
:101C600021F0100142E800134BB1216851E8001F38
:101C7000226821F0100142E80013002BDAD1022281
:101C800081B220462267BDE87040FFF789BED4F8D4
:101C90008000026853689DB2002D3FF469AFB4F82C
:101CA0005C008542BFF464AFA4F85E30126892060F
:101CB00000F1A28051E8000F216820F4807041E813
:101CC0000002F2B1206850E8000F216820F4807013
:101CD00041E80002AAB1206850E8000F216820F412
:101CE000807041E8000262B1206850E8000F21686E
:101CF00020F4807041E800021AB1206850E8000F1B
:101D0000DAE7206850E8020F216820F0010041E87E
:101D10000202BAB3206850E8020F216820F00100E7
:101D200041E8020272B3206850E8020F216820F0F7
:101D3000010041E802022AB3206850E8020F21683E
:101D400020F0010041E80202002ADAD11AE02068FE
:101D500050E8020F216820F0400041E80202DAB1A9
:101D6000206850E8020F216820F0400041E802029C
:101D700092B1206850E8020F216820F0400041E84D
:101D800002024AB1206850E8020F216820F04000AA
:101D900041E80202002ADAD12020C4F88C00002099
:101DA000E066206850E8000F216820F0100041E84C
:101DB0000002DAB1206850E8000F216820F010001E
:101DC00041E8000292B1206850E8000F216820F03D
:101DD000100041E800024AB1206850E8000F216875
:101DE00020F0100041E80002002ADAD1D4F8800087
:101DF000FEF7E6FAB4F85C0002212167B4F85E1041
:101E0000401A81B22046BDE87040FFF7C9BD1006F8
:101E10000AD506F080000EF40005401904D0A16F29
:101E200000297FF46BAEA3E6580600F11281100280
:101E300040F1618116F0804000F05D812046BDE8F0
:101E40007040FFF741BE01200862D4F8900040F0D6
:101E50000100C4F8900090070EF0010308D53BB1D3
:101E600002200862D4F8900040F00400C4F890000A
:101E7000500708D53BB104200862D4F8900040F028
:101E80000200C4F8900010070CD506F0200050EABC
:101E90000C0007D008200862D4F8900040F0080039
:101EA000C4F8900010050BD516F0806008D04FF4F0
:101EB00000600862D4F8900040F02000C4F8900060
:101EC000D4F8900000283FF453AE12F020001EBF5B
:101ED00006F020000EF0805210EB020040F003816B
:101EE000D4F890008A6800F0280002F040028018C0
:101EF00000F0A88051E8000F216820F4907041E8BC
:101F00000002F2B1206850E8000F216820F49070C0
:101F100041E80002AAB1206850E8000F216820F4CF
:101F2000907041E8000262B1206850E8000F21681B
:101F300020F4907041E800021AB1206850E8000FC8
:101F4000DAE74FF6FE70CEF6FF7000BF216851E869
:101F5000021F2268014042E80213C3B1216851E820
:101F6000021F2268014042E8021383B1216851E850
:101F7000021F2268014042E8021343B1216851E880
:101F8000021F2268014042E80213002BDED1E06EFE
:101F9000012824D1206850E8000F216820F01000AB
:101FA00041E80002DAB1206850E8000F216820F013
:101FB000100041E8000292B1206850E8000F21684B
:101FC00020F0100041E800024AB1206850E8000FFC
:101FD000216820F0100041E80002002ADAD1202018
:101FE0000021C4F88C00E1662068616781684906B9
:101FF00074D500BF50E8020F216820F0400041E88E
:102000000202002A57D0206850E8020F216820F011
:10201000400041E80202002A4DD0206850E8020F3B
:10202000216820F0400041E80202002A43D02068E5
:1020300050E8020F216820F0400041E80202D2B3CC
:102040002068D7E72046FFF743FD0020C4F8900042
:1020500070BD51E8000F00BF216820F0400041E84A
:102060000002F2B1206850E8000F216820F0400023
:1020700041E80002AAB1206850E8000F216820F072
:10208000400041E8000262B1206850E8000F21687A
:1020900020F0400041E800021AB1206850E8000F2B
:1020A000DAE720200021C4F888002046A167BDE8B7
:1020B000704000F03DBAD4F8800078B142F6B561C6
:1020C000C0F600018163FEF7B5F900283FF450AD7A
:1020D000D4F88000816BBDE8704008472046BDE819
:1020E0007040FFF7F5BC626F002A3FF4F9AE20465E
:1020F00090472168F4E6D0017FF53AADB6F1FF3F95
:10210000C8BF70BD2046BDE87040FFF74BBC000063
:10211000B0B582B0B0B10446D0F8880028B900202C
:1021200084F88400204600F057F82420C4F8880082
:102130002068016821F001010160204601F0F2FBF6
:10214000012802D1012002B0B0BDA06A10B1204622
:1021500000F03CFE2068416821F4904141608168B4
:1021600021F02A018160016841F001010160002035
:10217000C4F89000FEF7A0FA216805460A68120725
:102180000CD56FF07E4C20464FF4001100222B46F8
:10219000CDF800C001F0D2FF78B921680868400787
:1021A0000ED56FF07E4C20464FF4800100222B4666
:1021B000CDF800C001F0C2FF10B1032002B0B0BDE5
:1021C0002020C4F88800C4F88C000020E066206756
:1021D00084F8840002B0B0BD10B594B0044600206D
:1021E0001290CDE91000CDE90E0068463821FDF7C8
:1021F000F7FF206844F20041C4F20001884201D098
:1022000014B010BD4FF440200224029068460094A0
:10221000FEF722FD002818BFFEF7CCF84C20C5F6CB
:102220000000C16841F40031C160C16801F40031AF
:1022300013911399016841F00101016000680EA932
:1022400000F00100139013980C20CDE90E0400203B
:10225000CDE91000072012904FF09040FEF736F9BC
:10226000252001210022FEF7A9FC2520FEF796FC7F
:1022700014B010BD80B5D0F88C30202B1CBF0220CC
:1022800080BD00294FF0010318BF002A01D1184674
:1022900080BD0023C366D0F800C048F20003C4F23A
:1022A00000039C4503D0DCF804301B0204D401F089
:1022B0006DFC0023184680BD5CE800CFD0F800E03C
:1022C0004CF080634EE8003CBCF1000FEFD0036897
:1022D00053E800CFD0F800E04CF080634EE8003CBB
:1022E000BCF1000FE3D0036853E800CFD0F800E062
:1022F0004CF080634EE8003CBCF1000FD7D003687F
:1023000053E800CFD0F800E04CF080634EE8003C8A
:10231000BCF1000FCBD0036853E800CFCEE700003C
:10232000006844F20041C4F20001884218BF7047BF
:1023300040F21000C2F200000121817070470000DD
:102340002DE9F04182B00446D0F8880020283FD122
:102350000E4600294FF001004ED01746002A4BD000
:102360004FF0000821201D46C4F89080C4F8880072
:10237000FEF7A2F9A4F85470A4F85670A1680746B5
:10238000B1F5805F0FD12069002814BF3046B046F8
:10239000064608E016F8010B21688862B4F856007A
:1023A0000138A4F85600B4F85600A8B120468021A0
:1023B00000223B46009501F0C1FEA8B9002EE9D1EC
:1023C00038F8020B21686FF35F2088620026E5E78A
:1023D000022002B0BDE8F0812046402100223B46A9
:1023E000009501F0ABFE18B1032002B0BDE8F0810A
:1023F0002020C4F88800002002B0BDE8F081000071
:10240000D0F88830202B1CBF0220704700294FF0E5
:10241000010318BF002A01D1184670470165002149
:10242000A0F85420A0F856208167C0F89010212110
:10243000C0F88810426E8168B2F1005F09D1B1F531
:10244000805F01D1016971B144F26101C0F6000100
:102450000DE0B1F5805F01D10169A9B343F699712F
:10246000C0F6000134E043F6B961C0F600018167AF
:10247000016851E8021F026841F4000142E80213BA
:10248000002B04BF00207047016851E8021F02685A
:1024900041F4000142E80213002B43D0016851E8E7
:1024A000021F026841F4000142E80213D3B301683D
:1024B00051E8021F026841F4000142E80213002BB8
:1024C00004BF00207047D3E743F6ED51C0F600018A
:1024D000816700BF016851E8001F026841F0800178
:1024E00042E8001303B3016851E8001F026841F09D
:1024F000800142E80013ABB1016851E8001F026897
:1025000041F0800142E8001363B1016851E8001F07
:10251000026841F0800142E80013002B04BF002054
:102520007047D7E700207047002318467047000027
:1025300070470000FEE7000070B5044600681546CD
:102540008369DA0602D4002100226AE00E461021D7
:10255000C1618169890660D4711C54D046BBFEF705
:10256000ABF82068426894F842308169202B0DD086
:1025700012F480420AD111F4004107D0416841F4BD
:1025800080414160FEF798F8054600BF20688169E8
:10259000890605D4FEF790F8401B1A28F6D32AE0E6
:1025A00081698906DBD538E020688169890634D4E1
:1025B000FEF782F8401BB042F6D92068426894F8D2
:1025C00042308169202B0DD012F480420AD111F4DF
:1025D000004107D0416841F480414160FEF76CF84A
:1025E000054600BF206880698006DDD4FEF764F8E8
:1025F000401B1A28F6D3206801228169242110E0AB
:102600008169890609D48169890606D481698906A8
:102610005CBF81695FEA8161F2D52021C16101223D
:1026200004218369DE0506D45E050CD49B0512D413
:10263000B2B9002070BD4FF4807241F00101C26157
:1026400001225E05F2D54FF4806241F00801C261BB
:1026500001229B05ECD541F002014FF40072C261EA
:102660008269920744BF002282628269D20703D145
:10267000826942F00102826142684EF60003CFF6A1
:1026800000631A404260606C08436064202084F854
:102690004100002084F8420084F84000012070BD11
:1026A00070B5044600688069800710D415460E4650
:1026B00009B3701C17D100BF20464FF0FF312A46E6
:1026C000FFF73AFFE8B9206880698007F4D5002059
:1026D00070BD00BFFDF7F0FF401BB04215D8206869
:1026E00080698007F3D4204631462A46FFF724FF4D
:1026F0000028EFD005E0204600212A46FFF71CFF06
:1027000008B1012070BDFDF7D7FF606C40F02000DC
:102710006064202084F84100002084F8420084F89E
:102720004000012070BD000010B540F21004C2F25C
:10273000000420790A2800D210BD002020714FF03B
:1027400090404FF48071FDF7ABFF60B140F2004064
:10275000C4F600004FF48071FDF7A2FFB0FA80F0DC
:102760004009400000E00120A27AA07282F0FF013F
:102770000140824301292172627211D1207802281E
:1027800005D8C00040F2012121FA00F0207040F28B
:10279000D800C2F200000EA10D22FFF731FE217A0F
:1027A000022918BF10BD2078022806D80221C000D7
:1027B000C0F2010121FA00F0207040F2D800C2F20C
:1027C000000007A10D22BDE81040FFF719BE00BFB1
:1027D000415357315F49735F446F776E00000000CB
:1027E000415357325F49735F446F776E00000000BA
:1027F0002DE9F04387B000264C20CDE90466C5F6EC
:102800000000016840F2004941F0020101600168E6
:10281000C4F6000901F0020106910699016801223F
:1028200041F0010101600068042100F00100069000
:10283000069848464FF004080127FDF737FF4FF48C
:10284000807401A801ADD0C048462946FDF73EFE80
:1028500001A8D0C04FF090402946FDF737FE48460A
:102860002946CDE90187CDE90366FDF72FFE07B0C4
:10287000BDE8F08380B540F2840045F20041C2F229
:102880000000C4F2000140F61A120023C2F2100246
:102890004FF0010C80E80E10C0E90433C0E90633A4
:1028A0000362FDF759FF002818BFFDF783FD40F2D2
:1028B0008400C2F200000021FDF704FF002818BFC9
:1028C000FDF778FD40F28400C2F200000021FDF720
:1028D0001FFF002808BF80BDBDE88040FDF76ABD2E
:1028E00080B540F2D80044F20041C2F20000C4F2C8
:1028F000000100234FF00C0C4FF4165280E80E003C
:10290000C0E90333C0E905C3C0E90733C0E90933AF
:10291000FFF7FEFB002818BFFDF74CFD40F2D80082
:10292000C2F200000021FFF787F8002818BFFDF76A
:1029300041FD40F2D800C2F200000021FFF734F858
:10294000002818BFFDF736FD40F2D800C2F20000A3
:10295000FFF70AF8002808BF80BDBDE88040FDF7FA
:1029600029BD0000FEE70000FEE7000010B50020D2
:102970000021002400F0F4F90020102100F0F0F90B
:102980000020B02100F0ECF94020002100F0E8F92F
:10299000601C44B2B4F1FF3FF6DC002000210024AB
:1029A00000F0DEF90020102100F0DAF90020B1215A
:1029B00000F0D6F94020002100F0D2F9601C44B2AA
:1029C000B4F1FF3FF6DC00200021002400F0C8F93C
:1029D0000020102100F0C4F90020B22100F0C0F95D
:1029E0004020002100F0BCF9601C44B2B4F1FF3F6C
:1029F000F6DC00200021002400F0B2F900201021B4
:102A000000F0AEF90020B32100F0AAF94020002127
:102A100000F0A6F9601C44B2B4F1FF3FF6DC10BD33
:102A200080B56420FDF73EFD0020AE2100F098F94E
:102A30000020D52100F094F90020802100F090F9C9
:102A40000020A82100F08CF900201F2100F088F957
:102A50000020D32100F084F90020002100F080F94B
:102A60000020402100F07CF900208D2100F078F951
:102A70000020142100F074F90020A12100F070F969
:102A80000020C82100F06CF90020DA2100F068F97C
:102A90000020002100F064F90020812100F060F99D
:102AA00000208F2100F05CF90020D92100F058F9B6
:102AB00000201F2100F054F90020DB2100F050F924
:102AC0000020402100F04CF90020A42100F048F93A
:102AD000FFF74CFF0020AF2100F042F96420BDE871
:102AE0008040FDF7DFBC0000B0B58AB040F21005B1
:102AF000C2F2000569790020C829CDE90800CDE9B6
:102B00000600CDE90400CDE902000190009048D311
:102B100029786871022923D0012916D0A9BB6878C9
:102B200018B100206870FFF721FF44F65240C0F250
:102B30004400079045F64F70C4F65770069044F273
:102B40004850C4F64C4005901FE06878012803D037
:102B500001206870FFF70AFFEA8813A105A812E0B8
:102B60006878022803D002206870FFF7FFFE45F264
:102B7000DD04EA78C0F6000405A8214601F050FC07
:102B8000EA786846214601F04BFC05AA00200021A6
:102B9000102300F0C5F86A4600200221102300F03F
:102BA000BFF80AB0B0BD00BF54696D653A25303535
:102BB000640000002DE9F0410C46064640B20028B2
:102BC00044BF0234002606F00F08002041461F468D
:102BD000A2F1200500F0C4F8300900F11006002031
:102BE000314600F0BDF8A4F15000C1B2002000F061
:102BF000B7F8102FE8B26CD144F6E4250701C0F60F
:102C00000005E95D402000F0ABF8781C295C40200D
:102C100000F0A6F8B81C295C402000F0A1F8F81CD0
:102C2000295C402000F09CF8381D295C402000F011
:102C300097F8781D295C402000F092F8B81D295CB7
:102C4000402000F08DF8F81D295C402000F088F845
:102C50000020414600F084F80020314600F080F862
:102C6000A4F14F00C1B2002000F07AF807F108008B
:102C7000295C402000F074F807F10900295C40202D
:102C800000F06EF807F10A00295C402000F068F8B7
:102C900007F10B00295C402000F062F807F10C00FE
:102CA000295C402000F05CF807F10D00295C402011
:102CB00000F056F807F10E00295C402000F050F8B3
:102CC00007F10F00284401784020BDE8F04100F0F2
:102CD00047B844F6BC0200EB4000C0F6000212F810
:102CE000101002EB4007402000F03AF87978BC78E9
:102CF000FD783E79402000F033F84020214600F076
:102D00002FF84020294600F02BF84020314600F0F3
:102D100027F8781D01784020BDE8F04100F020B888
:102D20002DE9F04115461278002A08BFBDE8F08170
:102D300098460E4607460024F8B2F1B2D2B2434696
:102D4000FFF738FF0837F8B201347828E0B288BFBF
:102D500002362A5C88BF0027002AEDD1BDE8F08149
:102D600080B582B08DF8060040F284008DF807101F
:102D70004FF00A0CC2F200000DF106027821022386
:102D8000CDF800C0FDF73AFD02B080BD70470000ED
:102D90007047000080B5FDF7B3FE40F21400C2F2A8
:102DA0000000017809299CBF013101704178C729D1
:102DB0009CBF0131417040F21600C2F20000018850
:102DC0000131018080BD00007047000080B5816A3C
:102DD000CA070CD18A0715D44A071ED40A0727D47C
:102DE000CA0630D48A0639D44A0657D541E002686B
:102DF000D0F82CC0536823F4003343EA0C0353602B
:102E00008A07E9D50268D0F830C0536823F48033CC
:102E100043EA0C0353604A07E0D50268D0F834C097
:102E2000536823F4802343EA0C0353600A07D7D581
:102E30000268D0F838C0536823F4004343EA0C0317
:102E40005360CA06CED50268D0F83CC0936823F41C
:102E5000805343EA0C0393608A06C5D50268D0F814
:102E600040C0936823F4005343EA0C0393604A067E
:102E700014D50268D0F844C05368BCF5801F23F411
:102E8000801343EA0C03536008D1D2F804C0D0F891
:102E900048E02CF4C00343EA0E035360090658BF10
:102EA00080BD0168C06C4A6822F40022104348606B
:102EB00080BD0000806A0021A0F85E10A0F85610C6
:102EC000FEF706BEB0B586B040F21005C2F20005AE
:102ED000A87801282AD1E87A00215428A9701AD1AB
:102EE000287B692817D1687B6D2814D1A87B6528B9
:102EF00011D1EA8801AC0EA1204601F091FA2046DA
:102F0000FDF779F982B240F2D800C2F20000214602
:102F1000C823FFF715FA40F2D80005F10B01C2F201
:102F200000000422FFF7A6F90220A87006B0B0BD89
:102F300025640D0A00000000B0F860200168D0F898
:102F40008C30222B40F0CD80D1F824C0836D02EA72
:102F50000C0223F8022B8365B0F85E20013AA0F83A
:102F60005E20B0F85E20002A18BF704751E8001FAD
:102F7000026821F4907142E80013C3B3016851E87C
:102F8000001F026821F4907142E800137BB30168CE
:102F900051E8001F026821F4907142E8001333B336
:102FA000016851E8001F026821F4907142E80013A3
:102FB000EBB10168DAE700BF016851E8021F02685F
:102FC00021F0010142E80213DBB1016851E8021F60
:102FD000026821F0010142E8021393B1016851E84F
:102FE000021F026821F0010142E802134BB101689F
:102FF00051E8021F026821F0010142E80213002B90
:10300000DAD12021C0F88C100021416701670168E6
:1030100048F20002C4F20002914202D04A68120251
:1030200036D4C16E012918BFFFF77AB90021C166F5
:10303000016851E8001F026821F0100142E8001306
:10304000DBB1016851E8001F026821F0100142E87D
:10305000001393B1016851E8001F026821F01001CC
:1030600042E800134BB1016851E8001F026821F0EB
:10307000100142E80013002BDAD10168CA69D206B8
:1030800044BF10220A62B0F85C10FEF789BC00BF92
:1030900051E8001F026821F0806142E80013002B14
:1030A000BFD0016851E8001F026821F0806142E84A
:1030B0000013002BB5D0016851E8001F026821F011
:1030C000806142E80013002BABD0016851E8001F7B
:1030D000026821F0806142E80013002BA1D0016852
:1030E000D6E7886940F00800886170472DE9F04F05
:1030F00081B004460068B4F86050C3690168826812
:10310000D4F88C70222F5FD1B4F86870002F18BFEC
:1031100013F020035FD1B4F85E00002858D0B4F853
:103120006810884254D200BF206850E8020F21681E
:1031300020F0805041E80202DAB1206850E8020F26
:10314000216820F0805041E8020292B1206850E8E6
:10315000020F216820F0805041E802024AB1206845
:1031600050E8020F216820F0805041E80202002A56
:10317000DAD142F63970C0F600006067206850E886
:10318000000F216840F0200041E8000202B32068EF
:1031900050E8000F216840F0200041E80002BAB179
:1031A000206850E8000F216840F0200041E800024C
:1031B00072B1206850E8000F216840F0200041E81B
:1031C0000002002ADAD103E0816941F0080181613F
:1031D00001B0BDE8F08F4FF6FE7648F2000BCEF658
:1031E000FF7601F4807802F001074FF0000AC4F284
:1031F000000B00BF416AA26D294022F8021BA265A4
:10320000B4F85E100139A4F85E10D0F81C905FEAA3
:1032100049711AD0B8F1000F18BF19F0010140F040
:10322000D380002F18BF19F0020140F0DB80002F7F
:1032300018BF19F0040140F0E380D4F8900020B1E9
:103240002046FEF745FCC4F890A0B4F85E000028C4
:1032500040F08A80206850E8000F216820F48070D8
:1032600041E80002E2B1206850E8000F216820F434
:10327000807041E800029AB1206850E8000F216890
:1032800020F4807041E8000252B1206850E8000F3D
:10329000216820F4807041E80002002ADAD100BFE2
:1032A000206850E8020F2168304041E80202C2B1B4
:1032B000206850E8020F2168304041E8020282B1E4
:1032C000206850E8020F2168304041E8020242B114
:1032D000206850E8020F2168304041E80202002ACD
:1032E000DED12020C4F88C00C4F874A0C4F870A00B
:1032F0002068584502D0416809023BD4E06E01289D
:1033000040F08C80C4F86CA0206850E8000F216861
:1033100020F0100041E80002DAB1206850E8000F08
:10332000216820F0100041E8000292B1206850E8C6
:10333000000F216820F0100041E800024AB1206827
:1033400050E8000F216820F0100041E80002002A38
:10335000DAD12068C169C90644BF10210162B4F8FE
:103360005C102046FEF71CFB5FEA89607FF5D3AE58
:1033700020683FE750E8000F216820F0806041E8B6
:103380000002002ABAD0206850E8000F216820F01F
:10339000806041E80002002AB0D0206850E8000FA9
:1033A000216820F0806041E80002002AA6D0206851
:1033B00050E8000F216820F0806041E80002002AF8
:1033C0009CD02068D6E700BF01210162D4F890109C
:1033D00041F00101C4F89010002F18BF19F002014C
:1033E0003FF425AF02210162D4F8901041F00401AE
:1033F000C4F89010002F18BF19F004013FF41DAF5E
:1034000004210162D4F8900040F00200C4F890005A
:10341000D4F8900000287FF413AF16E72046FEF79B
:103420007FFF5FEA8960A3D475E60000B0F8601002
:103430000268D0F88C30222B40F0CD80526A836D28
:1034400011401970816D01318165B0F85E1001394C
:10345000A0F85E10B0F85E10002918BF704700BFDA
:10346000016851E8001F026821F4907142E80013DE
:10347000BBB3016851E8001F026821F4907142E873
:10348000001373B3016851E8001F026821F49071C2
:1034900042E800132BB3016851E8001F026821F4D1
:1034A000907142E80013002BDAD11AE0016851E86C
:1034B000021F026821F0010142E80213DBB101683A
:1034C00051E8021F026821F0010142E8021393B1A2
:1034D000016851E8021F026821F0010142E802136D
:1034E0004BB1016851E8021F026821F0010142E876
:1034F0000213002BDAD12021C0F88C100021416783
:103500000167016848F20002C4F20002914202D051
:103510004A68120236D4C16E012918BFFEF700BFF7
:103520000021C166016851E8001F026821F0100106
:1035300042E80013DBB1016851E8001F026821F086
:10354000100142E8001393B1016851E8001F0268BE
:1035500021F0100142E800134BB1016851E8001F4F
:10356000026821F0100142E80013002BDAD1016853
:10357000CA69D20644BF10220A62B0F85C10FEF796
:103580000FBA00BF51E8001F026821F0806142E8D5
:103590000013002BBFD0016851E8001F026821F022
:1035A000806142E80013002BB5D0016851E8001F8C
:1035B000026821F0806142E80013002BABD0016863
:1035C00051E8001F026821F0806142E80013002BDF
:1035D000A1D00168D6E7906940F00800906170477B
:1035E0002DE9F04F81B004460068B4F86050C3691B
:1035F00001688268D4F88C70222F5FD1B4F86870AB
:10360000002F18BF13F020035FD1B4F85E0000282C
:1036100058D0B4F86810884254D200BF206850E8EF
:10362000020F216820F0805041E80202DAB12068E0
:1036300050E8020F216820F0805041E8020292B168
:10364000206850E8020F216820F0805041E8020213
:103650004AB1206850E8020F216820F0805041E80C
:103660000202002ADAD143F22D40C0F60000606762
:10367000206850E8000F216840F0200041E8000277
:1036800002B3206850E8000F216840F0200041E8B4
:103690000002BAB1206850E8000F216840F0200015
:1036A00041E8000272B1206850E8000F216840F044
:1036B000200041E80002002ADAD103E0816941F0EC
:1036C0000801816101B0BDE8F08F4FF6FE7648F247
:1036D000000BCEF6FF7601F4807802F001074FF080
:1036E000000AC4F2000B00BF406AA16D28400870B8
:1036F000A16D20680131A165B4F85E100139A4F80C
:103700005E10D0F81C905FEA49711AD0B8F1000F32
:1037100018BF19F0010140F0D380002F18BF19F035
:10372000020140F0DB80002F18BF19F0040140F0C7
:10373000E380D4F8900020B12046FEF7C9F9C4F820
:1037400090A0B4F85E00002840F08A80206850E81D
:10375000000F216820F4807041E80002E2B1206887
:1037600050E8000F216820F4807041E800029AB10F
:10377000206850E8000F216820F4807041E80002C2
:1037800052B1206850E8000F216820F4807041E8B1
:103790000002002ADAD100BF206850E8020F216839
:1037A000304041E80202C2B1206850E8020F2168AF
:1037B000304041E8020282B1206850E8020F2168DF
:1037C000304041E8020242B1206850E8020F21680F
:1037D000304041E80202002ADED12020C4F88C00EB
:1037E000C4F874A0C4F870A02068584502D041689D
:1037F00009023BD4E06E012840F08C80C4F86CA034
:10380000206850E8000F216820F0100041E8000215
:10381000DAB1206850E8000F216820F0100041E87C
:10382000000292B1206850E8000F216820F01000DB
:1038300041E800024AB1206850E8000F216820F0FA
:10384000100041E80002002ADAD12068C169C906E7
:1038500044BF10210162B4F85C102046FEF7A0F8C6
:103860005FEA89607FF5D1AE20683DE750E8000F40
:10387000216820F0806041E80002002ABAD0206868
:1038800050E8000F216820F0806041E80002002A23
:10389000B0D0206850E8000F216820F0806041E837
:1038A0000002002AA6D0206850E8000F216820F00E
:1038B000806041E80002002A9CD02068D6E700BF63
:1038C00001210162D4F8901041F00101C4F8901078
:1038D000002F18BF19F002013FF425AF0221016249
:1038E000D4F8901041F00401C4F89010002F18BFD4
:1038F00019F004013FF41DAF04210162D4F89000D7
:1039000040F00200C4F89000D4F8900000287FF442
:1039100013AF16E72046FEF703FD5FEA8960A3D4E4
:1039200073E6000070B504462269D4E9021300680A
:103930000A436169E6691143026846F6F315CCF65D
:10394000FF7531432A4011430160416848F2000E7F
:1039500021F4405119434160A269C4F2000E704540
:103960001CBF216A0A4381684FF2FF43C1F2FF1373
:10397000194011438160C16AD4F824C044F2004266
:1039800021F00F01C4F2000241EA0C019042C16231
:103990000DD0704511D043F60001C4F201018842F8
:1039A00045D18821C5F600010A6874A30EE088217C
:1039B000C5F6000109688A0804E08821C5F60001FF
:1039C00009688A0A44F69C03C0F6000302F003016A
:1039D00053F82120704542F20040C0F2F4002DD08F
:1039E000B6F5004F11D1082A4FF0010100F2BD8059
:1039F000DFE802F0056775BB6DBBBBBB7300FDF76D
:103A00003FFB002840F0608065E0082A4FF001018C
:103A100000F2AB80DFE802F0058391A989A9A9A98A
:103A20008F00FDF72DFB002840F07C8081E0102204
:103A3000704542F20040C0F2F400D1D1082A4FF0A4
:103A4000010100F29280DFE802F0059013900B90E4
:103A500090901100FDF714FB30B1D4F824C007E0BA
:103A6000FDF746FB0028F8D100217EE04FF400402E
:103A700044F68401C0F6000131F81C106268B0FB06
:103A8000F1F002EB420188424FF001016DD31303C4
:103A900098426AD8010E000210EB520041F1000179
:103AA0000023FCF765FB4FF6FF42A0F54071C0F222
:103AB0000F02914203D82168C860002155E001211E
:103AC00053E0FDF7F9FA30B1D4F824C007E0FDF770
:103AD0000FFB0028F8D1002147E04FF4004044F6E6
:103AE0008401C0F6000131F81C106268B0FBF1F0EF
:103AF000510801EB4000B0FBF2F04FF6EF72A0F17D
:103B00001001914209D84FF6F0710140C0F3420014
:103B100022680844D060002127E0012125E0FDF75C
:103B2000CBFA30B1D4F824C007E0FDF7E1FA002861
:103B3000F8D1002119E04FF4004044F68401C0F6AA
:103B4000000131F81C104FF6EF72B0FBF1F0616824
:103B500000EB5100B0FBF1F0A0F11001914203D84D
:103B60002168C860002100E001214FF00110A0662B
:103B7000002208466267A26770BD00BF0100000016
:103B80000400000002000000080000008165A0F8A9
:103B90005C20A0F85E2081680023436751B1B1F139
:103BA000805F0BD0B1F5805F0CD1016921B940F283
:103BB000FF110AE0016939B9FF2106E0016919B175
:103BC0003F2102E0002100E07F21A0F860100021E9
:103BD000C0F890102221C0F88C1000BF016851E895
:103BE000021FD0F800C041F001014CE80213F3B10C
:103BF000016851E8021FD0F800C041F001014CE813
:103C00000213A3B1016851E8021FD0F800C041F0CF
:103C100001014CE8021353B1016851E8021FD0F8CA
:103C200000C041F001014CE80213002BD6D1416ED7
:103C3000B1F1005F03D1B0F86810914240D98268B9
:103C40000169B2F5805F07D1002946D043F22D41CA
:103C5000C0F60001416707E043F22D42C0F60002C2
:103C6000002942673ED000BF016851E8001F02688A
:103C700041F4907142E80013002B00F0B480016819
:103C800051E8001F026841F4907142E80013002BD4
:103C900000F0A980016851E8001F026841F49071AA
:103CA00042E80013002B00F09E80016851E8001FDD
:103CB000026841F4907142E80013002BD4D192E0E5
:103CC00082680169B2F5805F35D1002960D043F286
:103CD000E151C0F60001416734E042F63971C0F6A7
:103CE00000014167016851E8001F026841F02001AE
:103CF00042E80013002B76D0016851E8001F0268EB
:103D000041F0200142E80013002B6CD0016851E81B
:103D1000001F026841F0200142E80013002B62D02E
:103D2000016851E8001F026841F0200142E80013D9
:103D3000002BD7D157E043F2E152C0F600024267B0
:103D400061B300BF016851E8001F026841F480714F
:103D500042E8001313B3016851E8001F026841F400
:103D6000807142E80013CBB1016851E8001F02687E
:103D700041F4807142E8001383B1016851E8001FEB
:103D8000026841F4807142E80013002BDAD105E0AB
:103D900043F2ED01C0F60001416700BF016851E840
:103DA000021F026841F0805142E80213DBB1016852
:103DB00051E8021F026841F0805142E8021393B1BA
:103DC000016851E8021F026841F0805142E8021385
:103DD0004BB1016851E8021F026841F0805142E88E
:103DE0000213002BDAD1002070470000D0F88810B1
:103DF00021290FD1B0F8561071B1016D036831F867
:103E0000022B6FF35F229A620165B0F856100139F8
:103E1000A0F85610704700BF016851E8001F026803
:103E200021F0800142E800133BB3016851E8001F14
:103E3000026821F0800142E80013F3B1016851E803
:103E4000001F026821F0800142E80013ABB1016855
:103E500051E8001F026821F0800142E80013002BA6
:103E6000DAD10AE0016851E8001F026841F0400120
:103E700042E80013002B08BF7047016851E8001F9B
:103E8000026841F0400142E80013002BC2D00168F3
:103E900051E8001F026841F0400142E80013002B86
:103EA000B8D0016851E8001F026841F0400142E8C3
:103EB0000013002BD6D1ADE7D0F8881021296AD1A4
:103EC000B0F86A1019B966E001390A0463D0B0F895
:103ED00056209AB10268D3691B06F5D5D0F850C0B8
:103EE0003CF8023B6FF35F239362C0F850C0B0F818
:103EF0005620013AA0F85620E6E700BF016851E8D5
:103F0000021F026821F4000142E80213CBB30168EA
:103F100051E8021F026821F4000142E8021383B352
:103F2000016851E8021F026821F4000142E802130F
:103F30003BB3016851E8021F026821F4000142E826
:103F40000213002BDAD11CE0016851E8001F02685F
:103F500041F0400142E80013EBB1016851E8001F55
:103F6000026841F0400142E80013A3B1016851E842
:103F7000001F026841F0400142E80013002B08BF17
:103F80007047016851E8001F026841F0400142E8B3
:103F90000013002BD8D17047D0F8881021290DD1FB
:103FA000B0F8561061B1016D026811F8013B9362DF
:103FB0000165B0F856100139A0F85610704700BFDF
:103FC000016851E8001F026821F0800142E80013F7
:103FD0003BB3016851E8001F026821F0800142E80C
:103FE0000013F3B1016851E8001F026821F080015D
:103FF00042E80013ABB1016851E8001F026821F0EC
:10400000800142E80013002BDAD10AE0016851E890
:10401000001F026841F0400142E80013002B08BF76
:104020007047016851E8001F026841F0400142E812
:104030000013002BC2D0016851E8001F026841F054
:10404000400142E80013002BB8D0016851E8001F7E
:10405000026841F0400142E80013002BD6D1ADE7E1
:10406000D0F88810212968D1B0F86A1019B964E035
:1040700001390A0461D0B0F856208AB10268D369C8
:104080001B06F5D5D0F850C01CF8013B9362C0F870
:1040900050C0B0F85620013AA0F85620E8E700BF1B
:1040A000016851E8021F026821F4000142E802138E
:1040B000CBB3016851E8021F026821F4000142E815
:1040C000021383B3016851E8021F026821F4000162
:1040D00042E802133BB3016851E8021F026821F471
:1040E000000142E80213002BDAD11CE0016851E81C
:1040F000001F026841F0400142E80013EBB1016883
:1041000051E8001F026841F0400142E80013A3B1EA
:10411000016851E8001F026841F0400142E80013C5
:10412000002B08BF7047016851E8001F026841F08A
:10413000400142E80013002BD8D170472DE9F0412F
:10414000044600681546C2690E461140891BB1FA43
:1041500081F14909A94240F09C80DDF81880B8F14E
:10416000000F26D018F101017CD100BFC169314098
:10417000891BB1FA81F14909A94240F08A80C169DD
:104180003140891BB1FA81F14909A94240F081808F
:10419000C1693140891BB1FA81F14909A94278D13D
:1041A000C1693140891BB1FA81F14909A942DDD0C9
:1041B0006FE0FCF781FA00BF206850E8000F21682B
:1041C00020F4D07041E80002BAB3206850E8000F34
:1041D000216820F4D07041E8000272B3206850E8F2
:1041E000000F216820F4D07041E800022AB3206853
:1041F00050E8000F216820F4D07041E80002002A46
:10420000DAD11AE0206850E8020F216820F001009E
:1042100041E80202DAB1206850E8020F216820F07C
:10422000010041E8020292B1206850E8020F2168C3
:1042300020F0010041E802024AB1206850E8020F74
:10424000216820F0010041E80202002ADAD1202092
:10425000C4F88800C4F88C00002084F8840003208F
:10426000BDE8F0811F4600BFFCF726FAC01B4045A1
:10427000A2D820680168490744BFC1695FEA0151BB
:104280000AD4C0693040801BB0FA80F04009A842CF
:10429000EAD00020BDE8F0814FF40061016200BF68
:1042A00050E8000F216820F4D07041E80002C2B34A
:1042B000206850E8000F216820F4D07041E8000227
:1042C0007AB3206850E8000F216820F4D07041E8EC
:1042D000000232B3206850E8000F216820F4D0704B
:1042E00041E80002EAB12068DAE700BF206850E840
:1042F000020F216820F0010041E80202DAB12068D3
:1043000050E8020F216820F0010041E8020292B15A
:10431000206850E8020F216820F0010041E8020205
:104320004AB1206850E8020F216820F0010041E8FE
:104330000202002ADAD12020C4F88800C4F88C00D8
:10434000C4F89000002084F884000320BDE8F081C8
:1043500040F2D800C2F20000FDF7BCBBFEE700004F
:1043600010B582B004468DF8070040F2D800C2F2C2
:1043700000000DF1070101220223FDF7E1FF2046B5
:1043800002B010BD9AB0FCF7C9FB08AC201D442157
:10439000FBF726FF002540F20040CDE90655CDE9A8
:1043A0000455CDE90255C5F600000168012262F30B
:1043B0004A210160006800F4C0600190019820204B
:1043C0000890B020CDE91025CDE912052046FCF774
:1043D00007FF20B1EFF3108072B600BFFEE74F2059
:1043E000CDE9020502A80221CDE90455CDE9065523
:1043F000FCF738FD18B1EFF3108072B6FEE7FEF758
:10440000F7F9FEF737FAFEF76BFAFBF743FF00BF49
:10441000FEF76AFBFEF788F9FEF754FDF8E70000A7
:104420000FB4084B10B504A902AA039800F01CF8B9
:10443000044602A9002000F0B8F9204610BC5DF83F
:1044400014FB0000AB47000802E008C8121F08C1B7
:10445000002AFAD170477047002001E001C1121F05
:10446000002AFBD1704700002DE9FF4F8BB0884632
:104470000546002606E025280BD0DDE90D12904701
:104480006D1C761C28780028F5D10FB03046BDE8A9
:10449000F08F0024A146A2460122AE4900E0044369
:1044A00015F8013F203B02FA03F00842F7D12878C3
:1044B0002A2810D06FF02F022878A0F130010929A6
:1044C00015D809EB890102EB410144F0020400EB2D
:1044D00001096D1CF0E758F8041B5FEA010903D5D8
:1044E00044F40054C9F1000944F002046D1C28781A
:1044F0002E2817D115F8010F44F004042A280ED0F5
:104500006FF02F022878A0F1300109290AD80AEBB0
:104510008A0102EB410100EB010A6D1CF2E758F839
:1045200004AB6D1C28786C280FD006DC4C2817D003
:1045300068280DD06A2814D104E0742810D07A2895
:104540000FD10DE044F400140AE044F4801401E0BB
:1045500044F440146978814202D104F580146D1C42
:104560006D1C2878692865D006DC00288DD063286A
:1045700027D0642806D15DE06E2808D073282AD0A1
:10458000752877D0DDE90D129047761CE0E0C4F382
:104590000250022809D003280DD0D8F800100428B2
:1045A0000DD00E6008F10408D2E0D8F80010F21720
:1045B000C1E90062F6E7D8F800100E80F2E70E704D
:1045C000F0E718F8041B8DF8001000208DF80100AA
:1045D000EB46012003E058F804BB4FF0FF306107C1
:1045E0004FF0000701D40AE07F1C57450DDA8742DF
:1045F000FADB1BF807100029F6D106E07F1C874282
:10460000FCDB1BF807100029F8D1DDE90D23A9EB2D
:1046100007008146214600F0B1F83044C61904E095
:10462000DDE90D121BF8010B90477F1EF8D22146E1
:10463000484688E058F8040BC4F302514FF00A0BC7
:10464000032900D100B2042900D140B2002802DAC7
:1046500040422D2102E0210505D52B218DF82410A3
:10466000012104E006E0E10710D02021F6E708AFC1
:10467000089113E058F8040BC4F302514FF00A0BF1
:10468000032900D180B2042900D1C0B20021EEE795
:104690005946FBF7B7FD303107F8011D0028F7D167
:1046A000ADEB070000F1200B600702D524F4803445
:1046B00001E04FF0010ADA4502DDAAEB0B0000E051
:1046C0000020824600EB0B0108980144A9EB010091
:1046D0000A90E00306D4DDE90D2321460A9800F094
:1046E0004DF806444FF0000908E009A911F8090047
:1046F000DDE90D12904709F10109761C08998945F9
:10470000F3DBE0030CD5DDE90D2321460A9800F028
:1047100035F8064404E0DDE90D1230209047761CA0
:10472000BAF10001AAF1010AF5DC05E0DDE90D129C
:1047300017F8010B9047761CBBF10001ABF1010BA0
:10474000F4DC0A982146DDE90D2300F005F8064463
:104750006D1C97E6092801002DE9F041044600256B
:104760001E461746880404D405E039462020B04789
:104770006D1C641EF9D52846BDE8F0812DE9F04195
:10478000044600251E469046C80301D5302700E0A8
:104790002027880404D505E041463846B0476D1C03
:1047A000641EF9D52846BDE8F0810A68531C0B60E9
:1047B0001070704710B5044601E0FFF7D1FD14F802
:1047C000010B04490028F8D1BDE810400A20FFF78A
:1047D000C7BD000000000020000000000100000034
:1047E00002000000010000000300000005000000BE
:1047F0000100000001000000060000000A000000A7
:10480000200000000200000004000000080000007A
:1048100010000000400000008000000000010000C7
:104820000002000000000000000000000000000086
:104830000000000001000000020000000300000072
:1048400004000000A0860100400D0300801A06004D
:1048500000350C0040420F0080841E0000093D001E
:1048600000127A000024F40000366E010048E801CE
:10487000006CDC02000000000000000000000000EE
:1048800000000000010002000400060008000A0009
:104890000C0010002000400080000001000000001B
:1048A00004000000020000000800000001010103F4
:1048B00007010000080402040801010100000000D3
:1048C00000000000002F0000000007000700001497
:1048D0007F147F1400242A7F2A12006264081323A5
:1048E00000364955225000000503000000001C223C
:1048F0004100000041221C000014083E081400087A
:10490000083E0808000000A0600000080808080829
:10491000000060600000002010080402003E5149C1
:10492000453E0000427F400000426151494600215F
:1049300041454B31001814127F1000274545453979
:10494000003C4A49493000017109050300364949D4
:10495000493600064949291E00003636000000008D
:1049600056360000000814224100001414141414D8
:104970000000412214080002015109060032495981
:10498000513E007C1211127C007F49494936003E9D
:1049900041414122007F4141221C007F4949494158
:1049A000007F09090901003E4149497A007F080852
:1049B000087F0000417F4100002040413F01007F0F
:1049C00008142241007F40404040007F020C027FDB
:1049D000007F0408107F003E4141413E007F0909ED
:1049E0000906003E4151215E007F09192946004613
:1049F000494949310001017F0101003F4040403FEA
:104A0000001F2040201F003F4038403F0063140833
:104A1000146300070870080700615149454300000E
:104A20007F41410000552A552A55000041417F0031
:104A30000004020102040040404040400000010226
:104A40000400002054545478007F4844443800380F
:104A50004444442000384444487F00385454541897
:104A600000087E0901020018A4A4A47C007F0804A9
:104A700004780000447D4000004080847D00007F79
:104A8000102844000000417F4000007C0418047896
:104A9000007C0804047800384444443800FC242492
:104AA00024180018242418FC007C0804040800487A
:104AB0005454542000043F444020003C4040207C9B
:104AC000001C2040201C003C4030403C004428108A
:104AD0002844001CA0A0A07C004464544C4414143E
:104AE0001414141400000000000000000000000076
:104AF00000000000000000F800000000000000338B
:104B00003000000000100C06100C06000000000031
:104B10000000000040C07840C0784000043F04041A
:104B20003F040400007088FC08300000001820FFDB
:104B3000211E0000F008F000E018000000211C0316
:104B40001E211E0000F00888700000001E21232492
:104B50001927211010160E000000000000000000B0
:104B600000000000000000E0180402000000000740
:104B70001820400000020418E00000000040201847
:104B800007000000404080F0804040000202010F1A
:104B900001020200000000F0000000000101011FFE
:104BA00001010100000000000000000080B0700062
:104BB00000000000000000000000000000010101F2
:104BC0000101010100000000000000000030300081
:104BD000000000000000000080601804006018065B
:104BE0000100000000E010080810E000000F102095
:104BF00020100F00001010F8000000000020203FDF
:104C00002020000000700808088870000030282468
:104C10002221300000300888884830000018202009
:104C200020110E000000C02010F80000000704242E
:104C3000243F240000F80888880808000019212073
:104C400020110E0000E0108888180000000F1120CD
:104C500020110E0000380808C83808000000003F86
:104C6000000000000070880808887000001C2221E5
:104C700021221C0000E010080810E0000000312292
:104C800022110F00000000C0C00000000000003032
:104C90003000000000000080000000000000806084
:104CA0000000000000008040201008000001020405
:104CB00008102000404040404040400004040404EC
:104CC00004040400000810204080000000201008A8
:104CD00004020100007048080808F00000000030DD
:104CE00036010000C030C828E810E000071827246B
:104CF00023140B000000C038E0000000203C230219
:104D00000227382008F8888888700000203F20207B
:104D100020110E00C03008080808380007182020AD
:104D20002010080008F808080810E000203F2020A4
:104D300020100F0008F88888E8081000203F202085
:104D40002320180008F88888E8081000203F200079
:104D500003000000C03008080838000007182020B1
:104D6000221E020008F808000008F808203F210170
:104D700001213F20000808F8080800000020203F1B
:104D80002020000000000808F8080800C08080808B
:104D90007F00000008F888C028180800203F200184
:104DA0002638200008F8080000000000203F2020DE
:104DB0002020300008F8F800F8F80800203F003FF5
:104DC000003F200008F830C00008F808203F20000D
:104DD00007183F00E01008080810E0000F1020201E
:104DE00020100F0008F808080808F000203F2101F3
:104DF00001010000E01008080810E0000F1824244A
:104E000038504F0008F8888888887000203F2000BC
:104E1000030C302000708808080838000038202172
:104E200021221C00180808F8080818000000203F7C
:104E30002000000008F808000008F808001F2020E3
:104E400020201F000878880000C8380800000738B4
:104E50000E010000F80800F80008F800033C070005
:104E6000073C0300081868808068180820302C036D
:104E7000032C30200838C800C83808000000203F44
:104E80002000000010080808C83808002038262133
:104E900020201800000000FE020202000000007F37
:104EA00040404000000C30C0000000000000000145
:104EB0000638C00000020202FE0000000040404030
:104EC0007F00000000000402020204000000000055
:104ED00000000000000000000000000080808080D2
:104EE00080808080000202040000000000000000BA
:104EF0000000000000008080808000000019242253
:104F000022223F2008F8008080000000003F11208E
:104F100020110E000000008080800000000E112093
:104F200020201100000000808088F800000E112071
:104F300020103F200000808080800000001F22227F
:104F400022221300008080F0888888180020203FEB
:104F5000202000000000808080808000006B9494FE
:104F60009493600008F8008080800000203F2100BA
:104F700000203F2000809898000000000020203F83
:104F800020200000000000809898000000C0808071
:104F9000807F000008F8000080808000203F24020D
:104FA0002D302000000808F8000000000020203FFD
:104FB000202000008080808080808000203F2000B2
:104FC0003F20003F8080008080800000203F210043
:104FD00000203F200000808080800000001F2020F3
:104FE00020201F00808000808000000080FFA12022
:104FF00020110E000000008080808000000E112033
:1050000020A0FF80808080008080800020203F21C1
:105010002000010000008080808080000033242474
:1050200024241900008080E0808000000000001F20
:10503000202000008080000000808000001F2020D1
:1050400020103F20808080000080808000010E3092
:105050000806010080800080008080800F300C03F3
:105060000C300F0000808000808080000020312EF6
:105070000E312000808080000080808080818E70D2
:105080001806010000808080808080000021302C84
:105090002221300000000000807C0202000000009D
:1050A000003F404000000000FF0000000000000042
:1050B000FF0000000002027C800000000040403F32
:1050C00000000000000601010202040400000000CC
:1050D00000000000496E69745F4F4B0D004B45594D
:1050E0003A25303364004253505F496E69740000C2
:1050F0001051000800000020100000004844000883
:1051000020510008100000206005000058440008ED
:1051100000000000010000001000000000093D0038
:0400000508000139B5
:00000001FF
