:020000040800F2
:10000000000400204D010008855700082141000828
:1000100081570008390C0008F96900080000000049
:100020000000000000000000000000001160000857
:100030007D0D000800000000395C000869600008C0
:1000400067010008670100086701000867010008F0
:1000500067010008670100086701000867010008E0
:1000600067010008670100086701000867010008D0
:1000700067010008670100086701000867010008C0
:1000800067010008670100086701000867010008B0
:100090000000000067010008670100086701000810
:1000A0006701000867010008670100086701000890
:1000B0006701000867010008670100086701000880
:1000C0006701000867010008670100086701000870
:1000D0006701000867010008670100086701000860
:1000E0006701000867010008670100086701000850
:1000F0006701000800000000000000006701000820
:10010000670100086701000867010008670100082F
:10011000670100086701000867010008670100081F
:10012000670100086701000867010008670100080F
:100130006701000867010008DFF80CD000F048FAFA
:1001400000480047E96A000800040020064880478C
:1001500006480047FEE7FEE7FEE7FEE7FEE7FEE7AC
:10016000FEE7FEE7FEE7FEE7496100083901000807
:100170002DE9F05F0546002092469B4688460646DC
:10018000814640241BE0284641464746224600F06F
:1001900057F853465A46C01A914110D31146184693
:1001A000224600F03EF82D1A67EB01084F46224622
:1001B0000120002100F035F817EB00094E41201E08
:1001C000A4F10104DFDC484631462A464346BDE837
:1001D000F09FD2B201E000F8012B491EFBD270471C
:1001E0000022F6E710B513460A4604461946FFF703
:1001F000F0FF204610BD30B50B46014600202022FE
:10020000012409E021FA02F59D4205D303FA02F523
:10021000491B04FA02F52844151EA2F10102F1DC83
:1002200030BD202A04DB203A00FA02F1002070479A
:100230009140C2F1200320FA03F319439040704724
:10024000202A04DB203A21FA02F00021704721FA2B
:1002500002F3D040C2F12002914008431946704792
:100260002DE9FE4F804681EA0300C00F0C46009046
:1002700021F0004123F00045B8EB0200A94105D26E
:100280004046214690461C460B46024623F000405D
:10029000104347D0270DC7F30A00C3F30A51029059
:1002A000401A019040286BDAC3F3130040F4801B1E
:1002B0000098924620B10023D2EB030A63EB0B0BAC
:1002C00001985946C0F140025046FFF7AAFF064682
:1002D0000D4650465946019A00F08CF910EB080083
:1002E0006141002487EA115284EAE7731A4340D03F
:1002F000009A62B3019A012A4FEA075215DC001BEB
:1003000061EB02014FF0004202EA0752CDE90042E0
:10031000001C41F5801132462B4600F08CF903B0E9
:10032000BDE8F08F40462146F9E7001B61EB020172
:10033000001C41F5801300185B412018A2F500173E
:1003400047EB030140EAD570B6196D4111E06D0825
:100350004FEA360645EAC0754FEA0752001B61EBCB
:100360000201001C41F5801149084FEA30000019D4
:10037000514132462B4603B0BDE8F04F00F04CB976
:100380000098012240000023D0EB020263EBE073EF
:10039000009821464FEAE074B8EB000061EB0401DD
:1003A000E9E783F000435BE781F0004158E72DE97E
:1003B000FE4F81EA030404F0004421F00041009460
:1003C0004FF0000B23F0004350EA01045ED052EAE4
:1003D00003045BD0C3F30A54C1F30A552C44A4F2BE
:1003E000F3340194A0FB0254C1F3130141F48011D2
:1003F000C3F3130343F4801301FB024400FB034ED9
:10040000840A970A44EA815447EA8357A4FB0768A1
:1004100002958D0A05FB07854FEA932C04FB0C54CB
:100420002705029D4FEA065847EA1637B5EB08053F
:100430006EEB070C870E920E47EA811742EA831291
:10044000A7FB0201B6EB0B0164EB00042B0D43EAA2
:100450000C335E1844EB1C50DA465146E7FB0201B0
:10046000C5F313044FEA0B3343EA14534FEA043243
:10047000019C43EA0603A4F10C040294009CCDE91C
:1004800000B400F0D8F803B0BDE8F08F00200146BA
:10049000F9E72DE9F04D81EA030404F0004B21F067
:1004A000004514464FF0000A23F0004150EA0502CF
:1004B00020D054EA01021DD0C5F30A570246C5F305
:1004C0001303C1F31300C1F30A5640F4801543F43B
:1004D0008013A7EB0608101BD64608F2FD3873EB15
:1004E000050002D308F1010801E092185B41B8F160
:1004F000000F03DA00200146BDE8F08D00204FF424
:100500008011064684460EE0171B73EB050705D3E2
:10051000121B63EB050306434CEA010C49084FEA42
:10052000300092185B4150EA0107EDD152EA030016
:1005300012D082EA040083EA0501084305D0101BAB
:10054000AB4106D20122002306E000224FF0004317
:1005500002E06FF0010253101AEB06004CEB085159
:1005600010EB0A0041EB0B01BDE8F04D00F054B870
:10057000C1F30A52C1F3130140F2FF3341F4801179
:100580009A4202DA00200146704740F233439A4211
:10059000A2F2334202DC5242FFF752BEFFF741BEE5
:1005A00030B5041E71F1000404DB4FF000444042FA
:1005B00064EB0101141E73F1000405DB1C464FF0CF
:1005C0000043524263EB0403994208BF904230BD9E
:1005D000064C074D06E0E06840F0010394E8070090
:1005E00098471034AC42F6D3FFF7AAFD807D00088F
:1005F000B07D0008202A06DBCB17203A41FA02F032
:1006000043EAE07306E041FA02F3D040C2F120026F
:10061000914008431946704710B5141E73F1000449
:1006200008DA401C41F1000192185B411A4301D1E4
:1006300020F0010010BD2DE9F04D92469B4611B10E
:10064000B1FA81F202E0B0FA80F220329046FFF770
:10065000E8FD04460F4640EA0A0041EA0B01534612
:100660005A46084313D0114653EA010019D0C8F185
:1006700040025046FFF7E4FD05460E4650465946F7
:100680004246FFF7CEFD084305D0012004E0204696
:100690003946BDE8F08D0020054346EAE0762C435C
:1006A00037430A986305E40AA0EB08000022FD0A1C
:1006B00044EA47540A3002D500200146E9E7010523
:1006C00010196941DDE9084500196941BDE8F04D9F
:1006D000A2E7000080B584B002900298006804F0A0
:1006E0003BF900900298006804F03EF900284DD0D4
:1006F000FFE70098002849D1FFE70298006880686A
:1007000000F00500012809D1FFE70298006804F015
:10071000B3F802980068032101600DE00298816D32
:1007200041F0100181650298C16D41F00101C16580
:1007300001208DF80F002DE001F0E8FA0190FFE7AD
:10074000029800688068C00700281ED0FFE701F00B
:10075000DDFA0199401A032816D3FFE702980068D2
:100760008068C00700280ED0FFE70298816D41F035
:10077000100181650298C16D41F00101C165012040
:100780008DF80F0006E0FFE7DAE7FFE700208DF8BD
:100790000F00FFE79DF80F0004B080BD80B584B066
:1007A0000290002000900298006804F0DDF8002814
:1007B0007BD1FFE70298006880681721C8F200012A
:1007C00008420ED0FFE70298816D41F0100181656B
:1007D0000298C16D41F00101C16501208DF80F0043
:1007E00067E00298006804F063F842F20870C4F20F
:1007F000010004F093F8000200281AD5FFE748F240
:100800000400C2F200000068800942F66351C0F2A1
:100810003E51A0FB0101012202EB91110091FFE783
:100820000098002804D0FFE7009801380090F7E70F
:10083000FFE70298407E012836D0FFE701F066FA14
:100840000190FFE7029800680068C00700282AD1DD
:10085000FFE70298006804F087F8002805D1FFE759
:100860000298006804F024F8FFE701F04FFA0199BC
:10087000401A032816D3FFE7029800680068C007F3
:1008800000280ED1FFE70298816D41F010018165CB
:100890000298C16D41F00101C16501208DF80F0082
:1008A00007E0FFE7CEE7FFE7FFE700208DF80F0046
:1008B000FFE79DF80F0004B080BD000080B584B054
:1008C000039048F21400C2F20000029000F0DCFF36
:1008D0000A21029A0190104600F034FF002809D145
:1008E000FFE748F21400C2F2000000F03FFD039958
:1008F0000870FFE704B080BD80B588B00020079085
:100900000690059004900390012102900846019101
:1009100004F0EAF8022004F0E7F849F6F300039047
:10092000019804900590029906914FF0904003AA17
:100930001146009201F020F80820039040F2004098
:10094000C4F60000009901F017F808B080BD00005F
:1009500080B582B000F0F0F800F034F800F046F90D
:1009600004F0B6FE04F0C4FE04F074FE04F026FEAB
:10097000FFF7C2FF04F0D6FB04F06CFF48F26D10E5
:10098000C2F20000002101900846019A0091114630
:1009900000F0F6F9019801780131C9B2009800F031
:1009A00013FA02B080BD000048F20800C2F2000055
:1009B000FF2101707047000048F20800C2F20000F9
:1009C0000078704780B588B00020079006900590A9
:1009D00004900390012102900846019104F084F8EC
:1009E000022004F081F84FF4807003900298049084
:1009F0000199059106904FF0904003AA114600928C
:100A000000F0BAFF40F20040C4F60000009900F088
:100A1000B3FF48F20800C2F20000FF21017008B0E5
:100A200080BD000080B582B048F21100C2F2000023
:100A3000007801460028019108D0FFE701980128BD
:100A400020D0FFE70198022858D073E04FF0904083
:100A50004FF4807101F012F900280BD0FFE740F24B
:100A60000040C4F600004FF4807101F007F900283F
:100A700007D1FFE748F21100C2F200000121017026
:100A8000FFE757E04FF090404FF4807101F0F6F827
:100A900000280DD1FFE748F21100C2F20000022148
:100AA000017048F20800C2F200000121017024E048
:100AB00040F20040C4F600004FF4807101F0DEF80F
:100AC00000280CD1FFE748F21100C2F20000022119
:100AD000017048F20800C2F2000001700CE048F218
:100AE0001100C2F200000021017048F20800C2F2B9
:100AF0000000FF210170FFE7FFE71BE04FF090408F
:100B00004FF4807101F0BAF8012812D1FFE740F2EA
:100B10000040C4F600004FF4807101F0AFF80128E6
:100B200007D1FFE748F21100C2F200000021017076
:100B3000FFE7FFE702B080BD80B588B000200790D6
:100B4000069005900490039002210290084603F05D
:100B5000CBFF41F2240003900120049002990591FB
:100B6000069140F20042C4F6000203A9019010462B
:100B7000009200F001FF04210098019A01F0ACF806
:100B800020210098019A01F0A7F84FF480510098B5
:100B9000019A01F0A1F808B080BD000080B582B0D4
:100BA00001468DF807009DF80700024601280092D3
:100BB00004D0FFE7009802280AD013E040F60000B6
:100BC000C4F600004FF40051002201F085F80AE05D
:100BD00040F60000C4F600004FF40051012201F07D
:100BE0007BF800E0FFE702B080BD000080B588B070
:100BF0000020079006900590049003900421029035
:100C0000084603F071FF4FF4005003900121049156
:100C100002990591069140F60002C4F6000203A96C
:100C200001901046009200F0A7FE00980199029AE8
:100C300001F052F808B080BDFFE7FEE780B58AB04A
:100C4000002006904FF090404FF4807101F016F8AC
:100C5000002840F09080FFE740F20040C4F600001A
:100C60004FF4807101F00AF8002840F08480FFE71B
:100C700018200690FFE74FF090404FF4807100F08D
:100C8000FDFF01280BD0FFE740F20040C4F6000052
:100C90004FF4807100F0F2FF012816D1FFE740F217
:100CA0000040C4F60000042101220590049201F0E6
:100CB00013F820210598049A01F00EF84FF48051A2
:100CC0000598049A01F008F854E040F20040C4F698
:100CD00000000421039000F0E9FF2021039800F0B8
:100CE000E5FF4FF48051039800F0E0FF322000F060
:100CF00021FE069801380690002834D1FFE701F064
:100D00000BF8079001F00EF8089001F011F8099027
:100D1000079B089A099947F63850C0F6000005F07D
:100D2000FDFE40F20041C4F60001042201230290BE
:100D30000846019111461A46009300F0CDFF20218C
:100D40000198009A00F0C8FF4FF480510198009A72
:100D500000F0C2FF0020FF2100F036F840F6B83066
:100D600000F0E8FD06E0FFE7FFE7012000287FF440
:100D700082AFFFE7FFE70AB080BD000070470000C8
:100D800080B588B002468DF81F0006919DF81F00BF
:100D900006996B464FF0640CC3F808C04FF0010C85
:100DA000C3F804C0196048F27801C2F20001A02320
:100DB000059008461946059B04921A46634601F0C1
:100DC0001BFA08B080BD000080B588B00A46034613
:100DD0008DF81F008DF81E109DF81F0069464FF01A
:100DE000640CC1F808C04FF0010CC1F804C00DF14B
:100DF0001E0EC1F800E048F27801C2F200014FF087
:100E0000A00E069008467146DDF818E0059272467D
:100E10000493634601F044FB08B080BD80B582B006
:100E20004FF090400121019000F040FF0221019815
:100E300000F03CFF1021019800F038FF20210198BC
:100E400000F034FF4021019800F030FF802101982C
:100E500000F02CFF4FF40061019800F027FF4FF4E1
:100E60008051019800F022FF4FF40041019800F0FA
:100E70001DFF40F20040C4F60000082100F016FFFC
:100E800002B080BD80B5FFE740F20040C4F600002C
:100E90004FF4805100F00AFF4FF4FA7000F04AFD61
:100EA000F2E7000080B588B0069000200490019021
:100EB000FFE7069890F85400012804D1FFE70220CC
:100EC0008DF81F00BCE00698012180F85410FFE760
:100ED000FFE70698FFF7FEFB8DF8170006980068FD
:100EE00003F04AFD002840F09A80FFE70698806DE5
:100EF00040F0020020F4807006998865069800682A
:100F0000C06848F203010840039006980068C26870
:100F100022EA0101C16000200290FFE70298072841
:100F200033D8FFE70698006803F0D2FDFFE7069884
:100F3000006803F009FD00281BD0FFE7049801308A
:100F400004900498B0F52E3F12D3FFE70698806D09
:100F500040F0100020F0020006998865FFE706982F
:100F6000002180F85410FFE701208DF81F0067E092
:100F7000DDE70698006803F0C7FC0199084401907A
:100F8000FFE7029801300290C8E702980199B1FB8F
:100F9000F0F001900698006803F098FC069800684D
:100FA000019903F04DFD0698006803F073FC00F012
:100FB000ADFE0090FFE70698006803F0DDFC002816
:100FC0001ED0FFE700F0A2FE0099401A032816D3B6
:100FD000FFE70698006803F0CFFC00280ED0FFE77B
:100FE0000698816D41F0100181650698C16D41F050
:100FF0000101C16501208DF81F0021E0FFE7DAE75C
:10100000039806990968CA681043C8600698806DFD
:1010100040F0010020F002000699886505E006987E
:10102000816D41F010018165FFE7FFE7069800211F
:1010300080F85410FFE79DF817008DF81F00FFE7B8
:101040009DF81F0008B080BD80B58CB00890079156
:1010500000208DF81B00049008980069B0F1004F43
:1010600008D0FFE7089800690421C8F2000188420F
:1010700001D1FFE700E0FFE7FFE7089890F8540090
:10108000012804D1FFE702208DF827006AE10898C3
:10109000012180F85410FFE7FFE70898006803F08B
:1010A0007BFC002840F04A81FFE70798406802284F
:1010B00000F0E380FFE708980069B0F1004F08D026
:1010C000FFE7089800690421C8F20001884207D1AF
:1010D000FFE7089800680799096803F071FC49E088
:1010E0000898006E07990A68496801F01F010F23EC
:1010F00003FA01F1884391030029039006D1FFE729
:1011000007980068C0F38460029016E007980068B2
:1011100090FAA0F00A900A98002804D1FFE7202056
:101120008DF82F0005E00A98B0FA80F08DF82F00B6
:10113000FFE79DF82F000290FFE7029807994968A2
:1011400001F01F01884003990843089A1066079828
:101150004068012202EB9000089AD269904208D8B8
:10116000FFE70898006807990A68496803F044FC9B
:10117000FFE7FFE70898006807990A688968019106
:101180001146019A03F06CFC0798C078000600280D
:1011900072D5FFE742F20870C4F2010003F0BEFB13
:1011A00005900798006841F20001CBF200018842E7
:1011B0002CD1FFE79DF816000006002826D4FFE793
:1011C000059840F4000142F20870C4F2010003F0F7
:1011D0005DFC48F20400C2F200000068800942F69B
:1011E0006351C0F23E51A0FB0101890901EB4101AD
:1011F0000C2202EB81010491FFE70498002804D03F
:10120000FFE7049801380490F7E734E00798006896
:1012100044F20001CBF60001884210D1FFE79DF8AF
:101220001700C00700280AD1FFE7059840F0807139
:1012300042F20870C4F2010003F028FC1AE007989B
:10124000006842F20001CBF20041884210D1FFE772
:101250009DF81600400600280AD4FFE7059840F4E0
:10126000800142F20870C4F2010003F00FFC00E0BC
:10127000FFE7FFE7FFE7FFE75FE008980069B0F1ED
:10128000004F08D0FFE7089800690421C8F2000168
:10129000884207D1FFE7089800680799096803F0BA
:1012A0009BFBFFE70798C0780006002844D5FFE7BE
:1012B00042F20870C4F2010003F030FB0590079879
:1012C000006841F20001CBF2000188420AD1FFE739
:1012D000059820F4000142F20870C4F2010003F006
:1012E000D5FB28E00798006844F20001CBF6000126
:1012F00088420AD1FFE7059820F0807142F2087019
:10130000C4F2010003F0C2FB14E00798006842F247
:101310000001CBF2004188420AD1FFE7059820F492
:10132000800142F20870C4F2010003F0AFFB00E05C
:10133000FFE7FFE7FFE7FFE7FFE708E00898816DB9
:1013400041F02001816501208DF81B00FFE7FFE7D8
:101350000898002180F85410FFE79DF81B008DF8D5
:101360002700FFE79DF827000CB080BD81B00090FA
:1013700000980068006C01B07047000080B58CB028
:101380000A9000208DF827000890079005900A9891
:10139000002804D1FFE701208DF82F00A3E10A986F
:1013A00090F83C00012801D1FFE7FFE70A980069A7
:1013B000002808D0FFE70A980069B0F5001F01D1A6
:1013C000FFE7FFE7FFE70A98806D00280AD1FFE7F3
:1013D0000A9800F08DF90A980021C1650A9880F8F2
:1013E0005410FFE70A98006803F0CEFA00281FD1D6
:1013F000FFE70A98006803F077FA48F20400C2F2A7
:1014000000000068800942F66351C0F23E51A0FB23
:1014100001018909022202EB41010591FFE70598CC
:10142000002804D0FFE7059801380590F7E7FFE7AB
:101430000A98006803F0A8FA00280ED1FFE70A987E
:10144000816D41F0100181650A98C16D41F0010183
:10145000C16501208DF82700FFE70A98006803F0B6
:101460009BFA06900A98806DC006002800F12D8135
:10147000FFE70698002840F02881FFE70A98806D72
:1014800040F0020020F480700A9988650A9800688C
:1014900003F06AFA002840F0B480FFE70A98017E62
:1014A0008268C36842EA8131427E41EAC231827E6B
:1014B00041EA4231026B41F4805C002A18BF614668
:1014C00041EA0301C07C4FEA00600028049106D580
:1014D000FFE70A98006920F00040039003E04FF412
:1014E00000100390FFE70398049908430A9A92F8C2
:1014F0002C2040EA4200089A104308900A9890F87D
:101500002000012816D1FFE70A98807E002805D127
:10151000FFE7089840F4803008900AE00A98816D4F
:1015200041F0200181650A98C16D41F00101C1655A
:10153000FFE7FFE70A98406A00280AD0FFE70A9809
:10154000416A806A01F4E0710843089908430890F1
:10155000FFE70A980068C06840F20121CFF6FE71EB
:101560000840089908430A990968C8600A984168C0
:10157000C06C01F0404108430799084307900A985E
:1015800090F83C00012810D1FFE70A984168026CEE
:10159000436C806C01F040411143194308430799A3
:1015A000084340F001000790FFE70A9800680069CF
:1015B0004FF60241C1F6FF710840079908430A99A6
:1015C000096808610A984068B0F1404F18D0FFE7F9
:1015D0000A984068B0F1804F12D0FFE70A9840683F
:1015E000B0F1004F0CD0FFE742F20870C4F20100E6
:1015F00001680A9A5268920C62F395410160FFE714
:10160000FFE70A980168426B0020029008460299A1
:1016100003F04AFA0A980168826B4FF60470C0F230
:10162000FF3001900846019903F03EFA0A980069DC
:10163000002807D1FFE70A980068816A61F00F016E
:1016400081621AE00A980069B0F5001F14D1FFE723
:101650000A980068806A0A990A68CB69096E6FF077
:10166000030C0CEB830303F01C036FF00F0C0CFA5C
:1016700003F319439162FFE7FFE70A98006800212E
:1016800003F054F90A99496B88420CD1FFE70A9894
:101690000021C1650A98806D40F0010020F0020031
:1016A0000A99886510E00A98806D40F0100020F0DB
:1016B00002000A9988650A98C16D41F00101C1656F
:1016C00001208DF82700FFE708E00A98816D41F0BE
:1016D0001001816501208DF82700FFE79DF82700A4
:1016E0008DF82F00FFE79DF82F000CB080BD0000A3
:1016F00080B586B005900020049003900290019080
:1017000000900598006842F20041C4F2010188424D
:1017100015D1FFE74FF4007003F046FA022003F002
:1017200013FA10200090032001900020029040F254
:101730000040C4F60000694600F01EF9FFE706B05D
:1017400080BD000080B586B0049003910498406984
:10175000082803D1FFE70820019013E004980068EF
:10176000C068C007002809D0FFE70498816D41F0E8
:101770002001816501208DF8170081E0042001908F
:10178000FFE7FFE700F0C2FA0290FFE70498006865
:101790000068019908422AD1FFE703980130002828
:1017A00024D0FFE700F0B2FA0299401A0399884268
:1017B00004D8FFE70398002817D1FFE704980068D2
:1017C0000068019908420FD1FFE70498816D41F04C
:1017D00004018165FFE70498002180F85410FFE7B9
:1017E00003208DF817004BE0FFE7FFE7CEE70498F2
:1017F000816D41F4007181650498006803F0D4F8AC
:1018000000282FD0FFE70498807E00282AD1FFE728
:101810000498006800680007002822D5FFE70498B4
:10182000006803F0B9F800280FD1FFE704980068BA
:10183000416821F00C0141600498806D40F0010086
:1018400020F48070049988650AE00498816D41F065
:10185000200181650498C16D41F00101C165FFE778
:10186000FFE7FFE70498007E002805D1FFE7049812
:1018700000680C210160FFE700208DF81700FFE7EA
:101880009DF8170006B080BD80B584B00290029824
:10189000006803F081F800283ED1FFE7FFE70298D7
:1018A00090F85400012804D1FFE702208DF80F00C2
:1018B0003BE00298012180F85410FFE7FFE702980F
:1018C000FEF76CFF8DF807009DF8070000281BD17C
:1018D000FFE70298806D40F4807040F60161884314
:1018E0000299886502980021C165029800681C2150
:1018F0000160FFE70298002180F85410FFE702988A
:10190000006803F08FF806E0FFE70298002180F8F6
:101910005410FFE7FFE703E002208DF80700FFE720
:101920009DF807008DF80F00FFE79DF80F0004B049
:1019300080BD000080B584B0039000F0E7F902900C
:101940000398019001980130002809D0FFE748F280
:101950000900C2F200000078019908440190FFE7F5
:10196000FFE700F0D3F90299401A0199884201D2A9
:10197000FFE7F6E704B080BD87B006900591002030
:101980000490FFE7059800680499C840002800F01B
:101990007281FFE7059800680499012202FA01F1BB
:1019A000084003900398002800F06181FFE7059844
:1019B000406800F00300012807D0FFE70598406861
:1019C00000F0030002282FD1FFE7069880680290FC
:1019D00004984000032101FA00F0029921EA000076
:1019E00002900598C068049949008840029908430C
:1019F00002900298069988600698406802900498C0
:101A0000012101FA00F0029921EA000002900598F4
:101A10004068C0F30010049988400299084302907E
:101A2000029806994860FFE70598406800F00300B7
:101A3000032818D0FFE70698C06802900498400079
:101A4000032101FA00F0029921EA000002900598B2
:101A500080680499490088400299084302900298DE
:101A60000699C860FFE70598406800F00300022867
:101A700026D1FFE7069804996FF0030202EA5101AC
:101A80000844006A0290049800F0070080000F21CB
:101A900001FA00F0029921EA00000290059800691D
:101AA000049901F0070189008840029908430290D7
:101AB00002980699049B02EA530211440862FFE768
:101AC00006980068029004984000032101FA00F093
:101AD000029921EA000002900598406800F0030096
:101AE0000499490088400299084302900298069997
:101AF0000860059880798007002800F0B780FFE72C
:101B0000049820F003000821C4F20101405802901B
:101B1000049800F003008000072101FA00F0029908
:101B200021EA000002900698B0F1904F03D1FFE740
:101B30000020019018E0069840F20041C4F6000130
:101B4000884203D1FFE7012000900AE0069840F6A2
:101B50000001C4F600010722884208BF0222009259
:101B6000FFE700980190FFE70198049901F0030155
:101B7000890088400299084302900298049921F054
:101B800003010822C4F20102885040F60000C5F6A5
:101B90000000006802900398029921EA0000029078
:101BA00005988079C006002805D5FFE703980299BB
:101BB00008430290FFE7029840F60001C5F60001D5
:101BC000086040F60400C5F6000000680290039823
:101BD000029921EA00000290059880798006002889
:101BE00005D5FFE70398029908430290FFE70298A2
:101BF00040F60401C5F60001086040F68000C5F615
:101C00000000006802900398029921EA0000029007
:101C100005988079C007002805D0FFE7039802994E
:101C200008430290FFE7029840F68001C5F60001E4
:101C3000086040F68400C5F6000000680290039832
:101C4000029921EA00000290059880798007002817
:101C500005D5FFE70398029908430290FFE7029831
:101C600040F68401C5F600010860FFE7FFE704982D
:101C70000130049086E607B07047000082B00A4643
:101C80000190ADF8021001980069BDF802100842F9
:101C900004D0FFE701208DF8010003E000208DF85B
:101CA0000100FFE79DF8010002B0704783B00A46CB
:101CB0000290ADF806100298406900900098BDF8B7
:101CC000061000EA010321EA000040EA03400299FD
:101CD000886103B07047000082B013468C460190C3
:101CE000ADF802108DF801209DF80100002805D004
:101CF000FFE7BDF802000199886104E0BDF8020029
:101D000001998862FFE702B07047000048F2701046
:101D1000C2F200000068704747F29050C1F6FF70B1
:101D20000068704747F29450C1F6FF700068704732
:101D300047F29850C1F6FF700068704783B0019079
:101D40000091019890F8410020283BD1FFE7FFE780
:101D5000019890F84000012804D1FFE702208DF897
:101D60000B0033E00198012180F84010FFE7FFE706
:101D70000198242180F8411001980068016821F041
:101D80000101016001980068016821F4805101603F
:101D90000098019909680A68104308600198006872
:101DA000016841F0010101600198202180F8411093
:101DB000FFE70198002180F84010FFE700208DF830
:101DC0000B0003E002208DF80B00FFE79DF80B00ED
:101DD00003B0704784B002900191029890F84100DE
:101DE000202840D1FFE7FFE7029890F84000012843
:101DF00004D1FFE702208DF80F0038E0029801219E
:101E000080F84010FFE7FFE70298242180F8411096
:101E100002980068016821F00101016002980068E1
:101E200000680090009820F470600090019800997C
:101E300041EA002000900098029909680860029821
:101E40000068016841F0010101600298202180F8DA
:101E50004110FFE70298002180F84010FFE70020C2
:101E60008DF80F0003E002208DF80F00FFE79DF8CA
:101E70000F0004B07047000080B582B00090009859
:101E8000002804D1FFE701208DF807007CE00098CE
:101E900090F84100002808D1FFE70098002180F861
:101EA0004010009800F046FCFFE70098242180F8DD
:101EB000411000980068016821F00101016000985C
:101EC0000168406820F070600861009800688168CF
:101ED00021F4004181600098C068012807D1FFE724
:101EE00000980168806840F40040886006E000982F
:101EF0000168806840F404408860FFE70098C0688B
:101F0000022807D1FFE700980068416841F40061AA
:101F1000416006E000980068416821F4006141607A
:101F2000FFE700980068416848F20002C0F2002212
:101F30001143416000980068C16821F40041C1600C
:101F4000009801680269436980691A4342EA0020E7
:101F5000C86000980168C269006A10430860009870
:101F60000068016841F001010160009800214164AE
:101F70000098202280F8412000980163009880F8A2
:101F800042108DF80710FFE79DF8070002B080BDF2
:101F900010B588B0DDF828C09E460C460690ADF816
:101FA00016100492ADF80E30069890F841002028E3
:101FB00040F01A81FFE7FFE7069890F840000128FB
:101FC00004D1FFE702208DF81F0011E106980121DE
:101FD00080F84010FFE7FFE7FFF798FE02900698B1
:101FE00002996A4611604FF400410122192302F060
:101FF000C3FA002804D0FFE701208DF81F00F7E0A6
:102000000698212180F841100698102180F842108E
:102010000698002141640498069A5062BDF80E00AB
:10202000069A5085069841630698408DB0F5807FEA
:1020300007D3FFE70698FF2101854FF080700190DC
:1020400007E00698408D069908854FF000700190D2
:10205000FFE70698008D002822D0FFE70698016868
:10206000406A007888620698416A013141620698A8
:10207000418D013941850698018D01390185069808
:10208000BDF81610028D0132019BEC4642F2000EA3
:10209000C8F2000ECCF800E0D2B202F03FFA0FE036
:1020A0000698BDF8161090F82820019BEC4642F2E5
:1020B000000EC8F2000ECCF800E002F02FFAFFE7A5
:1020C000FFE70698408D002864D0FFE706980A993C
:1020D000029A02F00BFB002804D0FFE701208DF8E4
:1020E0001F0085E006980168406A007888620698BB
:1020F000416A013141620698418D01394185069856
:10210000018D013901850698408D002841D0FFE7F7
:102110000698008D00283CD1FFE706980A9B02999B
:102120006A4611608021002202F026FA002804D0BD
:10213000FFE701208DF81F005AE00698408DB0F5AA
:10214000807F12D3FFE70698FF2101850698BDF82E
:10215000161090F828206B464FF0000CC3F800C012
:102160004FF0807302F0DAF912E00698408D06997C
:1021700008850698BDF8161090F828206B464FF099
:10218000000CC3F800C04FF0007302F0C7F9FFE77E
:10219000FFE796E706980A99029A02F053FA002898
:1021A00004D0FFE701208DF81F0021E006980068A9
:1021B0002021C1610698006842684EF60003CFF600
:1021C00000631A404260069880F84110069800218A
:1021D00080F84210FFE70698002180F84010FFE7E2
:1021E00000208DF81F0003E002208DF81F00FFE79C
:1021F0009DF81F0008B010BDF0B587B0DDF838C0FD
:10220000DDF834E00C9C1D4616460F460590ADF8EF
:102210001210ADF81020ADF80E30ADF80CE00598B6
:1022200090F84100202840F03281FFE70C98002808
:1022300005D0FFE7BDF80C00002808D1FFE705989E
:102240004FF40071416401208DF81B0023E1FFE78A
:10225000059890F84000012804D1FFE702208DF88E
:102260001B0018E10598012180F84010FFE7FFE707
:10227000FFF74CFD0290059802996A4611604FF4F1
:1022800000410122192302F077F9002804D0FFE76A
:1022900001208DF81B00FEE00598222180F84110F6
:1022A0000598402180F842100598002141640C985F
:1022B000059A5062BDF80C00059A50850598416357
:1022C0000598BDF81210BDF81020BDF80E30DDF8ED
:1022D00038C0DDF808E06C46C4F804E0C4F800C07B
:1022E00002F044F800280AD0FFE7FFE70598002134
:1022F00080F84010FFE701208DF81B00CBE0059827
:10230000408DB0F5807F14D3FFE70598FF2101854C
:102310000598BDF8121090F828206B4642F2004C48
:10232000C8F2000CC3F800C04FF0807302F0F6F85A
:1023300014E00598408D059908850598BDF81210A0
:1023400090F828206B4642F2004CC8F2000CC3F80B
:1023500000C04FF0007302F0E1F8FFE7FFE70598D7
:102360000E9B02996A4611600421002202F004F9D2
:10237000002804D0FFE701208DF81B008BE00598B2
:102380000068406A0599496A08700598416A0131F8
:1023900041620598018D013901850598418D01390A
:1023A00041850598408D002841D0FFE70598008DB4
:1023B00000283CD1FFE705980E9B02996A46116000
:1023C0008021002202F0D8F8002804D0FFE7012085
:1023D0008DF81B005FE00598408DB0F5807F12D32B
:1023E000FFE70598FF2101850598BDF8121090F8C8
:1023F00028206B464FF0000CC3F800C04FF08073EC
:1024000002F08CF812E00598408D05990885059832
:10241000BDF8121090F828206B464FF0000CC3F85E
:1024200000C04FF0007302F079F8FFE7FFE7FFE725
:102430000598408D002892D1FFE705980E99029AE1
:1024400002F000F9002804D0FFE701208DF81B00FE
:1024500021E0059800682021C16105980068426864
:102460004EF60003CFF600631A404260059880F8EC
:1024700041100598002180F84210FFE705980021DF
:1024800080F84010FFE700208DF81B0003E00220D9
:102490008DF81B00FFE79DF81B0007B0F0BD0000A2
:1024A000F0B587B0DDF838C0DDF834E00C9C1D468F
:1024B00016460F460590ADF81210ADF81020ADF895
:1024C0000E30ADF80CE0059890F84100202840F05F
:1024D0002981FFE70C98002805D0FFE7BDF80C0024
:1024E000002808D1FFE705984FF4007141640120EE
:1024F0008DF81B001AE1FFE7059890F840000128CD
:1025000004D1FFE702208DF81B000FE1059801219F
:1025100080F84010FFE7FFE7FFF7F8FB029005980F
:1025200002996A4611604FF400410122192302F01A
:1025300023F8002804D0FFE701208DF81B00F5E008
:102540000598212180F841100598402180F842101B
:102550000598002141640C98059A5062BDF80C0062
:10256000059A5085059841630598BDF81210BDF88D
:102570001020BDF80E30DDF838C0DDF808E06C46FC
:10258000C4F804E0C4F800C001F05CFF00280AD0E1
:10259000FFE7FFE70598002180F84010FFE70120E2
:1025A0008DF81B00C2E00598408DB0F5807F12D3F6
:1025B000FFE70598FF2101850598BDF8121090F8F6
:1025C00028206B464FF0000CC3F800C04FF080731A
:1025D00001F0A4FF12E00598408D05990885059843
:1025E000BDF8121090F828206B464FF0000CC3F88D
:1025F00000C04FF0007301F091FFFFE7FFE705987F
:102600000E99029A02F072F8002804D0FFE7012028
:102610008DF81B008AE005980168406A007888629E
:102620000598416A013141620598418D0139418522
:102630000598018D013901850598408D002841D00C
:10264000FFE70598008D00283CD1FFE705980E9B19
:1026500002996A4611608021002201F08DFF002856
:1026600004D0FFE701208DF81B005FE00598408D46
:10267000B0F5807F12D3FFE70598FF21018505980B
:10268000BDF8121090F828206B464FF0000CC3F8EC
:1026900000C04FF0807301F041FF12E00598408DBB
:1026A000059908850598BDF8121090F828206B460A
:1026B0004FF0000CC3F800C04FF0007301F02EFF84
:1026C000FFE7FFE7FFE70598408D002897D1FFE778
:1026D00005980E99029A01F0B5FF002804D0FFE793
:1026E00001208DF81B0021E0059800682021C161C0
:1026F0000598006842684EF60003CFF600631A4062
:102700004260059880F841100598002180F8421039
:10271000FFE70598002180F84010FFE700208DF8C2
:102720001B0003E002208DF81B00FFE79DF81B0053
:1027300007B0F0BD80B58CB00B9000200A900990D6
:102740000890079006900B98006845F20041C4F28B
:102750000001884235D1FFE70120059002F0D4F94D
:10276000022002F0D1F9402006901220079005992E
:1027700008910322099204230A9340F2004CC4F604
:10278000000C0DF1180E04906046714603920293FE
:10279000CDF804C0CDF800E0FFF7EEF880200690F9
:1027A0000498079005990891039A0992029B0A934D
:1027B00001980099FFF7E0F84FF4001002F0D4F907
:1027C000FFE70CB080BD000048F20900C2F2000033
:1027D000007848F27011C2F200010A6810440860E3
:1027E0007047000080B582B000208DF807000320FC
:1027F00000F088F800F030FB48F20401C2F200015A
:1028000008600F2000F00EF8002804D0FFE7012038
:102810008DF8070002E000F049F8FFE79DF8070097
:1028200002B080BD80B582B0019000208DF8030019
:1028300048F20900C2F20000007800282DD0FFE71E
:1028400000F00AFB48F20901C2F2000109784FF4D6
:102850007A72B2FBF1F1B0FBF1F001F05DFA002801
:1028600016D1FFE701980F280DD8FFE701994FF027
:10287000FF30002200F028F8019848F20C01C2F263
:102880000001086003E001208DF80300FFE703E08A
:1028900001208DF80300FFE703E001208DF803001D
:1028A000FFE79DF8030002B080BD00007047000004
:1028B00080B582B001468DF807009DF907000091B0
:1028C00004F09CF802B080BD80B588B003468DF856
:1028D0001F0006910592039304F0AAF804909DF955
:1028E0001F000499069A059B0290084611461A4655
:1028F00002F04AFF029901900846019904F0A0F8FD
:1029000008B080BD80B582B00190019804F0BAF89B
:1029100002B080BD40F20040C5F60000006800F43F
:10292000C060704740F20040C5F60000016841F405
:10293000807101607047000080B586B0059000206E
:1029400004908DF80B008DF80A0005988078C00778
:1029500000286DD0FFE7FFF7E5FFFFF7D7F90390F9
:10296000FFE740F20040C5F60000006800F4807008
:10297000B0F5807F0CD0FFE7FFF7C8F90399401A44
:10298000032804D3FFE703208DF80B0000E0E8E7FD
:102990009DF80B00002845D1FFE702F0A7F9059943
:1029A000496B884210D0FFE79020C5F6000001680F
:1029B00021F440710491019002F064F902F0D6FA1A
:1029C000049801990860FFE79DF81000800700282F
:1029D00018D5FFE7FFF79AF90390FFE702F022FA14
:1029E00001280ED0FFE7FFF791F90399401A41F251
:1029F0008931884204D3FFE703208DF80B0000E003
:102A0000ECE7FFE79DF80B00002805D1FFE70598EC
:102A1000406B02F04BFB04E09DF80B008DF80A00C0
:102A2000FFE704E09DF80B008DF80A00FFE7FFE7E1
:102A300005980078C007002805D0FFE70598406892
:102A400002F050FBFFE7059800788007002805D5C5
:102A5000FFE70598806802F045FBFFE705980078DE
:102A60008006002805D5FFE70598006902F002FB03
:102A7000FFE7059840788007002805D5FFE705980F
:102A8000006A02F0E5FAFFE7059840784007002861
:102A900005D5FFE70598406A02F0DAFAFFE70598E6
:102AA00040780007002805D5FFE70598806A02F006
:102AB000CFFAFFE7059800784006002805D5FFE724
:102AC0000598406902F0A2FAFFE705980078000631
:102AD000002805D5FFE70598806902F097FAFFE71F
:102AE00005984078C007002805D0FFE70598C06921
:102AF00002F08CFAFFE705980078C006002813D58D
:102B0000FFE70598C06802F095FA0598C068B0F52F
:102B1000807F08D1FFE70C20C5F60000016841F076
:102B200080710160FFE7FFE7059840780006002804
:102B300012D5FFE70598006B02F0AAFA0598006B22
:102B4000002808D1FFE70C20C5F60000016841F01D
:102B500080710160FFE7FFE7059840784006002894
:102B600013D5FFE70598C06A02F008FA0598C06A15
:102B7000B0F1005F08D1FFE70C20C5F60000016846
:102B800041F480310160FFE7FFE79DF80A0006B0DD
:102B900080BD000080B584B00290019102980028A9
:102BA00004D1FFE701208DF80F0051E1019844F2B4
:102BB0000001C5F60001096801F00701884226D925
:102BC000FFE744F20000C5F60000016821F00701AC
:102BD000019A11430160FFF799F80090FFE744F272
:102BE0000000C5F60000006800F007000199884267
:102BF0000CD0FFE7FFF78AF80099401A032804D3A6
:102C0000FFE703208DF80F0022E1E8E7FFE70298D5
:102C10000078800700281AD5FFE70298806802F044
:102C2000CBF9FFF773F80090FFE702F0CBF800282C
:102C30000CD1FFE7FFF76AF80099401A032804D384
:102C4000FFE703208DF80F0002E1EEE7FFE70298AF
:102C50000078400600281AD5FFE70298406902F084
:102C60009BF9FFF753F80090FFE702F0C3F8002844
:102C70000CD1FFE7FFF74AF80099401A032804D364
:102C8000FFE703208DF80F00E2E0EEE7FFE7029890
:102C90000078400700281AD5FFE70298C06802F0C4
:102CA00099F9FFF733F80090FFE702F093F8002856
:102CB0000CD1FFE7FFF72AF80099401A032804D344
:102CC000FFE703208DF80F00C2E0EEE7FFE7029870
:102CD0000078000700281BD5FFE702980069C000B4
:102CE00002F086F9FFF712F80090FFE702F07AF899
:102CF00000280CD1FFE7FFF709F80099401A0328D4
:102D000004D3FFE703208DF80F00A1E0EEE7FFE713
:102D100002980078C007002858D0FFE70298406862
:102D200002280AD1FFE702F023F8002804D1FFE7C8
:102D300001208DF80F008BE029E0029840680328FD
:102D40000AD1FFE702F004F9002804D1FFE70120CF
:102D50008DF80F007CE019E00298406800280AD145
:102D6000FFE702F0B1F8002804D1FFE701208DF859
:102D70000F006DE009E002F011F8002804D1FFE730
:102D800001208DF80F0063E0FFE7FFE7FFE70298FF
:102D9000406802F099F9FEF7B9FF0090FFE701F0F3
:102DA000ADFF02994968B0EB810F0ED0FFE7FEF747
:102DB000ADFF0099401A41F28931884204D3FFE700
:102DC00003208DF80F0043E0E9E7FFE7019844F2A4
:102DD0000001C5F60001096801F00701884226D20A
:102DE000FFE744F20000C5F60000016821F007018A
:102DF000019A11430160FEF789FF0090FFE744F25A
:102E00000000C5F60000006800F007000199884244
:102E10000CD0FFE7FEF77AFF0099401A032804D38D
:102E2000FFE703208DF80F0012E0E8E7FFE700F06E
:102E300013F848F20401C2F20001086048F20C00E5
:102E4000C2F200000068FFF7EDFC8DF80F00FFE70D
:102E50009DF80F0004B080BD80B582B000F038F856
:102E6000019001F021FF00F0F000800847F2584186
:102E7000C0F6000108580199B1FBF0F002B080BD26
:102E800080B582B0FFF7E8FF019001F015FF000A5E
:102E900047F29841C0F6000151F82000019921FA4B
:102EA00000F002B080BD000080B582B0FFF7D4FF13
:102EB000019001F009FFC00A47F29841C0F60001F5
:102EC00051F82000019921FA00F002B080BD000005
:102ED00080B58EB000200B900A9001F00FFF0D908E
:102EE00002F01EF80C900D98002808D0FFE70D980E
:102EF0000C2843D1FFE70C9801283FD1FFE701F0F0
:102F0000DDFF002818D1FFE701F0D8FF012804D128
:102F1000FFE701F0C5FF089003E001F0C7FF08904C
:102F2000FFE7089800F47060800947F2B841C0F6E6
:102F300000010858079017E001F0C0FF012804D1F4
:102F4000FFE701F0ADFF069003E001F0AFFF069050
:102F5000FFE7069800F0F000800847F2B841C0F69D
:102F6000000108580790FFE707980A900D9800287D
:102F700003D1FFE70A980B90FFE722E00D980428A1
:102F800006D1FFE742F20040C0F2F4000B9017E0D8
:102F90000D98082812D1FFE701F0E4FE012806D1C0
:102FA000FFE742F20040C0F2F4000B9005E044F667
:102FB0000000C0F2E8100B90FFE700E0FFE7FFE73A
:102FC000FFE701F09BFE0C2847D1FFE701F0A8FFC7
:102FD0000C900C980128059020D0FFE70598022856
:102FE00004D0FFE70598032806D018E042F200401D
:102FF000C0F2F400099015E001F0B4FE012806D1FA
:10300000FFE742F20040C0F2F400099005E044F608
:103010000000C0F2E8100990FFE703E0FFE70A981C
:103020000990FFE70998049001F082FF0499484352
:10303000039001F06DFF012101EB1010039AB2FB28
:10304000F0F00291019001F07BFF029901EB5070CA
:10305000019AB2FBF0F00B90FFE70B980EB080BD29
:1030600010B58AB008900898002804D1FFE7012025
:103070008DF82700E0E301F041FE069001F050FFDB
:103080000590089800788006002840F1DB80FFE773
:10309000069800280AD0FFE706980C2840F08880A0
:1030A000FFE70598012840F08380FFE70898006A51
:1030B000002804D1FFE701208DF82700BCE3089821
:1030C000806A4FF0B041096809070029029007D5CE
:1030D000FFE74FF0B040006800F0F000019008E01A
:1030E0009420C5F60000006800F4706000090190AB
:1030F000FFE70198029981421FD9FFE70898806A8B
:1031000002F026FE002804D0FFE701208DF82700FA
:1031100092E3FFE74FF0B040016841F00801016021
:10312000016821F0F001089A926A11430160FFE7FB
:103130000898406A01F0CEFE1EE0FFE74FF0B04075
:10314000016841F008010160016821F0F001089A6E
:10315000926A11430160FFE70898406A01F0BAFEE5
:103160000898806A02F0F4FD002804D0FFE70120EF
:103170008DF8270060E3FFE7FFF76EFE48F20401D9
:10318000C2F20001086048F20C00C2F200000068C0
:10319000FFF748FB8DF813009DF81300002805D0B9
:1031A000FFE79DF813008DF8270045E3FFE748E0AF
:1031B0000898006A00282BD0FFE701F069FEFEF7AF
:1031C000A5FD0790FFE701F07FFE00280CD1FFE787
:1031D000FEF79CFD0799401A032804D3FFE703205C
:1031E0008DF8270028E3EEE7FFE74FF0B0400168D5
:1031F00041F008010160016821F0F001089A926A2B
:1032000011430160FFE70898406A01F063FE17E090
:1032100001F036FEFEF77AFD0790FFE701F054FE5D
:1032200000280CD0FFE7FEF771FD0799401A03282C
:1032300004D3FFE703208DF82700FDE2EEE7FFE768
:10324000FFE7FFE708980078C00700286ED0FFE787
:103250000698082808D0FFE706980C280ED1FFE74B
:10326000059803280AD1FFE708984068002804D190
:10327000FFE701208DF82700DEE256E04FF0B04076
:10328000016821F48011089A926811430160FFE7F8
:1032900008984068B0F5803F03D1FFE701F052FD88
:1032A00010E008984068B0F5041F05D1FFE701F071
:1032B00051FD01F047FD04E001F034FD01F03AFD5D
:1032C000FFE7FFE7FFE708984068002816D0FFE710
:1032D000FEF71CFD0790FFE701F04AFD00280CD126
:1032E000FFE7FEF713FD0799401A652804D3FFE7AF
:1032F00003208DF827009FE2EEE715E0FEF706FDBC
:103300000790FFE701F034FD00280CD0FFE7FEF73F
:10331000FDFC0799401A652804D3FFE703208DF8C8
:10332000270089E2EEE7FFE7FFE7FFE7089800786C
:103330008007002856D5FFE70698042808D0FFE745
:1033400006980C2813D1FFE7059802280FD1FFE754
:1033500008980069002804D1FFE701208DF82700B4
:103360006AE20898406901F01FFDFFE739E008981C
:10337000006900281CD0FFE701F008FDFEF7C6FC3D
:103380000790FFE701F00AFD00280CD1FFE7FEF7E8
:10339000BDFC0799401A032804D3FFE703208DF8EA
:1033A000270049E2EEE70898406901F0FDFC17E0CC
:1033B00001F0E4FCFEF7AAFC0790FFE701F0EEFC49
:1033C00000280CD0FFE7FEF7A1FC0799401A03285C
:1033D00004D3FFE703208DF827002DE2EEE7FFE797
:1033E000FFE7FFE708980078000700287CD5FFE793
:1033F0000898806900285ED0FFE79420C5F6000099
:10340000006803900898C069039901F01001884290
:1034100039D0FFE79DF80C00800700280AD5FFE7A8
:103420009DF80C00C007002804D1FFE701208DF8AB
:10343000270001E29DF80C00C007002818D0FFE724
:1034400001F006FDFEF762FC0790FFE701F010FDBA
:1034500000280CD0FFE7FEF759FC0799401A122804
:1034600004D3FFE703208DF82700E5E1EEE7FFE74F
:103470009420C5F60000016821F01001089AD26975
:1034800011430160FFE701F0EBFCFEF73FFC079002
:10349000FFE701F0EDFC00280CD1FFE7FEF736FC5A
:1034A0000799401A122804D3FFE703208DF827005C
:1034B000C2E1EEE717E001F0CBFCFEF727FC079036
:1034C000FFE701F0D5FC00280CD0FFE7FEF71EFC5B
:1034D0000799401A122804D3FFE703208DF827002C
:1034E000AAE1EEE7FFE7FFE7089800784007002829
:1034F00040F1E480FFE701F09BFB002818D1FFE7D3
:10350000FFF710FAFEF702FC0790FFE701F090FBCF
:1035100000280CD1FFE7FEF7F9FB0799401A0328B2
:1035200004D3FFE703208DF8270085E1EEE7FFE7EE
:103530000898C068002800F08080FFE70898C068FD
:10354000852805D0FFE70898C068052808D1FFE75F
:103550009020C5F60000016841F004010160FFE71A
:10356000FEF7D4FB07909020C5F60000016841F0FB
:1035700001010160FFE701F04DFC00280ED1FFE7DB
:10358000FEF7C4FB0799401A41F28931884204D3FF
:10359000FFE703208DF827004EE1ECE70898C068AC
:1035A000812805D0FFE70898C068852822D1FFE769
:1035B000FEF7ACFB07909020C5F60000016841F0D3
:1035C00080010160FFE79020C5F60000006800055B
:1035D00000280ED4FFE7FEF799FB0799401A41F245
:1035E0008931884204D3FFE703208DF8270023E1C7
:1035F000E9E721E0FEF78AFB07909020C5F600007E
:10360000016821F080010160FFE79020C5F600000D
:103610000068000500280ED5FFE7FEF777FB079945
:10362000401A41F28931884204D3FFE703208DF824
:10363000270001E1E9E7FFE73FE0FEF767FB0790BE
:103640009020C5F60000016821F080010160FFE7CD
:103650009020C5F600000068000500280ED5FFE7A1
:10366000FEF754FB0799401A41F28931884204D38E
:10367000FFE703208DF82700DEE0E9E7FEF746FBD1
:1036800007909020C5F60000016821F0010101605B
:10369000FFE701F0BFFB00280ED0FFE7FEF736FB87
:1036A0000799401A41F28931884204D3FFE7032089
:1036B0008DF82700C0E0ECE7FFE7FFE70898C06A55
:1036C000002800F0B580FFE706980C287AD0FFE7C5
:1036D0000898C06A022852D1FFE701F009FCFEF702
:1036E00015FB0790FFE701F033FC00280CD0FFE743
:1036F000FEF70CFB0799401A0B2804D3FFE70320C1
:103700008DF8270098E0EEE70C20C5F60000016870
:1037100048F28C02C1F2C1121140089A136BD2F820
:1037200034C0D2F838E0D46B43EA0C0343EA0E23EA
:103730002343D2F840C043EA0C03526C1A431143AE
:103740000160009001F0DCFB0098016841F08051BD
:103750000160FEF7DBFA0790FFE701F0F9FB0028B4
:103760000CD1FFE7FEF7D2FA0799401A0B2804D3D1
:10377000FFE703208DF827005EE0EEE721E001F08F
:10378000B7FBFEF7C3FA0790FFE701F0E1FB002863
:103790000CD0FFE7FEF7BAFA0799401A0B2804D3BA
:1037A000FFE703208DF8270046E0EEE70C20C5F682
:1037B000000001684FF6FC72CEF6FE621140016017
:1037C000FFE734E00898C06A012804D1FFE7012030
:1037D0008DF8270030E00C20C5F600000068059049
:1037E000059800F003000899096B884219D1FFE79A
:1037F000059800F070000899496B884211D1FFE7E5
:10380000059800F4FE400899896BB0EB012F08D1B0
:10381000FFE7059800F060400899496C884204D0A1
:10382000FFE701208DF8270006E0FFE7FFE7FFE74D
:1038300000208DF82700FFE79DF827000AB010BD93
:1038400080B58AB09C468E4608908DF81F1006926F
:10385000ADF81630069804900898807901285AD15E
:10386000FFE7FFE708984079012804D1FFE702202D
:103870008DF8270053E0089801214171FFE7FFE729
:10388000089802F06FFB029001F0DAF908989DF8B1
:103890001F1002F007FB089900220190084611460C
:1038A000009202F0FFFA0099ADF80E10FFE7BDF8A4
:1038B0000E00BDF8161088420EDAFFE7089804994A
:1038C00002F092FA049901310491FFE7BDF80E006D
:1038D0000130ADF80E00EAE701F0CAF9089802F0ED
:1038E00067FB08998968002904D0FFE701208DF85B
:1038F000150003E000208DF81500FFE7089801216E
:103900008171FFE7089800214171FFE79DF81500DC
:103910008DF8270003E002208DF82700FFE79DF8CF
:1039200027000AB080BD000080B586B09C468E4658
:1039300004908DF80F100292ADF80630049880794B
:10394000012869D1FFE7FFE704984079012804D1F5
:10395000FFE702208DF8170062E004980121417111
:10396000FFE7FFE7049802F0FDFA9DF80F108429A5
:1039700005D0FFE79DF80F00942804D1FFE70498D5
:103980000121017103E0049800210171FFE701F0BA
:1039900057F904989DF80F1002F084FA0021ADF851
:1039A0000210FFE7BDF80200BDF8061088420EDAEB
:1039B000FFE704980299BDF80220895C02F072FAD0
:1039C000FFE7BDF802000130ADF80200EAE701F0C0
:1039D0004FF99DF80F00842804D0FFE7049802F007
:1039E000E7FAFFE704988068002804D0FFE7012089
:1039F0008DF8050003E000208DF80500FFE704982E
:103A000001218171FFE7049800214171FFE79DF8D2
:103A100005008DF8170003E002208DF81700FFE77E
:103A20009DF8170006B080BD80B586B0049004985C
:103A3000002808D1FFE701208DF80F009DF80F0046
:103A40008DF8170067E000208DF80F00FFE704985D
:103A500080798DF807009DF80700002805D0FFE762
:103A60009DF8070003280BD1FFE70498002141715E
:103A7000049800F055F84FF4805001F0B5F8FFE7D6
:103A80009DF8070000282CD1FFE7049802218171DE
:103A900001F064FA48F20400C2F200000068C0EBD2
:103AA000C000C0F34C40642148430290FFE70298F5
:103AB000002806D1FFE701208DF80F0004998860E7
:103AC00008E0029801380290FFE701F09BF9002816
:103AD000EDD1FFE701F0CCF84FF4006001F0BAF847
:103AE000FFE701F08DF89DF80F0000280BD1FFE7EC
:103AF0000498006802F05EF90498012101710498AD
:103B000000218160FFE70498012181719DF80F0079
:103B10008DF81700FFE79DF8170006B080BD000084
:103B200080B584B00390012001F04EF832200021CE
:103B300002900191019AFEF7C7FE0298FEF7B8FEC7
:103B400004B080BD80B58CB09C468E460A908DF83E
:103B500027100892ADF81E30089806900A988079D0
:103B6000012861D1FFE7FFE70A984079012804D1D5
:103B7000FFE702208DF82F005AE00A9801214171D9
:103B8000FFE7FFE70A9802F0EDF9049001F058F81A
:103B90000A981E2102F086F90A999DF827200390C1
:103BA0000846114602F07EF90A9900220290084662
:103BB0001146019202F076F90199ADF81610FFE76F
:103BC000BDF81600BDF81E1088420EDAFFE70A980D
:103BD000069902F009F9069901310691FFE7BDF84F
:103BE00016000130ADF81600EAE701F041F80A9836
:103BF00002F0DEF90A998968002904D0FFE7012064
:103C00008DF81D0003E000208DF81D00FFE70A98E5
:103C100001218171FFE70A9800214171FFE79DF8BA
:103C20001D008DF82F0003E002208DF82F00FFE724
:103C30009DF82F000CB080BD80B588B09C468E46A4
:103C400006908DF817100492ADF80E300698807922
:103C5000012859D1FFE7FFE706984079012804D1F0
:103C6000FFE702208DF81F0052E006980121417104
:103C7000FFE7FFE7069802F075F9019000F0E0FF1A
:103C800006980E2102F00EF906999DF81720009073
:103C90000846114602F006F90021ADF80A10FFE7C8
:103CA000BDF80A00BDF80E1088420EDAFFE706984C
:103CB0000499BDF80A20895C02F0F4F8FFE7BDF82A
:103CC0000A000130ADF80A00EAE700F0D1FF0698DB
:103CD00002F06EF906998968002904D0FFE70120F7
:103CE0008DF80D0003E000208DF80D00FFE7069829
:103CF00001218171FFE7069800214171FFE79DF8DE
:103D00000D008DF81F0003E002208DF81F00FFE773
:103D10009DF81F0008B080BD80B582B00190019869
:103D200002F078F902B080BD83B00190FFE70198FE
:103D300090F88400012804D1FFE702208DF80B00E1
:103D40002CE00198012180F88410FFE7FFE701983B
:103D50002421C0F88810019800680068009001983C
:103D60000068016821F001010160009820F0005016
:103D70000090019800214166009801990968086047
:103D800001982021C0F88810FFE70198002180F8F1
:103D90008410FFE700208DF80B00FFE79DF80B0073
:103DA00003B0704780B584B002900191FFE702989C
:103DB00090F88400012804D1FFE702208DF80F005D
:103DC00032E00298012180F88410FFE7FFE70298B3
:103DD0002421C0F8881002980068006800900298BA
:103DE0000068016821F001010160029800688068A4
:103DF00020F0606001990843029909688860029880
:103E000002F0A4F90098029909680860029820213C
:103E1000C0F88810FFE70298002180F88410FFE7BF
:103E200000208DF80F00FFE79DF80F0004B080BD63
:103E300080B584B002900191FFE7029890F8840069
:103E4000012804D1FFE702208DF80F0032E002982C
:103E5000012180F88410FFE7FFE702982421C0F8D1
:103E60008810029800680068009002980068016855
:103E700021F00101016002980068806820F0604034
:103E800001990843029909688860029802F05EF976
:103E9000009802990968086002982021C0F88810EB
:103EA000FFE70298002180F88410FFE700208DF8DA
:103EB0000F00FFE79DF80F0004B080BD80B582B011
:103EC00000900098002804D1FFE701208DF807003A
:103ED00049E000988069002801D0FFE700E0FFE793
:103EE0000098D0F88800002808D1FFE7009800214A
:103EF00080F88410009800F03BF8FFE70098242138
:103F0000C0F8881000980068016821F00101016084
:103F10000098806A002804D0FFE7009802F05AF960
:103F2000FFE7009802F054FA012804D1FFE70120CE
:103F30008DF8070017E000980068416821F490416F
:103F4000416000980068816821F02A018160009832
:103F50000068016841F001010160009802F0E0F999
:103F60008DF80700FFE79DF8070002B080BD000054
:103F700080B594B0139000201290119010900F9083
:103F80000E9068463821FCF72BF91398006844F22C
:103F90000041C4F20001884224D1FFE702200090D2
:103FA0004FF4402002906846FEF7C6FC002803D07C
:103FB000FFE7FCF767FFFFE74FF4003000F0E4FD98
:103FC000012000F0B1FD0C200E9002200F90002087
:103FD00010901190072012904FF090400EA9FDF71D
:103FE000CBFCFFE714B080BD80B58AB09446089042
:103FF0000791ADF81A2005930898D0F8880020287A
:1040000040F08680FFE70798002805D0FFE7BDF85D
:104010001A00002804D1FFE701208DF827007BE07B
:1040200008980021C0F8901008982121C0F8881045
:10403000FDF76CFE0290BDF81A000899A1F8540033
:10404000BDF81A000899A1F8560008988068B0F5E4
:10405000805F0AD1FFE708980069002805D1FFE7D3
:10406000002004900798039004E007980490002033
:104070000390FFE7FFE70898B0F8560000282FD01C
:10408000FFE70898029B05996A461160802100228B
:1040900002F0ECFB002804D0FFE703208DF8270096
:1040A0003AE0049800280BD1FFE7039800886FF3EB
:1040B0005F2008990968886203980230039008E03D
:1040C000049800780899096888620498013004907F
:1040D000FFE70898B0F856100139A0F85610CAE763
:1040E0000898029B05996A4611604021002202F05F
:1040F000BDFB002804D0FFE703208DF827000BE06C
:1041000008982021C0F8881000208DF8270003E0CF
:1041100002208DF82700FFE79DF827000AB080BD38
:10412000FFE7FEE781B0009000980068806900F02A
:1041300002000021B1EB500F05D0FFE700980068A6
:1041400000218162FFE7009800688069C0070028AD
:1041500007D1FFE700980068816941F001018161A2
:10416000FFE701B07047000080B58AB00990089160
:10417000079200208DF81B0009990968896905914B
:104180000490079803909DF81400C006002840F1A1
:104190008780FFE7099800681021C161FFE709984F
:1041A0000068806900F0200000210A46B1EB501F32
:1041B000009207D1FFE79DF81B00B0FA80F040099C
:1041C0000090FFE70098C007002857D0FFE7089845
:1041D0000130002851D0FFE7FDF798FD0399401A00
:1041E0000899884204D8FFE70898002844D1FFE7DF
:1041F00009980068406800F480400290099890F89F
:1042000042008DF8070009980068806980B200219B
:10421000B1EBD03F14D0FFE70298B0F5804F0FD03C
:10422000FFE79DF8070020280AD0FFE709980068FB
:10423000416841F480414160FDF768FD0390FFE76C
:10424000FFE709980068806900F020000021B1EBC9
:10425000501F10D1FFE7FDF759FD0399401A1A28A6
:1042600008D3FFE7049840F02000049001208DF867
:104270001B0000E0E5E7FFE7FFE790E79DF81B0084
:10428000002805D1FFE7099800682021C161FFE7F8
:10429000049840F00400049001208DF81B00FFE713
:1042A00009980068806905909DF81500C0070028EE
:1042B0000DD0FFE7049840F00100049009980068D1
:1042C0004FF48071C16101208DF81B00FFE79DF85C
:1042D0001500400700280DD5FFE7049840F00800BE
:1042E0000490099800684FF48061C16101208DF845
:1042F0001B00FFE79DF81500800700280DD5FFE79C
:10430000049840F002000490099800684FF400718E
:10431000C16101208DF81B00FFE79DF81B000028FC
:1043200020D0FFE70998FFF7FDFE09980068416873
:104330004EF60002CFF600621140416004980999E0
:104340004A6C104348640998202180F8411009986C
:10435000002180F84210FFE70998002180F8401002
:10436000FFE7FFE79DF81B000AB080BDF0B58BB0FA
:10437000DDF844C0DDF840E01C4615460E460990C5
:10438000ADF82210ADF82020ADF81E300998BDF828
:1043900022109DF81E206B4642F20007C8F200076B
:1043A0001F600023CDF818C0CDF814E004940395E5
:1043B000029600F0B3F809981099119A00F096F956
:1043C000002804D0FFE701208DF82B0035E0BDF870
:1043D0001E00012806D1FFE79DF820000999096811
:1043E000886216E09DF82100099909688862099899
:1043F0001099119A00F07AF9002804D0FFE7012003
:104400008DF82B0019E09DF8200009990968886251
:10441000FFE70998109B11996A461160402100221C
:1044200000F0AAF8002804D0FFE701208DF82B0047
:1044300003E000208DF82B00FFE79DF82B000BB068
:10444000F0BD0000F0B58BB0DDF844C0DDF840E011
:104450001C4615460E460990ADF82210ADF82020F6
:10446000ADF81E300998BDF822109DF81E206B464D
:1044700042F20007C8F200071F604FF08073CDF8CA
:1044800018C0CDF814E004940395029600F046F8A5
:1044900009981099119A00F029F9002804D0FFE733
:1044A00001208DF82B0035E0BDF81E00012806D153
:1044B000FFE79DF8200009990968886216E09DF8D9
:1044C000210009990968886209981099119A00F0E9
:1044D0000DF9002804D0FFE701208DF82B0019E02A
:1044E0009DF82000099909688862FFE70998109BE8
:1044F00011996A4611608021002200F03DF80028E1
:1045000004D0FFE701208DF82B0003E000208DF898
:104510002B00FFE79DF82B000BB0F0BD10B584B069
:10452000DDF818C096460C460390ADF80A108DF8D9
:1045300009200193BDF80A006FF39F209DF8091030
:1045400040EA0140019908430699084320F00040E1
:104550000090039800684068069920EA515049F697
:104560000041CFF6004108400099084303990968CB
:10457000486004B010BD000080B586B0DDF820C0F2
:104580009646049003918DF80B200193FFE7049861
:104590000068806903990840401AB0FA80F0400929
:1045A0009DF80B10884245D1FFE704980199089ABD
:1045B000FFF7DAFD002804D0FFE701208DF817008F
:1045C0003CE001980130002833D0FFE7FDF79EFB67
:1045D0000899401A0199884204D8FFE701980028F9
:1045E00026D1FFE704980068806903990840401AC3
:1045F000B0FA80F040099DF80B10884217D1FFE710
:104600000498416C41F0200141640498202180F815
:1046100041100498002180F84210FFE7049800211F
:1046200080F84010FFE701208DF8170006E0FFE753
:10463000FFE7ACE700208DF81700FFE79DF81700B3
:1046400006B080BD80B584B0029001910092FFE772
:1046500002980068806900F020000021B1EB501F33
:104660003BD1FFE702980199009AFFF77DFD0028F2
:1046700004D0FFE701208DF80F0032E0FDF746FB84
:104680000099401A0199884204D8FFE70198002850
:1046900022D1FFE702980068806900F02000002125
:1046A000B1EB501F17D1FFE70298416C41F0200198
:1046B00041640298202180F841100298002180F87E
:1046C0004210FFE70298002180F84010FFE7012028
:1046D0008DF80F0005E0FFE7BAE700208DF80F0026
:1046E000FFE79DF80F0004B080BD000080B584B0E6
:1046F000029001910092FFE702980068806900F043
:1047000002000021B1EB500F41D1FFE7029801995F
:10471000009AFFF729FD002804D0FFE701208DF85B
:104720000F0038E00198013000282FD0FFE7FDF797
:10473000EDFA0099401A0199884204D8FFE70198E0
:10474000002822D1FFE702980068806900F002008B
:104750000021B1EB500F17D1FFE70298416C41F0F7
:10476000200141640298202180F841100298002124
:1047700080F84210FFE70298002180F84010FFE720
:1047800001208DF80F0006E0FFE7FFE7B4E7002007
:104790008DF80F00FFE79DF80F0004B080BD00000A
:1047A00080B582B0002001905520C0F2AA00009090
:1047B00048F21000C2F200000078092801DCFFE78F
:1047C00017E048F21000C2F2000000210170FCF76F
:1047D00029F9FCF7F1F8FF280BD0FFE7FCF7ECF81C
:1047E0008DF801006846082100F0A2FEFCF7DCF815
:1047F000FFE702B080BD000080B584B048F26C10C5
:10480000C2F200000078012817D1FFE740F2004013
:10481000C4F6000020210390FDF748FA4FF48051C0
:104820000120039A02901046029AFDF755FA0421DE
:104830000398029AFDF750FA1CE048F26C10C2F29D
:1048400000000078022813D1FFE740F20040C4F6D0
:10485000000004210190FDF729FA4FF480510198DE
:10486000FDF724FA202101220198FDF735FA00E036
:10487000FFE7FFE704B080BD81B00090009880683A
:104880004FF6E871C7F6FF71084002300099886062
:1048900001B0704781B00090009880684FF6E871D1
:1048A000C7F6FF71084002300099886001B0704778
:1048B00081B00090009880684FF6E871C7F6FF71EC
:1048C000084001300099886001B0704781B00090C5
:1048D000009880684FF6E871C7F6FF710840013014
:1048E0000099886001B0704781B00090009880689E
:1048F00040F080504FF6E871C7F6FF71084000990C
:10490000886001B07047000081B000900098D0F836
:10491000B40000F07F0001B07047000081B000904B
:104920000098006800F0E07001B0704782B001901C
:10493000009101984069009901F0040107228A4022
:104940001040C84002B0704781B000900098806865
:10495000C00F01B07047000081B0009000988068DF
:10496000C0F3400001B0704781B0009000988068AB
:1049700000F0010001B0704781B00090009880689D
:1049800000F0010001B0704781B00090009880688D
:10499000C0F3007001B0704781B00090009880684B
:1049A000C0F3800001B0704781B000900098C068EB
:1049B00000F44060B0FA80F0400901B07047000098
:1049C00082B00190009100986FF39F4001998A6A2C
:1049D0001043886202B0704782B001900091009845
:1049E0000021CFF6FC7161EA000001998A6A10404B
:1049F000886202B07047000083B00290019100927B
:104A00000298806A019901F01F010F228A409043A9
:104A1000009AC2F3836202FA01F1084302998862A4
:104A200003B0704781B00090009880684FF6E8713D
:104A3000C7F6FF71084004300099886001B07047E4
:104A400082B0019000910198D0F8B40020F07F006E
:104A5000009908430199C1F8B40002B07047000002
:104A600083B002900191009202984069019920EA76
:104A70000120009A02EA01214FF60072C0F2FF32D3
:104A8000114008430299486103B0704782B0019019
:104A900000910198006820F0E070009908430199A6
:104AA000086002B07047000083B00290019100924C
:104AB00002984069019901F0040107228A4090435D
:104AC000009A02FA01F108430299486103B0704765
:104AD00081B000900098806840F0004020F01700FE
:104AE0000099886001B0704782B0019001984C2114
:104AF000C5F600010A68104308600868019908407B
:104B00000090009802B0704782B0019001984C214B
:104B1000C5F600010A68104308600868019908405A
:104B20000090009802B0704782B0019001984C212B
:104B3000C5F600010A68104308600868019908403A
:104B40000090009802B0704782B0019001984C210B
:104B5000C5F600010A68104308600868019908401A
:104B60000090009802B0704782B0019001985821DF
:104B7000C5F600010A6810430860086801990840FA
:104B80000090009802B0704782B0019001985821BF
:104B9000C5F600010A6810430860086801990840DA
:104BA0000090009802B0704782B001900198602197
:104BB000C5F600010A6810430860086801990840BA
:104BC0000090009802B0704782B001900198642173
:104BD000C5F600010A68104308600868019908409A
:104BE0000090009802B0704781B00090009840F6A5
:104BF0009001C5F600010A681043086001B07047D3
:104C000040F21840C5F600004FF4006101607047A3
:104C100040F21440C5F600000068C0F38000704701
:104C200040F21440C5F600000068C0F34000704731
:104C300040F20040C5F600000068C0F30020704755
:104C400040F29040C5F60000016821F40041016087
:104C50007047000081B0009040F20840C5F60000A7
:104C6000016821F40061009A1143016001B07047AE
:104C700040F29040C5F60000016841F40041016037
:104C8000704700009020C5F60000016841F48031B3
:104C90000160704740F20810C5F60000006800F09F
:104CA0000F000001704700000820C5F600000068F2
:104CB00000F0F000704700000820C5F60000006812
:104CC00000F4E060704700000820C5F600000068AE
:104CD00000F460507047000081B000908820C5F655
:104CE000000000680099084001B070479020C5F6A8
:104CF0000000006800F44070704700000820C5F60E
:104D00000000006800F00C007047000081B00090C7
:104D10008820C5F6000000680099084040EA01407C
:104D200001B070474FF0B040016821F4803101605C
:104D3000704700004FF0B040016821F4001101609D
:104D4000704700004FF0B040016841F480310160CD
:104D5000704700004FF0B040016841F4001101605D
:104D6000704700004FF0B0400068C0F3005070473B
:104D70004FF0B0400068C0F3404070474FF0B04083
:104D8000016821F480710160704700004FF0B0406D
:104D9000016841F480710160704700004FF0B0403D
:104DA0000068C0F38020704781B000900420C5F6F1
:104DB0000000016821F0FE41009A41EA02610160B1
:104DC00001B070470820C5F600000068C0F300403D
:104DD000704700000820C5F600000068C0F340409E
:104DE000704700000820C5F600000068C0F380404E
:104DF0007047000040F20810C5F600000068C0F3DC
:104E0000004070479420C5F600000068C0F3803071
:104E1000704700009020C5F600000068C0F3400015
:104E2000704700009020C5F600000068C0F3400005
:104E30007047000081B000909020C5F60000016826
:104E400021F01801009A1143016001B07047000081
:104E50009420C5F60000016821F00101016070474F
:104E60009420C5F60000016841F00101016070471F
:104E70009420C5F600000068C0F3400070470000B1
:104E80004FF0B040016821F001010160704700005F
:104E90004FF0B040016841F001010160704700002F
:104EA0004FF0B040006800F0F00070479420C5F665
:104EB0000000006800F47060704700004FF0B040E0
:104EC0000068C0F3C00070474FF0B0400068C0F306
:104ED0004000704781B000900420C5F600000168D2
:104EE00021F47F41009A41EA0221016001B070473C
:104EF0004FF0B040016821F0807101607047000000
:104F00004FF0B040016841F08071016070470000CF
:104F10000C20C5F60000006800F07000704700002B
:104F20000C20C5F60000006800F003007047000088
:104F30000C20C5F600000068C0F306207047000092
:104F40000C20C5F60000006800F0604070470000CB
:104F50004FF0B0400068C0F3406070479420C5F641
:104F60000000016821F40041016070479020C5F6FF
:104F70000000016821F480310160704781B0009029
:104F80008820C5F60000016821F04051009A1143C5
:104F9000016001B07047000081B0009040F208103D
:104FA000C5F60000016821F00F01009A41EA1211D4
:104FB000016001B07047000081B000900820C5F684
:104FC0000000016821F0F001009A1143016001B076
:104FD0007047000081B000900820C5F6000001680D
:104FE00021F4E061009A1143016001B070470000B4
:104FF00081B000900820C5F60000016821F46051DE
:10500000009A1143016001B07047000081B0009028
:105010008820C5F600000168009A6FF47F2363EAD8
:105020001213194002F47F4241EA0211016001B0FB
:105030007047000081B000908820C5F6000001682C
:1050400021F44071009A1143016001B070470000E3
:1050500081B000908820C5F600000168009A4FF6E4
:10506000FF7363EA0203194041EA0241016001B0A3
:105070007047000081B000908820C5F600000168EC
:1050800021F44061009A1143016001B070470000B3
:1050900081B000908820C5F60000016821F04041F1
:1050A000009A1143016001B07047000081B0009088
:1050B0009020C5F60000016821F44071009A114368
:1050C000016001B07047000081B000900820C5F673
:1050D0000000016821F00301009A1143016001B052
:1050E0007047000081B000908820C5F6000001687C
:1050F000009A21EA124192B21143016001B0704757
:1051000080B582B048F2CC00C2F20000C0210DF19F
:1051100007020123FEF794FB9DF807100090084654
:1051200002B080BD80B58AB000208DF827000890BD
:10513000069000F06BF905200590FCF7FBFB069844
:1051400000F07EF90598FCF7F5FB0120049000F0D3
:1051500077F90598FCF7EEFB049800F01DF940F292
:10516000B11000F033F904980699049A049B00F0FA
:10517000A9F80D200421039100F07CF90720039980
:10518000049A069B00F06EF86846069901600820B4
:105190000290029A049B00F0C5F8069800F08CF982
:1051A0000AB080BD80B592B000208DF8070002A83B
:1051B0000DF1070100F01EF8002818D0FFE79DF858
:1051C0000700082812D1FFE79DF8080055280DD1E7
:1051D000FFE79DF80A00AA2808D1FFE79DF809001B
:1051E00048F26C11C2F200010870FFE7FFE712B04D
:1051F00080BD000080B588B006900591FFF780FF64
:105200008DF812009DF81200D42823D1FFE748F250
:10521000CC00C2F2000013210DF112020223039010
:10522000FEF70EFB9DF812309DF81310069ADDF87C
:105230000CC002906046FEF785FC9DF81210059A9E
:10524000117000210190084600F036F901208DF818
:105250001F0003E000208DF81F00FFE79DF81F00EE
:1052600008B080BDB0B586B09C4696460C46054653
:105270008DF817008DF816108DF815208DF8143064
:105280009DF817008DF810009DF816008DF811009C
:105290009DF815008DF812009DF814008DF813008C
:1052A00048F2CC00C2F200008B2104AA0423CDF8FE
:1052B0000CC0CDF808E001940095FEF735FB06B070
:1052C000B0BD0000B0B586B09C4696460C4605467B
:1052D0008DF817008DF816108DF815208DF8143004
:1052E0009DF817008DF810009DF816008DF811003C
:1052F0009DF815008DF812009DF814008DF813002C
:1053000048F2CC00C2F20000952104AA0423CDF893
:105310000CC0CDF808E001940095FEF705FB06B03F
:10532000B0BD000070B588B0DDF830C09E461446B0
:105330000D460646ADF81E008DF81D108DF81C2098
:105340008DF81B308DF81AC09DF81F008DF81400E1
:105350009DF81E008DF815009DF81D008DF81600B3
:105360009DF81C008DF817009DF81B008DF81800A3
:105370009DF81A008DF8190048F2CC00C2F2000026
:105380008C2105AA0623CDF810E00394029501961E
:10539000FEF7CAFA08B070BD80B582B001468DF83C
:1053A00007009DF807008DF8060048F2CC00C2F215
:1053B00000008A220DF106034FF0010C0091114606
:1053C0001A466346FEF7B0FA02B080BD80B584B0DD
:1053D00003900398000501909DF807008DF80800E0
:1053E000BDF806008DF809000198000A8DF80A0042
:1053F00001988DF80B0048F2CC00C2F20000862123
:1054000002AA0423FEF790FA04B080BD80B582B0F2
:1054100001468DF807009DF807008DF8060048F258
:10542000CC00C2F2000084220DF106034FF0010C03
:10543000009111461A466346FEF776FA02B080BD27
:1054400080B582B001468DF807009DF807008DF801
:10545000060048F2CC00C2F2000080220DF10603E3
:105460004FF0010C009111461A466346FEF75CFAB4
:1054700002B080BD80B584B00A4603468DF80F00A7
:105480008DF80E109DF80F008DF80C009DF80E00A1
:105490008DF80D0048F2CC00C2F200008E210DF113
:1054A0000C0C4FF0020E0292624601937346FEF717
:1054B0003BFA04B080BD000080B582B001468DF893
:1054C0000700FF208DF806004FF6FF70ADF80400CE
:1054D0009DF80700002811D1FFE701200090FBF79D
:1054E0005DFB0098FCF726FA48F2CC00C2F20000FF
:1054F000822101AA0323FEF717FA16E000208DF897
:1055000006008DF805008DF804000220FBF746FB2D
:105510000120FCF70FFA48F2CC00C2F20000832110
:1055200001AA0323FEF700FAFFE702B080BD0000E6
:1055300080B588B00A4607908DF81B100020ADF8A2
:1055400018008DF8170007999DF81B3048F2CC0C15
:10555000C2F2000C04906046DDF810C00391614671
:10556000DDF80CE002927246FEF766FB0121019025
:105570000846FFF7A1FFFFE7FFF7C2FD8DF8170010
:10558000BDF818000138ADF81800FFE79DF81700C6
:105590000021AC28009107D0FFE7BDF818000028D3
:1055A00018BF01200090FFE70098C0070028E3D152
:1055B000FFE70020FFF780FF08B080BD80B584B012
:1055C000002003900290019048F21401C2F2000101
:1055D00042F20042C4F201020A6081F83C004FF03E
:1055E00080424A6010228A6048634FF000420A619C
:1055F000C860887681F820008862486281F82C00B3
:1056000004224A61086301220A7648760846FBF7BD
:10561000B5FE002803D0FFE7FBF734FCFFE70820C6
:10562000C0F6004001900120029048F21400C2F23E
:10563000000001A9FBF708FD002803D0FFE7FBF7F6
:1056400021FCFFE748F21400C2F20000FBF72AFC3D
:1056500004B080BD80B548F27800C2F2000045F287
:105660000041C4F20001016047F6BB41C0F2700185
:105670004160002181600122C2600161416181615C
:10568000C1610162FCF7F8FB002803D0FFE7FBF7DC
:10569000F9FBFFE748F27800C2F200000021FCF7B6
:1056A0004DFB002803D0FFE7FBF7ECFBFFE748F2D8
:1056B0007800C2F200000021FCF78CFB002803D028
:1056C000FFE7FBF7DFFBFFE76420FCF733F980BD62
:1056D00080B548F2CC00C2F2000008210160FEF75C
:1056E000A3F9002803D0FFE7FBF7CCFBFFE780BD61
:1056F00080B548F2D800C2F2000044F20041C4F282
:10570000000101604FF41651416000218160C160C9
:1057100001610C2242618161C16101624162816269
:10572000FEF7CCFB002803D0FFE7FBF7ABFBFFE75E
:1057300048F2D800C2F200000021FEF779FB0028F1
:1057400003D0FFE7FBF79EFBFFE748F2D800C2F269
:1057500000000021FEF726FB002803D0FFE7FBF73F
:1057600091FBFFE748F2D800C2F20000FEF7DCFA36
:10577000002803D0FFE7FBF785FBFFE780BD0000B3
:10578000FFE7FEE77047000088B00790069105929A
:10579000079800F0070004900498C0F1070005285E
:1057A00003D3FFE70420019004E00498C0F1070050
:1057B0000190FFE70198039004980430062803D86D
:1057C000FFE70020009003E0049803380090FFE713
:1057D0000098029006980399012202FA01F101391A
:1057E000084002998840059B02FA01F101391940ED
:1057F000084308B07047000080B582B000208DF8E3
:105800000700FFE79DF80700032821DCFFE79DF86C
:1058100007100020009000F0EDF800988DF80600C9
:10582000FFE79DF806007F280BDCFFE74020002102
:1058300000F0DEF9FFE79DF8060001308DF8060064
:10584000EFE7FFE79DF8070001308DF80700D9E783
:1058500002B080BD80B584B064200390FCF76AF884
:105860000020AE21029000F0C3F9D521029800F08B
:10587000BFF98021029800F0BBF9A821029800F03E
:10588000B7F91F20029901900846019900F0B0F97C
:10589000D321029800F0ACF90298029900F0A8F91F
:1058A0004020029900900846009900F0A1F98D214E
:1058B000029800F09DF91421029800F099F9A121B5
:1058C000029800F095F9C821029800F091F9DA21C8
:1058D000029800F08DF90298029900F089F981216F
:1058E000029800F085F98F21029800F081F9D92102
:1058F000029800F07DF90298019900F079F9DB2116
:10590000029800F075F90298009900F071F9A4214D
:10591000029800F06DF9FFF76FFFAF21029800F0D9
:1059200067F90398FCF706F804B080BD80B58AB02B
:1059300048F21200C2F200000078632801DCFFE7A1
:1059400056E048F21200C2F200000021017048F255
:105950006C10C2F200000078012808D0FFE748F27E
:105960006C10C2F20000007802280ED1FFE748F266
:105970006C10C2F20000027847F65F51C0F60001D9
:105980000DF1130001F0DAF808E047F65251C0F6C5
:1059900000010DF1130001F0D1F8FFE700200DF137
:1059A000130110220390039B02911946DDF808C0F1
:1059B00001926246019B00F0DDF80DF12700FAF735
:1059C0007DFF9DF8272048F26D10C2F20000037899
:1059D00047F66E51C0F60001029801F0AFF80221BF
:1059E000039A00901046029A019B00F0C3F8FFE76B
:1059F0000AB080BD80B584B00A4603468DF80F001A
:105A00008DF80E109DF80F0000F00F01002002909D
:105A10000192009300F0ECF89DF80F00000900F1EE
:105A20001001029800F0E4F89DF80E00B030C1B209
:105A3000029800F0DDF804B080BD0000B0B582B07F
:105A40009C4696460C4605468DF807008DF80610D4
:105A50008DF805208DF804309DF8050020388DF86C
:105A600003009DF80700802809DBFFE700208DF880
:105A700007009DF8060002308DF80600FFE79DF84C
:105A8000040010284CD1FFE79DF807009DF8061090
:105A9000FFF7B0FF00208DF80200FFE79DF802003D
:105AA000072815DCFFE79DF803009DF8021001EBC5
:105AB000001047F24871C0F60001095C402000F078
:105AC00097F8FFE79DF8020001308DF80200E5E746
:105AD0009DF807009DF806100131C9B2FFF78AFF53
