:020000040800F2
:1000000078060020D9010008E11100084911000814
:10001000DD110008E9020008F511000800000000E9
:10002000000000000000000000000000E9110008CE
:10003000ED02000800000000E5110008ED110008C5
:10004000F3010008F3010008F3010008F3010008C0
:10005000F3010008F3010008F3010008F3010008B0
:10006000F3010008F3010008F3010008F3010008A0
:10007000F3010008F3010008F3010008F301000890
:10008000F3010008F3010008F3010008F301000880
:1000900000000000F3010008F1020008F30100086D
:1000A000F3010008F3010008F3010008F301000860
:1000B000F3010008F3010008F3010008F301000850
:1000C000F3010008F3010008F3010008F301000840
:1000D000F3010008F3010008F3010008F301000830
:1000E000F3010008F3010008F3010008F301000820
:1000F000F30100080000000000000000F301000808
:10010000F3010008F3010008F3010008F3010008FF
:10011000F3010008F3010008F3010008F3010008EF
:10012000F3010008F3010008F3010008F3010008DF
:10013000F3010008F301000800F002F800F03CF8B9
:100140000AA090E8000C82448344AAF10107DA4532
:1001500001D100F031F8AFF2090EBAE80F0013F048
:10016000010F18BFFB1A43F001031847A811000044
:10017000C8110000103A24BF78C878C1FAD85207D5
:1001800024BF30C830C144BF04680C607047000011
:100190000023002400250026103A28BF78C1FBD890
:1001A000520728BF30C148BF0B6070471FB501F030
:1001B00064F81FBD10B510BD00F058F81146FFF7E8
:1001C000F5FF01F019F800F076F803B4FFF7F2FF3D
:1001D00003BC00F07DF8000009488047094800474B
:1001E000FEE7FEE7FEE7FEE7FEE7FEE7FEE7FEE7E7
:1001F000FEE7FEE704480549054A064B7047000044
:10020000F11100083901000878000020780600206C
:1002100078020020780200204FF0000200B513465B
:1002200094469646203922BFA0E80C50A0E80C5016
:10023000B1F12001BFF4F7AF090728BFA0E80C50C7
:1002400048BF0CC05DF804EB890028BF40F8042BC0
:1002500008BF704748BF20F8022B11F0804F18BF2D
:1002600000F8012B7047704770477047754600F0E3
:100270002BF8AE4605006946534620F00700854638
:1002800018B020B5FFF7B6FFBDE820404FF00006DC
:100290004FF000074FF000084FF0000BAC46ACE801
:1002A000C009ACE8C009ACE8C009ACE8C00921F05D
:1002B00007018D46704710B50446AFF30080204615
:1002C000BDE81040FFF781BF0048704710000020D4
:1002D00001491820ABBEFEE7260002000048704727
:1002E0001400002070470000FEE700007047000087
:1002F0004FF4807000F026B8B0B5044600F028F93D
:10030000054640F20000C2F200000078611C18BFF0
:10031000044400BF00F01CF9401BA042FAD3B0BD5A
:10032000B0F5807F18BF704780B540F20040C4F63A
:100330000000042100F0FEF84FF4FA70BDE88040A0
:10034000FFF7DABFB0B540F60C05C5F60005296821
:10035000014208BFB0BD0446FFF7E2FF2C60B0BD0C
:100360002DE9F04F84B00E680390002E00F0DF807E
:1003700040F600020398C4F600028E4690424FF009
:1003800007004FF000044FF001074FF000054FF059
:10039000000808BF02200090029148E040F20040AF
:1003A000C4F600008242009A08BF012202FA03F05C
:1003B000082140EA0C00C4F2010141F8260040F691
:1003C0000006C5F600063068DEF8041040EA0902AF
:1003D000CB0258BF20EA0902326070688B0240EA03
:1003E000090258BF20EA09027260D6F88000CB03E8
:1003F00040EA090258BF20EA0902C6F88020D6F870
:100400008400890340EA090258BF20EA0902C6F8BD
:100410008420DEF8006008F1010836FA07F005F1E3
:10042000020507F1010704F1040400F08080A7F140
:10043000010A012000FA0AF316EA0309E9D0DEF8FE
:1004400004B00BF0030CACF10102012A1ED8039892
:100450004FEA480281680192032202FA05F6029AE5
:10046000B143D2F80CE0F6430EFA05F21143DDF881
:1004700008E081604168994303460198CBF300127C
:1004800002FA0AF2114359600CE000BF0320A840B1
:10049000039BC643BCF1030F284603D128464FF007
:1004A000030C26E0D968DEF8082031408240114371
:1004B000BCF1020FD9601CD102466FF0030000EAC4
:1004C0005A01194404F01C030F20D1F820C000FA8F
:1004D00003FE1046029A2CEA0E0C1269DDF808E0C1
:1004E0009A4042EA0C02039B0A62DEF804B00BF069
:1004F000030C19680CFA00F0314008431BF4403F2C
:1005000018603FF486AF08204FEA9A06C4F2010053
:1005100050F8260004F00C030721039A9940B2F129
:10052000904F20EA010C7FF439AF00223EE704B07F
:10053000BDE8F08F426902EA0103914341EA0341B9
:10054000816170471823002A08BF2823C1507047D3
:1005500040F27000C2F200000068704740F20000F4
:1005600040F27001C2F20000C2F2000100780A6895
:10057000104408607047000080B5032000F078F850
:1005800000F094F940F20801C2F200010860002076
:1005900000F008F800281CBF012080BD00F028F8FA
:1005A000002080BD70B540F20006C2F2000631782E
:1005B000D1B1044600F07AF931784FF47A72B2FB87
:1005C000F1F1B0FBF1F000F0A9FD0F2C4FF00105A7
:1005D00008D838B94FF0FF3021460022002500F03E
:1005E0001BF87460284670BD0125284670BD0000C8
:1005F000052000F03DB80000002848BF704700F01B
:100600001F01012202FA01F14EF200124009CEF25E
:10061000000242F82010704710B54EF60C5CCEF286
:10062000000CDCF80030C3F3022E8EF00704042C1B
:1006300028BF0424BEF103034FF0FF3E0EFA04F47A
:1006400038BF0023A14399400EFA03F39A4300F008
:100650000F03043B1143634409010C3300F1604272
:10066000B0F1FF3FC8BF02F56443197010BD000030
:100670004EF60C51CEF200010A684FF6FF031A4005
:1006800060F30A2242F0806040F0FD70086070471D
:1006900040F20040C5F60000006800F4C0607047FA
:1006A00040F20040C5F60000016841F4807101602D
:1006B000704700002DE9F04381B0002800F0AF80C2
:1006C00044F20008C5F600080546D8F800000C46BC
:1006D00000F00700884215D2D8F8000020F007008B
:1006E0002043C8F80000FFF733FF0646D8F80000A3
:1006F00000F00700A04205D0FFF72AFF801B022868
:10070000F4D95BE0286808278107C5F6000713D5F0
:10071000A868396821F0F00108433860FFF718FF36
:10072000064600BF3868C00305D4FFF711FF801BE1
:100730000228F7D942E02868410616D56869D7F83B
:10074000001121F00F0141EA1010C7F80001FFF776
:10075000FFFE0646D7F80001C00305D4FFF7F8FEF8
:10076000801B0228F6D929E02868410712D5E868DD
:10077000396821F4E06108433860FFF7E9FE064676
:100780003868800305D4FFF7E3FE801B0228F7D901
:1007900014E02868010716D52869396821F46051EA
:1007A00041EAC0003860FFF7D3FE064638684003D0
:1007B00008D4FFF7CDFE801B0228F7D9032001B033
:1007C000BDE8F0832868C0071ED1D8F8000000F00B
:1007D0000700A04227D9D8F8000020F007002043E6
:1007E000C8F80000FFF7B4FE054600BFD8F80000C7
:1007F00000F00700A04216D0FFF7AAFE401B022817
:100800004FF00300F2D945E068684FF0B04130B3D3
:10081000032842D0022844D10968890322D4012048
:1008200001B0BDE8F08300F053F839683C2202EAD9
:10083000910141F29422C0F60002515840F20802A0
:10084000B0FBF1F140F20400C2F200000068C2F215
:100850000002116001B0BDE8F043FFF7A3BE0968D4
:100860008907DCD5396821F0030108433860FFF7B8
:100870006FFE064641F288393868696800F00C005E
:10088000B0EB810FA1D0FFF763FE801B48454FF00E
:100890000300F1D901B0BDE8F08309688901BED534
:1008A000E0E709684905BAD5DCE7000080B500F04B
:1008B0000FF80821C5F6000109683C2202EA9101FF
:1008C00041F29422C0F600025158B0FBF1F080BD15
:1008D0000C21C5F6000151F8040C10F00C02086858
:1008E00005D00C2A17D100F00300012813D14FF0D6
:1008F000B040036800681B0700F0080004D4E0B1B2
:100900004FF0B04000681FE0E0B14FF0B040006829
:10091000C0F3031019E042F20040042AC0F2F400D0
:100920001FD0082A1CD14FF0B0421268D2025CBF1F
:1009300044F60000C0F2E81013E0D1F88800C0F3DC
:10094000032002E0D1F88800002041F2D423C0F651
:10095000000353F82030002A184618BF002001E099
:100960000020002351F8042C02F00C020C2A18BFBE
:100970007047086800F0030242F20040022AC0F209
:10098000F4000AD0032A09D14FF0B0421268D20213
:100990005CBF44F60000C0F2E81003460868C0F3EC
:1009A00006200A685843C2F3021201320968B0FBFC
:1009B000F2F0012202EB5171B0FBF1F07047000040
:1009C0002DE9F04F81B0002800F01A8340F2900B1F
:1009D0000446C5F6000B5BF8880C5BF8841C227893
:1009E00000F00C08900601F0030A29D42078C00713
:1009F0005BD0B8F1080F54D0B8F10C0F08BFBAF1B2
:100A0000030F4ED04FF0B0400168D4E9015221F4F9
:100A100080111143B5F5803F016009D0B5F5041F81
:100A200040F02D824FF0B0410A6842F400120A6093
:100A3000016841F480310160FFF78AFD05462DE22F
:100A4000B8F1000F1ED0B8F10C0F08BFBAF1010FBA
:100A500018D0216A4FF0B0463068002900F060815C
:100A600040F001003060FFF773FD054630688007F5
:100A700000F17D81FFF76CFD401B02284FF0030061
:100A8000F4D947E3206A002800F0BA824FF0B04161
:100A9000A06A0A68120700F1CC80DBF8041009098B
:100AA000C8E06068002800F0AB82207880072DD570
:100AB000B8F1040F1DD0B8F10C0F08BFBAF1020F46
:100AC00017D021694FF0B0463068002900F000824D
:100AD00040F480703060FFF73BFD0546306840050C
:100AE0000BD4FFF735FD401B02284FF00300F5D96A
:100AF00010E32069002800F0838260695BF88C1C99
:100B000021F0FE4141EA00604BF88C0C2078000790
:100B100029D42078400750D4E56A002D00F0AC823B
:100B2000B8F10C0F40F03981012D00F069825BF8BB
:100B3000840C216B00F003028A4240F06182616BF9
:100B400000F070028A4240F05B82A16B00F4FE422A
:100B5000B2EB012F40F05482616C00F0604088429B
:100B600040F04E8288E2A069DBF80410002800F013
:100B7000E980E06901F01002904200F0B68201F0D5
:100B80000302022A00F03C82C90700F0A782DBF8CA
:100B9000040020F00100CBF80400FFF7D9FC054663
:100BA000DBF80400800740F19882FFF7D1FC401B7E
:100BB00011284FF00300F3D9ACE2DBF87003C00555
:100BC00010D4FFF76DFDFFF7C3FC0546DBF870039B
:100BD000C00507D4FFF7BCFC401B02284FF0030000
:100BE000F4D997E2E068002800F08481852801D0DC
:100BF000052805D1DBF8000040F00400CBF8000028
:100C0000FFF7A6FCDBF80010054641F0010041F2B9
:100C10008836CBF8000000BFDBF80000800700F149
:100C20000F81FFF795FC401BB0424FF00300F3D952
:100C300070E2096801F0F00141F294298842C0F69F
:100C400000092CD93C2101EA900041F2D421DBF8C3
:100C50007820C0F60001085802F00F0159F8211061
:100C6000B0FBF1F5FFF714FDB0F5007F40F0B88060
:100C70004EF6BF20C0F22110854240F2DD8049F2DD
:100C80003F30C0F23420854240F24E814AF63F6048
:100C9000C0F2EB20854240F2B78000264BE14FF0D6
:100CA000B0410A6842F008020A600A6822F0F002C5
:100CB00002430A60616A5BF88C2C22F47F4242EAAC
:100CC00001214BF88C1C3C2101EA900041F2D42117
:100CD000DBF87820C0F60001085802F00F0159F83F
:100CE0002110B0FBF1F5FFF7D3FCB0F5007F40F029
:100CF0008D804EF6BF20C0F22110854240F29E80CA
:100D000049F23F30C0F23420854240F25C814AF61D
:100D10003F60C0F2EB20854240F28C80002659E112
:100D200020F001003060FFF713FC054630688007B3
:100D30007FF55CAEFFF70CFC401B02284FF0030070
:100D4000F4D9E7E121F00100CBF80400FFF700FC43
:100D5000054600BFDBF8040080077FF5DAAEFFF739
:100D6000F7FB401B11284FF00300F3D9D2E14FF0FD
:100D7000B040016841F0080101600168D4E909321E
:100D800021F0F001114301605BF88C0C20F47F40EE
:100D900040EA03204BF88C0C28E64FF0B046306850
:100DA00020F080703060FFF7D3FB022D05460BD199
:100DB0003068800140F12881FFF7CAFB401B0A28F8
:100DC0004FF00300F4D9A5E13068800140F14B8178
:100DD000FFF7BEFB401B0A284FF00300F4D999E14E
:100DE0004CF6BF70C0F26A00854225D945F63F50E7
:100DF000C0F2C600854240F2978046F23F60C0F2E2
:100E0000031085423FF649AF02208EE04CF6BF70DA
:100E1000C0F26A00854211D945F63F50C0F2C600C3
:100E2000854240F2D08046F23F60C0F20310854216
:100E30003FF674AF0220C7E0002076E00020C3E058
:100E4000E06840F00400852840F01A81FFF780FB3D
:100E5000DBF80010054641F0800041F28836CBF8FF
:100E6000000000BFDBF8000000053FF555AEFFF7BE
:100E70006FFB401BB0424FF00300F3D94AE14FF043
:100E8000B046306820F480303060306820F40010C4
:100E90003060FFF75DFB002D054615D04FF0B046E2
:100EA000306880033FF501AEFFF752FB401B64281A
:100EB0004FF00300F4D92DE1FFF74AFB401B6428F3
:100EC0004FF0030000F2268130688003F4D4ECE593
:100ED00020F480703060FFF73BFB0546306840052A
:100EE0007FF514AEFFF734FB401B02284FF00300E0
:100EF000F4D90FE1FFF72CFBDBF80010064621F0D8
:100F0000800041F28837CBF8000000BFDBF80050CA
:100F1000FFF71EFB2905054640F1CA80A81BB84211
:100F20004FF00300F2D9F5E0012041F28821C0F62C
:100F3000000151F8206044F20007C5F60007386848
:100F400020F0070030433860FFF702FB054600BF82
:100F5000386800F00700B04205D0FFF7F9FA401BEF
:100F60000228F5D94CE04FF0B040016841F008018B
:100F700001600168D4E9093221F0F00111430160F8
:100F80005BF88C0C20F47F4040EA03204BF88C0C7B
:100F9000FFF79EFC5BF8881C3C2202EA910159F89D
:100FA000011040F20802B0FBF1F140F20400C2F27D
:100FB00000000068C2F200021160FFF7F3FA002897
:100FC00040F0A88012E5012041F28821C0F600011E
:100FD00051F8206044F20007C5F60007386820F099
:100FE000070030433860FFF7B3FA0546386800F071
:100FF0000700B042CCD0FFF7ABFA401B0228F5D96E
:10100000012001B0BDE8F08F5BF8840C48F28C0140
:10101000C1F2C11104F1300708408ECFD4E9106548
:101020000843104340EA03203843304328434BF839
:10103000840C4FF0B045286840F0807028605BF861
:10104000840C40F080504BF8840CFFF781FA044682
:101050002868800110D4FFF77BFA001B0A284FF0A4
:101060000300F5D956E05BF8840C4FF6FC71CEF620
:10107000FE6108404BF8840C002001B0BDE8F08F01
:10108000FFF766FADBF80010054621F0800041F218
:101090008836CBF80000DBF8000000057FF53CAD9A
:1010A000FFF756FA401BB0424FF00300F3D931E08E
:1010B000DBF8000041F2883620F00100CBF8000098
:1010C000DBF8000080077FF527ADFFF741FA401BF2
:1010D000B0424FF00300F3D91CE0E069DBF80410E4
:1010E00021F010010843CBF80400DBF8040040F0C5
:1010F0000100CBF80400FFF72BFA0546DBF80400EB
:1011000080073FF506ADFFF723FA401B11284FF08B
:101110000300F3D901B0BDE8F08F0000411E0020AC
:10112000B0EB116F1CBF012070474EF21002CEF2DF
:10113000000251604EF62351CEF20001F0230B70F5
:101140000721906011607047FEE700002DE9F04133
:1011500086B000264C20CDE90366C5F60000016884
:1011600040F2004441F0010101600168C4F600044E
:1011700001F00101059105990168012241F0020188
:1011800001600068042100F00200059005982046E7
:101190004FF004080127FFF7D5F94FF48070009055
:1011A0004FF404106D46CDE901064FF090402946FA
:1011B000FFF7D6F820462946CDE90087CDE902663B
:1011C000FFF7CEF8162001210022FFF725FA16209E
:1011D000FFF712FA06B0BDE8F0810000FEE700005C
:1011E000FEE700007047000070470000FFF7B6B947
:1011F00070470000FEE700009AB0FFF7BDF908ACA9
:10120000201D4421FFF708F8002540F20040CDE9F9
:101210000655CDE90455CDE90255C5F60000016833
:10122000012262F34A210160006800F4C06001906D
:10123000019820200890B020CDE91025CDE91205B5
:101240002046FFF7BDFB20B1EFF3108072B600BF60
:10125000FEE74F20CDE9020502A80221CDE90455A1
:10126000CDE90655FFF726FA18B1EFF3108072B6F4
:10127000FEE7FFF76BFF00BFFEE710B5FFF72EF8A4
:101280004FF00001016010BD0000000001000000EF
:101290000200000001000000030000000500000043
:1012A0000100000001000000060000000A0000002C
:1012B0002000000002000000040000000800000000
:1012C000100000004000000080000000000100004D
:1012D00000020000A0860100400D0300801A0600F5
:1012E00000350C0040420F0080841E0000093D00C4
:1012F00000127A000024F40000366E010048E80174
:10130000006CDC0200000000000000000000000093
:10131000000000003813000800000020100000004A
:10132000740100084813000810000020680600003F
:101330009001000800000000010000001000000003
:0813400000093D00000000005F
:0400000508000139B5
:00000001FF
