:020000040800F2
:1000000070070020E1010008192D0008E52800080C
:10001000152D00085D0700080547000800000000D6
:10002000000000000000000000000000393100085E
:100030006107000800000000353100083D3100086C
:10004000FB010008FB010008FB010008FB010008A0
:10005000FB010008FB010008FB010008FB01000890
:10006000FB010008FB010008FB010008FB01000880
:10007000FB010008FB010008FB010008FB01000870
:10008000FB010008FB010008FB010008FB01000860
:1000900000000000FB010008FB010008FB01000854
:1000A000FB010008FB010008FB010008FB01000840
:1000B000FB010008FB010008FB010008FB01000830
:1000C000FB010008FB010008FB010008FB01000820
:1000D000FB010008F9460008FB010008FB010008CD
:1000E000FB010008FB010008FB010008FB01000800
:1000F000FB0100080000000000000000FB010008F8
:10010000FB010008FB010008FB010008FB010008DF
:10011000FB010008FB010008FB010008FB010008CF
:10012000FB010008FB010008FB010008FB010008BF
:10013000FB010008FB01000800F002F800F041F8A4
:100140000AA090E8000C82448344AAF10107DA4532
:1001500001D100F036F8AFF2090EBAE80F0013F043
:10016000010F18BFFB1A43F001031847604F00004E
:10017000804F0000103A24BF78C878C1FAD85207DF
:1001800024BF30C830C144BF04680C607047000011
:100190000023002400250026103A28BF78C1FBD890
:1001A000520728BF30C148BF0B607047642900F078
:1001B000EB80002070471FB504F0FAFA1FBD10B5A0
:1001C00010BD00F078FA1146FFF7F5FF04F09CFA35
:1001D00000F096FA03B4FFF7F2FF03BC00F09EFABA
:1001E0000948804709480047FEE7FEE7FEE7FEE7CB
:1001F000FEE7FEE7FEE7FEE7FEE7FEE70448054907
:10020000054A064B704700007131000839010008AB
:100210007001002070070020700300207003002090
:1002200053EA020C00F069802DE9F04B4FF0000614
:10023000002B1FBFB3FA83F503FA05F424FA05F681
:100240005E4012BF1643B2FA82F502FA05F4C5F118
:1002500020051EBF22FA05FC44EA0C04203556EAAC
:10026000044C4FEA144418BF641C4FF000084FF0D0
:100270000009904271EB030C39D3002919BFB1FA80
:1002800081F701FA07F6B0FA80F700FA07F6C7F12E
:1002900020071EBF20FA07FC46EA0C062037B6FBF3
:1002A000F4FCA7EB0507103F07F01F0BCBF120066E
:1002B0002CFA06F60CFA0BFB44BFB3460026202F9F
:1002C000A4BF5E464FF0000B5BEA060C08BF4FF080
:1002D000010B19EB0B0948EB0608ABFB027C06FB94
:1002E00002CC0BFB03CCC01B71EB0C01C1E70B462E
:1002F000024641464846BDE8F08B13B5084318BF97
:100300004FF0FF300146AFF30080BDE81C4070475E
:100310000FB41CB5074B06AA7B44694600900598AC
:1003200000F0B1F90020694600F0C0F91CBC5DF88E
:1003300014FB00009103000070B504468569006855
:10034000C10601D5302600E02026C00707D070BDC9
:10035000D4E9012130469047206A401C20626D1E7E
:10036000F6D570BD70B5044685690078C00707D121
:1003700070BDD4E9012120209047206A401C2062F2
:100380006D1EF6D570BD00002DE9F0410646002433
:1003900010687529314616A510D0AFF300800028EB
:1003A00002DA404213A507E031688A0701D512A599
:1003B00002E0490704D511A5012401E0AFF3008054
:1003C00000210A2206F1240709E0B0FBF2FCB0FB91
:1003D000F2F302FB1C00303078541846491C002808
:1003E000F3D123462A463046BDE8F04100F0EDB88F
:1003F000000000002D0000002B0000002000000085
:100400002DE9F05F894604464FF0000ADFF824B179
:10041000FB44C0F820A02046E168884700287DD032
:10042000252806D0D4E901219047206A401C20628B
:10043000F1E700255F462046E16888472028064608
:1004400007DB312E05D2B81910F8200C08B105438E
:10045000F1E7A80701D525F00405C4F81CA0002782
:10046000C4F818A02A2E09D0304604F09AF938B3FF
:1004700004EB8708303EC8F8186019E059F8041BEF
:10048000204604EB87029161E1688847012F064608
:1004900018D1E069002820DA25F020051DE0D8F801
:1004A000180000EB800006EB40003038C8F8180058
:1004B0002046E1688847064604F073F90028EED12B
:1004C000012F0AD02E2E08D12046E16888477F1CD4
:1004D0000646022F45F02005C4DBA069002803DA98
:1004E000404245F00105A061E80701D025F0100564
:1004F000A6B1A6F14100192802D8203645F40065BE
:100500004A463146204625604D46FFF74FFE60B112
:10051000012807D0ED1D25F0070000E007E000F1FD
:10052000080978E705F1040975E730467AE7206A9B
:10053000BDE8F09FAA43000010B5431C02E010F88C
:10054000011B71B18107FAD14FF0013202C88C1A38
:100550008C4314EAC211F9D0C01A0A0603D0C01E97
:1005600010BDC01A10BD0A0401D0801E10BD0902C2
:10057000FCD0401E10BD4FF0000200B5134694465B
:100580009646203922BFA0E80C50A0E80C50B1F1EB
:100590002001BFF4F7AF090728BFA0E80C5048BFFF
:1005A0000CC05DF804EB890028BF40F8042B08BF9D
:1005B000704748BF20F8022B11F0804F18BF00F899
:1005C000012B70477047704770472DE9F0470D4683
:1005D00099469246044600F124080168880604D52D
:1005E000E06921F01001216000E00120A84201DD56
:1005F000471B00E00027A1697A1902EB0900081ADD
:10060000A0612078C00602D42046FFF795FE0026A0
:1006100008E0D4E901211AF806009047206A401C3E
:10062000761C20624E45F4DB2078C0060AD52046B1
:10063000FFF782FE06E0D4E9012130209047206ACE
:10064000401C2062381EA7F10107F4DC07E0D4E962
:10065000012118F805009047206A401C2062281EDE
:10066000A5F10105F3DC2046FFF77CFE20780006AB
:1006700002D50220BDE8F0870120FBE701694A1C92
:1006800002610878704700B58FB0CDE901310021D3
:10069000059105497944CDE9031011466846FFF7F5
:1006A000AFFE0FB000BD0000E5FFFFFF0A6802F8D3
:1006B000010B0A607047754600F02CF8AE46050045
:1006C0006946534620F00700854618B020B5FFF76D
:1006D00095FDBDE820404FF000064FF000074FF0B9
:1006E00000084FF0000BAC46ACE8C009ACE8C0090C
:1006F000ACE8C009ACE8C00921F007018D4670479D
:1007000010B50446AFF300802046BDE81040FFF767
:1007100061BD00000048704710000020014918200A
:10072000ABBEFEE72600020070470000004870479D
:100730001400002010B502F04BFB40F27004C2F22E
:10074000000440F2D40004F10B01C2F200000422C4
:1007500001F068FF0220A07010BD0000FEE700005D
:1007600070470000EFF3108072B600BFFEE7000094
:10077000002804BF0120704780B590F82510022999
:1007800026D10168D0E910CE826C0B6823F00E03ED
:100790000B60136823F4807313600A6822F001026F
:1007A0000A600EF01C02012101FA02F2CCF80420CA
:1007B000D0E913325A60426D32B1136823F480736A
:1007C0001360D0E91623536080F82510002102E061
:1007D0000421C1630121002280F82420BDE880406B
:1007E0000846704780B590F8251002292DD1016880
:1007F000D0E910CE826C0B6823F00E030B600B68FF
:1008000023F001030B60116821F4807111600EF078
:100810001C02012101FA02F2CCF80420D0E91332C3
:100820005A60426D32B1136823F480731360D0E9CB
:100830001623536080F82510826B002180F8241065
:100840000AB190470021084680BD0421C1630121FF
:10085000084680BDB0B5044600F006F9054640F2F2
:100860000000C2F200000078611C18BF044400BF01
:1008700000F0FAF8401BA042FAD3B0BD2DE9F04FCA
:1008800084B00E680390002E00F0DF8040F6000276
:100890000398C4F600028E4690424FF007004FF0D6
:1008A00000044FF001074FF000054FF0000808BFAB
:1008B00002200090029148E040F20040C4F600009F
:1008C0008242009A08BF012202FA03F0082140EA9E
:1008D0000C00C4F2010141F8260040F60006C5F6FE
:1008E00000063068DEF8041040EA0902CB0258BF67
:1008F00020EA0902326070688B0240EA090258BFA0
:1009000020EA09027260D6F88000CB0340EA0902AF
:1009100058BF20EA0902C6F88020D6F8840089036F
:1009200040EA090258BF20EA0902C6F88420DEF82E
:10093000006008F1010836FA07F005F1020507F139
:10094000010704F1040400F08080A7F1010A0120EE
:1009500000FA0AF316EA0309E9D0DEF804B00BF056
:10096000030CACF10102012A1ED803984FEA480299
:1009700081680192032202FA05F6029AB143D2F885
:100980000CE0F6430EFA05F21143DDF808E0816051
:100990004168994303460198CBF3001202FA0AF228
:1009A000114359600CE000BF0320A840039BC643DD
:1009B000BCF1030F284603D128464FF0030C26E074
:1009C000D968DEF80820314082401143BCF1020FA3
:1009D000D9601CD102466FF0030000EA5A011944A5
:1009E00004F01C030F20D1F820C000FA03FE1046CB
:1009F000029A2CEA0E0C1269DDF808E09A4042EAED
:100A00000C02039B0A62DEF804B00BF0030C1968B9
:100A10000CFA00F0314008431BF4403F18603FF4EB
:100A200086AF08204FEA9A06C4F2010050F826006B
:100A300004F00C030721039A9940B2F1904F20EA89
:100A4000010C7FF439AF00223EE704B0BDE8F08F1F
:100A50000069084018BF0120704700001823002AD1
:100A600008BF2823C150704740F26810C2F200004E
:100A70000068704790F84120202A03D190F8402068
:100A8000012A01D102207047242280F84120026807
:100A9000136823F001031360136823F48053136079
:100AA000136819431160116841F0010111602021A0
:100AB00080F84110002180F840100846704700007F
:100AC00090F84120202A03D190F84020012A01D13A
:100AD00002207047242280F841200268136823F026
:100AE00001031360136823F4706343EA012111606A
:100AF000116841F001011160202180F841100021AE
:100B000080F8401008467047002804BF0120704755
:100B100010B5044690F8410028B9002084F8400040
:100B2000204600F07BF9242084F8410094E8091065
:100B3000E2680168012A21F00101016023F070617F
:100B40000161816821F40041816003D14CF40041CE
:100B5000816007E04CF40441022A816004BF4FF435
:100B600000614160416804F1100C41F0007141F4F2
:100B700000414160C16821F40041C1609CE80E1051
:100B8000114341EA0321C160216A41EA0C0101607D
:100B9000016841F00101016000202021606484F8B7
:100BA0004110206384F8420010BD00002DE9F04799
:100BB000044690F84100202803D194F84000012811
:100BC00002D10220BDE8F08701201E461746884664
:100BD00084F84000FFF748FF216805468A6912043F
:100BE0000AD500BFFFF740FF401B192800F2F5802F
:100BF000216888690004F5D4212084F84100102080
:100C000084F8420000206064676266856063608DDE
:100C100049F6004940F2000CCFF60049B0F5807F5C
:100C2000C0F2FF1C0DD30A4652F8047F4346A9F5D3
:100C300080666FF39F2337401F430CF50056FF2358
:100C400010E0638D0A46474652F8040F6FF39F2762
:100C50005FFA83FEA9F58066304047EA0E470743F6
:100C60000CF5903647EA060010602385608D089EDB
:100C7000002800F08F806FF39F2808F1007A701C25
:100C800048EA0C074FF0FF0851D10BE0A4F8288088
:100C9000084650F8042F02EA09023A430260608DC8
:100CA000002877D020464FF0FF312A4601F0D0FED1
:100CB000002840F09E80606A216810F8012B8A624B
:100CC0006062608D01386085208D421E2285608DB6
:100CD0001204E4D10028E2D0886900065FBF886969
:100CE0005FEA006088695FEA006003D488690006F3
:100CF000F2D500BF608DFF28C8D8628D08462285D6
:100D000050F8043FD2B203EA09034AEA02421A4306
:100D1000C4E7628D0846228550F8043FD2B203EA48
:100D200009034AEA02421A430260608D90B32046EA
:100D300031462A4601F08CFE00285AD1606A2168AB
:100D400010F8012B8A626062608D01386085208D09
:100D5000421E2285608D1204E7D10028E5D0886903
:100D600000060AD4BEB300BFFFF77EFE401BB042B0
:100D700033D8216888690006F6D5608DB0F5807F8C
:100D8000C7D3A4F82880084650F8042F02EA0902C5
:100D90003A43C9E7886900F020008EB160BB00BF0C
:100DA000204631462A4601F09FFD10BBFFF75CFE4E
:100DB000401BB04211D8216888698006F0D51BE03D
:100DC000D0B9204600212A4601F08EFD00281CBF24
:100DD0000120BDE8F087FFF747FE606C40F020007F
:100DE0006064202084F84100002084F8420084F8E8
:100DF00040000120BDE8F0872020C8614A684EF617
:100E00000003CFF600631A404A6084F841000020D6
:100E100084F8420084F84000BDE8F08710B594B033
:100E2000044600201290CDE91000CDE90E0068467E
:100E30003821FFF7A0FB206845F20041C4F2000111
:100E4000884201D014B010BD402000904FF44030D3
:100E50000590684600F0D8F8002818BFFFF782FC1C
:100E60004C24C5F6000420680EA940F00200206062
:100E7000206800F0020013901398C0200E901220FA
:100E80000F900020CDE910000420129040F20040A5
:100E9000C4F60000FFF7F2FCE06840F40010E060E8
:100EA000E06800F400101390139814B010BD000017
:100EB00040F2000040F26811C2F20000C2F20001EC
:100EC00000780A68104408607047000080B503206D
:100ED00000F078F800F09AFA40F20801C2F200013E
:100EE0000860002000F008F800281CBF012080BD29
:100EF00000F028F8002080BD70B540F20006C2F274
:100F000000063178D1B1044600F080FA31784FF410
:100F10007A72B2FBF1F1B0FBF1F000F0E7FE0F2CBA
:100F20004FF0010508D838B94FF0FF3021460022B4
:100F3000002500F01BF87460284670BD0125284686
:100F400070BD0000052000F03DB80000002848BF3B
:100F5000704700F01F01012202FA01F14EF2001267
:100F60004009CEF2000242F82010704710B54EF64C
:100F70000C5CCEF2000CDCF80030C3F3022E8EF0D5
:100F80000704042C28BF0424BEF103034FF0FF3EE6
:100F90000EFA04F438BF0023A14399400EFA03F37C
:100FA0009A4300F00F03043B1143634409010C33DF
:100FB00000F16042B0F1FF3FC8BF02F56443197011
:100FC00010BD00004EF60C51CEF200010A684FF63B
:100FD000FF031A4060F30A2242F0806040F0FD7087
:100FE0000860704740F20040C5F60000006800F459
:100FF000C060704740F20040C5F60000016841F44F
:101000008071016070470000F0B581B004468078BF
:101010008826C007C5F6000600F0A980FFF7EAFFA2
:10102000FFF722FD054600BFD6F87803C00575D44A
:10103000FFF71AFD401B0228F6D903202168CA07D2
:1010400000F09A806268336823EA124392B21A432E
:1010500032608A0740F19380A268336823EA124322
:1010600092B21A4332608A0640F18C80226933685A
:1010700023F440631A4332608A0540F18680226A75
:1010800033684FF6FF7767EA02073B4043EA0242C4
:1010900032604A057CD5626A33684FF6FF7767EAAB
:1010A00002073B4043EA024232600A0572D5A26A57
:1010B00033684FF6FF7767EA02073B4043EA024294
:1010C00032604A0668D5626933686FF47F2767EA41
:1010D00012173B4002F47F4243EA021232600A06D2
:1010E0005CD5A26933686FF47F2767EA12173B402B
:1010F00002F47F4243EA02123260CA0550D5E26927
:1011000033686FF47F2767EA12173B4002F47F428F
:1011100043EA02123260CA0654D543E0B168606BFC
:1011200001F4407181421DD0B168B26821F440736E
:1011300042F48032B260B268890722F480320146FC
:10114000B260B3600ED5FFF78FFC054641F28837D9
:10115000B068800705D4FFF787FC401BB842F7D979
:101160006BE7616BB06820F440700843B06000200A
:101170002168CA077FF466AF8A073FF56DAF8A061C
:101180003FF574AF8A053FF57AAF4A053FF583AF67
:101190000A058CD44A0696D40A06A2D4CA05AED44F
:1011A000CA060FD5E2683368B2F5807F23F4407336
:1011B00043EA0203336005D156F87C2C42F080727A
:1011C00046F87C2C0A0407D5226B336823F0404391
:1011D00043EA0203336092B1490418D5E16A3268E8
:1011E000B1F1005F22F0405242EA010232600ED1BA
:1011F00056F87C1C41F4803146F87C1C07E056F818
:101200007C2C42F0807246F87C2C4904E6D401B074
:10121000F0BD00002DE9F04381B0002800F0AF8060
:1012200044F20008C5F600080546D8F800000C4650
:1012300000F00700884215D2D8F8000020F007001F
:101240002043C8F80000FFF70FFC0646D8F800005E
:1012500000F00700A04205D0FFF706FC801B022823
:10126000F4D95BE0286808278107C5F6000713D585
:10127000A868396821F0F00108433860FFF7F4FBF3
:10128000064600BF3868C00305D4FFF7EDFB801B9E
:101290000228F7D942E02868410616D56869D7F8D0
:1012A000001121F00F0141EA1010C7F80001FFF70B
:1012B000DBFB0646D7F80001C00305D4FFF7D4FBDB
:1012C000801B0228F6D929E02868410712D5E86872
:1012D000396821F4E06108433860FFF7C5FB064632
:1012E0003868800305D4FFF7BFFB801B0228F7D9BD
:1012F00014E02868010716D52869396821F460517F
:1013000041EAC0003860FFF7AFFB0646386840038B
:1013100008D4FFF7A9FB801B0228F7D9032001B0EE
:10132000BDE8F0832868C0071ED1D8F8000000F09F
:101330000700A04227D9D8F8000020F0070020437A
:10134000C8F80000FFF790FB054600BFD8F8000082
:1013500000F00700A04216D0FFF786FB401B0228D2
:101360004FF00300F2D945E068684FF0B04130B368
:10137000032842D0022844D10968890322D40120DD
:1013800001B0BDE8F08300F08BF839683C2202EA36
:10139000910144F2DC72C0F60002515840F208029A
:1013A000B0FBF1F140F20400C2F200000068C2F2AA
:1013B0000002116001B0BDE8F043FFF79DBD096870
:1013C0008907DCD5396821F0030108433860FFF74D
:1013D0004BFB064641F288393868696800F00C001A
:1013E000B0EB810FA1D0FFF73FFB801B48454FF0CA
:1013F0000300F1D901B0BDE8F08309688901BED5C9
:10140000E0E709684905BAD5DCE7000080B500F0DF
:1014100047F80821C5F6000109683C2202EA91015B
:1014200044F2DC72C0F600025158B0FBF1F080BD0E
:1014300080B500F035F80821C5F600010A683C23A4
:1014400003EA920244F2DC73C0F600039A5809687A
:10145000B0FBF2F044F61C02C1F30221C0F6000218
:1014600052F82110C84080BD80B500F019F808215D
:10147000C5F600010A683C2303EA920244F2DC73D9
:10148000C0F600039A580968B0FBF2F044F61C025B
:10149000C1F3C221C0F6000252F82110C84080BD3D
:1014A0000C21C5F6000151F8040C10F00C0208687C
:1014B00005D00C2A17D100F00300012813D14FF0FA
:1014C000B040036800681B0700F0080004D4E0B1D6
:1014D0004FF0B04000681FE0E0B14FF0B04000684E
:1014E000C0F3031019E042F20040042AC0F2F400F5
:1014F0001FD0082A1CD14FF0B0421268D2025CBF44
:1015000044F60000C0F2E81013E0D1F88800C0F300
:10151000032002E0D1F88800002044F63C03C0F626
:10152000000353F82030002A184618BF002001E0BD
:101530000020002351F8042C02F00C020C2A18BFE2
:101540007047086800F0030242F20040022AC0F22D
:10155000F4000AD0032A09D14FF0B0421268D20237
:101560005CBF44F60000C0F2E81003460868C0F310
:1015700006200A685843C2F3021201320968B0FB20
:10158000F2F0012202EB5171B0FBF1F07047000064
:101590002DE9F04F81B0002800F01A8340F2900B43
:1015A0000446C5F6000B5BF8880C5BF8841C2278B7
:1015B00000F00C08900601F0030A29D42078C00737
:1015C0005BD0B8F1080F54D0B8F10C0F08BFBAF1D6
:1015D000030F4ED04FF0B0400168D4E9015221F41E
:1015E00080111143B5F5803F016009D0B5F5041FA6
:1015F00040F02D824FF0B0410A6842F400120A60B8
:10160000016841F480310160FFF72EFA05462DE2B2
:10161000B8F1000F1ED0B8F10C0F08BFBAF1010FDE
:1016200018D0216A4FF0B0463068002900F0608180
:1016300040F001003060FFF717FA05463068800778
:1016400000F17D81FFF710FA401B02284FF00300E4
:10165000F4D947E3206A002800F0BA824FF0B04185
:10166000A06A0A68120700F1CC80DBF804100909AF
:10167000C8E06068002800F0AB82207880072DD594
:10168000B8F1040F1DD0B8F10C0F08BFBAF1020F6A
:1016900017D021694FF0B0463068002900F0008271
:1016A00040F480703060FFF7DFF905463068400590
:1016B0000BD4FFF7D9F9401B02284FF00300F5D9EE
:1016C00010E32069002800F0838260695BF88C1CBD
:1016D00021F0FE4141EA00604BF88C0C20780007B5
:1016E00029D42078400750D4E56A002D00F0AC8260
:1016F000B8F10C0F40F03981012D00F069825BF8E0
:10170000840C216B00F003028A4240F06182616B1D
:1017100000F070028A4240F05B82A16B00F4FE424E
:10172000B2EB012F40F05482616C00F060408842BF
:1017300040F04E8288E2A069DBF80410002800F037
:10174000E980E06901F01002904200F0B68201F0F9
:101750000302022A00F03C82C90700F0A782DBF8EE
:10176000040020F00100CBF80400FFF77DF90546E6
:10177000DBF80400800740F19882FFF775F9401B01
:1017800011284FF00300F3D9ACE2DBF87003C00579
:1017900010D4FFF72FFCFFF767F90546DBF870035D
:1017A000C00507D4FFF760F9401B02284FF0030083
:1017B000F4D997E2E068002800F08481852801D000
:1017C000052805D1DBF8000040F00400CBF800004C
:1017D000FFF74AF9DBF80010054641F0010041F23D
:1017E0008836CBF8000000BFDBF80000800700F16E
:1017F0000F81FFF739F9401BB0424FF00300F3D9D6
:1018000070E2096801F0F00144F2DC798842C0F628
:1018100000092CD93C2101EA900044F63C01DBF898
:101820007820C0F60001085802F00F0159F8211085
:10183000B0FBF1F5FFF7D6FBB0F5007F40F0B880C4
:101840004EF6BF20C0F22110854240F2DD8049F201
:101850003F30C0F23420854240F24E814AF63F606C
:10186000C0F2EB20854240F2B78000264BE14FF0FA
:10187000B0410A6842F008020A600A6822F0F002E9
:1018800002430A60616A5BF88C2C22F47F4242EAD0
:1018900001214BF88C1C3C2101EA900044F63C01EC
:1018A000DBF87820C0F60001085802F00F0159F863
:1018B0002110B0FBF1F5FFF795FBB0F5007F40F08C
:1018C0008D804EF6BF20C0F22110854240F29E80EE
:1018D00049F23F30C0F23420854240F25C814AF642
:1018E0003F60C0F2EB20854240F28C80002659E137
:1018F00020F001003060FFF7B7F805463068800738
:101900007FF55CAEFFF7B0F8401B02284FF00300F4
:10191000F4D9E7E121F00100CBF80400FFF7A4F8C7
:10192000054600BFDBF8040080077FF5DAAEFFF75D
:101930009BF8401B11284FF00300F3D9D2E14FF080
:10194000B040016841F0080101600168D4E9093242
:1019500021F0F001114301605BF88C0C20F47F4012
:1019600040EA03204BF88C0C28E64FF0B046306874
:1019700020F080703060FFF777F8022D05460BD11C
:101980003068800140F12881FFF76EF8401B0A287B
:101990004FF00300F4D9A5E13068800140F14B819C
:1019A000FFF762F8401B0A284FF00300F4D999E1D1
:1019B0004CF6BF70C0F26A00854225D945F63F500B
:1019C000C0F2C600854240F2978046F23F60C0F206
:1019D000031085423FF649AF02208EE04CF6BF70FF
:1019E000C0F26A00854211D945F63F50C0F2C600E8
:1019F000854240F2D08046F23F60C0F2031085423B
:101A00003FF674AF0220C7E0002076E00020C3E07C
:101A1000E06840F00400852840F01A81FFF724F8C0
:101A2000DBF80010054641F0800041F28836CBF823
:101A3000000000BFDBF8000000053FF555AEFFF7E2
:101A400013F8401BB0424FF00300F3D94AE14FF0C6
:101A5000B046306820F480303060306820F40010E8
:101A60003060FFF701F8002D054615D04FF0B04665
:101A7000306880033FF501AEFEF7F6FF401B642897
:101A80004FF00300F4D92DE1FEF7EEFF401B642870
:101A90004FF0030000F2268130688003F4D4ECE5B7
:101AA00020F480703060FEF7DFFF054630684005A7
:101AB0007FF514AEFEF7D8FF401B02284FF003005D
:101AC000F4D90FE1FEF7D0FFDBF80010064621F055
:101AD000800041F28837CBF8000000BFDBF80050EF
:101AE000FEF7C2FF2905054640F1CA80A81BB8428F
:101AF0004FF00300F2D9F5E0012044F2D071C0F6B6
:101B0000000151F8206044F20007C5F6000738686C
:101B100020F0070030433860FEF7A6FF054600BFFF
:101B2000386800F00700B04205D0FEF79DFF401B6B
:101B30000228F5D94CE04FF0B040016841F00801AF
:101B400001600168D4E9093221F0F001114301601C
:101B50005BF88C0C20F47F4040EA03204BF88C0C9F
:101B6000FFF79EFC5BF8881C3C2202EA910159F8C1
:101B7000011040F20802B0FBF1F140F20400C2F2A1
:101B800000000068C2F200021160FFF7B5F90028FA
:101B900040F0A88012E5012044F2D071C0F60001A7
:101BA00051F8206044F20007C5F60007386820F0BD
:101BB000070030433860FEF757FF0546386800F0ED
:101BC0000700B042CCD0FEF74FFF401B0228F5D9EA
:101BD000012001B0BDE8F08F5BF8840C48F28C0165
:101BE000C1F2C11104F1300708408ECFD4E910656D
:101BF0000843104340EA03203843304328434BF85E
:101C0000840C4FF0B045286840F0807028605BF885
:101C1000840C40F080504BF8840CFEF725FF0446FE
:101C20002868800110D4FEF71FFF001B0A284FF020
:101C30000300F5D956E05BF8840C4FF6FC71CEF644
:101C4000FE6108404BF8840C002001B0BDE8F08F25
:101C5000FEF70AFFDBF80010054621F0800041F294
:101C60008836CBF80000DBF8000000057FF53CADBE
:101C7000FEF7FAFE401BB0424FF00300F3D931E00B
:101C8000DBF8000041F2883620F00100CBF80000BC
:101C9000DBF8000080077FF527ADFEF7E5FE401B6F
:101CA000B0424FF00300F3D91CE0E069DBF8041008
:101CB00021F010010843CBF80400DBF8040040F0E9
:101CC0000100CBF80400FEF7CFFE0546DBF8040068
:101CD00080073FF506ADFEF7C7FE401B11284FF009
:101CE0000300F3D901B0BDE8F08F0000411E0020D1
:101CF000B0EB116F1CBF012070474EF21002CEF204
:101D0000000251604EF62351CEF20001F0230B7019
:101D1000072190601160704790F88410012904BF7A
:101D2000022070472421C0F88810026811681368E7
:101D300023F00103136021F000530021416613607A
:101D40002022C0F8882080F88410084670470000E0
:101D50007047000070470000B0B590F88420012A59
:101D600004BF0220B0BD0123242280F88430C0F8D3
:101D700088200268D0F864E0D2F800C01468BEF190
:101D8000000F24F001041460946824F0606441EAB8
:101D90000401916019D0916844F6A40EC1F3426128
:101DA0009368C0F6000E5B0F44F6AC051EF80340C6
:101DB000C0F60005EB5CE400B4FBF3F31EF8014051
:101DC000695CE500B5FBF1F100E00121A0F86810C5
:101DD0002021A0F86A30C2F800C0C0F888100021A5
:101DE00080F884100846B0BDB0B590F88420012A70
:101DF00004BF0220B0BD0123242280F88430C0F843
:101E000088200268D0F864E0D2F800C01468BEF1FF
:101E1000000F24F001041460946824F0604441EA47
:101E20000401916019D0916844F6A40EC1F3426197
:101E30009368C0F6000E5B0F44F6AC051EF8034035
:101E4000C0F60005EB5CE400B4FBF3F31EF80140C0
:101E5000695CE500B5FBF1F100E00121A0F8681034
:101E60002021A0F86A30C2F800C0C0F88810002114
:101E700080F884100846B0BD70470000704700002D
:101E80007047000070B501680446CA6940F62F002B
:101E90000E68D1F808E0104020280BD106F0200091
:101EA0000EF08053C01822D0616FC9B32046BDE840
:101EB0007040084740F60F00024218D00120C1F2DE
:101EC00000000EEA000C40F22010C0F2004030404A
:101ED00010EB0C000BD0D00718BF16F4807040F048
:101EE0008A8190070EF0010300F1918198E1E06E84
:101EF00006EA0203DD0614D5012812D1102008627B
:101F00008868400600F19B80B4F85C00B4F85E205D
:101F1000B4F85E30002B1CBF801A5FEA00422BD160
:101F200070BDD00240F14B811EF4800000F047816B
:101F30004FF4801220460A62BDE87040FFF79EBF52
:101F4000216851E8001F226821F4907142E80013D3
:101F5000DBB1216851E8001F226821F4907142E84A
:101F6000001393B1216851E8001F226821F4907199
:101F700042E800134BB1216851E8001F226821F4A8
:101F8000907142E80013002BDAD14FF6FE71CEF6C5
:101F9000FF7100BF226852E8022F23680A4043E81D
:101FA0000226C6B1226852E8022F23680A4043E89D
:101FB000022686B1226852E8022F23680A4043E8CD
:101FC000022646B1226852E8022F23680A4043E8FD
:101FD0000226002EDED12021C4F88C100021E166FB
:101FE000616700BF216851E8001F226821F01001DD
:101FF00042E80013DBB1216851E8001F226821F09C
:10200000100142E8001393B1216851E8001F2268D3
:1020100021F0100142E800134BB1216851E8001F84
:10202000226821F0100142E80013002BDAD10222CD
:1020300081B220462267BDE87040FFF789BED4F820
:102040008000026853689DB2002D3FF469AFB4F878
:102050005C008542BFF464AFA4F85E30126892065B
:1020600000F1A28051E8000F216820F4807041E85F
:102070000002F2B1206850E8000F216820F480705F
:1020800041E80002AAB1206850E8000F216820F45E
:10209000807041E8000262B1206850E8000F2168BA
:1020A00020F4807041E800021AB1206850E8000F67
:1020B000DAE7206850E8020F216820F0010041E8CB
:1020C0000202BAB3206850E8020F216820F0010034
:1020D00041E8020272B3206850E8020F216820F044
:1020E000010041E802022AB3206850E8020F21688B
:1020F00020F0010041E80202002ADAD11AE020684B
:1021000050E8020F216820F0400041E80202DAB1F5
:10211000206850E8020F216820F0400041E80202E8
:1021200092B1206850E8020F216820F0400041E899
:1021300002024AB1206850E8020F216820F04000F6
:1021400041E80202002ADAD12020C4F88C000020E5
:10215000E066206850E8000F216820F0100041E898
:102160000002DAB1206850E8000F216820F010006A
:1021700041E8000292B1206850E8000F216820F089
:10218000100041E800024AB1206850E8000F2168C1
:1021900020F0100041E80002002ADAD1D4F88000D3
:1021A000FEF7E6FAB4F85C0002212167B4F85E108D
:1021B000401A81B22046BDE87040FFF7C9BD100645
:1021C0000AD506F080000EF40005401904D0A16F76
:1021D00000297FF46BAEA3E6580600F112811002CD
:1021E00040F1618116F0804000F05D812046BDE83D
:1021F0007040FFF741BE01200862D4F8900040F023
:102200000100C4F8900090070EF0010308D53BB11F
:1022100002200862D4F8900040F00400C4F8900056
:10222000500708D53BB104200862D4F8900040F074
:102230000200C4F8900010070CD506F0200050EA08
:102240000C0007D008200862D4F8900040F0080085
:10225000C4F8900010050BD516F0806008D04FF43C
:1022600000600862D4F8900040F02000C4F89000AC
:10227000D4F8900000283FF453AE12F020001EBFA7
:1022800006F020000EF0805210EB020040F00381B7
:10229000D4F890008A6800F0280002F0400280180C
:1022A00000F0A88051E8000F216820F4907041E808
:1022B0000002F2B1206850E8000F216820F490700D
:1022C00041E80002AAB1206850E8000F216820F41C
:1022D000907041E8000262B1206850E8000F216868
:1022E00020F4907041E800021AB1206850E8000F15
:1022F000DAE74FF6FE70CEF6FF7000BF216851E8B6
:10230000021F2268014042E80213C3B1216851E86C
:10231000021F2268014042E8021383B1216851E89C
:10232000021F2268014042E8021343B1216851E8CC
:10233000021F2268014042E80213002BDED1E06E4A
:10234000012824D1206850E8000F216820F01000F7
:1023500041E80002DAB1206850E8000F216820F05F
:10236000100041E8000292B1206850E8000F216897
:1023700020F0100041E800024AB1206850E8000F48
:10238000216820F0100041E80002002ADAD1202064
:102390000021C4F88C00E166206861678168490605
:1023A00074D500BF50E8020F216820F0400041E8DA
:1023B0000202002A57D0206850E8020F216820F05E
:1023C000400041E80202002A4DD0206850E8020F88
:1023D000216820F0400041E80202002A43D0206832
:1023E00050E8020F216820F0400041E80202D2B319
:1023F0002068D7E72046FFF743FD0020C4F890008F
:1024000070BD51E8000F00BF216820F0400041E896
:102410000002F2B1206850E8000F216820F040006F
:1024200041E80002AAB1206850E8000F216820F0BE
:10243000400041E8000262B1206850E8000F2168C6
:1024400020F0400041E800021AB1206850E8000F77
:10245000DAE720200021C4F888002046A167BDE803
:10246000704000F03DBAD4F8800078B143F25D21AD
:10247000C0F600018163FEF7B5F900283FF450ADC6
:10248000D4F88000816BBDE8704008472046BDE865
:102490007040FFF7F5BC626F002A3FF4F9AE2046AA
:1024A00090472168F4E6D0017FF53AADB6F1FF3FE1
:1024B000C8BF70BD2046BDE87040FFF74BBC0000B0
:1024C000B0B582B0B0B10446D0F8880028B9002079
:1024D00084F88400204600F057F82420C4F88800CF
:1024E0002068016821F001010160204601F0EEFB47
:1024F000012802D1012002B0B0BDA06A10B120466F
:1025000000F038FE2068416821F490414160816804
:1025100021F02A018160016841F001010160002081
:10252000C4F89000FEF7A0FA216805460A68120771
:102530000CD56FF07E4C20464FF4001100222B4644
:10254000CDF800C001F0CEFF78B9216808684007D7
:102550000ED56FF07E4C20464FF4800100222B46B2
:10256000CDF800C001F0BEFF10B1032002B0B0BD35
:102570002020C4F88800C4F88C000020E0662067A2
:1025800084F8840002B0B0BD10B594B004460020B9
:102590001290CDE91000CDE90E0068463821FDF714
:1025A000EAFF206844F20041C4F20001884201D0F1
:1025B00014B010BD4FF440200224029068460094ED
:1025C000FEF722FD002818BFFEF7CCF84C20C5F618
:1025D0000000C16841F40031C160C16801F40031FC
:1025E00013911399016841F00101016000680EA97F
:1025F00000F00100139013980C20CDE90E04002088
:10260000CDE91000072012904FF09040FEF736F908
:10261000252001210022FEF7A9FC2520FEF796FCCB
:1026200014B010BD80B5D0F88C30202B1CBF022018
:1026300080BD00294FF0010318BF002A01D11846C0
:1026400080BD0023C366D0F800C048F20003C4F286
:1026500000039C4503D0DCF804301B0204D401F0D5
:1026600069FC0023184680BD5CE800CFD0F800E08C
:102670004CF080634EE8003CBCF1000FEFD00368E3
:1026800053E800CFD0F800E04CF080634EE8003C07
:10269000BCF1000FE3D0036853E800CFD0F800E0AE
:1026A0004CF080634EE8003CBCF1000FD7D00368CB
:1026B00053E800CFD0F800E04CF080634EE8003CD7
:1026C000BCF1000FCBD0036853E800CFCEE7000089
:1026D000006844F20041C4F20001884218BF70470C
:1026E00040F27000C2F200000121817070470000CA
:1026F0002DE9F04182B00446D0F8880020283FD16F
:102700000E4600294FF001004ED01746002A4BD04C
:102710004FF0000821201D46C4F89080C4F88800BE
:10272000FEF7A2F9A4F85470A4F85670A168074601
:10273000B1F5805F0FD12069002814BF3046B04644
:10274000064608E016F8010B21688862B4F85600C6
:102750000138A4F85600B4F85600A8B120468021EC
:1027600000223B46009501F0BDFEA8B9002EE9D13C
:1027700038F8020B21686FF35F2088620026E5E7D6
:10278000022002B0BDE8F0812046402100223B46F5
:10279000009501F0A7FE18B1032002B0BDE8F0815A
:1027A0002020C4F88800002002B0BDE8F0810000BD
:1027B000D0F88830202B1CBF0220704700294FF032
:1027C000010318BF002A01D1184670470165002196
:1027D000A0F85420A0F856208167C0F8901021215D
:1027E000C0F88810426E8168B2F1005F09D1B1F57E
:1027F000805F01D1016971B144F20941C0F6000165
:102800000DE0B1F5805F01D10169A9B344F2413116
:10281000C0F6000134E044F26121C0F60001816796
:10282000016851E8021F026841F4000142E8021306
:10283000002B04BF00207047016851E8021F0268A6
:1028400041F4000142E80213002B43D0016851E833
:10285000021F026841F4000142E80213D3B3016889
:1028600051E8021F026841F4000142E80213002B04
:1028700004BF00207047D3E744F29511C0F6000171
:10288000816700BF016851E8001F026841F08001C4
:1028900042E8001303B3016851E8001F026841F0E9
:1028A000800142E80013ABB1016851E8001F0268E3
:1028B00041F0800142E8001363B1016851E8001F54
:1028C000026841F0800142E80013002B04BF0020A1
:1028D0007047D7E700207047002318467047000074
:1028E00070470000FEE7000070B50446006815461A
:1028F0008369DA0602D4002100226AE00E46102124
:10290000C1618169890660D4711C54D046BBFEF751
:10291000ABF82068426894F842308169202B0DD0D2
:1029200012F480420AD111F4004107D0416841F409
:1029300080414160FEF798F8054600BF2068816934
:10294000890605D4FEF790F8401B1A28F6D32AE032
:1029500081698906DBD538E020688169890634D42D
:10296000FEF782F8401BB042F6D92068426894F81E
:1029700042308169202B0DD012F480420AD111F42B
:10298000004107D0416841F480414160FEF76CF896
:10299000054600BF206880698006DDD4FEF764F834
:1029A000401B1A28F6D3206801228169242110E0F7
:1029B0008169890609D48169890606D481698906F5
:1029C0005CBF81695FEA8161F2D52021C16101228A
:1029D00004218369DE0506D45E050CD49B0512D460
:1029E000B2B9002070BD4FF4807241F00101C261A4
:1029F00001225E05F2D54FF4806241F00801C26108
:102A000001229B05ECD541F002014FF40072C26136
:102A10008269920744BF002282628269D20703D191
:102A2000826942F00102826142684EF60003CFF6ED
:102A300000631A404260606C08436064202084F8A0
:102A40004100002084F8420084F84000012070BD5D
:102A500070B5044600688069800710D415460E469C
:102A600009B3701C17D100BF20464FF0FF312A4632
:102A7000FFF73AFFE8B9206880698007F4D50020A5
:102A800070BD00BFFDF7F0FF401BB04215D82068B5
:102A900080698007F3D4204631462A46FFF724FF99
:102AA0000028EFD005E0204600212A46FFF71CFF52
:102AB00008B1012070BDFDF7D7FF606C40F0200029
:102AC0006064202084F84100002084F8420084F8EB
:102AD0004000012070BD000010B540F27004C2F249
:102AE000000420790A2800D210BD002020714FF088
:102AF00090404FF48071FDF7ABFF60B140F20040B1
:102B0000C4F600004FF48071FDF7A2FFB0FA80F028
:102B10004009400000E00120A27AA07282F0FF018B
:102B20000140824301292172627211D1207802286A
:102B300005D8C00040F2012121FA00F0207040F2D7
:102B4000D400C2F200000EA10C22FFF731FE217A60
:102B5000022918BF10BD2078022806D80221C00023
:102B6000C0F2010121FA00F0207040F2D400C2F25C
:102B7000000007A10C22BDE81040FFF719BE00BFFE
:102B8000415357315F49735F446F776E0000000017
:102B9000415357325F49735F446F776E0000000006
:102BA0002DE9F04387B000264C20CDE90466C5F638
:102BB0000000016840F2004941F002010160016833
:102BC000C4F6000901F0020106910699016801228C
:102BD00041F0010101600068042100F0010006904D
:102BE000069848464FF004080127FDF737FF4FF4D9
:102BF000807401A801ADD0C048462946FDF73EFECD
:102C000001A8D0C04FF090402946FDF737FE484656
:102C10002946CDE90187CDE90366FDF72FFE07B010
:102C2000BDE8F08380B540F2800045F20041C2F279
:102C30000000C4F2000140F61A120023C2F2100292
:102C40004FF0010C80E80E10C0E90433C0E90633F0
:102C50000362FDF759FF002818BFFDF783FD40F21E
:102C60008000C2F200000021FDF704FF002818BF19
:102C7000FDF778FD40F28000C2F200000021FDF770
:102C80001FFF002808BF80BDBDE88040FDF76ABD7A
:102C900080B540F2D40044F20041C2F20000C4F218
:102CA000000100234FF00C0C4FF4165280E80E0088
:102CB000C0E90333C0E905C3C0E90733C0E90933FC
:102CC000FFF7FEFB002818BFFDF74CFD40F2D400D3
:102CD000C2F200000021FFF787F8002818BFFDF7B7
:102CE00041FD40F2D400C2F200000021FFF734F8A9
:102CF000002818BFFDF736FD40F2D400C2F20000F4
:102D0000FFF70AF8002808BF80BDBDE88040FDF746
:102D100029BD0000FEE70000FEE7000010B500201E
:102D20000021002400F0F0F90020102100F0ECF95F
:102D30000020B02100F0E8F94020002100F0E4F983
:102D4000601C44B2B4F1FF3FF6DC002000210024F7
:102D500000F0DAF90020102100F0D6F90020B121AE
:102D600000F0D2F94020002100F0CEF9601C44B2FE
:102D7000B4F1FF3FF6DC00200021002400F0C4F98C
:102D80000020102100F0C0F90020B22100F0BCF9B1
:102D90004020002100F0B8F9601C44B2B4F1FF3FBC
:102DA000F6DC00200021002400F0AEF90020102104
:102DB00000F0AAF90020B32100F0A6F9402000217C
:102DC00000F0A2F9601C44B2B4F1FF3FF6DC10BD84
:102DD00080B56420FDF73EFD0020AE2100F094F99F
:102DE0000020D52100F090F90020802100F08CF91E
:102DF0000020A82100F088F900201F2100F084F9AC
:102E00000020D32100F080F90020002100F07CF99F
:102E10000020402100F078F900208D2100F074F9A5
:102E20000020142100F070F90020A12100F06CF9BD
:102E30000020C82100F068F90020DA2100F064F9D0
:102E40000020002100F060F90020812100F05CF9F1
:102E500000208F2100F058F90020D92100F054F90A
:102E600000201F2100F050F90020DB2100F04CF978
:102E70000020402100F048F90020A42100F044F98E
:102E8000FFF74CFF0020AF2100F03EF96420BDE8C1
:102E90008040FDF7DFBC000010B58AB040F270043E
:102EA000C2F2000461790020C829CDE90800CDE90B
:102EB0000600CDE90400CDE90200019000903ED368
:102EC00021786071022922D0012916D059BB60787F
:102ED00018B100206070FFF721FF44F65240C0F2A5
:102EE0004400079045F64F70C4F65770069044F2C0
:102EF0004850C4F64C40059015E06078012803D096
:102F000001206070FFF70AFFE28811A108E06078F5
:102F1000022803D002206070FFF700FFE27809A1C9
:102F200005A8FDF7F5F905AA00200021102300F0FF
:102F3000CBF86A4600200221102300F0C5F80AB041
:102F400010BD00BF4B45593A2530336400000000E6
:102F500054696D653A253035640000002DE9F04173
:102F60000C46064640B2002844BF0234002606F054
:102F70000F08002041461F46A2F1200500F0C4F8CA
:102F8000300900F110060020314600F0BDF8A4F130
:102F90005000C1B2002000F0B7F8102FE8B26CD199
:102FA00044F6DC250701C0F60005E95D402000F08D
:102FB000ABF8781C295C402000F0A6F8B81C295C0E
:102FC000402000F0A1F8F81C295C402000F09CF89B
:102FD000381D295C402000F097F8781D295C4020BE
:102FE00000F092F8B81D295C402000F08DF8F81D23
:102FF000295C402000F088F80020414600F084F869
:103000000020314600F080F8A4F14F00C1B200204A
:1030100000F07AF807F10800295C402000F074F80D
:1030200007F10900295C402000F06EF807F10A0062
:10303000295C402000F068F807F10B00295C402073
:1030400000F062F807F10C00295C402000F05CF809
:1030500007F10D00295C402000F056F807F10E0042
:10306000295C402000F050F807F10F002844017857
:103070004020BDE8F04100F047B844F6B40200EB50
:103080004000C0F6000212F8101002EB400740208A
:1030900000F03AF87978BC78FD783E79402000F06D
:1030A00033F84020214600F02FF84020294600F058
:1030B0002BF84020314600F027F8781D0178402099
:1030C000BDE8F04100F020B82DE9F0411546127836
:1030D000002A08BFBDE8F08198460E460746002446
:1030E000F8B2F1B2D2B24346FFF738FF0837F8B270
:1030F00001347828E0B288BF02362A5C88BF0027F6
:10310000002AEDD1BDE8F08180B582B08DF80600CF
:1031100040F280008DF807104FF00A0CC2F2000058
:103120000DF1060278210223CDF800C0FDF73EFD27
:1031300002B080BD704700007047000080B5FDF709
:10314000B7FE40F27400C2F20000017809299CBF6A
:10315000013101704178C7299CBF0131417040F2B3
:103160007600C2F2000001880131018080BD0000BC
:103170007047000080B5816ACA070CD18A0715D450
:103180004A071ED40A0727D4CA0630D48A0639D47F
:103190004A0657D541E00268D0F82CC0536823F4A2
:1031A000003343EA0C0353608A07E9D50268D0F87C
:1031B00030C0536823F4803343EA0C0353604A075A
:1031C000E0D50268D0F834C0536823F4802343EA82
:1031D0000C0353600A07D7D50268D0F838C053688B
:1031E00023F4004343EA0C035360CA06CED50268B9
:1031F000D0F83CC0936823F4805343EA0C039360F7
:103200008A06C5D50268D0F840C0936823F40053FD
:1032100043EA0C0393604A0614D50268D0F844C010
:103220005368BCF5801F23F4801343EA0C035360FA
:1032300008D1D2F804C0D0F848E02CF4C00343EA27
:103240000E035360090658BF80BD0168C06C4A6810
:1032500022F400221043486080BD0000806A0021F3
:10326000A0F85E10A0F85610FEF70ABEB0B586B002
:1032700040F27005C2F20005A87801282AD1E87A48
:1032800000215428A9701AD1287B692817D1687B9E
:103290006D2814D1A87B652811D1EA8801AC0EA154
:1032A0002046FDF735F82046FDF746F982B240F298
:1032B000D400C2F200002146C823FFF719FA40F2F9
:1032C000D40005F10B01C2F200000422FFF7AAF9B5
:1032D0000220A87006B0B0BD25640D0A00000000F1
:1032E000B0F860200168D0F88C30222B40F0CD80FF
:1032F000D1F824C0836D02EA0C0223F8022B836507
:10330000B0F85E20013AA0F85E20B0F85E20002AF6
:1033100018BF704751E8001F026821F4907142E81D
:103320000013C3B3016851E8001F026821F49071D3
:1033300042E800137BB3016851E8001F026821F4E2
:10334000907142E8001333B3016851E8001F02682E
:1033500021F4907142E80013EBB10168DAE700BF95
:10336000016851E8021F026821F0010142E80213DE
:10337000DBB1016851E8021F026821F0010142E857
:10338000021393B1016851E8021F026821F00101A4
:1033900042E802134BB1016851E8021F026821F0B4
:1033A000010142E80213002BDAD12021C0F88C1071
:1033B000002141670167016848F20002C4F200027F
:1033C000914202D04A68120236D4C16E012918BF58
:1033D000FFF77EB90021C166016851E8001F02684D
:1033E00021F0100142E80013DBB1016851E8001F31
:1033F000026821F0100142E8001393B1016851E81E
:10340000001F026821F0100142E800134BB101686F
:1034100051E8001F026821F0100142E80013002B60
:10342000DAD10168CA69D20644BF10220A62B0F834
:103430005C10FEF78DBC00BF51E8001F026821F050
:10344000806142E80013002BBFD0016851E8001FE3
:10345000026821F0806142E80013002BB5D00168BA
:1034600051E8001F026821F0806142E80013002B40
:10347000ABD0016851E8001F026821F0806142E88A
:103480000013002BA1D00168D6E7886940F008003E
:10349000886170472DE9F04F81B004460068B4F8A8
:1034A0006050C36901688268D4F88C70222F5FD1A4
:1034B000B4F86870002F18BF13F020035FD1B4F880
:1034C0005E00002858D0B4F86810884254D200BF7B
:1034D000206850E8020F216820F0805041E8020285
:1034E000DAB1206850E8020F216820F0805041E8EE
:1034F000020292B1206850E8020F216820F080504B
:1035000041E802024AB1206850E8020F216820F029
:10351000805041E80202002ADAD143F2E120C0F6ED
:1035200000006067206850E8000F216840F020002C
:1035300041E8000202B3206850E8000F216840F023
:10354000200041E80002BAB1206850E8000F21686D
:1035500040F0200041E8000272B1206850E8000FFE
:10356000216840F0200041E80002002ADAD103E09F
:10357000816941F00801816101B0BDE8F08F4FF62B
:10358000FE7648F2000BCEF6FF7601F4807802F06A
:1035900001074FF0000AC4F2000B00BF416AA26DA0
:1035A000294022F8021BA265B4F85E100139A4F884
:1035B0005E10D0F81C905FEA49711AD0B8F1000F84
:1035C00018BF19F0010140F0D380002F18BF19F087
:1035D000020140F0DB80002F18BF19F0040140F019
:1035E000E380D4F8900020B12046FEF749FCC4F8EF
:1035F00090A0B4F85E00002840F08A80206850E86F
:10360000000F216820F4807041E80002E2B12068D8
:1036100050E8000F216820F4807041E800029AB160
:10362000206850E8000F216820F4807041E8000213
:1036300052B1206850E8000F216820F4807041E802
:103640000002002ADAD100BF206850E8020F21688A
:10365000304041E80202C2B1206850E8020F216800
:10366000304041E8020282B1206850E8020F216830
:10367000304041E8020242B1206850E8020F216860
:10368000304041E80202002ADED12020C4F88C003C
:10369000C4F874A0C4F870A02068584502D04168EE
:1036A00009023BD4E06E012840F08C80C4F86CA085
:1036B000206850E8000F216820F0100041E8000267
:1036C000DAB1206850E8000F216820F0100041E8CE
:1036D000000292B1206850E8000F216820F010002D
:1036E00041E800024AB1206850E8000F216820F04C
:1036F000100041E80002002ADAD12068C169C90639
:1037000044BF10210162B4F85C102046FEF720FB94
:103710005FEA89607FF5D3AE20683FE750E8000F8D
:10372000216820F0806041E80002002ABAD02068B9
:1037300050E8000F216820F0806041E80002002A74
:10374000B0D0206850E8000F216820F0806041E888
:103750000002002AA6D0206850E8000F216820F05F
:10376000806041E80002002A9CD02068D6E700BFB4
:1037700001210162D4F8901041F00101C4F89010C9
:10378000002F18BF19F002013FF425AF022101629A
:10379000D4F8901041F00401C4F89010002F18BF25
:1037A00019F004013FF41DAF04210162D4F8900028
:1037B00040F00200C4F89000D4F8900000287FF494
:1037C00013AF16E72046FEF783FF5FEA8960A3D4B4
:1037D00075E60000B0F860100268D0F88C30222B3B
:1037E00040F0CD80526A836D11401970816D0131B6
:1037F0008165B0F85E100139A0F85E10B0F85E1077
:10380000002918BF704700BF016851E8001F026817
:1038100021F4907142E80013BBB3016851E8001F26
:10382000026821F4907142E8001373B3016851E813
:10383000001F026821F4907142E800132BB3016865
:1038400051E8001F026821F4907142E80013002B38
:10385000DAD11AE0016851E8021F026821F0010183
:1038600042E80213DBB1016851E8021F026821F04F
:10387000010142E8021393B1016851E8021F026896
:1038800021F0010142E802134BB1016851E8021F27
:10389000026821F0010142E80213002BDAD1202155
:1038A000C0F88C10002141670167016848F20002EE
:1038B000C4F20002914202D04A68120236D4C16EAC
:1038C000012918BFFEF704BF0021C166016851E855
:1038D000001F026821F0100142E80013DBB101680B
:1038E00051E8001F026821F0100142E8001393B173
:1038F000016851E8001F026821F0100142E800133E
:103900004BB1016851E8001F026821F0100142E844
:103910000013002BDAD10168CA69D20644BF102215
:103920000A62B0F85C10FEF713BA00BF51E8001F3E
:10393000026821F0806142E80013002BBFD00168CB
:1039400051E8001F026821F0806142E80013002B5B
:10395000B5D0016851E8001F026821F0806142E89B
:103960000013002BABD0016851E8001F026821F062
:10397000806142E80013002BA1D00168D6E790696E
:1039800040F00800906170472DE9F04F81B0044687
:103990000068B4F86050C36901688268D4F88C701C
:1039A000222F5FD1B4F86870002F18BF13F02003E6
:1039B0005FD1B4F85E00002858D0B4F8681088428F
:1039C00054D200BF206850E8020F216820F08050D8
:1039D00041E80202DAB1206850E8020F216820F0C5
:1039E000805041E8020292B1206850E8020F21683D
:1039F00020F0805041E802024AB1206850E8020FEE
:103A0000216820F0805041E80202002ADAD143F216
:103A1000D570C0F600006067206850E8000F21688C
:103A200040F0200041E8000202B3206850E8000F97
:103A3000216840F0200041E80002BAB1206850E857
:103A4000000F216840F0200041E8000272B12068B8
:103A500050E8000F216840F0200041E80002002AF1
:103A6000DAD103E0816941F00801816101B0BDE86C
:103A7000F08F4FF6FE7648F2000BCEF6FF7601F49B
:103A8000807802F001074FF0000AC4F2000B00BF7B
:103A9000406AA16D28400870A16D20680131A165C0
:103AA000B4F85E100139A4F85E10D0F81C905FEAFB
:103AB00049711AD0B8F1000F18BF19F0010140F098
:103AC000D380002F18BF19F0020140F0DB80002FD7
:103AD00018BF19F0040140F0E380D4F8900020B141
:103AE0002046FEF7CDF9C4F890A0B4F85E00002897
:103AF00040F08A80206850E8000F216820F4807030
:103B000041E80002E2B1206850E8000F216820F48B
:103B1000807041E800029AB1206850E8000F2168E7
:103B200020F4807041E8000252B1206850E8000F94
:103B3000216820F4807041E80002002ADAD100BF39
:103B4000206850E8020F2168304041E80202C2B10B
:103B5000206850E8020F2168304041E8020282B13B
:103B6000206850E8020F2168304041E8020242B16B
:103B7000206850E8020F2168304041E80202002A24
:103B8000DED12020C4F88C00C4F874A0C4F870A062
:103B90002068584502D0416809023BD4E06E0128F4
:103BA00040F08C80C4F86CA0206850E8000F2168B9
:103BB00020F0100041E80002DAB1206850E8000F60
:103BC000216820F0100041E8000292B1206850E81E
:103BD000000F216820F0100041E800024AB120687F
:103BE00050E8000F216820F0100041E80002002A90
:103BF000DAD12068C169C90644BF10210162B4F856
:103C00005C102046FEF7A4F85FEA89607FF5D1AE2C
:103C100020683DE750E8000F216820F0806041E80F
:103C20000002002ABAD0206850E8000F216820F076
:103C3000806041E80002002AB0D0206850E8000F00
:103C4000216820F0806041E80002002AA6D02068A8
:103C500050E8000F216820F0806041E80002002A4F
:103C60009CD02068D6E700BF01210162D4F89010F3
:103C700041F00101C4F89010002F18BF19F00201A3
:103C80003FF425AF02210162D4F8901041F0040105
:103C9000C4F89010002F18BF19F004013FF41DAFB5
:103CA00004210162D4F8900040F00200C4F89000B2
:103CB000D4F8900000287FF413AF16E72046FEF7F3
:103CC00007FD5FEA8960A3D473E6000070B504467F
:103CD0002269D4E9021300680A436169E669114365
:103CE000026846F6F315CCF6FF7531432A401143BE
:103CF0000160416848F2000E21F4405119434160CF
:103D0000A269C4F2000E70451CBF216A0A43816893
:103D10004FF2FF43C1F2FF13194011438160C16AA2
:103D2000D4F824C044F2004221F00F01C4F2000292
:103D300041EA0C019042C1620DD0704511D043F6AA
:103D40000001C4F20101884245D18821C5F6000175
:103D50000A6874A30EE08821C5F6000109688A0884
:103D600004E08821C5F6000109688A0A44F6940334
:103D7000C0F6000302F0030153F82120704542F21F
:103D80000040C0F2F4002DD0B6F5004F11D1082A42
:103D90004FF0010100F2BD80DFE802F0056775BB5E
:103DA0006DBBBBBB7300FDF743FB002840F0608098
:103DB00065E0082A4FF0010100F2AB80DFE802F075
:103DC000058391A989A9A9A98F00FDF731FB0028D6
:103DD00040F07C8081E01022704542F20040C0F249
:103DE000F400D1D1082A4FF0010100F29280DFE8FF
:103DF00002F0059013900B9090901100FDF718FBC6
:103E000030B1D4F824C007E0FDF74AFB0028F8D110
:103E100000217EE04FF4004044F67C01C0F6000132
:103E200031F81C106268B0FBF1F002EB42018842ED
:103E30004FF001016DD3130398426AD8010E0002BE
:103E400010EB520041F100010023FCF7E9F94FF6B5
:103E5000FF42A0F54071C0F20F02914203D82168E1
:103E6000C860002155E0012153E0FDF7FDFA30B1B3
:103E7000D4F824C007E0FDF713FB0028F8D1002197
:103E800047E04FF4004044F67C01C0F6000131F8F1
:103E90001C106268B0FBF1F0510801EB4000B0FB70
:103EA000F2F04FF6EF72A0F11001914209D84FF6EF
:103EB000F0710140C0F3420022680844D060002144
:103EC00027E0012125E0FDF7CFFA30B1D4F824C076
:103ED00007E0FDF7E5FA0028F8D1002119E04FF4DA
:103EE000004044F67C01C0F6000131F81C104FF68A
:103EF000EF72B0FBF1F0616800EB5100B0FBF1F044
:103F0000A0F11001914203D82168C860002100E0AF
:103F100001214FF00110A066002208466267A267E7
:103F200070BD00BF0100000004000000020000009E
:103F3000080000008165A0F85C20A0F85E20816880
:103F40000023436751B1B1F1805F0BD0B1F5805FC1
:103F50000CD1016921B940F2FF110AE0016939B9B8
:103F6000FF2106E0016919B13F2102E0002100E0D4
:103F70007F21A0F860100021C0F890102221C0F825
:103F80008C1000BF016851E8021FD0F800C041F05A
:103F900001014CE80213F3B1016851E8021FD0F8A7
:103FA00000C041F001014CE80213A3B1016851E8DF
:103FB000021FD0F800C041F001014CE8021353B1D8
:103FC000016851E8021FD0F800C041F001014CE83F
:103FD0000213002BD6D1416EB1F1005F03D1B0F8CE
:103FE0006810914240D982680169B2F5805F07D1BB
:103FF000002946D043F2D571C0F60001416707E0C1
:1040000043F2D572C0F60002002942673ED000BFDD
:10401000016851E8001F026841F4907142E8001302
:10402000002B00F0B480016851E8001F026841F4E1
:10403000907142E80013002B00F0A980016851E85C
:10404000001F026841F4907142E80013002B00F059
:104050009E80016851E8001F026841F4907142E8B7
:104060000013002BD4D192E082680169B2F5805F21
:1040700035D1002960D043F68911C0F600014167AF
:1040800034E043F2E121C0F600014167016851E8E4
:10409000001F026841F0200142E80013002B76D097
:1040A000016851E8001F026841F0200142E8001356
:1040B000002B6CD0016851E8001F026841F020011C
:1040C00042E80013002B62D0016851E8001F02682B
:1040D00041F0200142E80013002BD7D157E043F60E
:1040E0008912C0F60002426761B300BF016851E85F
:1040F000001F026841F4807142E8001313B30168A5
:1041000051E8001F026841F4807142E80013CBB10E
:10411000016851E8001F026841F4807142E8001311
:1041200083B1016851E8001F026841F4807142E8E0
:104130000013002BDAD105E043F29541C0F60001EF
:10414000416700BF016851E8021F026841F08051D9
:1041500042E80213DBB1016851E8021F026841F036
:10416000805142E8021393B1016851E8021F0268CE
:1041700041F0805142E802134BB1016851E8021F3F
:10418000026841F0805142E80213002BDAD100208E
:1041900070470000D0F8881021290FD1B0F85610D0
:1041A00071B1016D036831F8022B6FF35F229A62DF
:1041B0000165B0F856100139A0F85610704700BFDD
:1041C000016851E8001F026821F0800142E80013F5
:1041D0003BB3016851E8001F026821F0800142E80A
:1041E0000013F3B1016851E8001F026821F080015B
:1041F00042E80013ABB1016851E8001F026821F0EA
:10420000800142E80013002BDAD10AE0016851E88E
:10421000001F026841F0400142E80013002B08BF74
:104220007047016851E8001F026841F0400142E810
:104230000013002BC2D0016851E8001F026841F052
:10424000400142E80013002BB8D0016851E8001F7C
:10425000026841F0400142E80013002BD6D1ADE7DF
:10426000D0F8881021296AD1B0F86A1019B966E02F
:1042700001390A0463D0B0F856209AB10268D369B4
:104280001B06F5D5D0F850C03CF8023B6FF35F2316
:104290009362C0F850C0B0F85620013AA0F85620FA
:1042A000E6E700BF016851E8021F026821F400013F
:1042B00042E80213CBB3016851E8021F026821F4FF
:1042C000000142E8021383B3016851E8021F02684B
:1042D00021F4000142E802133BB3016851E8021FD8
:1042E000026821F4000142E80213002BDAD11CE03D
:1042F000016851E8001F026841F0400142E80013E4
:10430000EBB1016851E8001F026841F0400142E84A
:104310000013A3B1016851E8001F026841F0400199
:1043200042E80013002B08BF7047016851E8001FE6
:10433000026841F0400142E80013002BD8D17047D9
:10434000D0F8881021290DD1B0F8561061B1016D57
:10435000026811F8013B93620165B0F8561001390B
:10436000A0F85610704700BF016851E8001F0268AE
:1043700021F0800142E800133BB3016851E8001FBF
:10438000026821F0800142E80013F3B1016851E8AE
:10439000001F026821F0800142E80013ABB1016800
:1043A00051E8001F026821F0800142E80013002B51
:1043B000DAD10AE0016851E8001F026841F04001CB
:1043C00042E80013002B08BF7047016851E8001F46
:1043D000026841F0400142E80013002BC2D001689E
:1043E00051E8001F026841F0400142E80013002B31
:1043F000B8D0016851E8001F026841F0400142E86E
:104400000013002BD6D1ADE7D0F88810212968D150
:10441000B0F86A1019B964E001390A0461D0B0F843
:1044200056208AB10268D3691B06F5D5D0F850C072
:104430001CF8013B9362C0F850C0B0F85620013A16
:10444000A0F85620E8E700BF016851E8021F0268A3
:1044500021F4000142E80213CBB3016851E8021FC6
:10446000026821F4000142E8021383B3016851E8B5
:10447000021F026821F4000142E802133BB3016805
:1044800051E8021F026821F4000142E80213002BE8
:10449000DAD11CE0016851E8001F026841F04001D8
:1044A00042E80013EBB1016851E8001F026841F0D7
:1044B000400142E80013A3B1016851E8001F0268FF
:1044C00041F0400142E80013002B08BF704701682B
:1044D00051E8001F026841F0400142E80013002B40
:1044E000D8D170472DE9F041044600681546C269ED
:1044F0000E461140891BB1FA81F14909A94240F0E9
:104500009C80DDF81880B8F1000F26D018F1010169
:104510007CD100BFC1693140891BB1FA81F14909E1
:10452000A94240F08A80C1693140891BB1FA81F10A
:104530004909A94240F08180C1693140891BB1FA23
:1045400081F14909A94278D1C1693140891BB1FA89
:1045500081F14909A942DDD06FE0FCF785FA00BF7F
:10456000206850E8000F216820F4D07041E8000274
:10457000BAB3206850E8000F216820F4D07041E8F9
:10458000000272B3206850E8000F216820F4D07058
:1045900041E800022AB3206850E8000F216820F4A7
:1045A000D07041E80002002ADAD11AE0206850E811
:1045B000020F216820F0010041E80202DAB1206810
:1045C00050E8020F216820F0010041E8020292B198
:1045D000206850E8020F216820F0010041E8020243
:1045E0004AB1206850E8020F216820F0010041E83C
:1045F0000202002ADAD12020C4F88800C4F88C0016
:10460000002084F884000320BDE8F0811F4600BF2D
:10461000FCF72AFAC01B4045A2D820680168490768
:1046200044BFC1695FEA01510AD4C0693040801BB0
:10463000B0FA80F04009A842EAD00020BDE8F0813D
:104640004FF40061016200BF50E8000F216820F4C0
:10465000D07041E80002C2B3206850E8000F216822
:1046600020F4D07041E800027AB3206850E8000FCF
:10467000216820F4D07041E8000232B3206850E88D
:10468000000F216820F4D07041E80002EAB12068F0
:10469000DAE700BF206850E8020F216820F001002F
:1046A00041E80202DAB1206850E8020F216820F0E8
:1046B000010041E8020292B1206850E8020F21682F
:1046C00020F0010041E802024AB1206850E8020FE0
:1046D000216820F0010041E80202002ADAD12020FE
:1046E000C4F88800C4F88C00C4F89000002084F856
:1046F00084000320BDE8F08140F2D400C2F2000043
:10470000FDF7C0BBFEE700009AB0FCF7DFFB08AC8A
:10471000201D4421FBF72FFF002540F20040CDE98A
:104720000655CDE90455CDE90255C5F600000168EE
:10473000012262F34A210160006800F4C060019028
:10474000019820200890B020CDE91025CDE9120570
:104750002046FCF71DFF20B1EFF3108072B600BFBA
:10476000FEE74F20CDE9020502A80221CDE904555C
:10477000CDE90655FCF74EFD18B1EFF3108072B687
:10478000FEE7FEF70DFAFEF74DFAFEF781FAFBF7AA
:10479000D1FF00BFFEF780FBFEF79EF9FEF766FD36
:1047A000F8E730380A2801D201207047002070470E
:1047B00010B5FBF7BBFF4FF00001016010BD040016
:1047C00000080000000000000002000100001000CE
:1047D00000000000010000000200000001000000D5
:1047E00003000000050000000100000001000000BF
:1047F000060000000A000000200000000200000087
:10480000040000000800000010000000400000004C
:104810008000000000010000000200000000000015
:104820000000000000000000000000000100000087
:10483000020000000300000004000000A086010048
:10484000400D0300801A060000350C0040420F00A6
:1048500080841E0000093D0000127A000024F4004C
:1048600000366E010048E801006CDC020000000028
:104870000000000000000000000000000100020035
:104880000400060008000A000C0010002000400090
:104890008000000100000000040000000200000091
:1048A00008000000010101030701000008040204E0
:1048B000080101010000000000000000002F0000BE
:1048C00000000700070000147F147F1400242A7FD3
:1048D0002A12006264081323003649552250000052
:1048E0000503000000001C224100000041221C00C2
:1048F0000014083E08140008083E0808000000A044
:10490000600000080808080800006060000000203F
:1049100010080402003E5149453E0000427F40001D
:10492000004261514946002141454B3100181412A3
:104930007F10002745454539003C4A494930000170
:104940007109050300364949493600064949291EBF
:104950000000363600000000563600000008142221
:104960004100001414141414000041221408000221
:104970000151090600324959513E007C1211127C46
:10498000007F49494936003E41414122007F414173
:10499000221C007F49494941007F09090901003E65
:1049A0004149497A007F0808087F0000417F4100A3
:1049B000002040413F01007F08142241007F404019
:1049C0004040007F020C027F007F0408107F003E01
:1049D0004141413E007F09090906003E4151215EE7
:1049E000007F091929460046494949310001017FE4
:1049F0000101003F4040403F001F2040201F003F7A
:104A00004038403F0063140814630007087008072B
:104A100000615149454300007F41410000552A553E
:104A20002A55000041417F000004020102040040B9
:104A300040404040000001020400002054545478DB
:104A4000007F4844443800384444442000384444FB
:104A5000487F00385454541800087E090102001899
:104A6000A4A4A47C007F080404780000447D4000D6
:104A7000004080847D00007F102844000000417FBA
:104A80004000007C04180478007C08040478003896
:104A90004444443800FC242424180018242418FC1E
:104AA000007C0804040800485454542000043F4487
:104AB0004020003C4040207C001C2040201C003C4A
:104AC0004030403C004428102844001CA0A0A07C9A
:104AD000004464544C4414141414141400000000D2
:104AE000000000000000000000000000000000F8CE
:104AF00000000000000000333000000000100C0631
:104B0000100C0600000000000000000040C07840CB
:104B1000C0784000043F04043F040400007088FC97
:104B200008300000001820FF211E0000F008F000EF
:104B3000E018000000211C031E211E0000F0088860
:104B4000700000001E2123241927211010160E00CA
:104B5000000000000000000000000000000000E075
:104B6000180402000000000718204000000204188A
:104B7000E00000000040201807000000404080F0E6
:104B8000804040000202010F01020200000000F01C
:104B9000000000000101011F0101010000000000F0
:104BA0000000000080B07000000000000000000065
:104BB00000000000000101010101010100000000EE
:104BC0000000000000303000000000000000000085
:104BD00080601804006018060100000000E0100862
:104BE0000810E000000F102020100F00001010F837
:104BF000000000000020203F202000000070080876
:104C000008887000003028242221300000300888F5
:104C1000884830000018202020110E000000C0201D
:104C200010F8000000070424243F240000F808883E
:104C3000880808000019212020110E0000E01088CB
:104C400088180000000F112020110E0000380808FD
:104C5000C83808000000003F00000000007088080D
:104C600008887000001C222121221C0000E010088E
:104C70000810E0000000312222110F00000000C0E7
:104C8000C000000000000030300000000000008084
:104C90000000000000008060000000000000804074
:104CA000201008000001020408102000404040408D
:104CB00040404000040404040404040000081020E0
:104CC0004080000000201008040201000070480825
:104CD0000808F0000000003036010000C030C8288D
:104CE000E810E0000718272423140B000000C03848
:104CF000E0000000203C23020227382008F88888C2
:104D000088700000203F202020110E00C0300808CD
:104D100008083800071820202010080008F80808A4
:104D20000810E000203F202020100F0008F888889D
:104D3000E8081000203F20202320180008F8888869
:104D4000E8081000203F200003000000C0300808E1
:104D50000838000007182020221E020008F808006A
:104D60000008F808203F210101213F20000808F831
:104D7000080800000020203F202000000000080854
:104D8000F8080800C08080807F00000008F888C014
:104D900028180800203F20012638200008F80800C5
:104DA00000000000203F20202020300008F8F800FC
:104DB000F8F80800203F003F003F200008F830C00E
:104DC0000008F808203F200007183F00E0100808FE
:104DD0000810E0000F10202020100F0008F808082D
:104DE0000808F000203F210101010000E010080840
:104DF0000810E0000F18242438504F0008F8888865
:104E000088887000203F2000030C30200070880844
:104E1000080838000038202121221C00180808F852
:104E2000080818000000203F2000000008F80800D3
:104E30000008F808001F202020201F0008788800A4
:104E400000C83808000007380E010000F80800F814
:104E50000008F800033C0700073C030008186880BE
:104E60008068180820302C03032C30200838C80034
:104E7000C83808000000203F200000001008080883
:104E8000C83808002038262120201800000000FE25
:104E9000020202000000007F40404000000C30C0D1
:104EA00000000000000000010638C00000020202FD
:104EB000FE000000004040407F00000000000402AF
:104EC00002020400000000000000000000000000DA
:104ED00000000000808080808080808000020204CA
:104EE00000000000000000000000000000008080C2
:104EF000808000000019242222223F2008F8008030
:104F000080000000003F112020110E0000000080F2
:104F100080800000000E1120202011000000008081
:104F20008088F800000E112020103F2000008080B3
:104F300080800000001F222222221300008080F0C7
:104F4000888888180020203F2020000000008080F2
:104F500080808000006B94949493600008F8008037
:104F600080800000203F210000203F200080989892
:104F7000000000000020203F2020000000000080F2
:104F80009898000000C08080807F000008F8000032
:104F900080808000203F24022D302000000808F887
:104FA000000000000020203F202000008080808042
:104FB00080808000203F20003F20003F80800080D4
:104FC00080800000203F210000203F2000008080E2
:104FD00080800000001F202020201F008080008093
:104FE0008000000080FFA12020110E000000008042
:104FF00080808000000E112020A0FF808080800033
:105000008080800020203F2120000100000080805F
:10501000808080000033242424241900008080E054
:10502000808000000000001F202000008080000021
:1050300000808000001F202020103F208080800002
:105040000080808000010E30080601008080008012
:10505000008080800F300C030C300F000080800037
:10506000808080000020312E0E3120008080800062
:105070000080808080818E70180601000080808012
:10508000808080000021302C2221300000000000B0
:10509000807C020200000000003F40400000000051
:1050A000FF00000000000000FF0000000002027C82
:1050B000800000000040403F0000000000060101A9
:1050C000020204040000000000000000F05000088C
:1050D00000000020100000007401000800510008CA
:1050E0001000002060070000900100080000000090
:1050F000010000001000000000093D000000000059
:0400000508000139B5
:00000001FF
