:020000040800F2
:1000000068080020E10100080939000829320008C9
:1000100005390008FD060008AD4300080000000097
:10002000000000000000000000000000293D000862
:100030000107000800000000253D00082D3D0008D4
:10004000FB010008FB010008FB010008FB010008A0
:10005000FB010008FB010008FB010008FB01000890
:10006000FB010008FB010008FB010008FB01000880
:10007000FB010008FB010008FB010008FB01000870
:10008000FB010008FB010008FB010008FB01000860
:1000900000000000FB010008FB010008FB01000854
:1000A000FB010008FB010008FB010008553D0008AA
:1000B000FB010008FB010008FB010008FB01000830
:1000C000FB010008FB010008FB010008FB01000820
:1000D000FB010008FB010008FB010008FB01000810
:1000E000FB010008FB010008FB010008FB01000800
:1000F000FB0100080000000000000000FB010008F8
:10010000FB010008FB010008FB010008FB010008DF
:10011000FB010008FB010008FB010008FB010008CF
:10012000FB010008FB010008FB010008FB010008BF
:10013000FB010008FB01000800F002F800F041F8A4
:100140000AA090E8000C82448344AAF10107DA4532
:1001500001D100F036F8AFF2090EBAE80F0013F043
:10016000010F18BFFB1A43F001031847304C000081
:10017000504C0000103A24BF78C878C1FAD8520712
:1001800024BF30C830C144BF04680C607047000011
:100190000023002400250026103A28BF78C1FBD890
:1001A000520728BF30C148BF0B607047642900F078
:1001B000EB80002070471FB504F062F91FBD10B539
:1001C00010BD00F05AFA1146FFF7F5FF04F0F0F801
:1001D00000F078FA03B4FFF7F2FF03BC00F080FAF6
:1001E0000948804709480047FEE7FEE7FEE7FEE7CB
:1001F000FEE7FEE7FEE7FEE7FEE7FEE70448054907
:10020000054A064B70470000513D000839010008BF
:1002100068020020680800206804002068040020AC
:1002200053EA020C00F069802DE9F04B4FF0000614
:10023000002B1FBFB3FA83F503FA05F424FA05F681
:100240005E4012BF1643B2FA82F502FA05F4C5F118
:1002500020051EBF22FA05FC44EA0C04203556EAAC
:10026000044C4FEA144418BF641C4FF000084FF0D0
:100270000009904271EB030C39D3002919BFB1FA80
:1002800081F701FA07F6B0FA80F700FA07F6C7F12E
:1002900020071EBF20FA07FC46EA0C062037B6FBF3
:1002A000F4FCA7EB0507103F07F01F0BCBF120066E
:1002B0002CFA06F60CFA0BFB44BFB3460026202F9F
:1002C000A4BF5E464FF0000B5BEA060C08BF4FF080
:1002D000010B19EB0B0948EB0608ABFB027C06FB94
:1002E00002CC0BFB03CCC01B71EB0C01C1E70B462E
:1002F000024641464846BDE8F08B13B5084318BF97
:100300004FF0FF300146AFF30080BDE81C4070475E
:100310000FB41CB5074B06AA7B44694600900598AC
:1003200000F093F90020694600F0A2F91CBC5DF8CA
:1003300014FB00005503000070B504468569006891
:10034000C10601D5302600E02026C00707D070BDC9
:10035000D4E9012130469047206A401C20626D1E7E
:10036000F6D570BD70B5044685690078C00707D121
:1003700070BDD4E9012120209047206A401C2062F2
:100380006D1EF6D570BD00002DE9F0410646002433
:1003900010687529314616A510D0AFF300800028EB
:1003A00002DA404213A507E031688A0701D512A599
:1003B00002E0490704D511A5012401E0AFF3008054
:1003C00000210A2206F1240709E0B0FBF2FCB0FB91
:1003D000F2F302FB1C00303078541846491C002808
:1003E000F3D123462A463046BDE8F04100F0CEB8AE
:1003F000000000002D0000002B0000002000000085
:100400002DE9F05F894604464FF0000ADFF824B179
:10041000FB44C0F820A02046E168884700287DD032
:10042000252806D0D4E901219047206A401C20628B
:10043000F1E700255F462046E16888472028064608
:1004400007DB312E05D2B81910F8200C08B105438E
:10045000F1E7A80701D525F00405C4F81CA0002782
:10046000C4F818A02A2E09D0304604F002F838B398
:1004700004EB8708303EC8F8186019E059F8041BEF
:10048000204604EB87029161E1688847012F064608
:1004900018D1E069002820DA25F020051DE0D8F801
:1004A000180000EB800006EB40003038C8F8180058
:1004B0002046E1688847064603F0DBFF0028EED1BE
:1004C000012F0AD02E2E08D12046E16888477F1CD4
:1004D0000646022F45F02005C4DBA069002803DA98
:1004E000404245F00105A061E80701D025F0100564
:1004F000A6B1A6F14100192802D8203645F40065BE
:100500004A463146204625604D46FFF74FFE60B112
:10051000012807D0ED1D25F0070000E007E000F1FD
:10052000080978E705F1040975E730467AE7206A9B
:10053000BDE8F09F7A4000004FF0000200B513467E
:1005400094469646203922BFA0E80C50A0E80C50F3
:10055000B1F12001BFF4F7AF090728BFA0E80C50A4
:1005600048BF0CC05DF804EB890028BF40F8042B9D
:1005700008BF704748BF20F8022B11F0804F18BF0A
:1005800000F8012B70477047704770472DE9F0471E
:100590000D4699469246044600F1240801688806F3
:1005A00004D5E06921F01001216000E00120A8429B
:1005B00001DD471B00E00027A1697A1902EB090061
:1005C000081AA0612078C00602D42046FFF7B4FEC6
:1005D000002608E0D4E901211AF806009047206AB5
:1005E000401C761C20624E45F4DB2078C0060AD5FC
:1005F0002046FFF7A1FE06E0D4E901213020904714
:10060000206A401C2062381EA7F10107F4DC07E0D5
:10061000D4E9012118F805009047206A401C2062A7
:10062000281EA5F10105F3DC2046FFF79BFE20788C
:10063000000602D50220BDE8F0870120FBE700009C
:1006400001694A1C02610878704700B58FB0CDE996
:1006500001310021059105497944CDE90310114686
:100660006846FFF7CDFE0FB000BD0000E5FFFFFFBD
:100670000A6802F8010B0A607047754600F02CF812
:10068000AE4605006946534620F00700854618B07F
:1006900020B5FFF7B3FDBDE820404FF000064FF056
:1006A00000074FF000084FF0000BAC46ACE8C00963
:1006B000ACE8C009ACE8C009ACE8C00921F007010A
:1006C0008D46704710B50446AFF300802046BDE864
:1006D0001040FFF77FBD0000004870471000002069
:1006E00001491820ABBEFEE726000200704700005B
:1006F000004870471400002003F062B9FEE70000D4
:1007000070470000EFF3108072B600BFFEE70000F4
:100710002DE9F04381B00022009290F85420012A84
:1007200004D10221084601B0BDE8F083012302682C
:1007300080F8543093685B071AD44B680469022B25
:100740001CD1042744F00403C8F20007BB4227D1A0
:100750000B684FF6FF77D943C0F20307966A61EA48
:10076000070131409162B3F1FF3F1DDD0021FBE045
:10077000816D41F0200181650121F5E044F0040C18
:100780000424C8F20004A4452CD1D1F800E013469B
:10079000744653F828CF6FF39F444CEA040C4BE0A7
:1007A0000B68B3F1FF3FE1DC42F20871C4F20101D2
:1007B00044F200070A68CBF60007BB4200F0B380A2
:1007C00042F20007CBF20047BB4200F0B08041F29A
:1007D0000007CBF20007BB4240F0B2800B6802F08A
:1007E000A072A7E0D1F800E0066E03F01F0C0F2402
:1007F000D0F81C8004FA0CF4CEF384679EFAAEF5B0
:1008000026EA04095FEA8E3618BFB5FA85F707FABB
:100810000CF545EA0905B8EB930F05660ED91346AA
:1008200053F8285FE4434FEA9E662C4006F00F051C
:1008300005FA0CF744EA070CC3F800C0896853694D
:100840004FF6007701EA0E21C0F2FF3723EA0E23AC
:1008500039401943BEF1FF3F516101DD002183E0C2
:1008600042F2087CC4F2010CDCF8003041F20001D5
:10087000CBF200018E4503F0E07208BF13F40001D3
:100880001BD044F20001CBF600018E4508BF13F0E7
:10089000807157D042F20001CBF200418E454FF0FB
:1008A000000108BF13F480035ED1DCF8001021F0D2
:1008B000E071114341F480014BE0DCF8001021F0BD
:1008C000E071114341F40001CCF8001040F208013E
:1008D000C2F20001096842F663528909C0F23E5231
:1008E000A1FB0212910901EB41010C2202EB8101F3
:1008F0000091009989B3009901390091009971B371
:10090000009901390091009959B30099013900917A
:10091000009941B3009901390091009900294FF0E5
:100920000001E8D120E00B6802F4400202E00B680D
:1009300002F0C07223F0E0731A440A60002113E051
:10094000002111E0DCF8001021F0E071114341F0CA
:100950008071CCF80010002106E0002104E00021A5
:1009600002E0002100E00021002280F85420084627
:1009700001B0BDE8F08300002DE9F04182B00446EB
:100980000020019044B1254655F8580F40B1216828
:100990008868C0000FD540E0012002B0BDE8F081BA
:1009A000204600F025F90020E06584F85400216815
:1009B0008868C00031D488684FF6E872C6F6FF72C6
:1009C000104000F18050886040F20800C2F2000040
:1009D000006842F663528009C0F23E52A0FB020258
:1009E0009009022202EB400001900198A8B100BFDB
:1009F000019801380190019878B10198013801906F
:100A0000019850B1019801380190019828B10198DE
:100A10000138019001980028EAD18868C00009D403
:100A2000A06D40F01000A065E06D40F00100E065B1
:100A3000012000E000208A68C2F380022B6803F0E6
:100A40001003D2182A6806D042F010010120296054
:100A500002B0BDE8F08122F4817202322A608A6815
:100A6000D2076FD1227ED4E9023E667E43EA82330A
:100A700094F81A80D4F810C043EAC63343EA4833E6
:100A8000266B4FF40017BCF1000F43EA0E0348BF7A
:100A90002CF0004794F82C20002E18BF43F480530C
:100AA00094F820603B43012E43EA42030BD1B8F196
:100AB000000F00F09580A26D42F02002A265E26D69
:100AC00042F00102E265626A2AB102F4E072A76AAA
:100AD0001A4342EA0703CA6840F20127CFF6FE77BD
:100AE0003A401A43CA60636894F83C20E76C012AD4
:100AF00003F0404242EA070209D1D4E91076D4F863
:100B000048E03A43324342EA0E0242F001020F69E2
:100B10004FF60246C1F6FF7637403A43B3F1004F35
:100B20000A6118BFB3F1404F0ED0B3F1804F0BD024
:100B300042F20872C4F2010217689B0C63F39547F6
:100B4000176001E0D4F810C0D4E90D324F69BCF54C
:100B5000001F27F0070747EA03074F614F6927F097
:100B6000700747EA02124A6108D0BCF1000F18D1A1
:100B70000A4652F8287F67F00F0C10E00A4652F838
:100B8000287FE7691C2606EB8707D4F860C007F0CA
:100B90001C076FF00F0606FA07F74CEA070CC2F8BD
:100BA00000C0496901F00701994209D10021E165BE
:100BB000A16D012262F30101296002B0BDE8F0815C
:100BC000A06D40F0100020F00200A06554F85C0F0A
:100BD00040F0010101202546296002B0BDE8F08106
:100BE00043F48033626A002A7FF46FAF73E700003A
:100BF00080B586B00021CDE90311CDE9011100686F
:100C000042F20042C4F201029042009101D006B0CB
:100C100080BD4C20C5F60000426942F4007242617A
:100C2000426902F400720592059A026842F00202DB
:100C30000260006800F00200059005981020009006
:100C40000320CDE9010140F20040C4F600006946EE
:100C500000F016F806B080BDB0B5044600F006F905
:100C6000054640F20000C2F200000078611C18BF87
:100C7000044400BF00F0FAF8401BA042FAD3B0BD14
:100C80002DE9F04F84B00E680390002E00F0DF8055
:100C900040F600020398C4F600028E4690424FF0E0
:100CA00007004FF000044FF001074FF000054FF030
:100CB000000808BF02200090029148E040F2004086
:100CC000C4F600008242009A08BF012202FA03F033
:100CD000082140EA0C00C4F2010141F8260040F668
:100CE0000006C5F600063068DEF8041040EA090286
:100CF000CB0258BF20EA0902326070688B0240EADA
:100D0000090258BF20EA09027260D6F88000CB03BE
:100D100040EA090258BF20EA0902C6F88020D6F846
:100D20008400890340EA090258BF20EA0902C6F894
:100D30008420DEF8006008F1010836FA07F005F1BA
:100D4000020507F1010704F1040400F08080A7F117
:100D5000010A012000FA0AF316EA0309E9D0DEF8D5
:100D600004B00BF0030CACF10102012A1ED8039869
:100D70004FEA480281680192032202FA05F6029ABC
:100D8000B143D2F80CE0F6430EFA05F21143DDF858
:100D900008E081604168994303460198CBF3001253
:100DA00002FA0AF2114359600CE000BF0320A84088
:100DB000039BC643BCF1030F284603D128464FF0DE
:100DC000030C26E0D968DEF8082031408240114348
:100DD000BCF1020FD9601CD102466FF0030000EA9B
:100DE0005A01194404F01C030F20D1F820C000FA66
:100DF00003FE1046029A2CEA0E0C1269DDF808E098
:100E00009A4042EA0C02039B0A62DEF804B00BF03F
:100E1000030C19680CFA00F0314008431BF4403F02
:100E200018603FF486AF08204FEA9A06C4F201002A
:100E300050F8260004F00C030721039A9940B2F100
:100E4000904F20EA010C7FF439AF00223EE704B056
:100E5000BDE8F08F0069084018BF0120704700000E
:100E60001823002A08BF2823C150704740F2602091
:100E7000C2F200000068704790F84120202A03D198
:100E800090F84020012A01D102207047242280F8E6
:100E900041200268136823F001031360136823F4F0
:100EA00080531360136819431160116841F0010108
:100EB0001160202180F84110002180F84010084680
:100EC0007047000090F84120202A03D190F840207C
:100ED000012A01D102207047242280F841200268B3
:100EE000136823F001031360136823F4706343EA6B
:100EF00001211160116841F001011160202180F889
:100F00004110002180F8401008467047002804BFB7
:100F10000120704710B5044690F8410028B9002020
:100F200084F84000204600F07BF9242084F841003A
:100F300094E80910E2680168012A21F001010160CA
:100F400023F070610161816821F40041816003D167
:100F50004CF40041816007E04CF40441022A8160B6
:100F600004BF4FF400614160416804F1100C41F08E
:100F7000007141F400414160C16821F40041C16049
:100F80009CE80E10114341EA0321C160216A41EA45
:100F90000C010160016841F0010101600020202185
:100FA000606484F84110206384F8420010BD0000A2
:100FB0002DE9F047044690F84100202803D194F829
:100FC0004000012802D10220BDE8F08701201E4622
:100FD0001746884684F84000FFF748FF2168054619
:100FE0008A6912040AD500BFFFF740FF401B192889
:100FF00000F2F580216888690004F5D4212084F886
:101000004100102084F84200002060646762668519
:101010006063608D49F6004940F2000CCFF600494C
:10102000B0F5807FC0F2FF1C0DD30A4652F8047F52
:101030004346A9F580666FF39F2337401F430CF5A5
:101040000056FF2310E0638D0A46474652F8040F0E
:101050006FF39F275FFA83FEA9F58066304047EA69
:101060000E4707430CF5903647EA060010602385CB
:10107000608D089E002800F08F806FF39F2808F194
:10108000007A701C48EA0C074FF0FF0851D10BE0C2
:10109000A4F82880084650F8042F02EA09023A43CF
:1010A0000260608D002877D020464FF0FF312A463D
:1010B00002F070F9002840F09E80606A216810F804
:1010C000012B8A626062608D01386085208D421E2E
:1010D0002285608D1204E4D10028E2D088690006E0
:1010E0005FBF88695FEA006088695FEA006003D4D7
:1010F00088690006F2D500BF608DFF28C8D8628DD0
:101100000846228550F8043FD2B203EA09034AEAAE
:1011100002421A43C4E7628D0846228550F8043F14
:10112000D2B203EA09034AEA02421A430260608D1E
:1011300090B3204631462A4602F02CF900285AD1B5
:10114000606A216810F8012B8A626062608D013844
:101150006085208D421E2285608D1204E7D1002813
:10116000E5D0886900060AD4BEB300BFFFF77EFE53
:10117000401BB04233D8216888690006F6D5608DDF
:10118000B0F5807FC7D3A4F82880084650F8042F14
:1011900002EA09023A43C9E7886900F020008EB1EB
:1011A00060BB00BF204631462A4602F03FF810BB24
:1011B000FFF75CFE401BB04211D8216888698006A9
:1011C000F0D51BE0D0B9204600212A4602F02EF8C7
:1011D00000281CBF0120BDE8F087FFF747FE606CC8
:1011E00040F020006064202084F84100002084F852
:1011F000420084F840000120BDE8F0872020C8614B
:101200004A684EF60003CFF600631A404A6084F83D
:101210004100002084F8420084F84000BDE8F087D7
:1012200010B594B0044600201290CDE91000CDE92D
:101230000E0068463821FFF77FF9206845F200412B
:10124000C4F20001884201D014B010BD40200090CB
:101250004FF440300590684600F0D8F8002818BFD9
:10126000FFF750FA4C24C5F6000420680EA940F0A0
:1012700002002060206800F0020013901398C02044
:101280000E9012200F900020CDE910000420129043
:1012900040F20040C4F60000FFF7F2FCE06840F4C2
:1012A0000010E060E06800F400101390139814B090
:1012B00010BD000040F2000040F26021C2F20000C8
:1012C000C2F2000100780A6810440860704700000C
:1012D00080B5032000F078F800F09AFA40F2080197
:1012E000C2F200010860002000F008F800281CBFCE
:1012F000012080BD00F028F8002080BD70B540F2CC
:101300000006C2F200063178D1B1044600F080FA3E
:1013100031784FF47A72B2FBF1F1B0FBF1F000F0EA
:10132000E7FE0F2C4FF0010508D838B94FF0FF3019
:1013300021460022002500F01BF87460284670BD8D
:101340000125284670BD0000052000F03DB80000D2
:10135000002848BF704700F01F01012202FA01F186
:101360004EF200124009CEF2000242F820107047FF
:1013700010B54EF60C5CCEF2000CDCF80030C3F376
:10138000022E8EF00704042C28BF0424BEF10303B0
:101390004FF0FF3E0EFA04F438BF0023A1439940FA
:1013A0000EFA03F39A4300F00F03043B1143634426
:1013B00009010C3300F16042B0F1FF3FC8BF02F5F4
:1013C0006443197010BD00004EF60C51CEF20001BE
:1013D0000A684FF6FF031A4060F30A2242F0806069
:1013E00040F0FD700860704740F20040C5F6000014
:1013F000006800F4C060704740F20040C5F600008D
:10140000016841F48071016070470000F0B581B05F
:10141000044680788826C007C5F6000600F0A9803B
:10142000FFF7EAFFFFF722FD054600BFD6F8780375
:10143000C00575D4FFF71AFD401B0228F6D903201A
:101440002168CA0700F09A806268336823EA124371
:1014500092B21A4332608A0740F19380A2683368DF
:1014600023EA124392B21A4332608A0640F18C801A
:101470002269336823F440631A4332608A0540F1DD
:101480008680226A33684FF6FF7767EA02073B409F
:1014900043EA024232604A057CD5626A33684FF6FD
:1014A000FF7767EA02073B4043EA024232600A05DF
:1014B00072D5A26A33684FF6FF7767EA02073B40AE
:1014C00043EA024232604A0668D5626933686FF4C3
:1014D0007F2767EA12173B4002F47F4243EA021279
:1014E00032600A065CD5A26933686FF47F2767EA29
:1014F00012173B4002F47F4243EA02123260CA05EF
:1015000050D5E26933686FF47F2767EA12173B40D2
:1015100002F47F4243EA02123260CA0654D543E025
:10152000B168606B01F4407181421DD0B168B2684E
:1015300021F4407342F48032B260B268890722F429
:1015400080320146B260B3600ED5FFF78FFC0546CE
:1015500041F28837B068800705D4FFF787FC401B4D
:10156000B842F7D96BE7616BB06820F4407008436C
:10157000B06000202168CA077FF466AF8A073FF594
:101580006DAF8A063FF574AF8A053FF57AAF4A051D
:101590003FF583AF0A058CD44A0696D40A06A2D436
:1015A000CA05AED4CA060FD5E2683368B2F5807FAB
:1015B00023F4407343EA0203336005D156F87C2CD0
:1015C00042F0807246F87C2C0A0407D5226B3368FF
:1015D00023F0404343EA0203336092B1490418D533
:1015E000E16A3268B1F1005F22F0405242EA010242
:1015F00032600ED156F87C1C41F4803146F87C1CD8
:1016000007E056F87C2C42F0807246F87C2C4904A6
:10161000E6D401B0F0BD00002DE9F04381B0002810
:1016200000F0AF8044F20008C5F600080546D8F87F
:1016300000000C4600F00700884215D2D8F80000E0
:1016400020F007002043C8F80000FFF70FFC064613
:10165000D8F8000000F00700A04205D0FFF706FC14
:10166000801B0228F4D95BE0286808278107C5F6AB
:10167000000713D5A868396821F0F00108433860E5
:10168000FFF7F4FB064600BF3868C00305D4FFF738
:10169000EDFB801B0228F7D942E02868410616D5E9
:1016A0006869D7F8001121F00F0141EA1010C7F85E
:1016B0000001FFF7DBFB0646D7F80001C00305D4A5
:1016C000FFF7D4FB801B0228F6D929E028684107E0
:1016D00012D5E868396821F4E06108433860FFF703
:1016E000C5FB06463868800305D4FFF7BFFB801BA7
:1016F0000228F7D914E02868010716D52869396847
:1017000021F4605141EAC0003860FFF7AFFB0646A4
:101710003868400308D4FFF7A9FB801B0228F7D9DB
:10172000032001B0BDE8F0832868C0071ED1D8F8B7
:10173000000000F00700A04227D9D8F8000020F0F0
:1017400007002043C8F80000FFF790FB054600BFE4
:10175000D8F8000000F00700A04216D0FFF786FB83
:10176000401B02284FF00300F2D945E068684FF0B3
:10177000B04130B3032842D0022844D1096889031C
:1017800022D4012001B0BDE8F08300F08BF8396865
:101790003C2202EA910144F2AC42C0F600025158E8
:1017A00040F20802B0FBF1F140F20400C2F2000086
:1017B0000068C2F20002116001B0BDE8F043FFF71B
:1017C0009DBD09688907DCD5396821F0030108430C
:1017D0003860FFF74BFB064641F288393868696884
:1017E00000F00C00B0EB810FA1D0FFF73FFB801B96
:1017F00048454FF00300F1D901B0BDE8F083096816
:101800008901BED5E0E709684905BAD5DCE70000E3
:1018100080B500F047F80821C5F6000109683C22B0
:1018200002EA910144F2AC42C0F600025158B0FB0A
:10183000F1F080BD80B500F035F80821C5F6000153
:101840000A683C2303EA920244F2AC43C0F6000368
:101850009A580968B0FBF2F044F2EC42C1F302215D
:10186000C0F6000252F82110C84080BD80B500F0DB
:1018700019F80821C5F600010A683C2303EA920220
:1018800044F2AC43C0F600039A580968B0FBF2F08A
:1018900044F2EC42C1F3C221C0F6000252F821101A
:1018A000C84080BD0C21C5F6000151F8040C10F0B1
:1018B0000C02086805D00C2A17D100F0030001289B
:1018C00013D14FF0B040036800681B0700F0080018
:1018D00004D4E0B14FF0B04000681FE0E0B14FF039
:1018E000B0400068C0F3031019E042F20040042A3F
:1018F000C0F2F4001FD0082A1CD14FF0B042126889
:10190000D2025CBF44F60000C0F2E81013E0D1F848
:101910008800C0F3032002E0D1F88800002044F2E0
:101920000C53C0F6000353F82030002A184618BFA5
:10193000002001E00020002351F8042C02F00C02EA
:101940000C2A18BF7047086800F0030242F20040FA
:10195000022AC0F2F4000AD0032A09D14FF0B042A3
:101960001268D2025CBF44F60000C0F2E8100346E1
:101970000868C0F306200A685843C2F30212013215
:101980000968B0FBF2F0012202EB5171B0FBF1F0FB
:10199000704700002DE9F04F81B0002800F01A8355
:1019A00040F2900B0446C5F6000B5BF8880C5BF820
:1019B000841C227800F00C08900601F0030A29D458
:1019C0002078C0075BD0B8F1080F54D0B8F10C0FE5
:1019D00008BFBAF1030F4ED04FF0B0400168D4E910
:1019E000015221F480111143B5F5803F016009D007
:1019F000B5F5041F40F02D824FF0B0410A6842F463
:101A000000120A60016841F480310160FFF72EFA8C
:101A100005462DE2B8F1000F1ED0B8F10C0F08BF3B
:101A2000BAF1010F18D0216A4FF0B0463068002992
:101A300000F0608140F001003060FFF717FA0546C2
:101A40003068800700F17D81FFF710FA401B022803
:101A50004FF00300F4D947E3206A002800F0BA826F
:101A60004FF0B041A06A0A68120700F1CC80DBF8A1
:101A700004100909C8E06068002800F0AB822078F3
:101A800080072DD5B8F1040F1DD0B8F10C0F08BF99
:101A9000BAF1020F17D021694FF0B0463068002923
:101AA00000F0008240F480703060FFF7DFF90546F7
:101AB000306840050BD4FFF7D9F9401B02284FF0DE
:101AC0000300F5D910E32069002800F083826069E3
:101AD0005BF88C1C21F0FE4141EA00604BF88C0C55
:101AE0002078000729D42078400750D4E56A002DDB
:101AF00000F0AC82B8F10C0F40F03981012D00F0FC
:101B000069825BF8840C216B00F003028A4240F08A
:101B10006182616B00F070028A4240F05B82A16BCF
:101B200000F4FE42B2EB012F40F05482616C00F0F1
:101B30006040884240F04E8288E2A069DBF80410E1
:101B4000002800F0E980E06901F01002904200F006
:101B5000B68201F00302022A00F03C82C90700F0BD
:101B6000A782DBF8040020F00100CBF80400FFF7A7
:101B70007DF90546DBF80400800740F19882FFF705
:101B800075F9401B11284FF00300F3D9ACE2DBF8E4
:101B90007003C00510D4FFF72FFCFFF767F9054667
:101BA000DBF87003C00507D4FFF760F9401B02287B
:101BB0004FF00300F4D997E2E068002800F0848138
:101BC000852801D0052805D1DBF8000040F004008D
:101BD000CBF80000FFF74AF9DBF80010054641F0AA
:101BE000010041F28836CBF8000000BFDBF80000AE
:101BF000800700F10F81FFF739F9401BB0424FF029
:101C00000300F3D970E2096801F0F00144F2AC4935
:101C10008842C0F600092CD93C2101EA900044F228
:101C20000C51DBF87820C0F60001085802F00F01D3
:101C300059F82110B0FBF1F5FFF7D6FBB0F5007FA6
:101C400040F0B8804EF6BF20C0F22110854240F22D
:101C5000DD8049F23F30C0F23420854240F24E81AF
:101C60004AF63F60C0F2EB20854240F2B780002682
:101C70004BE14FF0B0410A6842F008020A600A687E
:101C800022F0F00202430A60616A5BF88C2C22F4B5
:101C90007F4242EA01214BF88C1C3C2101EA900072
:101CA00044F20C51DBF87820C0F60001085802F02D
:101CB0000F0159F82110B0FBF1F5FFF795FBB0F5D6
:101CC000007F40F08D804EF6BF20C0F2211085428B
:101CD00040F29E8049F23F30C0F23420854240F20B
:101CE0005C814AF63F60C0F2EB20854240F28C8076
:101CF000002659E120F001003060FFF7B7F80546F3
:101D0000306880077FF55CAEFFF7B0F8401B022813
:101D10004FF00300F4D9E7E121F00100CBF8040013
:101D2000FFF7A4F8054600BFDBF8040080077FF545
:101D3000DAAEFFF79BF8401B11284FF00300F3D9F0
:101D4000D2E14FF0B040016841F008010160016844
:101D5000D4E9093221F0F001114301605BF88C0CE9
:101D600020F47F4040EA03204BF88C0C28E64FF02B
:101D7000B046306820F080703060FFF777F8022DB1
:101D800005460BD13068800140F12881FFF76EF8DD
:101D9000401B0A284FF00300F4D9A5E13068800108
:101DA00040F14B81FFF762F8401B0A284FF0030017
:101DB000F4D999E14CF6BF70C0F26A00854225D98A
:101DC00045F63F50C0F2C600854240F2978046F289
:101DD0003F60C0F2031085423FF649AF02208EE01B
:101DE0004CF6BF70C0F26A00854211D945F63F50EB
:101DF000C0F2C600854240F2D08046F23F60C0F299
:101E0000031085423FF674AF0220C7E0002076E061
:101E10000020C3E0E06840F00400852840F01A810B
:101E2000FFF724F8DBF80010054641F0800041F28E
:101E30008836CBF8000000BFDBF8000000053FF556
:101E400055AEFFF713F8401BB0424FF00300F3D933
:101E50004AE14FF0B046306820F48030306030689E
:101E600020F400103060FFF701F8002D054615D072
:101E70004FF0B046306880033FF501AEFEF7F6FF45
:101E8000401B64284FF00300F4D92DE1FEF7EEFF6C
:101E9000401B64284FF0030000F226813068800365
:101EA000F4D4ECE520F480703060FEF7DFFF0546E7
:101EB000306840057FF514AEFEF7D8FF401B0228BE
:101EC0004FF00300F4D90FE1FEF7D0FFDBF800106C
:101ED000064621F0800041F28837CBF8000000BFB1
:101EE000DBF80050FEF7C2FF2905054640F1CA8025
:101EF000A81BB8424FF00300F2D9F5E0012044F2EC
:101F0000A041C0F6000151F8206044F20007C5F678
:101F10000007386820F0070030433860FEF7A6FF5E
:101F2000054600BF386800F00700B04205D0FEF754
:101F30009DFF401B0228F5D94CE04FF0B0400168EE
:101F400041F0080101600168D4E9093221F0F00193
:101F5000114301605BF88C0C20F47F4040EA0320C1
:101F60004BF88C0CFFF79EFC5BF8881C3C2202EAC5
:101F7000910159F8011040F20802B0FBF1F140F272
:101F80000400C2F200000068C2F200021160FFF714
:101F9000B5F9002840F0A88012E5012044F2A041E4
:101FA000C0F6000151F8206044F20007C5F60007B2
:101FB000386820F0070030433860FEF757FF0546C9
:101FC000386800F00700B042CCD0FEF74FFF401B4E
:101FD0000228F5D9012001B0BDE8F08F5BF8840C30
:101FE00048F28C01C1F2C11104F1300708408ECFD4
:101FF000D4E910650843104340EA032038433043D6
:1020000028434BF8840C4FF0B045286840F08070AE
:1020100028605BF8840C40F080504BF8840CFEF78D
:1020200025FF04462868800110D4FEF71FFF001B1F
:102030000A284FF00300F5D956E05BF8840C4FF600
:10204000FC71CEF6FE6108404BF8840C002001B014
:10205000BDE8F08FFEF70AFFDBF80010054621F01F
:10206000800041F28836CBF80000DBF80000000564
:102070007FF53CADFEF7FAFE401BB0424FF0030087
:10208000F3D931E0DBF8000041F2883620F001009E
:10209000CBF80000DBF8000080077FF527ADFEF7E6
:1020A000E5FE401BB0424FF00300F3D91CE0E069AD
:1020B000DBF8041021F010010843CBF80400DBF832
:1020C000040040F00100CBF80400FEF7CFFE054607
:1020D000DBF8040080073FF506ADFEF7C7FE401BA6
:1020E00011284FF00300F3D901B0BDE8F08F0000D4
:1020F000411E0020B0EB116F1CBF012070474EF253
:102100001002CEF2000251604EF62351CEF20001D1
:10211000F0230B700721906011607047704700003A
:10212000704700007047000070B590F83C20012A0D
:1021300004BF022070BD012280F83C20D1E90232A8
:10214000D1E900CE22F47C5223F470531A4348F2B2
:10215000FF73CFF6F07303EA0E0342EA030E0A6937
:102160002CF477234EEA030C22F476224B6942EAE0
:102170000C021A430B6B22F4742223F4702342EAFC
:10218000030E8A69D0F800C042F60043C4F201038E
:102190009C454EEA02431CD14FF6FF72CCF60F422B
:1021A00001F11C0603EA020E78CE02F180521A40B9
:1021B0000023CDF6F04342EA0E0203EA06531A4327
:1021C00024F008531A4325F00053C96A1A4342EA1F
:1021D00001030021CCF8443080F83C10084670BD63
:1021E00010B590F83C20012A4FF0020227D00123BD
:1021F00080F83C3080F83D20026842F6004E53687B
:10220000D2F808C0C4F2010E724503D14C6823F421
:10221000700323430C6823F070032343724553601B
:1022200002D0B2F1804F04D189682CF080031943A9
:1022300091600121002280F83D1080F83C2010467A
:1022400010BD0000002804BF01207047B0B504464F
:1022500090F83D0028B9002084F83C00204600F0AA
:1022600061F8022084F83D00206842F6004E0268C2
:10227000C4F2010E704502D0B0F1804F03D1A368C3
:1022800022F070021A4344F2FF33C4F2010344F611
:10229000000C9842C4F2010C05DCB0F1804F0AD06A
:1022A000704508D00BE0604505D044F20043C4F20D
:1022B0000103984203D1236922F440721A43A169B1
:1022C00022F080026368E568114370450160C562D1
:1022D000836218BF60451DD16169016301214161BD
:1022E000002084F8481084F83E1084F83F1084F8E9
:1022F000401084F8411084F8421084F8431084F8A8
:10230000441084F8451084F8461084F8471084F887
:102310003D10B0BD44F20041C4F201018842DDD15C
:10232000DAE7000080B586B000210491CDE9021102
:1023300000680191B0F1804F009113D042F6004146
:10234000C4F20101884238D14C20C5F60000416931
:1023500041F400614161406900F400600590059816
:1023600006B080BD4C20C5F60000C26842F00102F4
:10237000C260C26802F001020592059A026842F04A
:1023800001020260006800F00100059005984FF41A
:10239000004000900220CDE901010120039104904A
:1023A00069464FF09040FEF76BFC1B200121002294
:1023B000FEF7DEFF1B20FEF7CBFF06B080BD00005E
:1023C00090F83D1001291CBF01207047022180F8C0
:1023D0003D10016842F60040C4F20100814202D083
:1023E000B1F1804F12D188680722C0F20102024089
:1023F000062A4FF000000ED0B2F5803F08BF7047AC
:10240000086840F00100086000207047086840F04C
:10241000010008600020704790F83D1001291CBFA2
:1024200001207047022180F83D10016842F6004209
:10243000C868C4F20102914240F00100C86002D0B5
:10244000B1F1804F12D188680722C0F20102024028
:10245000062A4FF000000ED0B2F5803F08BF70474B
:10246000086840F00100086000207047086840F0EC
:10247000010008600020704780B590F83C20012AD8
:102480004FF0020200F0CD80012380F83C3080F84C
:102490003D20D0F800C08822DCF80830CFF6CE729C
:1024A0001A40CCF808200B684F2B2ADC1F2B47DD85
:1024B000202B48D0302B46D0402B40F0B480D1F8B0
:1024C00004E0C968DCF82030DCF8202022F00102AA
:1024D000CCF82020DCF8182022F0F00242EA0111AA
:1024E00023F00A0242EA0E02CCF81810CCF82020A1
:1024F000DCF808104FF68872CFF6CF7211404731E2
:1025000086E06F2B2ADDB3F5005F4DD0B3F5805F19
:1025100000F08080702B40F08680D1E901E3C9682B
:10252000DCF8082043EA0E0322F47F4243EA01214B
:102530001143CCF80810DCF8081041F0770167E08F
:102540000BB1102B6FD1DCF808104FF68872CFF664
:10255000CF721140194341F0070159E0502B36D09A
:10256000602B60D1D1F804E0C968DCF8203023F09A
:102570001003CCF82030DCF81830DCF8202023F4ED
:10258000704322F0A00243EA013142EA0E12CCF875
:102590001810CCF82020DCF808104FF68872CFF61F
:1025A000CF721140673133E0D1E901E3C968DCF84B
:1025B000082043EA0E0322F47F4243EA012111433B
:1025C000CCF80810DCF8081041F4804120E0D1F884
:1025D00004E0C968DCF82030DCF8202022F0010299
:1025E000CCF82020DCF8182022F0F00242EA011199
:1025F00023F00A0242EA0E02CCF81810CCF8202090
:10260000DCF808104FF68872CFF6CF7211405731C0
:10261000CCF808100022012180F83D10002180F83C
:102620003C10104680BD0122F5E700007047000015
:10263000F0B590F83C30012B04BF0220F0BD4FEA0A
:10264000B2020123032A80F83C3000F29680DFE8D2
:1026500002F0021C3A5A0368D1E900C5D1F80CE037
:102660001A6A42F6004722F001021A621A4652F82C
:10267000186F1C6AC4F20107BB4202D0B3F1804F4D
:1026800067D126F00306354365E00368D1E900E62B
:10269000D1E902C11A6A360222F010021A621A4601
:1026A00052F8184F4FF2FF071D6ABE4324F47344DB
:1026B00061F30F3646EA040125F0A0040EF00A0784
:1026C00044EA07173CE00768D1E900C5D1E90231C7
:1026D0003A6A61F3071522F480723A623A4652F878
:1026E0001C4F3E6A24F0F30445EA040126F42066F8
:1026F0000CF00A0546EA052611603E62116821F0D9
:102700000C01116035E00368D1E900E6D1E902C1AE
:102710001A6A360222F480521A621A4652F81C4F84
:102720004FF2FF071D6ABE4324F4734461F30F3672
:1027300046EA040125F420440EF00A0744EA07376C
:1027400011601F6211684FEA0C2321F4406111608F
:102750000FE046F0010524F00A070CF00A066EF3BC
:10276000071537449D611F629F6927F00C079F6121
:102770008B681168194300231160002180F83C1018
:102780001846F0BD002804BF01207047B0B50446CC
:1027900090F83D0028B9002084F83C00204600F065
:1027A00061F8022084F83D00206842F6004E02687D
:1027B000C4F2010E704502D0B0F1804F03D1A3687E
:1027C00022F070021A4344F2FF33C4F2010344F6CC
:1027D000000C9842C4F2010C05DCB0F1804F0AD025
:1027E000704508D00BE0604505D044F20043C4F2C8
:1027F0000103984203D1236922F440721A43A1696C
:1028000022F080026368E568114370450160C5628B
:10281000836218BF60451DD1616901630121416177
:10282000002084F8481084F83E1084F83F1084F8A3
:10283000401084F8411084F8421084F8431084F862
:10284000441084F8451084F8461084F8471084F842
:102850003D10B0BD44F20041C4F201018842DDD117
:10286000DAE700007047000010B501680446086907
:10287000800744BFC8685FEA80703FD4086940079A
:1028800044BFC8685FEA407044D40869000744BF89
:10289000C8685FEA00704AD40869C00644BFC868C7
:1028A0005FEAC0604FD40869C0071CBFC8685FEA10
:1028B000C07055D10869000644BFC8685FEA00606F
:1028C00056D40869C00544BFC8685FEA006057D4A1
:1028D0000869400644BFC8685FEA406058D4086988
:1028E000800646BFC8685FEA806010BD6FF02002B6
:1028F00020460A61BDE81040FFF714BC6FF00200EB
:102900000861012020778869800749D02046FFF7B9
:102910008DFE4BE06FF0040008610220207788698B
:1029200010F4407F46D02046FFF780FE48E06FF06D
:102930000800086104202077C869800744D0204639
:10294000FFF774FE46E06FF0100008610820207762
:10295000C86910F4407F41D02046FFF767FE43E08E
:102960006FF001000861204600F0CCFA2168A1E771
:102970006FF0800008612046FFF7D2FB2168A0E7D6
:102980006FF4807008612046FFF7C8FB21689FE75D
:102990006FF040000861204600F0EEFA21689EE7E3
:1029A000204600F0ABF9204600F0AAFA216800208A
:1029B000207763E7204600F0A1F9204600F0A0FA56
:1029C00021680020207760E7204600F097F9204634
:1029D00000F096FA2168002020775DE7204600F09D
:1029E0008DF9204600F08CFA2168002020775AE704
:1029F000F0B590F83C30012B04BF0220F0BD4FEA47
:102A0000B2020123052A80F83C3000F27181DFE830
:102A100012F0060051009300D50007013A01026848
:102A2000136A23F001031362156AD2F804E0946973
:102A30004FF68C73CFF6FE7323400C688E6843EA22
:102A4000040C42F6004425F00203C4F20104A24241
:102A500043EA06030BD044F60005C4F20105AA427E
:102A600005D044F20045C4F20105AA4205D1CD6863
:102A700023F00C0325F004052B43A2420BD044F6AF
:102A80000004C4F20104A24205D044F20044C4F29E
:102A90000104A24206D1D1E905542EF440762E431A
:102AA00046EA040EC2F804E0C2F818C0496851634F
:102AB00013621CE1026848F6FF44136ACFF6FF6414
:102AC00023F010031362166A576895698B682540D6
:102AD0000C6826F0200645EA042C42F60044C4F2B5
:102AE0000104A24246EA031E08D1CE686FF04005F9
:102AF0002EF0C00305EA061646EA030EA2420BD0EA
:102B000044F60003C4F201039A4205D044F20043A4
:102B1000C4F201039A4207D1D1E9054527F4406385
:102B200043EA840343EA85075760C2F818C049683E
:102B30009163C2F820E0DAE002684FF68C75136A00
:102B4000CFF6FE7523F480731362176A5368D66953
:102B50008C682E400D6827F4007746EA050C42F693
:102B60000045C4F20105AA4247EA042E08D1CC6808
:102B70002EF44067260240F2FF44A64346EA070EC1
:102B8000AA420BD044F60004C4F20104A24205D0CC
:102B900044F20044C4F20104A24207D1D1E9054540
:102BA00023F4405343EA041343EA05135360C2F885
:102BB0001CC04968D163C2F820E098E0026848F67A
:102BC000FF45136ACFF6FF6523F480531362176A3B
:102BD0005368D6698C682E400D6827F4005746EA82
:102BE000052C42F60046C4F20106B24247EA04341C
:102BF0000BD044F60007C4F20107BA4205D044F2F4
:102C00000047C4F20107BA4204D14F6923F480435C
:102C100043EA87135360C2F81CC04968116465E039
:102C200002684FF68C75136ACFF6FE7523F4803375
:102C30001362176A5368566D03352E400D688C6811
:102C400046EA050C42F6004627F40037C4F20106B6
:102C5000B24247EA04440BD044F60007C4F201072D
:102C6000BA4205D044F20047C4F20107BA4204D187
:102C70004F6923F4803343EA07235360C2F854C0FA
:102C80004968916532E0026848F6FF45136ACFF65D
:102C9000FF6523F480131362176A5368566D05F5B8
:102CA00040752E400D688C6846EA052C42F60046B9
:102CB00027F40017C4F20106B24247EA04540BD0CD
:102CC00044F60007C4F20107BA4205D044F20047B7
:102CD000C4F20107BA4204D14F6923F4802343EAC6
:102CE00087235360C2F854C04968D1651462002339
:102CF000002180F83C101846F0BD0000704700002D
:102D0000002804BF01207047B0B5044690F83D008C
:102D100028B9002084F83C00204600F061F8022029
:102D200084F83D00206842F6004E0268C4F2010EAD
:102D3000704502D0B0F1804F03D1A36822F0700239
:102D40001A4344F2FF33C4F2010344F6000C9842E4
:102D5000C4F2010C05DCB0F1804F0AD0704508D0F8
:102D60000BE0604505D044F20043C4F201039842F1
:102D700003D1236922F440721A43A16922F0800230
:102D80006368E568114370450160C562836218BFDE
:102D900060451DD16169016301214161002084F812
:102DA000481084F83E1084F83F1084F8401084F8EE
:102DB000411084F8421084F8431084F8441084F8D9
:102DC000451084F8461084F8471084F83D10B0BDD3
:102DD00044F20041C4F201018842DDD1DAE700008B
:102DE0007047000059B10A1F4FEAB202032A09D8FE
:102DF000DFE802F0020B0E1100F13F020DE000F1DE
:102E00003E020AE000F1430207E000F1400204E064
:102E100000F1410201E000F142021278012A1CBFD8
:102E20000120704761B10A1F4FEAB202032A0BD892
:102E3000DFE802F0020E1216022280F83F2012E0B4
:102E4000022280F83E200EE0022280F843200AE0B1
:102E5000022280F8402006E0022280F8412002E0B1
:102E6000022280F84220026801F01F000121136A4B
:102E700001FA00F023EA00011162116A084344F2EA
:102E8000FF31C4F201018A42106209DCB2F1804FC5
:102E900022D042F60040C4F2010082420CD015E07C
:102EA00044F60000C4F20100824205D044F2004022
:102EB000C4F20100824209D1506C42F60041C4F2D2
:102EC000010140F400408A42506405D0106840F08F
:102ED000010010600020704790680721C0F20101D6
:102EE000014006294FF00000F5D0B1F5803F08BF42
:102EF0007047106840F0010010600020704700002B
:102F0000704700000068B0F1804F18BF704740F272
:102F10007600C2F200000188013101807047000094
:102F2000B0B5044690F83C0001284FF0020008BFFD
:102F3000B0BD012584F83C5084F83D00206800F0C5
:102F40000FFF00284FF0010005D0002184F83D500C
:102F500084F83C10B0BD2068C16821F04001C16018
:102F6000C16821F48041C1600020002184F83D50F7
:102F700084F83C10B0BD00007047000090F8841049
:102F8000012904BF022070472421C0F8881002687C
:102F90001168136823F00103136021F0005300212E
:102FA000416613602022C0F8882080F8841008460B
:102FB00070470000B0B590F88420012A04BF0220B9
:102FC000B0BD0123242280F88430C0F88820026834
:102FD000D0F864E0D2F800C01468BEF1000F24F00D
:102FE00001041460946824F0606441EA0401916073
:102FF00019D0916844F2745EC1F342619368C0F6DF
:10300000000E5B0F44F27C551EF80340C0F600052D
:10301000EB5CE400B4FBF3F31EF80140695CE500EF
:10302000B5FBF1F100E00121A0F868102021A0F823
:103030006A30C2F800C0C0F88810002180F88410FF
:103040000846B0BDB0B590F88420012A04BF022024
:10305000B0BD0123242280F88430C0F888200268A3
:10306000D0F864E0D2F800C01468BEF1000F24F07C
:1030700001041460946824F0604441EA0401916002
:1030800019D0916844F2745EC1F342619368C0F64E
:10309000000E5B0F44F27C551EF80340C0F600059D
:1030A000EB5CE400B4FBF3F31EF80140695CE5005F
:1030B000B5FBF1F100E00121A0F868102021A0F893
:1030C0006A30C2F800C0C0F88810002180F884106F
:1030D0000846B0BDB0B582B0B0B10446D0F88800A3
:1030E00028B9002084F88400204600F057F82420F6
:1030F000C4F888002068016821F0010101602046C1
:1031000000F016FF012802D1012002B0B0BDA06A74
:1031100010B1204600F098FE2068416821F49041EB
:103120004160816821F02A018160016841F001015C
:1031300001600020C4F89000FDF798FE2168054664
:103140000A6812070CD56FF07E4C20464FF4001130
:1031500000222B46CDF800C001F01EF878B9216896
:10316000086840070ED56FF07E4C20464FF4800172
:1031700000222B46CDF800C001F00EF810B103205C
:1031800002B0B0BD2020C4F88800C4F88C00002034
:10319000E066206784F8840002B0B0BD10B594B03A
:1031A000044600201290CDE91000CDE90E006846DB
:1031B0003821FDF7C1F9206844F20041C4F2000152
:1031C000884201D014B010BD4FF440200224029078
:1031D00068460094FEF71AF9002818BFFDF792FA26
:1031E0004C20C5F60000C16841F40031C160C168DF
:1031F00001F4003113911399016841F0010101605C
:1032000000680EA900F00100139013980C20CDE97E
:103210000E040020CDE91000072012904FF09040DE
:10322000FDF72EFD14B010BDFEE7000070B504469A
:10323000006815468369DA0602D4002100226AE09C
:103240000E461021C1618169890660D4711C54D079
:1032500046BBFDF70BFE2068426894F84230816956
:10326000202B0DD012F480420AD111F4004107D076
:10327000416841F480414160FDF7F8FD054600BF1B
:1032800020688169890605D4FDF7F0FD401B1A28E6
:10329000F6D32AE081698906DBD538E020688169A8
:1032A000890634D4FDF7E2FD401BB042F6D9206810
:1032B000426894F842308169202B0DD012F480428C
:1032C0000AD111F4004107D0416841F480414160C6
:1032D000FDF7CCFD054600BF206880698006DDD47F
:1032E000FDF7C4FD401B1A28F6D32068012281692E
:1032F000242110E08169890609D48169890606D4F0
:10330000816989065CBF81695FEA8161F2D520210C
:10331000C161012204218369DE0506D45E050CD457
:103320009B0512D4B2B9002070BD4FF4807241F0F9
:103330000101C26101225E05F2D54FF4806241F0C5
:103340000801C26101229B05ECD541F002014FF456
:103350000072C2618269920744BF00228262826960
:10336000D20703D1826942F00102826142684EF6BF
:103370000003CFF600631A404260606C084360644B
:10338000202084F84100002084F8420084F84000A6
:10339000012070BD70B5044600688069800710D4B4
:1033A00015460E4609B3701C17D100BF20464FF0DA
:1033B000FF312A46FFF73AFFE8B9206880698007A5
:1033C000F4D5002070BD00BFFDF750FD401BB0429A
:1033D00015D8206880698007F3D4204631462A46F4
:1033E000FFF724FF0028EFD005E0204600212A4601
:1033F000FFF71CFF08B1012070BDFDF737FD606CC1
:1034000040F020006064202084F84100002084F80F
:10341000420084F84000012070BD000010B540F269
:103420007004C2F20004E0780A283AD30020E07069
:103430004FF090404FF48071FDF70CFD60B140F209
:103440000040C4F600004FF48071FDF703FDB0FAB0
:1034500080F04009400000E00120A27AA07220EA3A
:10346000020182430229217262720AD0012918D115
:103470002078022810D001280BD090B901202070AC
:1034800010BD207802280AD0012805D0002818BFD6
:1034900010BD0220207010BD0020207010BD012042
:1034A000207010BD10B584B040F27C0042F20041A3
:1034B000C2F20000C4F2010100244FF08042042354
:1034C00080E8160001210394CDE90144C0E90344DA
:1034D000436104838476C16180F82040C0E90944D7
:1034E00080F82C40C0E90C43836380F83C40C464FE
:1034F000FDF742FA002818BFFDF704F90820C0F6CE
:103500000040CDE9010440F27C00C2F2000001A9B4
:103510000394FDF7FDF8002818BFFDF7F3F804B099
:1035200010BD0000F0B587B000264C200596C5F60A
:103530000000016840F2004441F0020101600168AE
:10354000C4F6000401F00201069106990168012207
:1035500041F001010160006841F2240100F0010026
:1035600006900698204641F224050127FDF778FCD5
:10357000CDE9015701AD20462946CDE90366FDF7A7
:103580007FFB4FF4807720462946CDE901760396EC
:10359000FDF776FB4FF090402946CDE90176039682
:1035A000FDF76EFB07B0F0BD80B540F2E00045F2DC
:1035B0000041C2F20000C4F2000141F64B120023A8
:1035C000C0F290024FF0010C80E80E10C0E9043305
:1035D000C0E906330362FDF799FC002818BFFDF728
:1035E00091F840F2E000C2F200000021FDF744FC37
:1035F000002818BFFDF786F840F2E000C2F2000094
:103600000021FDF75FFC002808BF80BDBDE88040B9
:10361000FDF778B870B5A2B042F60045002401A8C5
:103620003421C4F20105CDE91A44CDE91844CDE9AD
:103630001644CDE91444CDE91244CDE91044CDE956
:103640000E44FCF779FF40F23410C2F2000041F260
:10365000BF2141F28732C0E90051C0E90242C0E90E
:1036600004448461FEF7EEFD002818BFFDF74AF818
:103670004FF48050189040F23410C2F2000018A9A4
:10368000FEF7FAFE002818BFFDF73CF840F23410B0
:10369000C2F20000FFF734FB002818BFFDF732F834
:1036A00040F234100024C2F2000015A9CDE91544FF
:1036B0001794FEF795FD002818BFFDF723F830207A
:1036C0000E9040F6B830CDE90F0440F23410C2F24B
:1036D00000000EA90C22CDE912441494FFF788F9DA
:1036E000002818BFFDF70EF800264FF4005040F2F6
:1036F00034140596CDE90366CDE90166CDE90606E9
:103700004FF00070C2F20004CDE90866CDE90A0668
:1037100001A92046CDE90C66FEF706FD002818BF7A
:10372000FCF7F0FF20682096A842CDE91E661D96A2
:103730001C9601D022B070BD4C20C5F60000016877
:1037400041F00101016000681CA900F00100219016
:1037500021984FF400601C9002201D900020CDE9BC
:103760001E00012020904FF09040FDF789FA22B012
:1037700070BD000010B590B040F2801044F23F24BC
:103780000021C2F200004FF080422F23C0F20F044C
:10379000CDE90E11CDE90C11CDE90A11CDE90811E1
:1037A000CDE90611CDE90411CDE90211CDE90011F1
:1037B000C0E90023C0E9021401618161FEF742FD06
:1037C000002818BFFCF79EFF4FF480500C9040F289
:1037D0008010C2F200000CA9FEF74EFE002818BFB0
:1037E000FCF790FF40F28010C2F20000FEF7CAFF23
:1037F000002818BFFCF786FF04200790502008908F
:1038000040F280100024C2F2000007A9CDE909446B
:103810000B94FFF785FB002818BFFCF773FF01200E
:103820000394CDE9040440F28010C2F2000003A921
:1038300000220694FEF7FCFE002818BFFCF762FF8A
:103840000220CDE9030040F28010C2F2000003A97B
:103850000422FEF7EDFE002818BFFCF753FF0020FE
:103860000090029040F28010C2F200006946FEF71C
:10387000B7FC002818BFFCF745FF10B010BD0000D2
:1038800080B540F2CC1044F20041C2F20000C4F214
:10389000000100234FF00C0C4FF4165280E80E008C
:1038A000C0E90333C0E905C3C0E90733C0E9093300
:1038B000FFF710FC002818BFFCF724FF40F2CC10E3
:1038C000C2F200000021FFF7BDFB002818BFFCF783
:1038D00019FF40F2CC10C2F200000021FFF76AFB92
:1038E000002818BFFCF70EFF40F2CC10C2F2000017
:1038F000FFF744FB002808BF80BDBDE88040FCF70F
:1039000001BF0000FEE70000FEE7000010B5002048
:103910000021002400F0F0F90020102100F0ECF963
:103920000020B02100F0E8F94020002100F0E4F987
:10393000601C44B2B4F1FF3FF6DC002000210024FB
:1039400000F0DAF90020102100F0D6F90020B121B2
:1039500000F0D2F94020002100F0CEF9601C44B202
:10396000B4F1FF3FF6DC00200021002400F0C4F990
:103970000020102100F0C0F90020B22100F0BCF9B5
:103980004020002100F0B8F9601C44B2B4F1FF3FC0
:10399000F6DC00200021002400F0AEF90020102108
:1039A00000F0AAF90020B32100F0A6F94020002180
:1039B00000F0A2F9601C44B2B4F1FF3FF6DC10BD88
:1039C00080B56420FDF748F90020AE2100F094F99D
:1039D0000020D52100F090F90020802100F08CF922
:1039E0000020A82100F088F900201F2100F084F9B0
:1039F0000020D32100F080F90020002100F07CF9A4
:103A00000020402100F078F900208D2100F074F9A9
:103A10000020142100F070F90020A12100F06CF9C1
:103A20000020C82100F068F90020DA2100F064F9D4
:103A30000020002100F060F90020812100F05CF9F5
:103A400000208F2100F058F90020D92100F054F90E
:103A500000201F2100F050F90020DB2100F04CF97C
:103A60000020402100F048F90020A42100F044F992
:103A7000FFF74CFF0020AF2100F03EF96420BDE8C5
:103A80008040FDF7E9B8000010B58AB040F270043C
:103A9000C2F2000421790020C829CDE90800CDE94F
:103AA0000600CDE90400CDE90200019000903ED36C
:103AB00021782071022922D0012916D059BB6078C3
:103AC00018B100206070FFF721FF44F65240C0F2A9
:103AD0004400079045F64F70C4F65770069044F2C4
:103AE0004850C4F64C40059015E06078012803D09A
:103AF00001206070FFF70AFFE28811A108E06078FA
:103B0000022803D002206070FFF700FFA27809A10D
:103B100005A8FCF7FDFB05AA00200021102300F0FA
:103B2000CBF86A4600200221102300F0C5F80AB045
:103B300010BD00BF4B45593A2530336400000000EA
:103B400054696D653A253035640000002DE9F04177
:103B50000C46064640B2002844BF0234002606F058
:103B60000F08002041461F46A2F1200500F0C4F8CE
:103B7000300900F110060020314600F0BDF8A4F134
:103B80005000C1B2002000F0B7F8102FE8B26CD19D
:103B900044F2AC750701C0F60005E95D402000F075
:103BA000ABF8781C295C402000F0A6F8B81C295C12
:103BB000402000F0A1F8F81C295C402000F09CF89F
:103BC000381D295C402000F097F8781D295C4020C2
:103BD00000F092F8B81D295C402000F08DF8F81D27
:103BE000295C402000F088F80020414600F084F86D
:103BF0000020314600F080F8A4F14F00C1B200204F
:103C000000F07AF807F10800295C402000F074F811
:103C100007F10900295C402000F06EF807F10A0066
:103C2000295C402000F068F807F10B00295C402077
:103C300000F062F807F10C00295C402000F05CF80D
:103C400007F10D00295C402000F056F807F10E0046
:103C5000295C402000F050F807F10F00284401785B
:103C60004020BDE8F04100F047B844F2845200EB38
:103C70004000C0F6000212F8101002EB400740208E
:103C800000F03AF87978BC78FD783E79402000F071
:103C900033F84020214600F02FF84020294600F05C
:103CA0002BF84020314600F027F8781D017840209D
:103CB000BDE8F04100F020B82DE9F041154612783A
:103CC000002A08BFBDE8F08198460E46074600244A
:103CD000F8B2F1B2D2B24346FFF738FF0837F8B274
:103CE00001347828E0B288BF02362A5C88BF0027FA
:103CF000002AEDD1BDE8F08180B582B08DF80600D4
:103D000040F2E0008DF807104FF00A0CC2F20000FC
:103D10000DF1060278210223CDF800C0FDF748F925
:103D200002B080BD704700007047000080B5FDF70D
:103D3000C1FA40F27300C2F200004178C7299CBF6B
:103D400001314170017809299CBF0131017080BDAA
:103D50007047000040F28010C2F20000FEF784BD00
:103D600080B582684FF68873CFF6CE7302EA030CF3
:103D7000D1E900E34FF6F872CFF6FE721A4042EA3C
:103D80000C0242EA0E0C4FEA3312072AC0F808C0B0
:103D900009D84FF0000CDFE802F0040404040A1E06
:103DA0003348604680BD4FF0010C604680BDBEF1D7
:103DB000050F04BF012080BD026A036A23F00103DE
:103DC00003628369096923F0F00343EA0111816109
:103DD0000262002080BDD1F808C00969036A026A46
:103DE00022F001020262826922F0F00242EA01112D
:103DF00023F00A0242EA0C0281610262002080BDC7
:103E0000D1F808C00969036A23F0100303628369CB
:103E1000026A23F4704322F0A00243EA013142EA2D
:103E20000C1281610262002080BDD1E902C30969E0
:103E3000826843EA0C0322F47F4243EA01211143E2
:103E40008160002080BD000080B5816ACA070CD166
:103E50008A0715D44A071ED40A0727D4CA0630D4C5
:103E60008A0639D44A0657D541E00268D0F82CC0FA
:103E7000536823F4003343EA0C0353608A07E9D5FF
:103E80000268D0F830C0536823F4803343EA0C034F
:103E900053604A07E0D50268D0F834C0536823F471
:103EA000802343EA0C0353600A07D7D50268D0F891
:103EB00038C0536823F4004343EA0C035360CA0636
:103EC000CED50268D0F83CC0936823F4805343EA0F
:103ED0000C0393608A06C5D50268D0F840C0936889
:103EE00023F4005343EA0C0393604A0614D5026896
:103EF000D0F844C05368BCF5801F23F4801343EA14
:103F00000C03536008D1D2F804C0D0F848E02CF478
:103F1000C00343EA0E035360090658BF80BD016821
:103F2000C06C4A6822F400221043486080BD000043
:103F300070B504462269D4E9021300680A43616936
:103F4000E6691143026846F6F315CCF6FF75314376
:103F50002A4011430160416848F2000E21F44051AB
:103F600019434160A269C4F2000E70451CBF216A6A
:103F70000A4381684FF2FF43C1F2FF131940114316
:103F80008160C16AD4F824C044F2004221F00F01DC
:103F9000C4F2000241EA0C019042C1620DD07045AA
:103FA00011D043F60001C4F20101884245D18821B5
:103FB000C5F600010A6874A30EE08821C5F6000169
:103FC00009688A0804E08821C5F6000109688A0AA0
:103FD00044F26453C0F6000302F0030153F82120B9
:103FE000704542F20040C0F2F4002DD0B6F5004F0B
:103FF00011D1082A4FF0010100F2BD80DFE802F084
:10400000056775BB6DBBBBBB7300FDF713FC0028D8
:1040100040F0608065E0082A4FF0010100F2AB80BB
:10402000DFE802F0058391A989A9A9A98F00FDF70E
:1040300001FC002840F07C8081E01022704542F2B3
:104040000040C0F2F400D1D1082A4FF0010100F283
:104050009280DFE802F0059013900B909090110091
:10406000FDF7E8FB30B1D4F824C007E0FDF71AFCF7
:104070000028F8D100217EE04FF4004044F24C517A
:10408000C0F6000131F81C106268B0FBF1F002EBE1
:10409000420188424FF001016DD3130398426AD860
:1040A000010E000210EB520041F100010023FCF769
:1040B000B7F84FF6FF42A0F54071C0F20F029142EF
:1040C00003D82168C860002155E0012153E0FDF7C5
:1040D000CDFB30B1D4F824C007E0FDF7E3FB0028A6
:1040E000F8D1002147E04FF4004044F24C51C0F6B3
:1040F000000131F81C106268B0FBF1F0510801EBCF
:104100004000B0FBF2F04FF6EF72A0F110019142C7
:1041100009D84FF6F0710140C0F34200226808440C
:10412000D060002127E0012125E0FDF79FFB30B1A1
:10413000D4F824C007E0FDF7B5FB0028F8D1002132
:1041400019E04FF4004044F24C51C0F6000131F840
:104150001C104FF6EF72B0FBF1F0616800EB5100FC
:10416000B0FBF1F0A0F11001914203D82168C860C2
:10417000002100E001214FF00110A0660022084656
:104180006267A26770BD00BF01000000040000006C
:1041900002000000080000002DE9F041044600681C
:1041A0001546C2690E461140891BB1FA81F14909D1
:1041B000A94240F09C80DDF81880B8F1000F26D0AD
:1041C00018F101017CD100BFC1693140891BB1FAEE
:1041D00081F14909A94240F08A80C1693140891BB7
:1041E000B1FA81F14909A94240F08180C1693140A9
:1041F000891BB1FA81F14909A94278D1C1693140DD
:10420000891BB1FA81F14909A942DDD06FE0FCF7C1
:104210002DFE00BF206850E8000F216820F4D07008
:1042200041E80002BAB3206850E8000F216820F48A
:10423000D07041E8000272B3206850E8000F216896
:1042400020F4D07041E800022AB3206850E8000F43
:10425000216820F4D07041E80002002ADAD11AE087
:10426000206850E8020F216820F0010041E80202B6
:10427000DAB1206850E8020F216820F0010041E81F
:10428000020292B1206850E8020F216820F001007C
:1042900041E802024AB1206850E8020F216820F08C
:1042A000010041E80202002ADAD12020C4F8880087
:1042B000C4F88C00002084F884000320BDE8F0815D
:1042C0001F4600BFFCF7D2FDC01B4045A2D82068A6
:1042D0000168490744BFC1695FEA01510AD4C06956
:1042E0003040801BB0FA80F04009A842EAD000209C
:1042F000BDE8F0814FF40061016200BF50E8000F9B
:10430000216820F4D07041E80002C2B3206850E870
:10431000000F216820F4D07041E800027AB32068D1
:1043200050E8000F216820F4D07041E8000232B359
:10433000206850E8000F216820F4D07041E80002A6
:10434000EAB12068DAE700BF206850E8020F216870
:1043500020F0010041E80202DAB1206850E8020FC3
:10436000216820F0010041E8020292B1206850E883
:10437000020F216820F0010041E802024AB12068E2
:1043800050E8020F216820F0010041E80202002AF3
:10439000DAD12020C4F88800C4F88C00C4F890005A
:1043A000002084F884000320BDE8F081FEE70000CF
:1043B0009AB0FCF78DFF08AC201D4421FCF7BCF837
:1043C000002540F20040CDE90655CDE90455CDE980
:1043D0000255C5F600000168012262F34A2101601E
:1043E000006800F4C0600190019820200890B0207F
:1043F000CDE91025CDE912052046FDF7CBFA20B115
:10440000EFF3108072B600BFFEE74F20CDE9020542
:1044100002A80221CDE90455CDE90655FDF7FCF8C7
:1044200018B1EFF3108072B6FEE7FFF77BF8FFF7E5
:1044300039F8FFF7B9F8FFF79DF9FFF721FAFFF711
:10444000E9F8FCF759F940F28010C2F20000FDF7DC
:10445000E3FF40F23414C2F200042046FDF7B0FF3F
:1044600020460C21FEF7BEFCFFF70EFBFEF7D6FF41
:10447000FAE730380A2801D201207047002070473F
:1044800010B5FCF735F94FF00001016010BD0400D4
:104490000008000000000000000200010000100001
:1044A0000000000001000000020000000100000008
:1044B00003000000050000000100000001000000F2
:1044C000060000000A0000002000000002000000BA
:1044D0000400000008000000100000004000000080
:1044E0008000000000010000000200000000000049
:1044F00000000000000000000000000001000000BB
:10450000020000000300000004000000A08601007B
:10451000400D0300801A060000350C0040420F00D9
:1045200080841E0000093D0000127A000024F4007F
:1045300000366E010048E801006CDC02000000005B
:104540000000000000000000000000000100020068
:104550000400060008000A000C00100020004000C3
:1045600080000001000000000400000002000000C4
:104570000800000001010103070100000804020413
:10458000080101010000000000000000002F0000F1
:1045900000000700070000147F147F1400242A7F06
:1045A0002A12006264081323003649552250000085
:1045B0000503000000001C224100000041221C00F5
:1045C0000014083E08140008083E0808000000A077
:1045D0006000000808080808000060600000002073
:1045E00010080402003E5149453E0000427F400051
:1045F000004261514946002141454B3100181412D7
:104600007F10002745454539003C4A4949300001A3
:104610007109050300364949493600064949291EF2
:104620000000363600000000563600000008142254
:104630004100001414141414000041221408000254
:104640000151090600324959513E007C1211127C79
:10465000007F49494936003E41414122007F4141A6
:10466000221C007F49494941007F09090901003E98
:104670004149497A007F0808087F0000417F4100D6
:10468000002040413F01007F08142241007F40404C
:104690004040007F020C027F007F0408107F003E34
:1046A0004141413E007F09090906003E4151215E1A
:1046B000007F091929460046494949310001017F17
:1046C0000101003F4040403F001F2040201F003FAD
:1046D0004038403F0063140814630007087008075F
:1046E00000615149454300007F41410000552A5572
:1046F0002A55000041417F000004020102040040ED
:10470000404040400000010204000020545454780E
:10471000007F48444438003844444420003844442E
:10472000487F00385454541800087E0901020018CC
:10473000A4A4A47C007F080404780000447D400009
:10474000004080847D00007F102844000000417FED
:104750004000007C04180478007C080404780038C9
:104760004444443800FC242424180018242418FC51
:10477000007C0804040800485454542000043F44BA
:104780004020003C4040207C001C2040201C003C7D
:104790004030403C004428102844001CA0A0A07CCD
:1047A000004464544C441414141414140000000005
:1047B000000000000000000000000000000000F801
:1047C00000000000000000333000000000100C0664
:1047D000100C0600000000000000000040C07840FF
:1047E000C0784000043F04043F040400007088FCCB
:1047F00008300000001820FF211E0000F008F00023
:10480000E018000000211C031E211E0000F0088893
:10481000700000001E2123241927211010160E00FD
:10482000000000000000000000000000000000E0A8
:1048300018040200000000071820400000020418BD
:10484000E00000000040201807000000404080F019
:10485000804040000202010F01020200000000F04F
:10486000000000000101011F010101000000000023
:104870000000000080B07000000000000000000098
:104880000000000000010101010101010000000021
:1048900000000000003030000000000000000000B8
:1048A00080601804006018060100000000E0100895
:1048B0000810E000000F102020100F00001010F86A
:1048C000000000000020203F2020000000700808A9
:1048D0000888700000302824222130000030088829
:1048E000884830000018202020110E000000C02051
:1048F00010F8000000070424243F240000F8088872
:10490000880808000019212020110E0000E01088FE
:1049100088180000000F112020110E000038080830
:10492000C83808000000003F000000000070880840
:1049300008887000001C222121221C0000E01008C1
:104940000810E0000000312222110F00000000C01A
:10495000C0000000000000303000000000000080B7
:1049600000000000000080600000000000008040A7
:1049700020100800000102040810200040404040C0
:104980004040400004040404040404000008102013
:104990004080000000201008040201000070480858
:1049A0000808F0000000003036010000C030C828C0
:1049B000E810E0000718272423140B000000C0387B
:1049C000E0000000203C23020227382008F88888F5
:1049D00088700000203F202020110E00C030080801
:1049E00008083800071820202010080008F80808D8
:1049F0000810E000203F202020100F0008F88888D1
:104A0000E8081000203F20202320180008F888889C
:104A1000E8081000203F200003000000C030080814
:104A20000838000007182020221E020008F808009D
:104A30000008F808203F210101213F20000808F864
:104A4000080800000020203F202000000000080887
:104A5000F8080800C08080807F00000008F888C047
:104A600028180800203F20012638200008F80800F8
:104A700000000000203F20202020300008F8F8002F
:104A8000F8F80800203F003F003F200008F830C041
:104A90000008F808203F200007183F00E010080831
:104AA0000810E0000F10202020100F0008F8080860
:104AB0000808F000203F210101010000E010080873
:104AC0000810E0000F18242438504F0008F8888898
:104AD00088887000203F2000030C30200070880878
:104AE000080838000038202121221C00180808F886
:104AF000080818000000203F2000000008F8080007
:104B00000008F808001F202020201F0008788800D7
:104B100000C83808000007380E010000F80800F847
:104B20000008F800033C0700073C030008186880F1
:104B30008068180820302C03032C30200838C80067
:104B4000C83808000000203F2000000010080808B6
:104B5000C83808002038262120201800000000FE58
:104B6000020202000000007F40404000000C30C004
:104B700000000000000000010638C0000002020230
:104B8000FE000000004040407F00000000000402E2
:104B9000020204000000000000000000000000000D
:104BA00000000000808080808080808000020204FD
:104BB00000000000000000000000000000008080F5
:104BC000808000000019242222223F2008F8008063
:104BD00080000000003F112020110E000000008026
:104BE00080800000000E11202020110000000080B5
:104BF0008088F800000E112020103F2000008080E7
:104C000080800000001F222222221300008080F0FA
:104C1000888888180020203F202000000000808025
:104C200080808000006B94949493600008F800806A
:104C300080800000203F210000203F2000809898C5
:104C4000000000000020203F202000000000008025
:104C50009898000000C08080807F000008F8000065
:104C600080808000203F24022D302000000808F8BA
:104C7000000000000020203F202000008080808075
:104C800080808000203F20003F20003F8080008007
:104C900080800000203F210000203F200000808015
:104CA00080800000001F202020201F0080800080C6
:104CB0008000000080FFA12020110E000000008075
:104CC00080808000000E112020A0FF808080800066
:104CD0008080800020203F21200001000000808093
:104CE000808080000033242424241900008080E088
:104CF000808000000000001F202000008080000055
:104D000000808000001F202020103F208080800035
:104D10000080808000010E30080601008080008045
:104D2000008080800F300C030C300F00008080006A
:104D3000808080000020312E0E3120008080800095
:104D40000080808080818E70180601000080808045
:104D5000808080000021302C2221300000000000E3
:104D6000807C020200000000003F40400000000084
:104D7000FF00000000000000FF0000000002027CB5
:104D8000800000000040403F0000000000060101DC
:104D9000020204040000000000000000C04D0008F2
:104DA000000000201000000074010008D04D000831
:104DB00010000020580800009001000800000000CA
:104DC000010000001000000000093D00000000008C
:0400000508000139B5
:00000001FF
