:020000040800F2
:10000000D8060020E1010008511F0008D91A000895
:100010004D1F000895060008AD23000800000000F1
:100020000000000000000000000000007123000834
:1000300099060008000000006D23000875230008E1
:10004000FB010008FB010008FB010008FB010008A0
:10005000FB010008FB010008FB010008FB01000890
:10006000FB010008FB010008FB010008FB01000880
:10007000FB010008FB010008FB010008FB01000870
:10008000FB010008FB010008FB010008FB01000860
:1000900000000000FB010008FB010008FB01000854
:1000A000FB010008FB010008FB010008FB01000840
:1000B000FB010008FB010008FB010008FB01000830
:1000C000FB010008FB010008FB010008FB01000820
:1000D000FB010008FB010008FB010008FB01000810
:1000E000FB010008FB010008FB010008FB01000800
:1000F000FB0100080000000000000000FB010008F8
:10010000FB010008FB010008FB010008FB010008DF
:10011000FB010008FB010008FB010008FB010008CF
:10012000FB010008FB010008FB010008FB010008BF
:10013000FB010008FB01000800F002F800F041F8A4
:100140000AA090E8000C82448344AAF10107DA4532
:1001500001D100F036F8AFF2090EBAE80F0013F043
:10016000010F18BFFB1A43F001031847A82B00002A
:10017000C82B0000103A24BF78C878C1FAD85207BB
:1001800024BF30C830C144BF04680C607047000011
:100190000023002400250026103A28BF78C1FBD890
:1001A000520728BF30C148BF0B607047642900F078
:1001B0007380002070471FB502F04AF91FBD10B5CB
:1001C00010BD00F0E2F91146FFF7F5FF02F0F0F87C
:1001D00000F000FA03B4FFF7F2FF03BC00F008FAE6
:1001E0000948804709480047FEE7FEE7FEE7FEE7CB
:1001F000FEE7FEE7FEE7FEE7FEE7FEE70448054907
:10020000054A064B70470000A92300083901000881
:10021000D8000020D8060020D8020020D8020020F4
:100220000FB41CB5074B06AA7B446946009005989D
:1002300000F093F90020694600F0A2F91CBC5DF8BB
:1002400014FB00005503000070B504468569006882
:10025000C10601D5302600E02026C00707D070BDBA
:10026000D4E9012130469047206A401C20626D1E6F
:10027000F6D570BD70B5044685690078C00707D112
:1002800070BDD4E9012120209047206A401C2062E3
:100290006D1EF6D570BD00002DE9F0410646002424
:1002A00010687529314616A510D0AFF300800028DC
:1002B00002DA404213A507E031688A0701D512A58A
:1002C00002E0490704D511A5012401E0AFF3008045
:1002D00000210A2206F1240709E0B0FBF2FCB0FB82
:1002E000F2F302FB1C00303078541846491C0028F9
:1002F000F3D123462A463046BDE8F04100F0CEB89F
:10030000000000002D0000002B0000002000000075
:100310002DE9F05F894604464FF0000ADFF824B16A
:10032000FB44C0F820A02046E168884700287DD023
:10033000252806D0D4E901219047206A401C20627C
:10034000F1E700255F462046E168884720280646F9
:1003500007DB312E05D2B81910F8200C08B105437F
:10036000F1E7A80701D525F00405C4F81CA0002773
:10037000C4F818A02A2E09D0304602F062F838B32B
:1003800004EB8708303EC8F8186019E059F8041BE0
:10039000204604EB87029161E1688847012F0646F9
:1003A00018D1E069002820DA25F020051DE0D8F8F2
:1003B000180000EB800006EB40003038C8F8180049
:1003C0002046E1688847064602F03BF80028EED157
:1003D000012F0AD02E2E08D12046E16888477F1CC5
:1003E0000646022F45F02005C4DBA069002803DA89
:1003F000404245F00105A061E80701D025F0100555
:10040000A6B1A6F14100192802D8203645F40065AE
:100410004A463146204625604D46FFF7C7FE60B18B
:10042000012807D0ED1D25F0070000E007E000F1EE
:10043000080978E705F1040975E730467AE7206A8C
:10044000BDE8F09F3A2100004FF0000200B51346CE
:1004500094469646203922BFA0E80C50A0E80C50E4
:10046000B1F12001BFF4F7AF090728BFA0E80C5095
:1004700048BF0CC05DF804EB890028BF40F8042B8E
:1004800008BF704748BF20F8022B11F0804F18BFFB
:1004900000F8012B70477047704770472DE9F0470F
:1004A0000D4699469246044600F1240801688806E4
:1004B00004D5E06921F01001216000E00120A8428C
:1004C00001DD471B00E00027A1697A1902EB090052
:1004D000081AA0612078C00602D42046FFF7B4FEB7
:1004E000002608E0D4E901211AF806009047206AA6
:1004F000401C761C20624E45F4DB2078C0060AD5ED
:100500002046FFF7A1FE06E0D4E901213020904704
:10051000206A401C2062381EA7F10107F4DC07E0C6
:10052000D4E9012118F805009047206A401C206298
:10053000281EA5F10105F3DC2046FFF79BFE20787D
:10054000000602D50220BDE8F0870120FBE700008D
:1005500001694A1C02610878704700B58FB0CDE987
:1005600001310021059105497944CDE90310114677
:100570006846FFF7CDFE0FB000BD0000E5FFFFFFAE
:100580000A6802F8010B0A607047754600F02CF803
:10059000AE4605006946534620F00700854618B070
:1005A00020B5FFF72BFEBDE820404FF000064FF0CE
:1005B00000074FF000084FF0000BAC46ACE8C00954
:1005C000ACE8C009ACE8C009ACE8C00921F00701FB
:1005D0008D46704710B50446AFF300802046BDE855
:1005E0001040FFF7F7BD00000048704710000020E2
:1005F00001491820ABBEFEE7260002000048704704
:100600001400002070470000F0B587B001F0FCFC3A
:1006100000254C20CDE90455C5F6000001680022F4
:1006200041F00201016001684FF4C05601F002017F
:1006300006910699016841F00101016000684FF4DC
:10064000C05100F00100069006984FF0904000F075
:100650002FF90820CDE9010540F2004001AC012747
:10066000C4F600002146039700F032F848F201007A
:1006700001A9A1C14FF09040214600F029F84FF0A8
:1006800090402146CDE90167CDE9035500F020F8FF
:1006900007B0F0BDFEE7000070470000EFF31080E8
:1006A00072B600BFFEE70000B0B5044600F006F9E0
:1006B000054640F20000C2F200000078611C18BF3D
:1006C000044400BF00F0FAF8401BA042FAD3B0BDCA
:1006D0002DE9F04F84B00E680390002E00F0DF800B
:1006E00040F600020398C4F600028E4690424FF096
:1006F00007004FF000044FF001074FF000054FF0E6
:10070000000808BF02200090029148E040F200403B
:10071000C4F600008242009A08BF012202FA03F0E8
:10072000082140EA0C00C4F2010141F8260040F61D
:100730000006C5F600063068DEF8041040EA09023B
:10074000CB0258BF20EA0902326070688B0240EA8F
:10075000090258BF20EA09027260D6F88000CB0374
:1007600040EA090258BF20EA0902C6F88020D6F8FC
:100770008400890340EA090258BF20EA0902C6F84A
:100780008420DEF8006008F1010836FA07F005F170
:10079000020507F1010704F1040400F08080A7F1CD
:1007A000010A012000FA0AF316EA0309E9D0DEF88B
:1007B00004B00BF0030CACF10102012A1ED803981F
:1007C0004FEA480281680192032202FA05F6029A72
:1007D000B143D2F80CE0F6430EFA05F21143DDF80E
:1007E00008E081604168994303460198CBF3001209
:1007F00002FA0AF2114359600CE000BF0320A8403E
:10080000039BC643BCF1030F284603D128464FF093
:10081000030C26E0D968DEF80820314082401143FD
:10082000BCF1020FD9601CD102466FF0030000EA50
:100830005A01194404F01C030F20D1F820C000FA1B
:1008400003FE1046029A2CEA0E0C1269DDF808E04D
:100850009A4042EA0C02039B0A62DEF804B00BF0F5
:10086000030C19680CFA00F0314008431BF4403FB8
:1008700018603FF486AF08204FEA9A06C4F20100E0
:1008800050F8260004F00C030721039A9940B2F1B6
:10089000904F20EA010C7FF439AF00223EE704B00C
:1008A000BDE8F08F0069084018BF012070470000C4
:1008B0001823002A08BF2823C150704740F2D000F7
:1008C000C2F200000068704790F84120202A03D14E
:1008D00090F84020012A01D102207047242280F89C
:1008E00041200268136823F001031360136823F4A6
:1008F00080531360136819431160116841F00101BE
:100900001160202180F84110002180F84010084635
:100910007047000090F84120202A03D190F8402031
:10092000012A01D102207047242280F84120026868
:10093000136823F001031360136823F4706343EA20
:1009400001211160116841F001011160202180F83E
:100950004110002180F8401008467047002804BF6D
:100960000120704710B5044690F8410028B90020D6
:1009700084F84000204600F07BF9242084F84100F0
:1009800094E80910E2680168012A21F00101016080
:1009900023F070610161816821F40041816003D11D
:1009A0004CF40041816007E04CF40441022A81606C
:1009B00004BF4FF400614160416804F1100C41F044
:1009C000007141F400414160C16821F40041C160FF
:1009D0009CE80E10114341EA0321C160216A41EAFB
:1009E0000C010160016841F001010160002020213B
:1009F000606484F84110206384F8420010BD000058
:100A00002DE9F047044690F84100202803D194F8DE
:100A10004000012802D10220BDE8F08701201E46D7
:100A20001746884684F84000FFF748FF21680546CE
:100A30008A6912040AD500BFFFF740FF401B19283E
:100A400000F2F580216888690004F5D4212084F83B
:100A50004100102084F842000020606467626685CF
:100A60006063608D49F6004940F2000CCFF6004902
:100A7000B0F5807FC0F2FF1C0DD30A4652F8047F08
:100A80004346A9F580666FF39F2337401F430CF55B
:100A90000056FF2310E0638D0A46474652F8040FC4
:100AA0006FF39F275FFA83FEA9F58066304047EA1F
:100AB0000E4707430CF5903647EA06001060238581
:100AC000608D089E002800F08F806FF39F2808F14A
:100AD000007A701C48EA0C074FF0FF0851D10BE078
:100AE000A4F82880084650F8042F02EA09023A4385
:100AF0000260608D002877D020464FF0FF312A46F3
:100B000001F0A0F8002840F09E80606A216810F88B
:100B1000012B8A626062608D01386085208D421EE3
:100B20002285608D1204E4D10028E2D08869000695
:100B30005FBF88695FEA006088695FEA006003D48C
:100B400088690006F2D500BF608DFF28C8D8628D85
:100B50000846228550F8043FD2B203EA09034AEA64
:100B600002421A43C4E7628D0846228550F8043FCA
:100B7000D2B203EA09034AEA02421A430260608DD4
:100B800090B3204631462A4601F05CF800285AD13D
:100B9000606A216810F8012B8A626062608D0138FA
:100BA0006085208D421E2285608D1204E7D10028C9
:100BB000E5D0886900060AD4BEB300BFFFF77EFE09
:100BC000401BB04233D8216888690006F6D5608D95
:100BD000B0F5807FC7D3A4F82880084650F8042FCA
:100BE00002EA09023A43C9E7886900F020008EB1A1
:100BF00060BB00BF204631462A4600F06FFF10BBA5
:100C0000FFF75CFE401BB04211D82168886980065E
:100C1000F0D51BE0D0B9204600212A4600F05EFF47
:100C200000281CBF0120BDE8F087FFF747FE606C7D
:100C300040F020006064202084F84100002084F807
:100C4000420084F840000120BDE8F0872020C86100
:100C50004A684EF60003CFF600631A404A6084F8F3
:100C60004100002084F8420084F84000BDE8F0878D
:100C700010B594B0044600201290CDE91000CDE9E3
:100C80000E0068463821FFF7DFFB206845F200417F
:100C9000C4F20001884201D014B010BD4020009081
:100CA0004FF440300590684600F0C6F8002818BFA1
:100CB000FFF7F4FC4C24C5F6000420680EA940F0B0
:100CC00002002060206800F0020013901398C020FA
:100CD0000E9012200F900020CDE9100004201290F9
:100CE00040F20040C4F60000FFF7F2FCE06840F478
:100CF0000010E060E06800F400101390139814B046
:100D000010BD000040F2000040F2D001C2F200002D
:100D1000C2F2000100780A681044086070470000C1
:100D200080B5032000F066F800F088FA40F2080170
:100D3000C2F2000108600F2000F008F800281CBF74
:100D4000012080BD00F028F8002080BD70B540F281
:100D50000006C2F200063178D1B1044600F06EFA06
:100D600031784FF47A72B2FBF1F1B0FBF1F000F0A0
:100D70009DFE0F2C4FF0010508D838B94FF0FF3019
:100D800021460022002500F009F87460284670BD55
:100D90000125284670BD00007047000010B54EF6D2
:100DA0000C5CCEF2000CDCF80030C3F3022E8EF0A7
:100DB0000704042C28BF0424BEF103034FF0FF3EB8
:100DC0000EFA04F438BF0023A14399400EFA03F34E
:100DD0009A4300F00F03043B1143634409010C33B1
:100DE00000F16042B0F1FF3FC8BF02F564431970E3
:100DF00010BD00004EF60C51CEF200010A684FF60D
:100E0000FF031A4060F30A2242F0806040F0FD7058
:100E10000860704740F20040C5F60000006800F42A
:100E2000C060704740F20040C5F60000016841F420
:100E30008071016070470000F0B581B00446807891
:100E40008826C007C5F6000600F0A980FFF7EAFF74
:100E5000FFF734FD054600BFD6F87803C00575D40A
:100E6000FFF72CFD401B0228F6D903202168CA0792
:100E700000F09A806268336823EA124392B21A4300
:100E800032608A0740F19380A268336823EA1243F4
:100E900092B21A4332608A0640F18C80226933682C
:100EA00023F440631A4332608A0540F18680226A47
:100EB00033684FF6FF7767EA02073B4043EA024296
:100EC00032604A057CD5626A33684FF6FF7767EA7D
:100ED00002073B4043EA024232600A0572D5A26A29
:100EE00033684FF6FF7767EA02073B4043EA024266
:100EF00032604A0668D5626933686FF47F2767EA13
:100F000012173B4002F47F4243EA021232600A06A3
:100F10005CD5A26933686FF47F2767EA12173B40FC
:100F200002F47F4243EA02123260CA0550D5E269F8
:100F300033686FF47F2767EA12173B4002F47F4261
:100F400043EA02123260CA0654D543E0B168606BCE
:100F500001F4407181421DD0B168B26821F4407340
:100F600042F48032B260B268890722F480320146CE
:100F7000B260B3600ED5FFF7A1FC054641F2883799
:100F8000B068800705D4FFF799FC401BB842F7D939
:100F90006BE7616BB06820F440700843B0600020DC
:100FA0002168CA077FF466AF8A073FF56DAF8A06EE
:100FB0003FF574AF8A053FF57AAF4A053FF583AF39
:100FC0000A058CD44A0696D40A06A2D4CA05AED421
:100FD000CA060FD5E2683368B2F5807F23F4407308
:100FE00043EA0203336005D156F87C2C42F080724C
:100FF00046F87C2C0A0407D5226B336823F0404363
:1010000043EA0203336092B1490418D5E16A3268B9
:10101000B1F1005F22F0405242EA010232600ED18B
:1010200056F87C1C41F4803146F87C1C07E056F8E9
:101030007C2C42F0807246F87C2C4904E6D401B046
:10104000F0BD00002DE9F04381B0002800F0AF8032
:1010500044F20008C5F600080546D8F800000C4622
:1010600000F00700884215D2D8F8000020F00700F1
:101070002043C8F80000FFF721FC0646D8F800001E
:1010800000F00700A04205D0FFF718FC801B0228E3
:10109000F4D95BE0286808278107C5F6000713D557
:1010A000A868396821F0F00108433860FFF706FCB2
:1010B000064600BF3868C00305D4FFF7FFFB801B5E
:1010C0000228F7D942E02868410616D56869D7F8A2
:1010D000001121F00F0141EA1010C7F80001FFF7DD
:1010E000EDFB0646D7F80001C00305D4FFF7E6FB89
:1010F000801B0228F6D929E02868410712D5E86844
:10110000396821F4E06108433860FFF7D7FB0646F1
:101110003868800305D4FFF7D1FB801B0228F7D97C
:1011200014E02868010716D52869396821F4605150
:1011300041EAC0003860FFF7C1FB0646386840034B
:1011400008D4FFF7BBFB801B0228F7D9032001B0AE
:10115000BDE8F0832868C0071ED1D8F8000000F071
:101160000700A04227D9D8F8000020F0070020434C
:10117000C8F80000FFF7A2FB054600BFD8F8000042
:1011800000F00700A04216D0FFF798FB401B022892
:101190004FF00300F2D945E068684FF0B04130B33A
:1011A000032842D0022844D10968890322D40120AF
:1011B00001B0BDE8F08300F053F839683C2202EA40
:1011C000910142F27C42C0F60002515840F20802FE
:1011D000B0FBF1F140F20400C2F200000068C2F27C
:1011E0000002116001B0BDE8F043FFF7AFBD096830
:1011F0008907DCD5396821F0030108433860FFF71F
:101200005DFB064641F288393868696800F00C00D9
:10121000B0EB810FA1D0FFF751FB801B48454FF089
:101220000300F1D901B0BDE8F08309688901BED59A
:10123000E0E709684905BAD5DCE7000080B500F0B1
:101240000FF80821C5F6000109683C2202EA910165
:1012500042F27C42C0F600025158B0FBF1F080BD72
:101260000C21C5F6000151F8040C10F00C020868BE
:1012700005D00C2A17D100F00300012813D14FF03C
:10128000B040036800681B0700F0080004D4E0B118
:101290004FF0B04000681FE0E0B14FF0B040006890
:1012A000C0F3031019E042F20040042AC0F2F40037
:1012B0001FD0082A1CD14FF0B0421268D2025CBF86
:1012C00044F60000C0F2E81013E0D1F88800C0F343
:1012D000032002E0D1F88800002042F2BC43C0F6AF
:1012E000000353F82030002A184618BF002001E000
:1012F0000020002351F8042C02F00C020C2A18BF25
:101300007047086800F0030242F20040022AC0F26F
:10131000F4000AD0032A09D14FF0B0421268D20279
:101320005CBF44F60000C0F2E81003460868C0F352
:1013300006200A685843C2F3021201320968B0FB62
:10134000F2F0012202EB5171B0FBF1F070470000A6
:101350002DE9F04F81B0002800F01A8340F2900B85
:101360000446C5F6000B5BF8880C5BF8841C2278F9
:1013700000F00C08900601F0030A29D42078C00779
:101380005BD0B8F1080F54D0B8F10C0F08BFBAF118
:10139000030F4ED04FF0B0400168D4E9015221F460
:1013A00080111143B5F5803F016009D0B5F5041FE8
:1013B00040F02D824FF0B0410A6842F400120A60FA
:1013C000016841F480310160FFF778FA05462DE2AB
:1013D000B8F1000F1ED0B8F10C0F08BFBAF1010F21
:1013E00018D0216A4FF0B0463068002900F06081C3
:1013F00040F001003060FFF761FA05463068800771
:1014000000F17D81FFF75AFA401B02284FF00300DC
:10141000F4D947E3206A002800F0BA824FF0B041C7
:10142000A06A0A68120700F1CC80DBF804100909F1
:10143000C8E06068002800F0AB82207880072DD5D6
:10144000B8F1040F1DD0B8F10C0F08BFBAF1020FAC
:1014500017D021694FF0B0463068002900F00082B3
:1014600040F480703060FFF729FA05463068400587
:101470000BD4FFF723FA401B02284FF00300F5D9E5
:1014800010E32069002800F0838260695BF88C1CFF
:1014900021F0FE4141EA00604BF88C0C20780007F7
:1014A00029D42078400750D4E56A002D00F0AC82A2
:1014B000B8F10C0F40F03981012D00F069825BF822
:1014C000840C216B00F003028A4240F06182616B60
:1014D00000F070028A4240F05B82A16B00F4FE4291
:1014E000B2EB012F40F05482616C00F06040884202
:1014F00040F04E8288E2A069DBF80410002800F07A
:10150000E980E06901F01002904200F0B68201F03B
:101510000302022A00F03C82C90700F0A782DBF830
:10152000040020F00100CBF80400FFF7C7F90546DE
:10153000DBF80400800740F19882FFF7BFF9401BF9
:1015400011284FF00300F3D9ACE2DBF87003C005BB
:1015500010D4FFF767FCFFF7B1F90546DBF870031D
:10156000C00507D4FFF7AAF9401B02284FF003007B
:10157000F4D997E2E068002800F08481852801D042
:10158000052805D1DBF8000040F00400CBF800008E
:10159000FFF794F9DBF80010054641F0010041F235
:1015A0008836CBF8000000BFDBF80000800700F1B0
:1015B0000F81FFF783F9401BB0424FF00300F3D9CE
:1015C00070E2096801F0F00142F27C498842C0F6FD
:1015D00000092CD93C2101EA900042F2BC41DBF821
:1015E0007820C0F60001085802F00F0159F82110C8
:1015F000B0FBF1F5FFF70EFCB0F5007F40F0B880CE
:101600004EF6BF20C0F22110854240F2DD8049F243
:101610003F30C0F23420854240F24E814AF63F60AE
:10162000C0F2EB20854240F2B78000264BE14FF03C
:10163000B0410A6842F008020A600A6822F0F0022B
:1016400002430A60616A5BF88C2C22F47F4242EA12
:1016500001214BF88C1C3C2101EA900042F2BC4174
:10166000DBF87820C0F60001085802F00F0159F8A5
:101670002110B0FBF1F5FFF7CDFBB0F5007F40F096
:101680008D804EF6BF20C0F22110854240F29E8030
:1016900049F23F30C0F23420854240F25C814AF684
:1016A0003F60C0F2EB20854240F28C80002659E179
:1016B00020F001003060FFF701F90546306880072F
:1016C0007FF55CAEFFF7FAF8401B02284FF00300ED
:1016D000F4D9E7E121F00100CBF80400FFF7EEF8C0
:1016E000054600BFDBF8040080077FF5DAAEFFF7A0
:1016F000E5F8401B11284FF00300F3D9D2E14FF079
:10170000B040016841F0080101600168D4E9093284
:1017100021F0F001114301605BF88C0C20F47F4054
:1017200040EA03204BF88C0C28E64FF0B0463068B6
:1017300020F080703060FFF7C1F8022D05460BD114
:101740003068800140F12881FFF7B8F8401B0A2873
:101750004FF00300F4D9A5E13068800140F14B81DE
:10176000FFF7ACF8401B0A284FF00300F4D999E1C9
:101770004CF6BF70C0F26A00854225D945F63F504D
:10178000C0F2C600854240F2978046F23F60C0F248
:10179000031085423FF649AF02208EE04CF6BF7041
:1017A000C0F26A00854211D945F63F50C0F2C6002A
:1017B000854240F2D08046F23F60C0F2031085427D
:1017C0003FF674AF0220C7E0002076E00020C3E0BF
:1017D000E06840F00400852840F01A81FFF76EF8B9
:1017E000DBF80010054641F0800041F28836CBF866
:1017F000000000BFDBF8000000053FF555AEFFF725
:101800005DF8401BB0424FF00300F3D94AE14FF0BE
:10181000B046306820F480303060306820F400102A
:101820003060FFF74BF8002D054615D04FF0B0465D
:10183000306880033FF501AEFFF740F8401B642895
:101840004FF00300F4D92DE1FFF738F8401B64286E
:101850004FF0030000F2268130688003F4D4ECE5F9
:1018600020F480703060FFF729F8054630684005A5
:101870007FF514AEFFF722F8401B02284FF003005B
:10188000F4D90FE1FFF71AF8DBF80010064621F053
:10189000800041F28837CBF8000000BFDBF8005031
:1018A000FFF70CF82905054640F1CA80A81BB8428D
:1018B0004FF00300F2D9F5E0012042F27041C0F68A
:1018C000000151F8206044F20007C5F600073868AF
:1018D00020F0070030433860FEF7F0FF054600BFF8
:1018E000386800F00700B04205D0FEF7E7FF401B64
:1018F0000228F5D94CE04FF0B040016841F00801F2
:1019000001600168D4E9093221F0F001114301605E
:101910005BF88C0C20F47F4040EA03204BF88C0CE1
:10192000FFF79EFC5BF8881C3C2202EA910159F803
:10193000011040F20802B0FBF1F140F20400C2F2E3
:1019400000000068C2F200021160FFF7FFF90028F2
:1019500040F0A88012E5012042F27041C0F600017B
:1019600051F8206044F20007C5F60007386820F0FF
:10197000070030433860FEF7A1FF0546386800F0E5
:101980000700B042CCD0FEF799FF401B0228F5D9E2
:10199000012001B0BDE8F08F5BF8840C48F28C01A7
:1019A000C1F2C11104F1300708408ECFD4E91065AF
:1019B0000843104340EA03203843304328434BF8A0
:1019C000840C4FF0B045286840F0807028605BF8C8
:1019D000840C40F080504BF8840CFEF76FFF0446F7
:1019E0002868800110D4FEF769FF001B0A284FF019
:1019F0000300F5D956E05BF8840C4FF6FC71CEF687
:101A0000FE6108404BF8840C002001B0BDE8F08F67
:101A1000FEF754FFDBF80010054621F0800041F28C
:101A20008836CBF80000DBF8000000057FF53CAD00
:101A3000FEF744FF401BB0424FF00300F3D931E002
:101A4000DBF8000041F2883620F00100CBF80000FE
:101A5000DBF8000080077FF527ADFEF72FFF401B66
:101A6000B0424FF00300F3D91CE0E069DBF804104A
:101A700021F010010843CBF80400DBF8040040F02B
:101A80000100CBF80400FEF719FF0546DBF804005F
:101A900080073FF506ADFEF711FF401B11284FF000
:101AA0000300F3D901B0BDE8F08F0000411E002013
:101AB000B0EB116F1CBF012070474EF21002CEF246
:101AC000000251604EF62351CEF20001F0230B705C
:101AD0000721906011607047FEE7000070B5044672
:101AE000006815468369DA0602D4002100226AE004
:101AF0000E461021C1618169890660D4711C54D0E1
:101B000046BBFEF7DBFE2068426894F842308169EC
:101B1000202B0DD012F480420AD111F4004107D0DD
:101B2000416841F480414160FEF7C8FE054600BFB0
:101B300020688169890605D4FEF7C0FE401B1A287B
:101B4000F6D32AE081698906DBD538E0206881690F
:101B5000890634D4FEF7B2FE401BB042F6D92068A5
:101B6000426894F842308169202B0DD012F48042F3
:101B70000AD111F4004107D0416841F4804141602D
:101B8000FEF79CFE054600BF206880698006DDD414
:101B9000FEF794FE401B1A28F6D3206801228169C3
:101BA000242110E08169890609D48169890606D457
:101BB000816989065CBF81695FEA8161F2D5202174
:101BC000C161012204218369DE0506D45E050CD4BF
:101BD0009B0512D4B2B9002070BD4FF4807241F061
:101BE0000101C26101225E05F2D54FF4806241F02D
:101BF0000801C26101229B05ECD541F002014FF4BE
:101C00000072C2618269920744BF002282628269C7
:101C1000D20703D1826942F00102826142684EF626
:101C20000003CFF600631A404260606C08436064B2
:101C3000202084F84100002084F8420084F840000D
:101C4000012070BD70B5044600688069800710D41B
:101C500015460E4609B3701C17D100BF20464FF041
:101C6000FF312A46FFF73AFFE8B92068806980070C
:101C7000F4D5002070BD00BFFEF720FE401BB0422F
:101C800015D8206880698007F3D4204631462A465B
:101C9000FFF724FF0028EFD005E0204600212A4668
:101CA000FFF71CFF08B1012070BDFEF707FE606C56
:101CB00040F020006064202084F84100002084F877
:101CC000420084F84000012070BD0000B0B540F231
:101CD0007005C2F20005E8780A2800D2B0BD0020E5
:101CE000E8704FF090404FF48071FEF7DBFD002864
:101CF0004ED040F20044C4F6000420464FF48071F8
:101D0000FEF7D0FD002845D04FF090404FF4006121
:101D10000122FEF7CDFD4FF090404FF4805100229C
:101D2000FEF7C6FD20460821FEF7BCFDA0B34FF02C
:101D300090404FF40041FEF7B5FD78B34FF090406E
:101D40000121FEF7AFFD58B34FF090404FF48051A2
:101D50000122FEF7ADFD4FF090404FF400610022EC
:101D6000FEF7A6FD20460821FEF79CFDD0B14FF0FE
:101D700090404FF40041FEF795FDA8B14FF0904020
:101D80000121FEF78FFD0021002808BF16210CE07D
:101D900001210AE0022108E0112106E0122104E0FD
:101DA000132102E0142100E01521A87AA97221EA8A
:101DB000000288436872501E15282A723FF68EAFC3
:101DC000DFE800F00C150B0B0B0B0B0B0B0B0B0BCD
:101DD0000B0B0B0B202326292C2F7FE728780228BA
:101DE00025D001280BD000287FF478AF1CE028789C
:101DF000022819D001281AD0002818BFB0BD02202F
:101E00002870B0BD1120A870B0BD1220A870B0BD60
:101E10001320A870B0BD1420A870B0BD1520A87004
:101E2000B0BD1620A870B0BD01202870B0BD002044
:101E30002870B0BD2DE9F04387B000264C20CDE9D5
:101E40000466C5F60000016840F2004441F002015A
:101E500001600168C4F6000401F0020106910699D0
:101E60000168012241F0010101600068042100F0D5
:101E700001000690069820464FF004080127FEF75F
:101E800017FD4FF090404FF4C05100224FF4C0595D
:101E9000FEF70EFD4FF4847001A901ADC1C12046CB
:101EA0002946FEF715FC48F2011001A9C1C14FF007
:101EB00090402946FEF70CFC20462946CDE90187D3
:101EC000CDE90366FEF704FC4FF090402946CDE9CA
:101ED0000197CDE90366FEF7FBFB07B0BDE8F08391
:101EE00080B540F27C0045F20041C2F20000C4F22D
:101EF000000140F61A120023C2F210024FF0010C4A
:101F000080E80E10C0E90433C0E906330362FEF72F
:101F100025FD002818BFFEF7C1FB40F27C00C2F28D
:101F200000000021FEF7D0FC002818BFFEF7B6FB2A
:101F300040F27C00C2F200000021FEF7EBFC00281A
:101F400008BF80BDBDE88040FEF7A8BBFEE70000EB
:101F5000FEE7000010B500200021002400F0F0F999
:101F60000020102100F0ECF90020B02100F0E8F989
:101F70004020002100F0E4F9601C44B2B4F1FF3FBE
:101F8000F6DC00200021002400F0DAF90020102106
:101F900000F0D6F90020B12100F0D2F94020002154
:101FA00000F0CEF9601C44B2B4F1FF3FF6DC002033
:101FB0000021002400F0C4F90020102100F0C0F935
:101FC0000020B22100F0BCF94020002100F0B8F957
:101FD000601C44B2B4F1FF3FF6DC00200021002475
:101FE00000F0AEF90020102100F0AAF90020B32182
:101FF00000F0A6F94020002100F0A2F9601C44B2D4
:10200000B4F1FF3FF6DC10BD80B56420FEF74CFB59
:102010000020AE2100F094F90020D52100F090F9C5
:102020000020802100F08CF90020A82100F088F920
:1020300000201F2100F084F90020D32100F080F956
:102040000020002100F07CF90020402100F078F908
:1020500000208D2100F074F90020142100F070F9A7
:102060000020A12100F06CF90020C82100F068F9DF
:102070000020DA2100F064F90020002100F060F96E
:102080000020812100F05CF900208F2100F058F938
:102090000020D92100F054F900201F2100F050F950
:1020A0000020DB2100F04CF90020402100F048F92D
:1020B0000020A42100F044F9FFF74CFF0020AF21DD
:1020C00000F03EF96420BDE88040FEF7EDBA000064
:1020D00010B58AB040F27004C2F2000421790020E9
:1020E000C829CDE90800CDE90600CDE90400CDE915
:1020F0000200019000903ED321782071022922D065
:10210000012916D059BB607818B100206070FFF724
:1021100021FF44F65240C0F24400079045F64F704C
:10212000C4F65770069044F24850C4F64C400590EF
:1021300015E06078012803D001206070FFF70AFFE6
:10214000E28811A108E06078022803D002206070C4
:10215000FFF700FFA27809A105A8FEF761F805AA1C
:1021600000200021102300F0CBF86A460020022155
:10217000102300F0C5F80AB010BD00BF4B45593A16
:10218000253033640000000054696D653A25303510
:10219000640000002DE9F0410C46064640B20028DC
:1021A00044BF0234002606F00F08002041461F46B7
:1021B000A2F1200500F0C4F8300900F1100600205B
:1021C000314600F0BDF8A4F15000C1B2002000F08B
:1021D000B7F8102FE8B26CD142F224750701C0F6AF
:1021E0000005E95D402000F0ABF8781C295C402038
:1021F00000F0A6F8B81C295C402000F0A1F8F81CFB
:10220000295C402000F09CF8381D295C402000F03B
:1022100097F8781D295C402000F092F8B81D295CE1
:10222000402000F08DF8F81D295C402000F088F86F
:102230000020414600F084F80020314600F080F88C
:10224000A4F14F00C1B2002000F07AF807F10800B5
:10225000295C402000F074F807F10900295C402057
:1022600000F06EF807F10A00295C402000F068F8E1
:1022700007F10B00295C402000F062F807F10C0028
:10228000295C402000F05CF807F10D00295C40203B
:1022900000F056F807F10E00295C402000F050F8DD
:1022A00007F10F00284401784020BDE8F04100F01C
:1022B00047B842F2FC4200EB4000C0F6000212F8C0
:1022C000101002EB4007402000F03AF87978BC7813
:1022D000FD783E79402000F033F84020214600F0A0
:1022E0002FF84020294600F02BF84020314600F01E
:1022F00027F8781D01784020BDE8F04100F020B8B3
:102300002DE9F04115461278002A08BFBDE8F0819A
:1023100098460E4607460024F8B2F1B2D2B24346C0
:10232000FFF738FF0837F8B201347828E0B288BFE9
:1023300002362A5C88BF0027002AEDD1BDE8F08173
:1023400080B582B08DF8060040F27C008DF8071051
:102350004FF00A0CC2F200000DF1060278210223B0
:10236000CDF800C0FEF74CFB02B080BD7047000006
:102370007047000080B5FEF7C5FC40F27300C2F262
:102380000000017809299CBF013101704178C729FB
:102390009CBF0131417040F27600C2F2000001881A
:1023A0000131018080BD000070470000FEE70000A1
:1023B0009AB0FEF7B5FC08AC201D4421FEF744F8A6
:1023C000002540F20040CDE90655CDE90455CDE9A0
:1023D0000255C5F600000168012262F34A2101603E
:1023E000006800F4C0600190019820200890B0209F
:1023F000CDE91025CDE912052046FEF7A9FF20B151
:10240000EFF3108072B600BFFEE74F20CDE9020562
:1024100002A80221CDE90455CDE90655FEF712FECA
:1024200018B1EFF3108072B6FEE7FFF703FDFFF778
:1024300057FDFEF7E9F800BFFFF74AFEFFF746FC3D
:10244000FAE730380A2801D201207047002070478F
:1024500010B5FEF7D3F84FF00001016010BD040085
:102460000008000000000000000200010000100051
:102470000000000001000000020000000100000058
:102480000300000005000000010000000100000042
:10249000060000000A00000020000000020000000A
:1024A00004000000080000001000000040000000D0
:1024B000800000000001000000020000A086010072
:1024C000400D0300801A060000350C0040420F004A
:1024D00080841E0000093D0000127A000024F400F0
:1024E00000366E010048E801006CDC0200000000CC
:1024F00000000000000000000000000000000000DC
:1025000000000000002F000000000700070000147A
:102510007F147F1400242A7F2A1200626408132388
:1025200000364955225000000503000000001C221F
:102530004100000041221C000014083E081400085D
:10254000083E0808000000A060000008080808080D
:10255000000060600000002010080402003E5149A5
:10256000453E0000427F4000004261514946002143
:1025700041454B31001814127F100027454545395D
:10258000003C4A49493000017109050300364949B8
:10259000493600064949291E000036360000000071
:1025A00056360000000814224100001414141414BC
:1025B0000000412214080002015109060032495965
:1025C000513E007C1211127C007F49494936003E81
:1025D00041414122007F4141221C007F494949413C
:1025E000007F09090901003E4149497A007F080836
:1025F000087F0000417F4100002040413F01007FF3
:1026000008142241007F40404040007F020C027FBE
:10261000007F0408107F003E4141413E007F0909D0
:102620000906003E4151215E007F091929460046F6
:10263000494949310001017F0101003F4040403FCD
:10264000001F2040201F003F4038403F0063140817
:1026500014630007087008070061514945430000F2
:102660007F41410000552A552A55000041417F0015
:10267000000402010204004040404040000001020A
:102680000400002054545478007F484444380038F3
:102690004444442000384444487F0038545454187B
:1026A00000087E0901020018A4A4A47C007F08048D
:1026B00004780000447D4000004080847D00007F5D
:1026C000102844000000417F4000007C041804787A
:1026D000007C0804047800384444443800FC242476
:1026E00024180018242418FC007C0804040800485E
:1026F0005454542000043F444020003C4040207C7F
:10270000001C2040201C003C4030403C004428106D
:102710002844001CA0A0A07C004464544C44141421
:102720001414141400000000000000000000000059
:1027300000000000000000F800000000000000336E
:102740003000000000100C06100C06000000000015
:102750000000000040C07840C0784000043F0404FE
:102760003F040400007088FC08300000001820FFBF
:10277000211E0000F008F000E018000000211C03FA
:102780001E211E0000F00888700000001E21232476
:102790001927211010160E00000000000000000094
:1027A00000000000000000E0180402000000000724
:1027B0001820400000020418E0000000004020182B
:1027C00007000000404080F0804040000202010FFE
:1027D00001020200000000F0000000000101011FE2
:1027E00001010100000000000000000080B0700046
:1027F00000000000000000000000000000010101D6
:102800000101010100000000000000000030300064
:10281000000000000000000080601804006018063E
:102820000100000000E010080810E000000F102078
:1028300020100F00001010F8000000000020203FC2
:10284000202000000070080808887000003028244C
:1028500022213000003008888848300000182020ED
:1028600020110E000000C02010F800000007042412
:10287000243F240000F80888880808000019212057
:1028800020110E0000E0108888180000000F1120B1
:1028900020110E0000380808C83808000000003F6A
:1028A000000000000070880808887000001C2221C9
:1028B00021221C0000E010080810E0000000312276
:1028C00022110F00000000C0C00000000000003016
:1028D0003000000000000080000000000000806068
:1028E00000000000000080402010080000010204E9
:1028F00008102000404040404040400004040404D0
:10290000040404000008102040800000002010088B
:1029100004020100007048080808F00000000030C0
:1029200036010000C030C828E810E000071827244E
:1029300023140B000000C038E0000000203C2302FC
:102940000227382008F8888888700000203F20205F
:1029500020110E00C0300808080838000718202091
:102960002010080008F808080810E000203F202088
:1029700020100F0008F88888E8081000203F202069
:102980002320180008F88888E8081000203F20005D
:1029900003000000C0300808083800000718202095
:1029A000221E020008F808000008F808203F210154
:1029B00001213F20000808F8080800000020203FFF
:1029C0002020000000000808F8080800C08080806F
:1029D0007F00000008F888C028180800203F200168
:1029E0002638200008F8080000000000203F2020C2
:1029F0002020300008F8F800F8F80800203F003FD9
:102A0000003F200008F830C00008F808203F2000F0
:102A100007183F00E01008080810E0000F10202001
:102A200020100F0008F808080808F000203F2101D6
:102A300001010000E01008080810E0000F1824242D
:102A400038504F0008F8888888887000203F2000A0
:102A5000030C302000708808080838000038202156
:102A600021221C00180808F8080818000000203F60
:102A70002000000008F808000008F808001F2020C7
:102A800020201F000878880000C838080000073898
:102A90000E010000F80800F80008F800033C0700E9
:102AA000073C0300081868808068180820302C0351
:102AB000032C30200838C800C83808000000203F28
:102AC0002000000010080808C83808002038262117
:102AD00020201800000000FE020202000000007F1B
:102AE00040404000000C30C0000000000000000129
:102AF0000638C00000020202FE0000000040404014
:102B00007F00000000000402020204000000000038
:102B100000000000000000000000000080808080B5
:102B2000808080800002020400000000000000009D
:102B30000000000000008080808000000019242236
:102B400022223F2008F8008080000000003F112072
:102B500020110E000000008080800000000E112077
:102B600020201100000000808088F800000E112055
:102B700020103F200000808080800000001F222263
:102B800022221300008080F0888888180020203FCF
:102B9000202000000000808080808000006B9494E2
:102BA0009493600008F8008080800000203F21009E
:102BB00000203F2000809898000000000020203F67
:102BC00020200000000000809898000000C0808055
:102BD000807F000008F8000080808000203F2402F1
:102BE0002D302000000808F8000000000020203FE1
:102BF000202000008080808080808000203F200096
:102C00003F20003F8080008080800000203F210026
:102C100000203F200000808080800000001F2020D6
:102C200020201F00808000808000000080FFA12005
:102C300020110E000000008080808000000E112016
:102C400020A0FF80808080008080800020203F21A5
:102C50002000010000008080808080000033242458
:102C600024241900008080E0808000000000001F04
:102C7000202000008080000000808000001F2020B5
:102C800020103F20808080000080808000010E3076
:102C90000806010080800080008080800F300C03D7
:102CA0000C300F0000808000808080000020312EDA
:102CB0000E312000808080000080808080818E70B6
:102CC0001806010000808080808080000021302C68
:102CD0002221300000000000807C02020000000081
:102CE000003F404000000000FF0000000000000026
:102CF000FF0000000002027C800000000040403F16
:102D000000000000000601010202040400000000AF
:102D100000000000382D0008000000201000000016
:102D200074010008482D000810000020C8060000AB
:102D300090010008000000000100000010000000E9
:082D400000093D000000000045
:0400000508000139B5
:00000001FF
