:020000040800F2
:10000000D0070020E1010008E52A00085926000871
:10001000E12A00085D080008ED3500080000000036
:100020000000000000000000000000004D3000084B
:100030006108000800000000493000085130000845
:10004000FB010008FB010008FB010008FB010008A0
:10005000FB010008FB010008FB010008FB01000890
:10006000FB010008FB010008FB010008FB01000880
:10007000FB010008FB010008FB010008FB01000870
:10008000FB010008FB010008FB010008FB01000860
:1000900000000000FB010008FB010008FB01000854
:1000A000FB010008FB010008FB010008FB01000840
:1000B000FB010008FB010008FB010008FB01000830
:1000C000FB010008FB010008FB010008FB01000820
:1000D000FB010008FB010008FB010008FB01000810
:1000E000FB010008FB010008FB010008FB01000800
:1000F000FB0100080000000000000000FB010008F8
:10010000FB010008FB010008FB010008FB010008DF
:10011000FB010008FB010008FB010008FB010008CF
:10012000FB010008FB010008FB010008FB010008BF
:10013000FB010008FB01000800F002F800F041F8A4
:100140000AA090E8000C82448344AAF10107DA4532
:1001500001D100F036F8AFF2090EBAE80F0013F043
:10016000010F18BFFB1A43F001031847483E000077
:10017000683E0000103A24BF78C878C1FAD8520708
:1001800024BF30C830C144BF04680C607047000011
:100190000023002400250026103A28BF78C1FBD890
:1001A000520728BF30C148BF0B607047642900F078
:1001B000EB80002070471FB503F06EFA1FBD10B52D
:1001C00010BD00F05AFA1146FFF7F5FF03F010FAE0
:1001D00000F078FA03B4FFF7F2FF03BC00F080FAF6
:1001E0000948804709480047FEE7FEE7FEE7FEE7CB
:1001F000FEE7FEE7FEE7FEE7FEE7FEE70448054907
:10020000054A064B70470000853000083901000898
:10021000D0010020D0070020D0030020D003002010
:1002200053EA020C00F069802DE9F04B4FF0000614
:10023000002B1FBFB3FA83F503FA05F424FA05F681
:100240005E4012BF1643B2FA82F502FA05F4C5F118
:1002500020051EBF22FA05FC44EA0C04203556EAAC
:10026000044C4FEA144418BF641C4FF000084FF0D0
:100270000009904271EB030C39D3002919BFB1FA80
:1002800081F701FA07F6B0FA80F700FA07F6C7F12E
:1002900020071EBF20FA07FC46EA0C062037B6FBF3
:1002A000F4FCA7EB0507103F07F01F0BCBF120066E
:1002B0002CFA06F60CFA0BFB44BFB3460026202F9F
:1002C000A4BF5E464FF0000B5BEA060C08BF4FF080
:1002D000010B19EB0B0948EB0608ABFB027C06FB94
:1002E00002CC0BFB03CCC01B71EB0C01C1E70B462E
:1002F000024641464846BDE8F08B13B5084318BF97
:100300004FF0FF300146AFF30080BDE81C4070475E
:100310000FB41CB5074B06AA7B44694600900598AC
:1003200000F093F90020694600F0A2F91CBC5DF8CA
:1003300014FB00005503000070B504468569006891
:10034000C10601D5302600E02026C00707D070BDC9
:10035000D4E9012130469047206A401C20626D1E7E
:10036000F6D570BD70B5044685690078C00707D121
:1003700070BDD4E9012120209047206A401C2062F2
:100380006D1EF6D570BD00002DE9F0410646002433
:1003900010687529314616A510D0AFF300800028EB
:1003A00002DA404213A507E031688A0701D512A599
:1003B00002E0490704D511A5012401E0AFF3008054
:1003C00000210A2206F1240709E0B0FBF2FCB0FB91
:1003D000F2F302FB1C00303078541846491C002808
:1003E000F3D123462A463046BDE8F04100F0CEB8AE
:1003F000000000002D0000002B0000002000000085
:100400002DE9F05F894604464FF0000ADFF824B179
:10041000FB44C0F820A02046E168884700287DD032
:10042000252806D0D4E901219047206A401C20628B
:10043000F1E700255F462046E16888472028064608
:1004400007DB312E05D2B81910F8200C08B105438E
:10045000F1E7A80701D525F00405C4F81CA0002782
:10046000C4F818A02A2E09D0304603F00EF938B38C
:1004700004EB8708303EC8F8186019E059F8041BEF
:10048000204604EB87029161E1688847012F064608
:1004900018D1E069002820DA25F020051DE0D8F801
:1004A000180000EB800006EB40003038C8F8180058
:1004B0002046E1688847064603F0E7F80028EED1B9
:1004C000012F0AD02E2E08D12046E16888477F1CD4
:1004D0000646022F45F02005C4DBA069002803DA98
:1004E000404245F00105A061E80701D025F0100564
:1004F000A6B1A6F14100192802D8203645F40065BE
:100500004A463146204625604D46FFF74FFE60B112
:10051000012807D0ED1D25F0070000E007E000F1FD
:10052000080978E705F1040975E730467AE7206A9B
:10053000BDE8F09F923200004FF0000200B5134674
:1005400094469646203922BFA0E80C50A0E80C50F3
:10055000B1F12001BFF4F7AF090728BFA0E80C50A4
:1005600048BF0CC05DF804EB890028BF40F8042B9D
:1005700008BF704748BF20F8022B11F0804F18BF0A
:1005800000F8012B70477047704770472DE9F0471E
:100590000D4699469246044600F1240801688806F3
:1005A00004D5E06921F01001216000E00120A8429B
:1005B00001DD471B00E00027A1697A1902EB090061
:1005C000081AA0612078C00602D42046FFF7B4FEC6
:1005D000002608E0D4E901211AF806009047206AB5
:1005E000401C761C20624E45F4DB2078C0060AD5FC
:1005F0002046FFF7A1FE06E0D4E901213020904714
:10060000206A401C2062381EA7F10107F4DC07E0D5
:10061000D4E9012118F805009047206A401C2062A7
:10062000281EA5F10105F3DC2046FFF79BFE20788C
:10063000000602D50220BDE8F0870120FBE700009C
:1006400001694A1C02610878704700B58FB0CDE996
:1006500001310021059105497944CDE90310114686
:100660006846FFF7CDFE0FB000BD0000E5FFFFFFBD
:100670000A6802F8010B0A607047754600F02CF812
:10068000AE4605006946534620F00700854618B07F
:1006900020B5FFF7B3FDBDE820404FF000064FF056
:1006A00000074FF000084FF0000BAC46ACE8C00963
:1006B000ACE8C009ACE8C009ACE8C00921F007010A
:1006C0008D46704710B50446AFF300802046BDE864
:1006D0001040FFF77FBD0000004870471000002069
:1006E00001491820ABBEFEE726000200704700005B
:1006F000004870471400002070B582B00446002006
:10070000019021688A68D20770D14FF6E876C7F663
:10071000FF76886806F12F0210420AD0A06D40F0E3
:100720001000A065E06D40F00100E065012002B01E
:1007300070BD8868304040F00100886042F2087067
:10074000C4F201000068000222D4607E01281CD09F
:1007500000F0E6FC21680A68D20716D1054602E0DF
:100760000868C00741D18868C00704D18868304054
:1007700040F00100886000F0D3FC401B2168032892
:10078000EED30868C007EBD1C8E7002002B070BD07
:1007900040F20800C2F20000006842F6635180098E
:1007A000C0F23E51A0FB0101012000EB911001902D
:1007B00001980028C9D000BF019801380190019824
:1007C0000028C2D001980138019001980028BCD0BF
:1007D00001980138019001980028B6D0019801389D
:1007E000019001980028E7D1AFE7002002B070BD6A
:1007F00070B586B002F0D2F900254C20CDE9035542
:10080000C5F6000001686C4641F002010160016814
:10081000032601F0020105910599016841F00101EB
:1008200001600068214600F001000590059808204D
:10083000009040F20040C4F60000CDE9016500F0F0
:1008400079FB4FF48050CDE900064FF090402146EF
:10085000029500F06FFB06B070BD0000FEE70000DF
:1008600070470000EFF3108072B600BFFEE7000093
:100870002DE9F04381B00022009290F85420012A23
:1008800004D10221084601B0BDE8F08301230268CB
:1008900080F8543093685B071AD44B680469022BC4
:1008A0001CD1042744F00403C8F20007BB4227D13F
:1008B0000B684FF6FF77D943C0F20307966A61EAE7
:1008C000070131409162B3F1FF3F1DDD0021FBE0E4
:1008D000816D41F0200181650121F5E044F0040CB7
:1008E0000424C8F20004A4452CD1D1F800E013463A
:1008F000744653F828CF6FF39F444CEA040C4BE046
:100900000B68B3F1FF3FE1DC42F20871C4F2010170
:1009100044F200070A68CBF60007BB4200F0B38040
:1009200042F20007CBF20047BB4200F0B08041F238
:100930000007CBF20007BB4240F0B2800B6802F028
:10094000A072A7E0D1F800E0066E03F01F0C0F24A0
:10095000D0F81C8004FA0CF4CEF384679EFAAEF54E
:1009600026EA04095FEA8E3618BFB5FA85F707FA5A
:100970000CF545EA0905B8EB930F05660ED9134649
:1009800053F8285FE4434FEA9E662C4006F00F05BB
:1009900005FA0CF744EA070CC3F800C089685369EC
:1009A0004FF6007701EA0E21C0F2FF3723EA0E234B
:1009B00039401943BEF1FF3F516101DD002183E061
:1009C00042F2087CC4F2010CDCF8003041F2000174
:1009D000CBF200018E4503F0E07208BF13F4000172
:1009E0001BD044F20001CBF600018E4508BF13F086
:1009F000807157D042F20001CBF200418E454FF09A
:100A0000000108BF13F480035ED1DCF8001021F070
:100A1000E071114341F480014BE0DCF8001021F05B
:100A2000E071114341F40001CCF8001040F20801DC
:100A3000C2F20001096842F663528909C0F23E52CF
:100A4000A1FB0212910901EB41010C2202EB810191
:100A50000091009989B3009901390091009971B30F
:100A6000009901390091009959B300990139009119
:100A7000009941B3009901390091009900294FF084
:100A80000001E8D120E00B6802F4400202E00B68AC
:100A900002F0C07223F0E0731A440A60002113E0F0
:100AA000002111E0DCF8001021F0E071114341F069
:100AB0008071CCF80010002106E0002104E0002144
:100AC00002E0002100E00021002280F854200846C6
:100AD00001B0BDE8F08300000068006C70470000C2
:100AE0002DE9F04182B004460020019044B1254632
:100AF00055F8580F40B121688868C0000FD540E014
:100B0000012002B0BDE8F081204600F025F9002068
:100B1000E06584F8540021688868C00031D4886892
:100B20004FF6E872C6F6FF72104000F18050886000
:100B300040F20800C2F20000006842F663528009E9
:100B4000C0F23E52A0FB02029009022202EB4000DA
:100B500001900198A8B100BF019801380190019857
:100B600078B1019801380190019850B1019801388D
:100B70000190019828B1019801380190019800284E
:100B8000EAD18868C00009D4A06D40F01000A065CB
:100B9000E06D40F00100E065012000E000208A687F
:100BA000C2F380022B6803F01003D2182A6806D023
:100BB00042F010010120296002B0BDE8F08122F46A
:100BC000817202322A608A68D2076FD1227ED4E90C
:100BD000023E667E43EA823394F81A80D4F810C04D
:100BE00043EAC63343EA4833266B4FF40017BCF19F
:100BF000000F43EA0E0348BF2CF0004794F82C2066
:100C0000002E18BF43F4805394F820603B43012E1C
:100C100043EA42030BD1B8F1000F00F09580A26DBA
:100C200042F02002A265E26D42F00102E265626AD2
:100C30002AB102F4E072A76A1A4342EA0703CA68BB
:100C400040F20127CFF6FE773A401A43CA60636844
:100C500094F83C20E76C012A03F0404242EA070284
:100C600009D1D4E91076D4F848E03A43324342EA55
:100C70000E0242F001020F694FF60246C1F6FF76FE
:100C800037403A43B3F1004F0A6118BFB3F1404F08
:100C90000ED0B3F1804F0BD042F20872C4F20102C1
:100CA00017689B0C63F39547176001E0D4F810C0F8
:100CB000D4E90D324F69BCF5001F27F0070747EA5A
:100CC00003074F614F6927F0700747EA02124A6134
:100CD00008D0BCF1000F18D10A4652F8287F67F0FF
:100CE0000F0C10E00A4652F8287FE7691C2606EB35
:100CF0008707D4F860C007F01C076FF00F0606FAEC
:100D000007F74CEA070CC2F800C0496901F0070177
:100D1000994209D10021E165A16D012262F301012F
:100D2000296002B0BDE8F081A06D40F0100020F015
:100D30000200A06554F85C0F40F001010120254637
:100D4000296002B0BDE8F08143F48033626A002A72
:100D50007FF46FAF73E7000080B586B00021CDE966
:100D60000311CDE90111006842F20042C4F2010210
:100D70009042009101D006B080BD4C20C5F6000025
:100D8000426942F400724261426902F400720592C3
:100D9000059A026842F002020260006800F0020058
:100DA00005900598102000900320CDE9010140F244
:100DB0000040C4F60000694600F0BCF806B080BDF3
:100DC000F0B581B0044640690D46082801D10827D6
:100DD00004E02068C068C00753D1042700F0A0F9E0
:100DE00021680A683A421BD0A06D40F40070A065EB
:100DF000C86810F4406F53D1A07E002850D1086815
:100E000000074DD58868400742D4486840F2011277
:100E100020F00C004860A06D90430130A0653FE0D9
:100E20000646681C29D065B900F07AF9216808687F
:100E300038420FD008683842F6D0D5E70868384203
:100E4000D2D100F06DF9801B2168A842F6D908685C
:100E50003842F3D1A06D40F00400A065002084F872
:100E60005400032001B0F0BD08683842BCD10868C6
:100E70003842B9D108683842B6D108683842F3D050
:100E8000B2E7A06D40F02000A065012001B0F0BDE8
:100E9000A06D40F02000A065E06D40F00100E0652D
:100EA000207E002804BF0C200860002001B0F0BDA7
:100EB00010B5044600688068400703D494F85400D5
:100EC000012801D1022010BD012084F854002046E1
:100ED000FFF712FC18B1002184F8541010BD2168EE
:100EE000A06D40F60172904300F58070A06500206F
:100EF0001C22E0650A6084F854008A684FF6E873A3
:100F0000C7F6FF731A4004328A6010BDB0B50446BC
:100F100000F006F9054640F20000C2F20000007839
:100F2000611C18BF044400BF00F0FAF8401BA04247
:100F3000FAD3B0BD2DE9F04F84B00E680390002EB7
:100F400000F0DF8040F600020398C4F600028E46EF
:100F500090424FF007004FF000044FF001074FF0B0
:100F600000054FF0000808BF02200090029148E001
:100F700040F20040C4F600008242009A08BF0122FD
:100F800002FA03F0082140EA0C00C4F2010141F822
:100F9000260040F60006C5F600063068DEF80410AC
:100FA00040EA0902CB0258BF20EA090232607068A9
:100FB0008B0240EA090258BF20EA09027260D6F8A3
:100FC0008000CB0340EA090258BF20EA0902C6F8B4
:100FD0008020D6F88400890340EA090258BF20EA3D
:100FE0000902C6F88420DEF8006008F1010836FA2C
:100FF00007F005F1020507F1010704F1040400F010
:101000008080A7F1010A012000FA0AF316EA030919
:10101000E9D0DEF804B00BF0030CACF10102012AB8
:101020001ED803984FEA480281680192032202FA0F
:1010300005F6029AB143D2F80CE0F6430EFA05F237
:101040001143DDF808E08160416899430346019847
:10105000CBF3001202FA0AF2114359600CE000BF10
:101060000320A840039BC643BCF1030F284603D1CD
:1010700028464FF0030C26E0D968DEF808203140FE
:1010800082401143BCF1020FD9601CD102466FF0BF
:10109000030000EA5A01194404F01C030F20D1F8A0
:1010A00020C000FA03FE1046029A2CEA0E0C1269C8
:1010B000DDF808E09A4042EA0C02039B0A62DEF87F
:1010C00004B00BF0030C19680CFA00F0314008432F
:1010D0001BF4403F18603FF486AF08204FEA9A06A1
:1010E000C4F2010050F8260004F00C030721039A13
:1010F0009940B2F1904F20EA010C7FF439AF002201
:101100003EE704B0BDE8F08F0069084018BF012039
:10111000704700001823002A08BF2823C1507047D9
:1011200040F2C810C2F200000068704790F84120F9
:10113000202A03D190F84020012A01D102207047D3
:10114000242280F841200268136823F00103136011
:10115000136823F4805313601368194311601168F6
:1011600041F001011160202180F84110002180F838
:10117000401008467047000090F84120202A03D113
:1011800090F84020012A01D102207047242280F8E3
:1011900041200268136823F001031360136823F4ED
:1011A000706343EA01211160116841F0010111608F
:1011B000202180F84110002180F840100846704737
:1011C000002804BF0120704710B5044690F8410084
:1011D00028B9002084F84000204600F07BF9242044
:1011E00084F8410094E80910E2680168012A21F0BE
:1011F0000101016023F070610161816821F4004107
:10120000816003D14CF40041816007E04CF404415B
:10121000022A816004BF4FF400614160416804F11B
:10122000100C41F0007141F400414160C16821F4AB
:101230000041C1609CE80E10114341EA0321C160E6
:10124000216A41EA0C010160016841F0010101607D
:1012500000202021606484F84110206384F842005B
:1012600010BD00002DE9F047044690F84100202809
:1012700003D194F84000012802D10220BDE8F08794
:1012800001201E461746884684F84000FFF748FFB5
:10129000216805468A6912040AD500BFFFF740FF9E
:1012A000401B192800F2F580216888690004F5D4F4
:1012B000212084F84100102084F84200002060645E
:1012C000676266856063608D49F6004940F2000CF4
:1012D000CFF60049B0F5807FC0F2FF1C0DD30A465F
:1012E00052F8047F4346A9F580666FF39F23374089
:1012F0001F430CF50056FF2310E0638D0A46474656
:1013000052F8040F6FF39F275FFA83FEA9F58066FA
:10131000304047EA0E4707430CF5903647EA06008F
:1013200010602385608D089E002800F08F806FF389
:101330009F2808F1007A701C48EA0C074FF0FF085C
:1013400051D10BE0A4F82880084650F8042F02EA97
:1013500009023A430260608D002877D020464FF0A2
:10136000FF312A4601F02EFA002840F09E80606A84
:10137000216810F8012B8A626062608D01386085F7
:10138000208D421E2285608D1204E4D10028E2D017
:10139000886900065FBF88695FEA006088695FEA64
:1013A000006003D488690006F2D500BF608DFF2875
:1013B000C8D8628D0846228550F8043FD2B203EAAD
:1013C00009034AEA02421A43C4E7628D08462285AD
:1013D00050F8043FD2B203EA09034AEA02421A4330
:1013E0000260608D90B3204631462A4601F0EAF94A
:1013F00000285AD1606A216810F8012B8A62606265
:10140000608D01386085208D421E2285608D12041A
:10141000E7D10028E5D0886900060AD4BEB300BF32
:10142000FFF77EFE401BB04233D821688869000672
:10143000F6D5608DB0F5807FC7D3A4F82880084624
:1014400050F8042F02EA09023A43C9E7886900F01C
:1014500020008EB160BB00BF204631462A4601F015
:10146000FDF810BBFFF75CFE401BB04211D82168AD
:1014700088698006F0D51BE0D0B9204600212A46B5
:1014800001F0ECF800281CBF0120BDE8F087FFF751
:1014900047FE606C40F020006064202084F841002A
:1014A000002084F8420084F840000120BDE8F08765
:1014B0002020C8614A684EF60003CFF600631A4048
:1014C0004A6084F84100002084F8420084F840001B
:1014D000BDE8F08710B594B0044600201290CDE925
:1014E0001000CDE90E0068463821FFF725F8206886
:1014F00045F20041C4F20001884201D014B010BD91
:10150000402000904FF440300590684600F0C6F847
:10151000002818BFFFF7A6F94C24C5F60004206880
:101520000EA940F002002060206800F00200139035
:101530001398C0200E9012200F900020CDE91000CB
:101540000420129040F20040C4F60000FFF7F2FCC5
:10155000E06840F40010E060E06800F400101390D0
:10156000139814B010BD000040F2000040F2C81102
:10157000C2F20000C2F2000100780A68104408605C
:101580007047000080B5032000F066F800F088FA8C
:1015900040F20801C2F2000108600F2000F008F8D4
:1015A00000281CBF012080BD00F028F8002080BD6D
:1015B00070B540F20006C2F200063178D1B104469F
:1015C00000F06EFA31784FF47A72B2FBF1F1B0FBB1
:1015D000F1F000F0D5FE0F2C4FF0010508D838B916
:1015E0004FF0FF3021460022002500F009F874601A
:1015F000284670BD0125284670BD000070470000D8
:1016000010B54EF60C5CCEF2000CDCF80030C3F3E3
:10161000022E8EF00704042C28BF0424BEF103031D
:101620004FF0FF3E0EFA04F438BF0023A143994067
:101630000EFA03F39A4300F00F03043B1143634493
:1016400009010C3300F16042B0F1FF3FC8BF02F561
:101650006443197010BD00004EF60C51CEF200012B
:101660000A684FF6FF031A4060F30A2242F08060D6
:1016700040F0FD700860704740F20040C5F6000081
:10168000006800F4C060704740F20040C5F60000FA
:10169000016841F48071016070470000F0B581B0CD
:1016A000044680788826C007C5F6000600F0A980A9
:1016B000FFF7EAFFFFF734FD054600BFD6F87803D1
:1016C000C00575D4FFF72CFD401B0228F6D9032076
:1016D0002168CA0700F09A806268336823EA1243DF
:1016E00092B21A4332608A0740F19380A26833684D
:1016F00023EA124392B21A4332608A0640F18C8088
:101700002269336823F440631A4332608A0540F14A
:101710008680226A33684FF6FF7767EA02073B400C
:1017200043EA024232604A057CD5626A33684FF66A
:10173000FF7767EA02073B4043EA024232600A054C
:1017400072D5A26A33684FF6FF7767EA02073B401B
:1017500043EA024232604A0668D5626933686FF430
:101760007F2767EA12173B4002F47F4243EA0212E6
:1017700032600A065CD5A26933686FF47F2767EA96
:1017800012173B4002F47F4243EA02123260CA055C
:1017900050D5E26933686FF47F2767EA12173B4040
:1017A00002F47F4243EA02123260CA0654D543E093
:1017B000B168606B01F4407181421DD0B168B268BC
:1017C00021F4407342F48032B260B268890722F497
:1017D00080320146B260B3600ED5FFF7A1FC05462A
:1017E00041F28837B068800705D4FFF799FC401BA9
:1017F000B842F7D96BE7616BB06820F440700843DA
:10180000B06000202168CA077FF466AF8A073FF501
:101810006DAF8A063FF574AF8A053FF57AAF4A058A
:101820003FF583AF0A058CD44A0696D40A06A2D4A3
:10183000CA05AED4CA060FD5E2683368B2F5807F18
:1018400023F4407343EA0203336005D156F87C2C3D
:1018500042F0807246F87C2C0A0407D5226B33686C
:1018600023F0404343EA0203336092B1490418D5A0
:10187000E16A3268B1F1005F22F0405242EA0102AF
:1018800032600ED156F87C1C41F4803146F87C1C45
:1018900007E056F87C2C42F0807246F87C2C490414
:1018A000E6D401B0F0BD00002DE9F04381B000287E
:1018B00000F0AF8044F20008C5F600080546D8F8ED
:1018C00000000C4600F00700884215D2D8F800004E
:1018D00020F007002043C8F80000FFF721FC06466F
:1018E000D8F8000000F00700A04205D0FFF718FC70
:1018F000801B0228F4D95BE0286808278107C5F619
:10190000000713D5A868396821F0F0010843386052
:10191000FFF706FC064600BF3868C00305D4FFF792
:10192000FFFB801B0228F7D942E02868410616D544
:101930006869D7F8001121F00F0141EA1010C7F8CB
:101940000001FFF7EDFB0646D7F80001C00305D400
:10195000FFF7E6FB801B0228F6D929E0286841073B
:1019600012D5E868396821F4E06108433860FFF770
:10197000D7FB06463868800305D4FFF7D1FB801BF0
:101980000228F7D914E02868010716D528693968B4
:1019900021F4605141EAC0003860FFF7C1FB064600
:1019A0003868400308D4FFF7BBFB801B0228F7D937
:1019B000032001B0BDE8F0832868C0071ED1D8F825
:1019C000000000F00700A04227D9D8F8000020F05E
:1019D00007002043C8F80000FFF7A2FB054600BF40
:1019E000D8F8000000F00700A04216D0FFF798FBDF
:1019F000401B02284FF00300F2D945E068684FF021
:101A0000B04130B3032842D0022844D10968890389
:101A100022D4012001B0BDE8F08300F08BF83968D2
:101A20003C2202EA910143F2C462C0F6000251581E
:101A300040F20802B0FBF1F140F20400C2F20000F3
:101A40000068C2F20002116001B0BDE8F043FFF788
:101A5000AFBD09688907DCD5396821F00301084367
:101A60003860FFF75DFB064641F2883938686968DF
:101A700000F00C00B0EB810FA1D0FFF751FB801BF1
:101A800048454FF00300F1D901B0BDE8F083096883
:101A90008901BED5E0E709684905BAD5DCE7000051
:101AA00080B500F047F80821C5F6000109683C221E
:101AB00002EA910143F2C462C0F600025158B0FB41
:101AC000F1F080BD80B500F035F80821C5F60001C1
:101AD0000A683C2303EA920243F2C463C0F600039F
:101AE0009A580968B0FBF2F043F20472C1F3022184
:101AF000C0F6000252F82110C84080BD80B500F049
:101B000019F80821C5F600010A683C2303EA92028D
:101B100043F2C463C0F600039A580968B0FBF2F0C0
:101B200043F20472C1F3C221C0F6000252F8211040
:101B3000C84080BD0C21C5F6000151F8040C10F01E
:101B40000C02086805D00C2A17D100F00300012808
:101B500013D14FF0B040036800681B0700F0080085
:101B600004D4E0B14FF0B04000681FE0E0B14FF0A6
:101B7000B0400068C0F3031019E042F20040042AAC
:101B8000C0F2F4001FD0082A1CD14FF0B0421268F6
:101B9000D2025CBF44F60000C0F2E81013E0D1F8B6
:101BA0008800C0F3032002E0D1F88800002043F24F
:101BB0002473C0F6000353F82030002A184618BFDB
:101BC000002001E00020002351F8042C02F00C0258
:101BD0000C2A18BF7047086800F0030242F2004068
:101BE000022AC0F2F4000AD0032A09D14FF0B04211
:101BF0001268D2025CBF44F60000C0F2E81003464F
:101C00000868C0F306200A685843C2F30212013282
:101C10000968B0FBF2F0012202EB5171B0FBF1F068
:101C2000704700002DE9F04F81B0002800F01A83C2
:101C300040F2900B0446C5F6000B5BF8880C5BF88D
:101C4000841C227800F00C08900601F0030A29D4C5
:101C50002078C0075BD0B8F1080F54D0B8F10C0F52
:101C600008BFBAF1030F4ED04FF0B0400168D4E97D
:101C7000015221F480111143B5F5803F016009D074
:101C8000B5F5041F40F02D824FF0B0410A6842F4D0
:101C900000120A60016841F480310160FFF740FAE8
:101CA00005462DE2B8F1000F1ED0B8F10C0F08BFA9
:101CB000BAF1010F18D0216A4FF0B0463068002900
:101CC00000F0608140F001003060FFF729FA05461E
:101CD0003068800700F17D81FFF722FA401B02285F
:101CE0004FF00300F4D947E3206A002800F0BA82DD
:101CF0004FF0B041A06A0A68120700F1CC80DBF80F
:101D000004100909C8E06068002800F0AB82207860
:101D100080072DD5B8F1040F1DD0B8F10C0F08BF06
:101D2000BAF1020F17D021694FF0B0463068002990
:101D300000F0008240F480703060FFF7F1F9054652
:101D4000306840050BD4FFF7EBF9401B02284FF039
:101D50000300F5D910E32069002800F08382606950
:101D60005BF88C1C21F0FE4141EA00604BF88C0CC2
:101D70002078000729D42078400750D4E56A002D48
:101D800000F0AC82B8F10C0F40F03981012D00F069
:101D900069825BF8840C216B00F003028A4240F0F8
:101DA0006182616B00F070028A4240F05B82A16B3D
:101DB00000F4FE42B2EB012F40F05482616C00F05F
:101DC0006040884240F04E8288E2A069DBF804104F
:101DD000002800F0E980E06901F01002904200F074
:101DE000B68201F00302022A00F03C82C90700F02B
:101DF000A782DBF8040020F00100CBF80400FFF715
:101E00008FF90546DBF80400800740F19882FFF760
:101E100087F9401B11284FF00300F3D9ACE2DBF83F
:101E20007003C00510D4FFF72FFCFFF779F90546C2
:101E3000DBF87003C00507D4FFF772F9401B0228D6
:101E40004FF00300F4D997E2E068002800F08481A5
:101E5000852801D0052805D1DBF8000040F00400FA
:101E6000CBF80000FFF75CF9DBF80010054641F005
:101E7000010041F28836CBF8000000BFDBF800001B
:101E8000800700F10F81FFF74BF9401BB0424FF084
:101E90000300F3D970E2096801F0F00143F2C4696C
:101EA0008842C0F600092CD93C2101EA900043F297
:101EB0002471DBF87820C0F60001085802F00F0109
:101EC00059F82110B0FBF1F5FFF7D6FBB0F5007F14
:101ED00040F0B8804EF6BF20C0F22110854240F29B
:101EE000DD8049F23F30C0F23420854240F24E811D
:101EF0004AF63F60C0F2EB20854240F2B7800026F0
:101F00004BE14FF0B0410A6842F008020A600A68EB
:101F100022F0F00202430A60616A5BF88C2C22F422
:101F20007F4242EA01214BF88C1C3C2101EA9000DF
:101F300043F22471DBF87820C0F60001085802F063
:101F40000F0159F82110B0FBF1F5FFF795FBB0F543
:101F5000007F40F08D804EF6BF20C0F221108542F8
:101F600040F29E8049F23F30C0F23420854240F278
:101F70005C814AF63F60C0F2EB20854240F28C80E3
:101F8000002659E120F001003060FFF7C9F805464E
:101F9000306880077FF55CAEFFF7C2F8401B02286F
:101FA0004FF00300F4D9E7E121F00100CBF8040081
:101FB000FFF7B6F8054600BFDBF8040080077FF5A1
:101FC000DAAEFFF7ADF8401B11284FF00300F3D94C
:101FD000D2E14FF0B040016841F0080101600168B2
:101FE000D4E9093221F0F001114301605BF88C0C57
:101FF00020F47F4040EA03204BF88C0C28E64FF099
:10200000B046306820F080703060FFF789F8022D0C
:1020100005460BD13068800140F12881FFF780F838
:10202000401B0A284FF00300F4D9A5E13068800175
:1020300040F14B81FFF774F8401B0A284FF0030072
:10204000F4D999E14CF6BF70C0F26A00854225D9F7
:1020500045F63F50C0F2C600854240F2978046F2F6
:102060003F60C0F2031085423FF649AF02208EE088
:102070004CF6BF70C0F26A00854211D945F63F5058
:10208000C0F2C600854240F2D08046F23F60C0F206
:10209000031085423FF674AF0220C7E0002076E0CF
:1020A0000020C3E0E06840F00400852840F01A8179
:1020B000FFF736F8DBF80010054641F0800041F2EA
:1020C0008836CBF8000000BFDBF8000000053FF5C4
:1020D00055AEFFF725F8401BB0424FF00300F3D98F
:1020E0004AE14FF0B046306820F48030306030680C
:1020F00020F400103060FFF713F8002D054615D0CE
:102100004FF0B046306880033FF501AEFFF708F8A6
:10211000401B64284FF00300F4D92DE1FFF700F8CD
:10212000401B64284FF0030000F2268130688003D2
:10213000F4D4ECE520F480703060FEF7F1FF054642
:10214000306840057FF514AEFEF7EAFF401B022819
:102150004FF00300F4D90FE1FEF7E2FFDBF80010C7
:10216000064621F0800041F28837CBF8000000BF1E
:10217000DBF80050FEF7D4FF2905054640F1CA8080
:10218000A81BB8424FF00300F2D9F5E0012043F25A
:10219000B861C0F6000151F8206044F20007C5F6AE
:1021A0000007386820F0070030433860FEF7B8FFBA
:1021B000054600BF386800F00700B04205D0FEF7C2
:1021C000AFFF401B0228F5D94CE04FF0B04001684A
:1021D00041F0080101600168D4E9093221F0F00101
:1021E000114301605BF88C0C20F47F4040EA03202F
:1021F0004BF88C0CFFF79EFC5BF8881C3C2202EA33
:10220000910159F8011040F20802B0FBF1F140F2DF
:102210000400C2F200000068C2F200021160FFF781
:10222000C7F9002840F0A88012E5012043F2B86108
:10223000C0F6000151F8206044F20007C5F600071F
:10224000386820F0070030433860FEF769FF054624
:10225000386800F00700B042CCD0FEF761FF401BA9
:102260000228F5D9012001B0BDE8F08F5BF8840C9D
:1022700048F28C01C1F2C11104F1300708408ECF41
:10228000D4E910650843104340EA03203843304343
:1022900028434BF8840C4FF0B045286840F080701C
:1022A00028605BF8840C40F080504BF8840CFEF7FB
:1022B00037FF04462868800110D4FEF731FF001B69
:1022C0000A284FF00300F5D956E05BF8840C4FF66E
:1022D000FC71CEF6FE6108404BF8840C002001B082
:1022E000BDE8F08FFEF71CFFDBF80010054621F07B
:1022F000800041F28836CBF80000DBF800000005D2
:102300007FF53CADFEF70CFF401BB0424FF00300E1
:10231000F3D931E0DBF8000041F2883620F001000B
:10232000CBF80000DBF8000080077FF527ADFEF753
:10233000F7FE401BB0424FF00300F3D91CE0E06908
:10234000DBF8041021F010010843CBF80400DBF89F
:10235000040040F00100CBF80400FEF7E1FE054662
:10236000DBF8040080073FF506ADFEF7D9FE401B01
:1023700011284FF00300F3D901B0BDE8F08F000041
:10238000411E0020B0EB116F1CBF012070474EF2C0
:102390001002CEF2000251604EF62351CEF200013F
:1023A000F0230B70072190601160704790F8841043
:1023B000012904BF022070472421C0F88810026858
:1023C0001168136823F00103136021F0005300210A
:1023D000416613602022C0F8882080F884100846E7
:1023E00070470000B0B590F88420012A04BF022095
:1023F000B0BD0123242280F88430C0F88820026810
:10240000D0F864E0D2F800C01468BEF1000F24F0E8
:1024100001041460946824F0606441EA040191604E
:1024200019D0916843F28C7EC1F342619368C0F683
:10243000000E5B0F43F294751EF80340C0F60005D2
:10244000EB5CE400B4FBF3F31EF80140695CE500CB
:10245000B5FBF1F100E00121A0F868102021A0F8FF
:102460006A30C2F800C0C0F88810002180F88410DB
:102470000846B0BDB0B590F88420012A04BF022000
:10248000B0BD0123242280F88430C0F8882002687F
:10249000D0F864E0D2F800C01468BEF1000F24F058
:1024A00001041460946824F0604441EA04019160DE
:1024B00019D0916843F28C7EC1F342619368C0F6F3
:1024C000000E5B0F43F294751EF80340C0F6000542
:1024D000EB5CE400B4FBF3F31EF80140695CE5003B
:1024E000B5FBF1F100E00121A0F868102021A0F86F
:1024F0006A30C2F800C0C0F88810002180F884104B
:102500000846B0BDB0B582B0B0B10446D0F888007E
:1025100028B9002084F88400204600F057F82420D1
:10252000C4F888002068016821F00101016020469C
:1025300000F01EFE012802D1012002B0B0BDA06A49
:1025400010B1204600F0A0FD2068416821F49041C0
:102550004160816821F02A018160016841F0010138
:1025600001600020C4F89000FEF7DAFD21680546FE
:102570000A6812070CD56FF07E4C20464FF400110C
:1025800000222B46CDF800C000F026FF78B9216864
:10259000086840070ED56FF07E4C20464FF480014E
:1025A00000222B46CDF800C000F016FF10B103202A
:1025B00002B0B0BD2020C4F88800C4F88C00002010
:1025C000E066206784F8840002B0B0BD10B594B016
:1025D000044600201290CDE91000CDE90E006846B7
:1025E0003821FDF7A9FF206844F20041C4F2000140
:1025F000884201D014B010BD4FF440200224029054
:1026000068460094FFF74AF8002818BFFEF72AF939
:102610004C20C5F60000C16841F40031C160C168BA
:1026200001F4003113911399016841F00101016037
:1026300000680EA900F00100139013980C20CDE95A
:102640000E040020CDE91000072012904FF09040BA
:10265000FEF770FC14B010BDFEE7000070B5044634
:10266000006815468369DA0602D4002100226AE078
:102670000E461021C1618169890660D4711C54D055
:1026800046BBFEF74DFD2068426894F842308169F0
:10269000202B0DD012F480420AD111F4004107D052
:1026A000416841F480414160FEF73AFD054600BFB4
:1026B00020688169890605D4FEF732FD401B1A287F
:1026C000F6D32AE081698906DBD538E02068816984
:1026D000890634D4FEF724FD401BB042F6D92068A9
:1026E000426894F842308169202B0DD012F4804268
:1026F0000AD111F4004107D0416841F480414160A2
:10270000FEF70EFD054600BF206880698006DDD417
:10271000FEF706FD401B1A28F6D3206801228169C6
:10272000242110E08169890609D48169890606D4CB
:10273000816989065CBF81695FEA8161F2D52021E8
:10274000C161012204218369DE0506D45E050CD433
:102750009B0512D4B2B9002070BD4FF4807241F0D5
:102760000101C26101225E05F2D54FF4806241F0A1
:102770000801C26101229B05ECD541F002014FF432
:102780000072C2618269920744BF0022826282693C
:10279000D20703D1826942F00102826142684EF69B
:1027A0000003CFF600631A404260606C0843606427
:1027B000202084F84100002084F8420084F8400082
:1027C000012070BD70B5044600688069800710D490
:1027D00015460E4609B3701C17D100BF20464FF0B6
:1027E000FF312A46FFF73AFFE8B920688069800781
:1027F000F4D5002070BD00BFFEF792FC401BB04234
:1028000015D8206880698007F3D4204631462A46CF
:10281000FFF724FF0028EFD005E0204600212A46DC
:10282000FFF71CFF08B1012070BDFEF779FC606C5A
:1028300040F020006064202084F84100002084F8EB
:10284000420084F84000012070BD000010B540F245
:102850007004C2F20004E0780A2846D30020E07039
:102860004FF090404FF48071FEF74EFC60B140F2A3
:102870000040C4F600004FF48071FEF745FCB0FA4A
:1028800080F04009400000E00120A27AA07220EA16
:10289000020182430229217262720CD0012924D1E3
:1028A0002078052821D8DFE800F015181B030F1247
:1028B0000420207010BD2078052888BF10BDDFE8F7
:1028C00000F00306090C0F120520207010BD002037
:1028D000207010BD0120207010BD0220207010BD9E
:1028E0000320207010BD0420207010BD10B584B0EE
:1028F00040F27C0042F20041C2F20000C4F2010149
:1029000000244FF08042042380E816000121039444
:10291000CDE90144C0E90344436104838476C16185
:1029200080F82040C0E9094480F82C40C0E90C43FD
:10293000836380F83C40C464FEF7D2F8002818BFD7
:10294000FDF790FF0820C0F60040CDE9010440F2F9
:102950007C00C2F2000001A90394FDF789FF002862
:1029600018BFFDF77FFF04B010BD0000F0B587B0C1
:1029700000264C200596C5F60000016840F2004490
:1029800041F0020101600168C4F6000401F0020197
:10299000069106990168012241F001010160006879
:1029A00041F2240100F0010006900698204641F211
:1029B00024050127FEF7AEFBCDE9015701AD204606
:1029C0002946CDE90366FEF7B5FA4FF48077204635
:1029D0002946CDE901760396FEF7ACFA4FF0904018
:1029E0002946CDE901760396FEF7A4FA07B0F0BDBB
:1029F00080B540F2E00045F20041C2F20000C4F2AE
:102A0000000141F64B120023C0F290024FF0010C7E
:102A100080E80E10C0E90433C0E906330362FEF714
:102A2000CFFB002818BFFDF71DFF40F2E000C2F207
:102A300000000021FEF77AFB002818BFFDF712FF07
:102A400040F2E000C2F200000021FEF795FB0028F2
:102A500008BF80BDBDE88040FDF704BF80B540F2EF
:102A6000341044F20041C2F20000C4F2000100231D
:102A70004FF00C0C4FF4165280E80E00C0E90333FF
:102A8000C0E905C3C0E90733C0E90933FFF73AFDE0
:102A9000002818BFFDF7E6FE40F23410C2F2000035
:102AA0000021FFF7E7FC002818BFFDF7DBFE40F22E
:102AB0003410C2F200000021FFF794FC002818BF78
:102AC000FDF7D0FE40F23410C2F20000FFF76EFCBA
:102AD000002808BF80BDBDE88040FDF7C3BE0000F0
:102AE000FEE70000FEE7000010B5002000210024F2
:102AF00000F094FA0020102100F090FA0020B0219C
:102B000000F08CFA4020002100F088FA601C44B2EA
:102B1000B4F1FF3FF6DC00200021002400F07EFA33
:102B20000020102100F07AFA0020B12100F076FA9E
:102B30004020002100F072FA601C44B2B4F1FF3F63
:102B4000F6DC00200021002400F068FA00201021AB
:102B500000F064FA0020B22100F060FA4020002169
:102B600000F05CFA601C44B2B4F1FF3FF6DC0020D8
:102B70000021002400F052FA0020102100F04EFA4B
:102B80000020B32100F04AFA4020002100F046FA6C
:102B9000601C44B2B4F1FF3FF6DC10BD80B5642088
:102BA000FEF7B4F90020AE2100F038FA0020D5215C
:102BB00000F034FA0020802100F030FA0020A82133
:102BC00000F02CFA00201F2100F028FA0020D32169
:102BD00000F024FA0020002100F020FA002040211B
:102BE00000F01CFA00208D2100F018FA00201421BA
:102BF00000F014FA0020A12100F010FA0020C821F2
:102C000000F00CFA0020DA2100F008FA0020002180
:102C100000F004FA0020812100F000FA00208F214A
:102C200000F0FCF90020D92100F0F8F900201F2164
:102C300000F0F4F90020DB2100F0F0F90020402141
:102C400000F0ECF90020A42100F0E8F9FFF74CFFB8
:102C50000020AF2100F0E2F96420BDE88040FEF7DB
:102C600055B9000010B58EB040F27004C2F20004F5
:102C700021790020C829CDE90900CDE90700CDE977
:102C80000500CDE9030002900190C0F0D2802178C8
:102C90002071052900F2C180DFE801F00319232D1E
:102CA0005D8D607818B100206070FFF71DFF44F65D
:102CB0005240C0F24400089045F64F70C4F6577079
:102CC000079044F24850C4F64C400690A5E0607866
:102CD000012803D001206070FFF706FFE28861A1A0
:102CE00098E06078022803D002206070FFF7FCFEB5
:102CF000A27859A18EE06078032803D00320607089
:102D0000FFF7F2FE0820C0F600400B900020CDE94E
:102D10000C0040F27C00C2F200000BA9FDF7A8FDF8
:102D2000002818BFFDF79EFD40F27C04C2F20004AB
:102D30002046FEF7BDF800BF2046C821FEF740F848
:102D40000028F9D140F27C00C2F20000FDF7C4FE79
:102D500082B23FA15EE06078042803D00420607056
:102D6000FFF7C2FE0420C0F600000B900020CDE962
:102D70000C0040F27C00C2F200000BA9FDF778FDC8
:102D8000002818BFFDF76EFD40F27C04C2F200047B
:102D90002046FEF78DF800BF2046C821FEF710F848
:102DA0000028F9D140F27C00C2F20000FDF794FE49
:102DB00082B224A12EE06078052803D0052060703F
:102DC000FFF792FE40F20010C2F200000B900020CC
:102DD000CDE90C0040F27C00C2F200000BA9FDF727
:102DE00047FD002818BFFDF73DFD40F27C04C2F20C
:102DF00000042046FEF75CF82046C821FDF7E0FFFE
:102E00000028F9D140F27C00C2F20000FDF764FE18
:102E100082B209A106A8FDF77BFA06AA00200021CC
:102E2000102300F0DBF801AA00200221102300F09B
:102E3000D5F80EB010BD00BF50484F544F3A25345E
:102E4000640000004C494748543A253464000000AF
:102E5000494E333A253464004B45593A25303364A2
:102E60000000000054696D653A25303564000000AB
:102E70002DE9F0410C46064640B2002844BF02341A
:102E8000002606F00F08002041461F46A2F120054B
:102E900000F0C4F8300900F110060020314600F0BF
:102EA000BDF8A4F15000C1B2002000F0B7F8102F17
:102EB000E8B26CD143F6C4150701C0F60005E95D20
:102EC000402000F0ABF8781C295C402000F0A6F808
:102ED000B81C295C402000F0A1F8F81C295C4020B7
:102EE00000F09CF8381D295C402000F097F8781D10
:102EF000295C402000F092F8B81D295C402000F0C9
:102F00008DF8F81D295C402000F088F8002041462B
:102F100000F084F80020314600F080F8A4F14F0062
:102F2000C1B2002000F07AF807F10800295C4020C7
:102F300000F074F807F10900295C402000F06EF8F9
:102F400007F10A00295C402000F068F807F10B0047
:102F5000295C402000F062F807F10C00295C402059
:102F600000F05CF807F10D00295C402000F056F8F5
:102F700007F10E00295C402000F050F807F10F0027
:102F8000284401784020BDE8F04100F047B843F202
:102F90009C7200EB4000C0F6000212F8101002EB29
:102FA0004007402000F03AF87978BC78FD783E7907
:102FB000402000F033F84020214600F02FF8402058
:102FC000294600F02BF84020314600F027F8781D04
:102FD00001784020BDE8F04100F020B82DE9F04133
:102FE00015461278002A08BFBDE8F08198460E46C3
:102FF00007460024F8B2F1B2D2B24346FFF738FFD9
:103000000837F8B201347828E0B288BF02362A5C6B
:1030100088BF0027002AEDD1BDE8F08180B582B0DD
:103020008DF8060040F2E0008DF807104FF00A0C12
:10303000C2F200000DF1060278210223CDF800C093
:10304000FEF710F902B080BD704700007047000025
:1030500080B5FEF789FA40F27300C2F200004178B1
:10306000C7299CBF01314170017809299CBF0131FA
:10307000017040F27600C2F2000001880131018047
:1030800080BD00007047000080B5816ACA070CD17E
:103090008A0715D44A071ED40A0727D4CA0630D493
:1030A0008A0639D44A0657D541E00268D0F82CC0C8
:1030B000536823F4003343EA0C0353608A07E9D5CD
:1030C0000268D0F830C0536823F4803343EA0C031D
:1030D00053604A07E0D50268D0F834C0536823F43F
:1030E000802343EA0C0353600A07D7D50268D0F85F
:1030F00038C0536823F4004343EA0C035360CA0604
:10310000CED50268D0F83CC0936823F4805343EADC
:103110000C0393608A06C5D50268D0F840C0936856
:1031200023F4005343EA0C0393604A0614D5026863
:10313000D0F844C05368BCF5801F23F4801343EAE1
:103140000C03536008D1D2F804C0D0F848E02CF446
:10315000C00343EA0E035360090658BF80BD0168EF
:10316000C06C4A6822F400221043486080BD000011
:1031700070B504462269D4E9021300680A43616904
:10318000E6691143026846F6F315CCF6FF75314344
:103190002A4011430160416848F2000E21F4405179
:1031A00019434160A269C4F2000E70451CBF216A38
:1031B0000A4381684FF2FF43C1F2FF1319401143E4
:1031C0008160C16AD4F824C044F2004221F00F01AA
:1031D000C4F2000241EA0C019042C1620DD0704578
:1031E00011D043F60001C4F20101884245D1882183
:1031F000C5F600010A6874A30EE08821C5F6000137
:1032000009688A0804E08821C5F6000109688A0A6D
:1032100043F27C73C0F6000302F0030153F821204F
:10322000704542F20040C0F2F4002DD0B6F5004FD8
:1032300011D1082A4FF0010100F2BD80DFE802F051
:10324000056775BB6DBBBBBB7300FEF73BFC00287D
:1032500040F0608065E0082A4FF0010100F2AB8089
:10326000DFE802F0058391A989A9A9A98F00FEF7DB
:1032700029FC002840F07C8081E01022704542F259
:103280000040C0F2F400D1D1082A4FF0010100F251
:103290009280DFE802F0059013900B90909011005F
:1032A000FEF710FC30B1D4F824C007E0FEF742FC72
:1032B0000028F8D100217EE04FF4004043F2647111
:1032C000C0F6000131F81C106268B0FBF1F002EBAF
:1032D000420188424FF001016DD3130398426AD82E
:1032E000010E000210EB520041F100010023FCF737
:1032F00097FF4FF6FF42A0F54071C0F20F029142D6
:1033000003D82168C860002155E0012153E0FEF791
:10331000F5FB30B1D4F824C007E0FEF70BFC002821
:10332000F8D1002147E04FF4004043F26471C0F649
:10333000000131F81C106268B0FBF1F0510801EB9C
:103340004000B0FBF2F04FF6EF72A0F11001914295
:1033500009D84FF6F0710140C0F3420022680844DA
:10336000D060002127E0012125E0FEF7C7FB30B146
:10337000D4F824C007E0FEF7DDFB0028F8D10021D7
:1033800019E04FF4004043F26471C0F6000131F8D7
:103390001C104FF6EF72B0FBF1F0616800EB5100CA
:1033A000B0FBF1F0A0F11001914203D82168C86090
:1033B000002100E001214FF00110A0660022084624
:1033C0006267A26770BD00BF01000000040000003A
:1033D00002000000080000002DE9F04104460068EA
:1033E0001546C2690E461140891BB1FA81F149099F
:1033F000A94240F09C80DDF81880B8F1000F26D07B
:1034000018F101017CD100BFC1693140891BB1FABB
:1034100081F14909A94240F08A80C1693140891B84
:10342000B1FA81F14909A94240F08180C169314076
:10343000891BB1FA81F14909A94278D1C1693140AA
:10344000891BB1FA81F14909A942DDD06FE0FDF78E
:1034500067FE00BF206850E8000F216820F4D0709C
:1034600041E80002BAB3206850E8000F216820F458
:10347000D07041E8000272B3206850E8000F216864
:1034800020F4D07041E800022AB3206850E8000F11
:10349000216820F4D07041E80002002ADAD11AE055
:1034A000206850E8020F216820F0010041E8020284
:1034B000DAB1206850E8020F216820F0010041E8ED
:1034C000020292B1206850E8020F216820F001004A
:1034D00041E802024AB1206850E8020F216820F05A
:1034E000010041E80202002ADAD12020C4F8880055
:1034F000C4F88C00002084F884000320BDE8F0812B
:103500001F4600BFFDF70CFEC01B4045A2D8206837
:103510000168490744BFC1695FEA01510AD4C06923
:103520003040801BB0FA80F04009A842EAD0002069
:10353000BDE8F0814FF40061016200BF50E8000F68
:10354000216820F4D07041E80002C2B3206850E83E
:10355000000F216820F4D07041E800027AB320689F
:1035600050E8000F216820F4D07041E8000232B327
:10357000206850E8000F216820F4D07041E8000274
:10358000EAB12068DAE700BF206850E8020F21683E
:1035900020F0010041E80202DAB1206850E8020F91
:1035A000216820F0010041E8020292B1206850E851
:1035B000020F216820F0010041E802024AB12068B0
:1035C00050E8020F216820F0010041E80202002AC1
:1035D000DAD12020C4F88800C4F88C00C4F8900028
:1035E000002084F884000320BDE8F081FEE700009D
:1035F0009AB0FDF7C7FF08AC201D4421FCF79CFFE3
:10360000002540F20040CDE90655CDE90455CDE94D
:103610000255C5F600000168012262F34A210160EB
:10362000006800F4C0600190019820200890B0204C
:10363000CDE91025CDE912052046FEF7F3FA20B1B9
:10364000EFF3108072B600BFFEE74F20CDE9020510
:1036500002A80221CDE90455CDE90655FEF724F96B
:1036600018B1EFF3108072B6FEE7FFF77FF9FFF7AE
:103670003DF9FFF7BDF9FFF7F1F9FDF7B9F800BF24
:10368000FFF7F0FAFFF7E2F8FAE730380A2801D23C
:10369000012070470020704710B5FDF729F84FF062
:1036A0000001016010BD04000008000000000000DF
:1036B00000020001000010000000000001000000F6
:1036C00002000000010000000300000005000000EF
:1036D0000100000001000000060000000A000000D8
:1036E00020000000020000000400000008000000AC
:1036F00010000000400000008000000000010000F9
:1037000000020000000000000000000000000000B7
:1037100000000000010000000200000003000000A3
:1037200004000000A0860100400D0300801A06007E
:1037300000350C0040420F0080841E0000093D004F
:1037400000127A000024F40000366E010048E801FF
:10375000006CDC020000000000000000000000001F
:1037600000000000010002000400060008000A003A
:103770000C0010002000400080000001000000004C
:103780000400000002000000080000000101010325
:103790000701000008040204080101010000000004
:1037A00000000000002F00000000070007000014C8
:1037B0007F147F1400242A7F2A12006264081323D6
:1037C00000364955225000000503000000001C226D
:1037D0004100000041221C000014083E08140008AB
:1037E000083E0808000000A060000008080808085B
:1037F000000060600000002010080402003E5149F3
:10380000453E0000427F4000004261514946002190
:1038100041454B31001814127F10002745454539AA
:10382000003C4A4949300001710905030036494905
:10383000493600064949291E0000363600000000BE
:103840005636000000081422410000141414141409
:1038500000004122140800020151090600324959B2
:10386000513E007C1211127C007F49494936003ECE
:1038700041414122007F4141221C007F4949494189
:10388000007F09090901003E4149497A007F080883
:10389000087F0000417F4100002040413F01007F40
:1038A00008142241007F40404040007F020C027F0C
:1038B000007F0408107F003E4141413E007F09091E
:1038C0000906003E4151215E007F09192946004644
:1038D000494949310001017F0101003F4040403F1B
:1038E000001F2040201F003F4038403F0063140865
:1038F0001463000708700807006151494543000040
:103900007F41410000552A552A55000041417F0062
:103910000004020102040040404040400000010257
:103920000400002054545478007F48444438003840
:103930004444442000384444487F003854545418C8
:1039400000087E0901020018A4A4A47C007F0804DA
:1039500004780000447D4000004080847D00007FAA
:10396000102844000000417F4000007C04180478C7
:10397000007C0804047800384444443800FC2424C3
:1039800024180018242418FC007C080404080048AB
:103990005454542000043F444020003C4040207CCC
:1039A000001C2040201C003C4030403C00442810BB
:1039B0002844001CA0A0A07C004464544C4414146F
:1039C00014141414000000000000000000000000A7
:1039D00000000000000000F80000000000000033BC
:1039E0003000000000100C06100C06000000000063
:1039F0000000000040C07840C0784000043F04044C
:103A00003F040400007088FC08300000001820FF0C
:103A1000211E0000F008F000E018000000211C0347
:103A20001E211E0000F00888700000001E212324C3
:103A30001927211010160E000000000000000000E1
:103A400000000000000000E0180402000000000771
:103A50001820400000020418E00000000040201878
:103A600007000000404080F0804040000202010F4B
:103A700001020200000000F0000000000101011F2F
:103A800001010100000000000000000080B0700093
:103A90000000000000000000000000000001010123
:103AA00001010101000000000000000000303000B2
:103AB000000000000000000080601804006018068C
:103AC0000100000000E010080810E000000F1020C6
:103AD00020100F00001010F8000000000020203F10
:103AE000202000000070080808887000003028249A
:103AF000222130000030088888483000001820203B
:103B000020110E000000C02010F80000000704245F
:103B1000243F240000F808888808080000192120A4
:103B200020110E0000E0108888180000000F1120FE
:103B300020110E0000380808C83808000000003FB7
:103B4000000000000070880808887000001C222116
:103B500021221C0000E010080810E00000003122C3
:103B600022110F00000000C0C00000000000003063
:103B700030000000000000800000000000008060B5
:103B80000000000000008040201008000001020436
:103B9000081020004040404040404000040404041D
:103BA00004040400000810204080000000201008D9
:103BB00004020100007048080808F000000000300E
:103BC00036010000C030C828E810E000071827249C
:103BD00023140B000000C038E0000000203C23024A
:103BE0000227382008F8888888700000203F2020AD
:103BF00020110E00C03008080808380007182020DF
:103C00002010080008F808080810E000203F2020D5
:103C100020100F0008F88888E8081000203F2020B6
:103C20002320180008F88888E8081000203F2000AA
:103C300003000000C03008080838000007182020E2
:103C4000221E020008F808000008F808203F2101A1
:103C500001213F20000808F8080800000020203F4C
:103C60002020000000000808F8080800C0808080BC
:103C70007F00000008F888C028180800203F2001B5
:103C80002638200008F8080000000000203F20200F
:103C90002020300008F8F800F8F80800203F003F26
:103CA000003F200008F830C00008F808203F20003E
:103CB00007183F00E01008080810E0000F1020204F
:103CC00020100F0008F808080808F000203F210124
:103CD00001010000E01008080810E0000F1824247B
:103CE00038504F0008F8888888887000203F2000EE
:103CF000030C3020007088080808380000382021A4
:103D000021221C00180808F8080818000000203FAD
:103D10002000000008F808000008F808001F202014
:103D200020201F000878880000C8380800000738E5
:103D30000E010000F80800F80008F800033C070036
:103D4000073C0300081868808068180820302C039E
:103D5000032C30200838C800C83808000000203F75
:103D60002000000010080808C83808002038262164
:103D700020201800000000FE020202000000007F68
:103D800040404000000C30C0000000000000000176
:103D90000638C00000020202FE0000000040404061
:103DA0007F00000000000402020204000000000086
:103DB0000000000000000000000000008080808003
:103DC00080808080000202040000000000000000EB
:103DD0000000000000008080808000000019242284
:103DE00022223F2008F8008080000000003F1120C0
:103DF00020110E000000008080800000000E1120C5
:103E000020201100000000808088F800000E1120A2
:103E100020103F200000808080800000001F2222B0
:103E200022221300008080F0888888180020203F1C
:103E3000202000000000808080808000006B94942F
:103E40009493600008F8008080800000203F2100EB
:103E500000203F2000809898000000000020203FB4
:103E600020200000000000809898000000C08080A2
:103E7000807F000008F8000080808000203F24023E
:103E80002D302000000808F8000000000020203F2E
:103E9000202000008080808080808000203F2000E3
:103EA0003F20003F8080008080800000203F210074
:103EB00000203F200000808080800000001F202024
:103EC00020201F00808000808000000080FFA12053
:103ED00020110E000000008080808000000E112064
:103EE00020A0FF80808080008080800020203F21F3
:103EF00020000100000080808080800000332424A6
:103F000024241900008080E0808000000000001F51
:103F1000202000008080000000808000001F202002
:103F200020103F20808080000080808000010E30C3
:103F30000806010080800080008080800F300C0324
:103F40000C300F0000808000808080000020312E27
:103F50000E312000808080000080808080818E7003
:103F60001806010000808080808080000021302CB5
:103F70002221300000000000807C020200000000CE
:103F8000003F404000000000FF0000000000000073
:103F9000FF0000000002027C800000000040403F63
:103FA00000000000000601010202040400000000FD
:103FB00000000000D83F00080000002010000000B2
:103FC00074010008E83F000810000020C00700004E
:103FD0009001000800000000010000001000000037
:083FE00000093D000000000093
:0400000508000139B5
:00000001FF
