:020000040800F2
:10000000C0070020F9010008D935000811310008A7
:10001000D5350008D50F0008494000080000000051
:100020000000000000000000000000008D3A000801
:10003000D90F000800000000893A0008913A000832
:10004000130200081302000813020008130200083C
:10005000130200081302000813020008130200082C
:10006000130200081302000813020008130200081C
:10007000130200081302000813020008130200080C
:1000800013020008130200081302000813020008FC
:100090000000000013020008130200081302000809
:1000A00013020008130200081302000813020008DC
:1000B00013020008130200081302000813020008CC
:1000C00013020008130200081302000813020008BC
:1000D000130200083D400008130200081302000844
:1000E000130200081302000813020008130200089C
:1000F00013020008000000000000000013020008C6
:10010000130200081302000813020008130200087B
:10011000130200081302000813020008130200086B
:10012000130200081302000813020008130200085B
:10013000130200081302000800F002F800F04CF867
:100140000AA090E8000C82448344AAF10107DA4532
:1001500001D100F041F8AFF2090EBAE80F0013F038
:10016000010F18BFFB1A43F001031847A0640000F9
:10017000C0640000103A24BF78C878C1FAD852078A
:1001800024BF30C830C144BF04680C607047000011
:100190000023002400250026103A28BF78C1FBD890
:1001A000520728BF30C148BF0B607047662905F071
:1001B000B984642900F0F480002070471FB505F071
:1001C000F7FB00F07DFC04000020002104F06CFB34
:1001D000E0601FBD10B510BD00F086FD1146FFF7B1
:1001E000EDFF03F033FF00F0A4FD03B4FFF7F2FFCF
:1001F00003BC00F04BFE0000094880470948004757
:10020000FEE7FEE7FEE7FEE7FEE7FEE7FEE7FEE7C6
:10021000FEE7FEE704480549054A064B7047000023
:10022000C53A000839010008C0010020C0070020BD
:10023000C0030020C003002053EA020C00F06980D4
:100240002DE9F04B4FF00006002B1FBFB3FA83F5EA
:1002500003FA05F424FA05F65E4012BF1643B2FA1B
:1002600082F502FA05F4C5F120051EBF22FA05FC4D
:1002700044EA0C04203556EA044C4FEA144418BFF3
:10028000641C4FF000084FF00009904271EB030C22
:1002900039D3002919BFB1FA81F701FA07F6B0FA8C
:1002A00080F700FA07F6C7F120071EBF20FA07FC07
:1002B00046EA0C062037B6FBF4FCA7EB0507103F17
:1002C00007F01F0BCBF120062CFA06F60CFA0BFBFD
:1002D00044BFB3460026202FA4BF5E464FF0000B5C
:1002E0005BEA060C08BF4FF0010B19EB0B0948EB5A
:1002F0000608ABFB027C06FB02CC0BFB03CCC01B4D
:1003000071EB0C01C1E70B46024641464846BDE889
:10031000F08B13B5084318BF4FF0FF300146AFF321
:100320000080BDE81C4070470FB41CB5074B06AAFF
:100330007B4469460090059800F0A5FB00206946C3
:1003400000F0B4FB1CBC5DF814FB00007907000052
:1003500070B5044685690068C10601D5302600E005
:100360002026C00707D070BDD4E901213046904750
:10037000206A401C20626D1EF6D570BD70B5044623
:1003800085690078C00707D170BDD4E9012120201C
:100390009047206A401C20626D1EF6D570BD00009B
:1003A0002DE9F0410646002410687529314616A54E
:1003B00010D0AFF30080002802DA404213A507E016
:1003C00031688A0701D512A502E0490704D511A5B5
:1003D000012401E0AFF3008000210A2206F1240786
:1003E00009E0B0FBF2FCB0FBF2F302FB1C00303082
:1003F00078541846491C0028F3D123462A46304633
:10040000BDE8F04100F0D2B8000000002D0000006F
:100410002B000000200000002DE9F05F8946044613
:100420004FF0000ADFF824B1FB44C0F820A02046BA
:10043000E168884700287DD0252806D0D4E901212D
:100440009047206A401C2062F1E700255F46204665
:10045000E16888472028064607DB312E05D2B81907
:1004600010F8200C08B10543F1E7A80701D525F0E5
:100470000405C4F81CA00027C4F818A02A2E09D02F
:10048000304604F00AFA38B304EB8708303EC8F867
:10049000186019E059F8041B204604EB87029161AB
:1004A000E1688847012F064618D1E069002820DA64
:1004B00025F020051DE0D8F8180000EB800006EBC1
:1004C00040003038C8F818002046E16888470646E2
:1004D00004F0E3F90028EED1012F0AD02E2E08D126
:1004E0002046E16888477F1C0646022F45F020051C
:1004F000C4DBA069002803DA404245F00105A06191
:10050000E80701D025F01005A6B1A6F14100192891
:1005100002D8203645F400654A463146204625601B
:100520004D46FFF743FE60B1012807D0ED1D25F0D1
:10053000070000E007E000F1080978E705F1040989
:1005400075E730467AE7206ABDE8F09F3E58000024
:100550004FF0000200B5134694469646203922BF5C
:10056000A0E80C50A0E80C50B1F12001BFF4F7AFA7
:10057000090728BFA0E80C5048BF0CC05DF804EB89
:10058000890028BF40F8042B08BF704748BF20F8F7
:10059000022B11F0804F18BF00F8012B70477047F5
:1005A0007047704700487047140000202DE9F0475D
:1005B0000D4699469246044600F1240801688806D3
:1005C00004D5E06921F01001216000E00120A8427B
:1005D00001DD471B00E00027A1697A1902EB090041
:1005E000081AA0612078C00602D42046FFF7B0FEAA
:1005F000002608E0D4E901211AF806009047206A95
:10060000401C761C20624E45F4DB2078C0060AD5DB
:100610002046FFF79DFE06E0D4E9012130209047F7
:10062000206A401C2062381EA7F10107F4DC07E0B5
:10063000D4E9012118F805009047206A401C206287
:10064000281EA5F10105F3DC2046FFF797FE207870
:10065000000602D50220BDE8F0870120FBE72DE966
:10066000FF4F0C461E464FF0FF378BB0D2E900011A
:10067000DDF860800A908A46C1F30A5505B93D4607
:100680000021084605F036FABAF1000F00F44000E8
:1006900005DA00EB80004FF4400101EA50004FEA18
:1006A0009059B9F1010F00DDB9460A9850EA4A00A5
:1006B0000ED044F61050A5F2FF3545432F14B8F183
:1006C000000F1ED07542291E1EDDC9F100021CE07C
:1006D000B8F1010F4FF0000001D0302103E0F243E8
:1006E00005E02154401CB042FBDB304600220021D3
:1006F00021540B99C1F80880C1E900200FB0BDE872
:10070000F08FBD1B6D1CDEE74A4600DA694206A881
:1007100000F078FA06AB93E8070003AB83E8070024
:1007200050460A9903F0DDFC8DE80700A0F5005063
:100730001F3800900398002D0ADD42F21F014A463F
:100740000844002303A90390684603F046FF09E02C
:10075000A0F500504A461F38002303A903906846BD
:1007600003F050FF8DE807000004000C03D04FF0A9
:10077000FF30410800E01046B8F1000F03D000221E
:10078000009215461EE0751E05D400F09DF930322A
:1007900062556D1EF9D5B3460122084302D00022EE
:1007A0007F1C04E02078302801D100227F1E002A1F
:1007B000099784D01DE0112D07DA00F085F9303259
:1007C00062556D1C50EA0102F5D1084302D0009831
:1007D000C8B10EE00021681E05E0235C625C635432
:1007E0002254401E491C8142F7DBAB46A81B401E29
:1007F0000990002004F80B000B98099AC0F80880B3
:10080000C0E9002B7AE711264FF0000857E72DE9E1
:10081000F04F88460446D21D22F0070191B0D1E97D
:100820000001CDE90A0104F024F802460B98C00F3C
:1008300001D02D2007E02068810701D52B2002E0A0
:10084000202101EAC000032A099001D0072A05DB14
:1008500003464146204600F095F90BE120788006DA
:1008600001D5E06900E00620B8F1650F814606D0A9
:10087000B8F1660F18D0B8F1670F70D131E00020E1
:10088000B9F1110F009001DB112301E009F101031F
:100890000AAA01A90CA8FFF7E2FEDDE90C70002608
:1008A00009F10105834647E001204B4600904FF0D7
:1008B00000470AAA01A90CA8FFF7D1FEDDE90DB097
:1008C0000C995D46002610B909F101000D18B9EB2D
:1008D000050003D4C0F1FF3609F10105A5EB0900BD
:1008E0002BE0B9F1010F01DA4FF001090020B9F155
:1008F000110F0090484601DD112300E003460AAACB
:1009000001A90CA8FFF7ABFEDDE90C704D460026EF
:100910008346207800070AD4AB4500DA5D4601A87B
:10092000012D04DD411911F8011C302907D04F4574
:1009300002DA17F1040F04DA012082460FE06D1E7F
:10094000EEE7002F02DCED1B3E4403E0781CA842DA
:1009500000DD7D1CB81B00F1010A4FF00047207834
:10096000000703D4AA4501DB4FF0FF3A0021B7F19D
:10097000004F0DF143088DF8431024D002202B23A3
:10098000002F01DA7F422D230A21021EA0F101006F
:1009900000DC5FB197FBF1FC97FBF1F201FB1C7CE3
:1009A00017460CF1300C08F801CDEEE7A8F1010074
:1009B00003702188090501D5452100E06521A0F1DA
:1009C000010800F8011C09980FA9A1EB0807FF1DF9
:1009D00000B10120411901EBEA70A1693844081AFD
:1009E000401EA0612078C00602D42046FFF7B0FC6C
:1009F000099828B1D4E901219047206A401C20625F
:100A00002078C00622D52046FFF7A2FC1EE0002E6B
:100A100004DBB34502DD01A8805D00E03020D4E9AD
:100A200001219047206A401C2062761CAAF1010037
:100A30005FEA000A0AD100F043F8C0680168405C30
:100A4000D4E901219047206A401C2062281EA5F1AC
:100A50000105DCDC07E0D4E9012118F8010B90471F
:100A6000206A401C2062381EA7F10107F3DC2046F3
:100A7000FFF784FC032011B041E6000001694A1C25
:100A800002610878704700B58FB0CDE901310021CF
:100A9000059105497944CDE9031011466846FFF7F1
:100AA000BBFC0FB000BD0000E5FFFFFF0A6802F8C5
:100AB000010B0A60704700000048704710000020DA
:100AC000004870473000002030B5B0F10A0271F1E3
:100AD00000034FEA900E4EEA817EB0EB0E0061EB10
:100AE00091014FEA101E4EEA017E10EB0E0041EB21
:100AF00011114FEA102E4EEA016E10EB0E0041EB81
:100B000011214FEA104E4EEA014E10EB0E0041EB60
:100B10001141401841F100014FEAD00040EA417014
:100B20004FEAD1014FEA810444EA907410EB80054A
:100B300044EB01046D1944EB0404521BA3414FF034
:100B4000000348BF0A3200D530BD401C41F100010E
:100B500030BD00001FB584B000200A9C06AB04AA7B
:100B600002A90094AFF3008018B1DDE9020108B0DA
:100B700010BD0348204000F0E5F800200146F6E7EC
:100B80000000207C2DE9F0411F4604460326016841
:100B9000072A01F4006004DB08B116A505E016A5DC
:100BA00003E008B115A500E015A521F010002060B4
:100BB000A069C01EA0610FB1401EA0612046FFF7D2
:100BC000C7FB4FB1D4E9012138469047206A401C49
:100BD0002062C01C206206E0206AFAE7D4E9012105
:100BE00015F8010B9047761EF8D22046FFF7C6FB9A
:100BF000BDE8F0814E414E006E616E00494E4600E8
:100C0000696E66002DE9F047814616468AB0354880
:100C100078440DC88DE80D0032487844801C03AC40
:100C20000DC884E80D0041F69B300844372190FB45
:100C3000F1F290FBF1F5A5F1800501FB12041B3CDC
:100C400002D56442012000E00020DFF898A0804631
:100C50000027FA44AAF1BE0A0EE0E0070AD03246A5
:100C6000684607EB470101230AEB810103F0CAFC48
:100C70008DE8070064107F1C002CEED1194F7F44D3
:100C8000AE3F19E0E80715D007EB04100DF1180A84
:100C900090E80E008AE80E00C068F04201D1981971
:100CA00008903246012306A903A803F0ABFC03AB6E
:100CB00083E807006D10641C002DE3D14FF00103A1
:100CC00032466946B8F1000F03A802D003F085FC54
:100CD00001E003F097FCC9E90001C9F808200AB057
:100CE000BDE8F087E45000007546FFF7E5FEAE462C
:100CF00005006946534620F00700854618B020B528
:100D0000FFF788FABDE820404FF000064FF00007DB
:100D10004FF000084FF0000BAC46ACE8C009ACE85F
:100D2000C009ACE8C009ACE8C00921F007018D4654
:100D3000704710B50446AFF300802046BDE8104070
:100D4000FFF753BA10B500F04BF8BDE8104000F0C3
:100D500041B800000000000030B44FF0013C50F8F2
:100D6000042B51F8043BCCFA52F4D51A20D1FCB92B
:100D700050F8042B51F8043BCCFA52F4D51A17D191
:100D8000B4B950F8042B51F8043BCCFA52F4D51AFC
:100D90000ED16CB950F8042B51F8043BCCFA52F444
:100DA000D51A05D1002CDAD030BC4FF000007047C6
:100DB00029BAB1FA81F111F01801D1F12000844073
:100DC000F2D1CA40CB4012F0FF0213F0FF0330BC57
:100DD000D01A7047002801D000F058B870470000C2
:100DE00010B5022803D0410103D50DA112E0002067
:100DF00010BD010101D50FA10CE0C10001D511A169
:100E000008E0810001D512A104E0400001D513A142
:100E100000E0002115A000F03FF8012010BD000007
:100E2000496E76616C6964204F7065726174696F98
:100E30006E000000446976696465204279205A6535
:100E4000726F00004F766572666C6F77000000006D
:100E5000556E646572666C6F77000000496E657848
:100E600061637420526573756C7400005349474682
:100E700050453A2041726974686D657469632065F4
:100E80007863657074696F6E3A200000014918201C
:100E9000ABBEFEE72600020070B505460C460A20F0
:100EA00000E06D1C00F011F835B128780028F8D169
:100EB00002E0641C00F009F814B120780028F8D191
:100EC000BDE870400A20AFF3008008B569468DF890
:100ED00000000320ABBE08BD70470000B0B596B05F
:100EE00002F0D6FB02AC0025201D34211495CDE97B
:100EF0001255CDE91055FFF72BFB802002904FF4DF
:100F000040200890204600F0F3FD002818BF00F0B4
:100F100065F84C24C5F60004206810A940F00100D3
:100F20002060206800F00100159015984FF4C05023
:100F300010901220CDE91105042014904FF090403C
:100F4000139500F0D7F8E06845F6000140F4800002
:100F5000E060E06840F2700400F48000159015989D
:100F6000C2F20004C4F20001204640F80C1F41F612
:100F70004B11C0F290010122C0E90115C0E903251F
:100F8000C0E90555C0E9075500F0FAF9002818BF77
:100F900000F024F80C342046002100F0A7F90028C6
:100FA00018BF00F01BF82046002100F0C5F900280A
:100FB00018BF00F013F840F62430ADF854000A25AD
:100FC00015AA204694210223009500F063FB16B079
:100FD000B0BD0000FEE7000070470000EFF3108096
:100FE00072B600BFFEE70000002804BF0120704772
:100FF00080B590F82510022926D10168D0E910CEDD
:10100000826C0B6823F00E030B60136823F480736B
:1010100013600A6822F001020A600EF01C0201212E
:1010200001FA02F2CCF80420D0E913325A60426D82
:1010300032B1136823F480731360D0E91623536030
:1010400080F82510002102E00421C1630121002263
:1010500080F82420BDE880400846704780B590F8AD
:10106000251002292DD10168D0E910CE826C0B68C1
:1010700023F00E030B600B6823F001030B60116873
:1010800021F4807111600EF01C02012101FA02F2BC
:10109000CCF80420D0E913325A60426D32B11368A3
:1010A00023F480731360D0E91623536080F8251071
:1010B000826B002180F824100AB190470021084675
:1010C00080BD0421C1630121084680BDB0B504463E
:1010D00000F006F9054640F20000C2F20000007878
:1010E000611C18BF044400BF00F0FAF8401BA04286
:1010F000FAD3B0BD2DE9F04F84B00E680390002EF6
:1011000000F0DF8040F600020398C4F600028E462D
:1011100090424FF007004FF000044FF001074FF0EE
:1011200000054FF0000808BF02200090029148E03F
:1011300040F20040C4F600008242009A08BF01223B
:1011400002FA03F0082140EA0C00C4F2010141F860
:10115000260040F60006C5F600063068DEF80410EA
:1011600040EA0902CB0258BF20EA090232607068E7
:101170008B0240EA090258BF20EA09027260D6F8E1
:101180008000CB0340EA090258BF20EA0902C6F8F2
:101190008020D6F88400890340EA090258BF20EA7B
:1011A0000902C6F88420DEF8006008F1010836FA6A
:1011B00007F005F1020507F1010704F1040400F04E
:1011C0008080A7F1010A012000FA0AF316EA030958
:1011D000E9D0DEF804B00BF0030CACF10102012AF7
:1011E0001ED803984FEA480281680192032202FA4E
:1011F00005F6029AB143D2F80CE0F6430EFA05F276
:101200001143DDF808E08160416899430346019885
:10121000CBF3001202FA0AF2114359600CE000BF4E
:101220000320A840039BC643BCF1030F284603D10B
:1012300028464FF0030C26E0D968DEF8082031403C
:1012400082401143BCF1020FD9601CD102466FF0FD
:10125000030000EA5A01194404F01C030F20D1F8DE
:1012600020C000FA03FE1046029A2CEA0E0C126906
:10127000DDF808E09A4042EA0C02039B0A62DEF8BD
:1012800004B00BF0030C19680CFA00F0314008436D
:101290001BF4403F18603FF486AF08204FEA9A06DF
:1012A000C4F2010050F8260004F00C030721039A51
:1012B0009940B2F1904F20EA010C7FF439AF00223F
:1012C0003EE704B0BDE8F08F0069084018BF012078
:1012D000704700001823002A08BF2823C150704718
:1012E00040F2B810C2F200000068704790F8412048
:1012F000202A03D190F84020012A01D10220704712
:10130000242280F841200268136823F0010313604F
:10131000136823F480531360136819431160116834
:1013200041F001011160202180F84110002180F876
:10133000401008467047000090F84120202A03D151
:1013400090F84020012A01D102207047242280F821
:1013500041200268136823F001031360136823F42B
:10136000706343EA01211160116841F001011160CD
:10137000202180F84110002180F840100846704775
:10138000002804BF0120704710B5044690F84100C2
:1013900028B9002084F84000204600F0B3FA242049
:1013A00084F8410094E80910E2680168012A21F0FC
:1013B0000101016023F070610161816821F4004145
:1013C000816003D14CF40041816007E04CF404419A
:1013D000022A816004BF4FF400614160416804F15A
:1013E000100C41F0007141F400414160C16821F4EA
:1013F0000041C1609CE80E10114341EA0321C16025
:10140000216A41EA0C010160016841F001010160BB
:1014100000202021606484F84110206384F8420099
:1014200010BD00002DE9F047044690F84100202847
:1014300003D194F84000012802D10220BDE8F087D2
:1014400001201E461746884684F84000FFF748FFF3
:10145000216805468A6912040AD500BFFFF740FFDC
:10146000401B192800F20681216888690004F5D420
:10147000222084F84100102084F84200002060649B
:10148000676266856063608D49F6004940F2000C32
:10149000CFF60049B0F5807FC0F2FF1C0CD351F8A5
:1014A000043F4246A9F580676FF39F223B401343F8
:1014B0000CF51057FF220EE0628D434651F8046F81
:1014C0006FF39F23D7B2A9F58060304043EA07430A
:1014D00003430CF5923743EA070008602285608DCC
:1014E000089E002800F091806FF39F2808F1007A91
:1014F000701C48EA0C074FF0FF0850D10AE0A4F82E
:10150000288050F8041F01EA090139430160608D09
:1015100000287AD020464FF0FF312A4601F0AEFE77
:10152000002840F08D802068616A406A0870606A17
:10153000218D0130013960622185608D0904A0F19F
:1015400001006085608DE2D10028E0D020688169CB
:1015500009065FBF81695FEA016181695FEA016134
:1015600002D481690906F2D5618DFF29C7D8618D42
:10157000218550F8042FC9B202EA09024AEA014162
:101580001143C3E7618D218550F8042FC9B202EAE7
:1015900009024AEA014111430160608DA8B3204667
:1015A00031462A4601F06AFE002849D12068616A66
:1015B000406A0870606A218D0130013960622185BE
:1015C000608D0904A0F101006085608DE5D10028DF
:1015D000E3D02068816909060BD4002E48D000BFF3
:1015E000FFF77EFE401BB04244D82068816909069F
:1015F000F6D5618DB1F5807FC4D3A4F8288050F86A
:10160000041F01EA09013943C6E77EB120688169F8
:10161000890618D4204631462A4601F07BFD78B968
:10162000FFF75EFE401BB042F0D923E020688169DD
:10163000890608D4204600212A4601F06BFDA0B19E
:101640000120BDE8F0872021C16142684EF6000309
:10165000CFF600631A404260002084F8411084F8FD
:10166000420084F84000BDE8F087FFF739FE01E052
:10167000FFF736FE606C40F020006064202084F8A4
:101680004100002084F8420084F840000120BDE8B9
:10169000F08700002DE9F047044690F8410020282B
:1016A00003D194F84000012802D10220BDE8F08760
:1016B00001201E461746884684F84000FFF710FEBA
:1016C000216805468A6912040AD500BFFFF708FEA3
:1016D000401B192800F2F580216888690004F5D4C0
:1016E000212084F84100102084F84200002060642A
:1016F000676266856063608D49F6004940F2000CC0
:10170000CFF60049B0F5807FC0F2FF1C0DD30A462A
:1017100052F8047F4346A9F580666FF39F23374054
:101720001F430CF50056FF2310E0638D0A46474621
:1017300052F8040F6FF39F275FFA83FEA9F58066C6
:10174000304047EA0E4707430CF5903647EA06005B
:1017500010602385608D089E002800F08F806FF355
:101760009F2808F1007A701C48EA0C074FF0FF0828
:1017700051D10BE0A4F82880084650F8042F02EA63
:1017800009023A430260608D002877D020464FF06E
:10179000FF312A4601F0D2FD002840F09E80606AA9
:1017A000216810F8012B8A626062608D01386085C3
:1017B000208D421E2285608D1204E4D10028E2D0E3
:1017C000886900065FBF88695FEA006088695FEA30
:1017D000006003D488690006F2D500BF608DFF2841
:1017E000C8D8628D0846228550F8043FD2B203EA79
:1017F00009034AEA02421A43C4E7628D0846228579
:1018000050F8043FD2B203EA09034AEA02421A43FB
:101810000260608D90B3204631462A4601F08EFD6D
:1018200000285AD1606A216810F8012B8A62606230
:10183000608D01386085208D421E2285608D1204E6
:10184000E7D10028E5D0886900060AD4BEB300BFFE
:10185000FFF746FD401BB04233D821688869000677
:10186000F6D5608DB0F5807FC7D3A4F828800846F0
:1018700050F8042F02EA09023A43C9E7886900F0E8
:1018800020008EB160BB00BF204631462A4601F0E1
:1018900041FC10BBFFF724FD401BB04211D821686A
:1018A00088698006F0D51BE0D0B9204600212A4681
:1018B00001F030FC00281CBF0120BDE8F087FFF7D5
:1018C0000FFD606C40F020006064202084F841002F
:1018D000002084F8420084F840000120BDE8F08731
:1018E0002020C8614A684EF60003CFF600631A4014
:1018F0004A6084F84100002084F8420084F84000E7
:10190000BDE8F08710B594B0044600201290CDE9F0
:101910001000CDE90E0068463821FEF719FE206858
:1019200045F20041C4F20001884201D014B010BD5C
:10193000402000904FF440300590684600F0D8F801
:10194000002818BFFFF74AFB4C24C5F600042068A6
:101950000EA940F002002060206800F00200139001
:101960001398C0200E9012200F900020CDE9100097
:101970000420129040F20040C4F60000FFF7BAFBCA
:10198000E06840F40010E060E06800F4001013909C
:10199000139814B010BD000040F2000040F2B811DE
:1019A000C2F20000C2F2000100780A681044086028
:1019B0007047000080B5032000F078F800F09AFA34
:1019C00040F20801C2F200010860002000F008F8AF
:1019D00000281CBF012080BD00F028F8002080BD39
:1019E00070B540F20006C2F200063178D1B104466B
:1019F00000F080FA31784FF47A72B2FBF1F1B0FB6B
:101A0000F1F000F0E7FE0F2C4FF0010508D838B9CF
:101A10004FF0FF3021460022002500F01BF87460D3
:101A2000284670BD0125284670BD0000052000F045
:101A30003DB80000002848BF704700F01F01012298
:101A400002FA01F14EF200124009CEF2000242F811
:101A50002010704710B54EF60C5CCEF2000CDCF88E
:101A60000030C3F3022E8EF00704042C28BF042498
:101A7000BEF103034FF0FF3E0EFA04F438BF00231B
:101A8000A14399400EFA03F39A4300F00F03043B7D
:101A90001143634409010C3300F16042B0F1FF3F90
:101AA000C8BF02F56443197010BD00004EF60C511A
:101AB000CEF200010A684FF6FF031A4060F30A22D3
:101AC00042F0806040F0FD700860704740F20040D6
:101AD000C5F60000006800F4C060704740F20040A6
:101AE000C5F60000016841F4807101607047000094
:101AF000F0B581B0044680788826C007C5F6000698
:101B000000F0A980FFF7EAFFFFF7EAFB054600BFF8
:101B1000D6F87803C00575D4FFF7E2FB401B022816
:101B2000F6D903202168CA0700F09A8062683368FA
:101B300023EA124392B21A4332608A0740F193803B
:101B4000A268336823EA124392B21A4332608A06CB
:101B500040F18C802269336823F440631A43326079
:101B60008A0540F18680226A33684FF6FF7767EA7C
:101B700002073B4043EA024232604A057CD5626A72
:101B800033684FF6FF7767EA02073B4043EA0242B9
:101B900032600A0572D5A26A33684FF6FF7767EAAA
:101BA00002073B4043EA024232604A0668D5626956
:101BB00033686FF47F2767EA12173B4002F47F42D5
:101BC00043EA021232600A065CD5A26933686FF4F8
:101BD0007F2767EA12173B4002F47F4243EA021272
:101BE0003260CA0550D5E26933686FF47F2767EA2F
:101BF00012173B4002F47F4243EA02123260CA06E7
:101C000054D543E0B168606B01F4407181421DD04E
:101C1000B168B26821F4407342F48032B260B268B5
:101C2000890722F480320146B260B3600ED5FFF717
:101C300057FB054641F28837B068800705D4FFF7A7
:101C40004FFB401BB842F7D96BE7616BB06820F4DB
:101C500040700843B06000202168CA077FF466AF77
:101C60008A073FF56DAF8A063FF574AF8A053FF5E9
:101C70007AAF4A053FF583AF0A058CD44A0696D45D
:101C80000A06A2D4CA05AED4CA060FD5E2683368E4
:101C9000B2F5807F23F4407343EA0203336005D139
:101CA00056F87C2C42F0807246F87C2C0A0407D54A
:101CB000226B336823F0404343EA0203336092B15E
:101CC000490418D5E16A3268B1F1005F22F0405250
:101CD00042EA010232600ED156F87C1C41F4803198
:101CE00046F87C1C07E056F87C2C42F0807246F8DF
:101CF0007C2C4904E6D401B0F0BD00002DE9F0438E
:101D000081B0002800F0AF8044F20008C5F600085A
:101D10000546D8F800000C4600F00700884215D2AE
:101D2000D8F8000020F007002043C8F80000FFF7B3
:101D3000D7FA0646D8F8000000F00700A04205D008
:101D4000FFF7CEFA801B0228F4D95BE02868082749
:101D50008107C5F6000713D5A868396821F0F0019E
:101D600008433860FFF7BCFA064600BF3868C00376
:101D700005D4FFF7B5FA801B0228F7D942E028689E
:101D8000410616D56869D7F8001121F00F0141EA24
:101D90001010C7F80001FFF7A3FA0646D7F80001B4
:101DA000C00305D4FFF79CFA801B0228F6D929E06E
:101DB0002868410712D5E868396821F4E0610843D2
:101DC0003860FFF78DFA06463868800305D4FFF7C0
:101DD00087FA801B0228F7D914E02868010716D576
:101DE0002869396821F4605141EAC0003860FFF782
:101DF00077FA06463868400308D4FFF771FA801B6B
:101E00000228F7D9032001B0BDE8F0832868C00795
:101E10001ED1D8F8000000F00700A04227D9D8F85A
:101E2000000020F007002043C8F80000FFF758FA30
:101E3000054600BFD8F8000000F00700A04216D009
:101E4000FFF74EFA401B02284FF00300F2D945E09D
:101E500068684FF0B04130B3032842D0022844D123
:101E60000968890322D4012001B0BDE8F08300F0A5
:101E70008BF839683C2202EA910145F61C52C0F603
:101E80000002515840F20802B0FBF1F140F20400A8
:101E9000C2F200000068C2F20002116001B0BDE8A9
:101EA000F043FFF79DBD09688907DCD5396821F04B
:101EB000030108433860FFF713FA064641F28839F8
:101EC0003868696800F00C00B0EB810FA1D0FFF713
:101ED00007FA801B48454FF00300F1D901B0BDE877
:101EE000F08309688901BED5E0E709684905BAD5DC
:101EF000DCE7000080B500F047F80821C5F60001D6
:101F000009683C2202EA910145F61C52C0F6000223
:101F10005158B0FBF1F080BD80B500F035F80821D4
:101F2000C5F600010A683C2303EA920245F61C53F9
:101F3000C0F600039A580968B0FBF2F045F65C520F
:101F4000C1F30221C0F6000252F82110C84080BD42
:101F500080B500F019F80821C5F600010A683C2395
:101F600003EA920245F61C53C0F600039A5809682A
:101F7000B0FBF2F045F65C52C1F3C221C0F600029C
:101F800052F82110C84080BD0C21C5F6000151F85F
:101F9000040C10F00C02086805D00C2A17D100F0D0
:101FA0000300012813D14FF0B040036800681B07FD
:101FB00000F0080004D4E0B14FF0B04000681FE02A
:101FC000E0B14FF0B0400068C0F3031019E042F2F6
:101FD0000040042AC0F2F4001FD0082A1CD14FF0A0
:101FE000B0421268D2025CBF44F60000C0F2E810B2
:101FF00013E0D1F88800C0F3032002E0D1F8880094
:10200000002045F67C53C0F6000353F82030002A28
:10201000184618BF002001E00020002351F8042CCE
:1020200002F00C020C2A18BF7047086800F0030287
:1020300042F20040022AC0F2F4000AD0032A09D179
:102040004FF0B0421268D2025CBF44F60000C0F20A
:10205000E81003460868C0F306200A685843C2F334
:10206000021201320968B0FBF2F0012202EB517159
:10207000B0FBF1F0704700002DE9F04F81B000286F
:1020800000F01A8340F2900B0446C5F6000B5BF893
:10209000880C5BF8841C227800F00C08900601F094
:1020A000030A29D42078C0075BD0B8F1080F54D0B8
:1020B000B8F10C0F08BFBAF1030F4ED04FF0B0408B
:1020C0000168D4E9015221F480111143B5F5803F34
:1020D000016009D0B5F5041F40F02D824FF0B041EA
:1020E0000A6842F400120A60016841F4803101601C
:1020F000FFF7F6F805462DE2B8F1000F1ED0B8F153
:102100000C0F08BFBAF1010F18D0216A4FF0B0468A
:102110003068002900F0608140F001003060FFF776
:10212000DFF805463068800700F17D81FFF7D8F8B9
:10213000401B02284FF00300F4D947E3206A00282F
:1021400000F0BA824FF0B041A06A0A68120700F1AD
:10215000CC80DBF804100909C8E06068002800F0B2
:10216000AB82207880072DD5B8F1040F1DD0B8F1CF
:102170000C0F08BFBAF1020F17D021694FF0B0461B
:102180003068002900F0008240F480703060FFF772
:10219000A7F80546306840050BD4FFF7A1F8401BAF
:1021A00002284FF00300F5D910E32069002800F061
:1021B000838260695BF88C1C21F0FE4141EA00607B
:1021C0004BF88C0C2078000729D42078400750D495
:1021D000E56A002D00F0AC82B8F10C0F40F03981B7
:1021E000012D00F069825BF8840C216B00F0030282
:1021F0008A4240F06182616B00F070028A4240F0D6
:102200005B82A16B00F4FE42B2EB012F40F05482DE
:10221000616C00F06040884240F04E8288E2A06924
:10222000DBF80410002800F0E980E06901F01002FA
:10223000904200F0B68201F00302022A00F03C82D4
:10224000C90700F0A782DBF8040020F00100CBF8FA
:102250000400FFF745F80546DBF80400800740F16D
:102260009882FFF73DF8401B11284FF00300F3D987
:10227000ACE2DBF87003C00510D4FFF72FFCFFF7CA
:102280002FF80546DBF87003C00507D4FFF728F8E0
:10229000401B02284FF00300F4D997E2E0680028C1
:1022A00000F08481852801D0052805D1DBF80000E5
:1022B00040F00400CBF80000FFF712F8DBF8001044
:1022C000054641F0010041F28836CBF8000000BF1E
:1022D000DBF80000800700F10F81FFF701F8401BD9
:1022E000B0424FF00300F3D970E2096801F0F00149
:1022F00045F61C598842C0F600092CD93C2101EA58
:10230000900045F67C51DBF87820C0F600010858B3
:1023100002F00F0159F82110B0FBF1F5FFF7D6FBE1
:10232000B0F5007F40F0B8804EF6BF20C0F221101B
:10233000854240F2DD8049F23F30C0F234208542D0
:1023400040F24E814AF63F60C0F2EB20854240F2F7
:10235000B78000264BE14FF0B0410A6842F0080216
:102360000A600A6822F0F00202430A60616A5BF8C0
:102370008C2C22F47F4242EA01214BF88C1C3C2138
:1023800001EA900045F67C51DBF87820C0F60001A8
:10239000085802F00F0159F82110B0FBF1F5FFF7D2
:1023A00095FBB0F5007F40F08D804EF6BF20C0F267
:1023B0002110854240F29E8049F23F30C0F2342025
:1023C000854240F25C814AF63F60C0F2EB208542D4
:1023D00040F28C80002659E120F001003060FEF7C9
:1023E0007FFF0546306880077FF55CAEFEF778FF1B
:1023F000401B02284FF00300F4D9E7E121F001006F
:10240000CBF80400FEF76CFF054600BFDBF80400C4
:1024100080077FF5DAAEFEF763FF401B11284FF00F
:102420000300F3D9D2E14FF0B040016841F0080158
:1024300001600168D4E9093221F0F0011143016023
:102440005BF88C0C20F47F4040EA03204BF88C0CA6
:1024500028E64FF0B046306820F080703060FEF71C
:102460003FFF022D05460BD13068800140F12881E5
:10247000FEF736FF401B0A284FF00300F4D9A5E110
:102480003068800140F14B81FEF72AFF401B0A288B
:102490004FF00300F4D999E14CF6BF70C0F26A0026
:1024A000854225D945F63F50C0F2C600854240F22C
:1024B000978046F23F60C0F2031085423FF649AF75
:1024C00002208EE04CF6BF70C0F26A00854211D93E
:1024D00045F63F50C0F2C600854240F2D08046F239
:1024E0003F60C0F2031085423FF674AF0220C7E0A0
:1024F000002076E00020C3E0E06840F0040085287A
:1025000040F01A81FEF7ECFEDBF80010054641F0C2
:10251000800041F28836CBF8000000BFDBF80000F5
:1025200000053FF555AEFEF7DBFE401BB0424FF015
:102530000300F3D94AE14FF0B046306820F4803010
:102540003060306820F400103060FEF7C9FE002DC6
:10255000054615D04FF0B046306880033FF501AE18
:10256000FEF7BEFE401B64284FF00300F4D92DE1B6
:10257000FEF7B6FE401B64284FF0030000F22681F0
:1025800030688003F4D4ECE520F480703060FEF70E
:10259000A7FE0546306840057FF514AEFEF7A0FEA5
:1025A000401B02284FF00300F4D90FE1FEF798FE1C
:1025B000DBF80010064621F0800041F28837CBF8A6
:1025C000000000BFDBF80050FEF78AFE2905054633
:1025D00040F1CA80A81BB8424FF00300F2D9F5E0E1
:1025E000012045F61051C0F6000151F8206044F278
:1025F0000007C5F60007386820F007003043386050
:10260000FEF76EFE054600BF386800F00700B042D6
:1026100005D0FEF765FE401B0228F5D94CE04FF0CF
:10262000B040016841F0080101600168D4E9093255
:1026300021F0F001114301605BF88C0C20F47F4025
:1026400040EA03204BF88C0CFFF79EFC5BF8881CDB
:102650003C2202EA910159F8011040F20802B0FB55
:10266000F1F140F20400C2F200000068C2F2000280
:102670001160FFF7B5F9002840F0A88012E50120AD
:1026800045F61051C0F6000151F8206044F20007F1
:10269000C5F60007386820F0070030433860FEF7C1
:1026A0001FFE0546386800F00700B042CCD0FEF7A8
:1026B00017FE401B0228F5D9012001B0BDE8F08FBC
:1026C0005BF8840C48F28C01C1F2C11104F13007AF
:1026D00008408ECFD4E910650843104340EA032038
:1026E0003843304328434BF8840C4FF0B0452868FA
:1026F00040F0807028605BF8840C40F080504BF80C
:10270000840CFEF7EDFD04462868800110D4FEF726
:10271000E7FD001B0A284FF00300F5D956E05BF8EF
:10272000840C4FF6FC71CEF6FE6108404BF8840C29
:10273000002001B0BDE8F08FFEF7D2FDDBF80010FD
:10274000054621F0800041F28836CBF80000DBF826
:10275000000000057FF53CADFEF7C2FD401BB04216
:102760004FF00300F3D931E0DBF8000041F2883686
:1027700020F00100CBF80000DBF8000080077FF5B7
:1027800027ADFEF7ADFD401BB0424FF00300F3D97B
:102790001CE0E069DBF8041021F010010843CBF8DD
:1027A0000400DBF8040040F00100CBF80400FEF761
:1027B00097FD0546DBF8040080073FF506ADFEF700
:1027C0008FFD401B11284FF00300F3D901B0BDE885
:1027D000F08F0000411E0020B0EB116F1CBF0120E4
:1027E00070474EF21002CEF2000251604EF62351B5
:1027F000CEF20001F0230B7007219060116070474A
:1028000090F88410012904BF022070472421C0F8E9
:10281000881002681168136823F00103136021F027
:1028200000530021416613602022C0F8882080F800
:102830008410084670470000704700007047000091
:10284000B0B590F88420012A04BF0220B0BD012356
:10285000242280F88430C0F888200268D0F864E030
:10286000D2F800C01468BEF1000F24F00104146017
:10287000946824F0606441EA0401916019D0916881
:1028800045F6E45EC1F342619368C0F6000E5B0F4B
:1028900045F6EC551EF80340C0F60005EB5CE4007D
:1028A000B4FBF3F31EF80140695CE500B5FBF1F100
:1028B00000E00121A0F868102021A0F86A30C2F8D9
:1028C00000C0C0F88810002180F884100846B0BD10
:1028D000B0B590F88420012A04BF0220B0BD0123C6
:1028E000242280F88430C0F888200268D0F864E0A0
:1028F000D2F800C01468BEF1000F24F00104146087
:10290000946824F0604441EA0401916019D0916810
:1029100045F6E45EC1F342619368C0F6000E5B0FBA
:1029200045F6EC551EF80340C0F60005EB5CE400EC
:10293000B4FBF3F31EF80140695CE500B5FBF1F16F
:1029400000E00121A0F868102021A0F86A30C2F848
:1029500000C0C0F88810002180F884100846B0BD7F
:1029600070470000704700007047000070B50168B4
:102970000446CA6940F62F000E68D1F808E01040FE
:1029800020280BD106F020000EF08053C01822D072
:10299000616FC9B32046BDE87040084740F60F009C
:1029A000024218D00120C1F200000EEA000C40F2F1
:1029B0002010C0F20040304010EB0C000BD0D007CC
:1029C00018BF16F4807040F08A8190070EF0010362
:1029D00000F1918198E1E06E06EA0203DD0614D56C
:1029E000012812D1102008628868400600F19B80FF
:1029F000B4F85C00B4F85E20B4F85E30002B1CBF65
:102A0000801A5FEA00422BD170BDD00240F14B81A9
:102A10001EF4800000F047814FF4801220460A62C5
:102A2000BDE87040FFF79EBF216851E8001F226893
:102A300021F4907142E80013DBB1216851E8001FD6
:102A4000226821F4907142E8001393B1216851E8A3
:102A5000001F226821F4907142E800134BB12168F5
:102A600051E8001F226821F4907142E80013002B06
:102A7000DAD14FF6FE71CEF6FF7100BF226852E840
:102A8000022F23680A4043E80226C6B1226852E8B2
:102A9000022F23680A4043E8022686B1226852E8E2
:102AA000022F23680A4043E8022646B1226852E812
:102AB000022F23680A4043E80226002EDED120219F
:102AC000C4F88C100021E166616700BF216851E8FD
:102AD000001F226821F0100142E80013DBB12168D9
:102AE00051E8001F226821F0100142E8001393B161
:102AF000216851E8001F226821F0100142E800130C
:102B00004BB1216851E8001F226821F0100142E812
:102B10000013002BDAD1022281B220462267BDE8E1
:102B20007040FFF789BED4F88000026853689DB2F8
:102B3000002D3FF469AFB4F85C008542BFF464AF88
:102B4000A4F85E301268920600F1A28051E8000FEE
:102B5000216820F4807041E80002F2B1206850E85A
:102B6000000F216820F4807041E80002AAB12068BB
:102B700050E8000F216820F4807041E8000262B143
:102B8000206850E8000F216820F4807041E80002BE
:102B90001AB1206850E8000FDAE7206850E8020F09
:102BA000216820F0010041E80202BAB3206850E831
:102BB000020F216820F0010041E8020272B3206890
:102BC00050E8020F216820F0010041E802022AB318
:102BD000206850E8020F216820F0010041E802025D
:102BE000002ADAD11AE0206850E8020F216820F0AC
:102BF000400041E80202DAB1206850E8020F216883
:102C000020F0400041E8020292B1206850E8020F33
:102C1000216820F0400041E802024AB1206850E8F3
:102C2000020F216820F0400041E80202002ADAD1B8
:102C30002020C4F88C000020E066206850E8000FD7
:102C4000216820F0100041E80002DAB1206850E865
:102C5000000F216820F0100041E8000292B12068C6
:102C600050E8000F216820F0100041E800024AB14E
:102C7000206850E8000F216820F0100041E80002B1
:102C8000002ADAD1D4F88000FEF7AEF9B4F85C007F
:102C900002212167B4F85E10401A81B22046BDE8D7
:102CA0007040FFF7C9BD10060AD506F080000EF48B
:102CB0000005401904D0A16F00297FF46BAEA3E694
:102CC000580600F11281100240F1618116F0804037
:102CD00000F05D812046BDE87040FFF741BE012055
:102CE0000862D4F8900040F00100C4F8900090070A
:102CF0000EF0010308D53BB102200862D4F8900021
:102D000040F00400C4F89000500708D53BB10420FF
:102D10000862D4F8900040F00200C4F89000100758
:102D20000CD506F0200050EA0C0007D008200862FD
:102D3000D4F8900040F00800C4F8900010050BD5BE
:102D400016F0806008D04FF400600862D4F890005C
:102D500040F02000C4F89000D4F8900000283FF420
:102D600053AE12F020001EBF06F020000EF080527D
:102D700010EB020040F00381D4F890008A6800F064
:102D8000280002F04002801800F0A88051E8000FEF
:102D9000216820F4907041E80002F2B1206850E808
:102DA000000F216820F4907041E80002AAB1206869
:102DB00050E8000F216820F4907041E8000262B1F1
:102DC000206850E8000F216820F4907041E800026C
:102DD0001AB1206850E8000FDAE74FF6FE70CEF621
:102DE000FF7000BF216851E8021F2268014042E8DD
:102DF0000213C3B1216851E8021F2268014042E872
:102E0000021383B1216851E8021F2268014042E8A1
:102E1000021343B1216851E8021F2268014042E8D1
:102E20000213002BDED1E06E012824D1206850E887
:102E3000000F216820F0100041E80002DAB120689C
:102E400050E8000F216820F0100041E8000292B124
:102E5000206850E8000F216820F0100041E80002CF
:102E60004AB1206850E8000F216820F0100041E8C6
:102E70000002002ADAD120200021C4F88C00E1668B
:102E8000206861678168490674D500BF50E8020F69
:102E9000216820F0400041E80202002A57D0206853
:102EA00050E8020F216820F0400041E80202002AA9
:102EB0004DD0206850E8020F216820F0400041E822
:102EC0000202002A43D0206850E8020F216820F057
:102ED000400041E80202D2B32068D7E72046FFF75E
:102EE00043FD0020C4F8900070BD51E8000F00BF02
:102EF000216820F0400041E80002F2B1206850E86B
:102F0000000F216820F0400041E80002AAB12068CB
:102F100050E8000F216820F0400041E8000262B153
:102F2000206850E8000F216820F0400041E80002CE
:102F30001AB1206850E8000FDAE720200021C4F819
:102F400088002046A167BDE8704000F0DFB8D4F8E3
:102F5000800078B143F6B131C0F600018163FEF71D
:102F60007DF800283FF450ADD4F88000816BBDE8B7
:102F7000704008472046BDE87040FFF7F5BC626F1F
:102F8000002A3FF4F9AE204690472168F4E6D001CC
:102F90007FF53AADB6F1FF3FC8BF70BD2046BDE832
:102FA0007040FFF74BBC0000B0B582B0B0B1044632
:102FB000D0F8880028B9002084F88400204600F06A
:102FC00057F82420C4F888002068016821F0010126
:102FD0000160204600F0F4FD012802D1012002B07A
:102FE000B0BDA06A10B1204600F06EFD20684168B7
:102FF00021F490414160816821F02A0181600168DB
:1030000041F0010101600020C4F89000FEF768F96A
:10301000216805460A6812070CD56FF07E4C2046E1
:103020004FF4001100222B46CDF800C000F0FCFE4A
:1030300078B92168086840070ED56FF07E4C2046AD
:103040004FF4800100222B46CDF800C000F0ECFECA
:1030500010B1032002B0B0BD2020C4F88800C4F82D
:103060008C000020E066206784F8840002B0B0BDC8
:1030700010B594B0044600201290CDE91000CDE9BF
:103080000E0068463821FDF763FA206844F20041DB
:10309000C4F20001884201D014B010BD4FF44020AA
:1030A0000224029068460094FEF722FD002818BF13
:1030B000FDF794FF4C20C5F60000C16841F40031D3
:1030C000C160C16801F4003113911399016841F0A6
:1030D0000101016000680EA900F00100139013982F
:1030E0000C20CDE90E040020CDE91000072012903D
:1030F0004FF09040FDF7FEFF252001210022FEF752
:10310000A9FC2520FEF796FC14B010BD7047000006
:10311000FEE7000070B50446006815468369DA06CC
:1031200002D4002100226AE00E461021C1618169AB
:10313000890660D4711C54D046BBFEF7D1F82068D4
:10314000426894F842308169202B0DD012F48042FD
:103150000AD111F4004107D0416841F48041416037
:10316000FEF7BEF8054600BF20688169890605D4D0
:10317000FEF7B6F8401B1A28F6D32AE081698906C3
:10318000DBD538E020688169890634D4FEF7A8F8D9
:10319000401BB042F6D92068426894F842308169F9
:1031A000202B0DD012F480420AD111F4004107D037
:1031B000416841F480414160FEF792F8054600BF46
:1031C000206880698006DDD4FEF78AF8401B1A2843
:1031D000F6D3206801228169242110E081698906E3
:1031E00009D48169890606D4816989065CBF816931
:1031F0005FEA8161F2D52021C16101220421836946
:10320000DE0506D45E050CD49B0512D4B2B90020AD
:1032100070BD4FF4807241F00101C26101225E0570
:10322000F2D54FF4806241F00801C26101229B0592
:10323000ECD541F002014FF40072C261826992073D
:1032400044BF002282628269D20703D1826942F0C0
:103250000102826142684EF60003CFF600631A4015
:103260004260606C08436064202084F841000020C4
:1032700084F8420084F84000012070BD70B5154606
:103280000446A9B10E4600BF2068806940071DD4DE
:10329000204631462A46FFF73DFFA8B920688169DC
:1032A000890627D4FEF71CF8401BB042ECD915E084
:1032B00020688069400744BF002070BD204600217F
:1032C0002A46FFF727FF18B1012070BD002070BD0E
:1032D0002068816989060DD4FEF702F8606C40F021
:1032E00020006064202084F84100002084F8400021
:1032F000012070BD8169490704D5218D00291CBFBB
:10330000002070BD82694EF60006D2064FF0000222
:1033100042BF1022C261042262642022C26143685B
:10332000CFF60066334000214360012084F841203D
:1033300084F8421084F8401070BD000070B5044657
:1033400000688069800710D415460E4609B3701CCA
:1033500017D100BF20464FF0FF312A46FFF7DAFEB3
:10336000E8B9206880698007F4D5002070BD00BFEF
:10337000FDF7B6FF401BB04215D820688069800772
:10338000F3D4204631462A46FFF7C4FE0028EFD08A
:1033900005E0204600212A46FFF7BCFE08B10120C7
:1033A00070BDFDF79DFF606C40F020006064202040
:1033B00084F84100002084F8420084F84000012095
:1033C00070BD000010B540F27004C2F20004E07855
:1033D0000A283ED30020E0704FF090404FF48071F7
:1033E000FDF772FF60B140F20040C4F600004FF4F8
:1033F0008071FDF769FFB0FA80F04009400000E0FD
:103400000120A27AA07220EA0201824302292172DD
:1034100062720BD001291CD12078032819D8DFE86B
:1034200000F013020D100220207010BD2078032838
:1034300088BF10BDDFE800F00205080B03202070F4
:1034400010BD0020207010BD0120207010BD022092
:10345000207010BD2DE9F04186B000264C20049666
:10346000C5F60000016840F2004441F0020101602D
:103470000168C4F6000401F0020105910599016894
:10348000012241F001010160006841F2240100F0D5
:10349000010005900598204641F224054FF00108EF
:1034A000FDF718FFCDE900586D4620462946CDE9C5
:1034B0000266FDF71FFE4FF4807720462946CDE9CE
:1034C0000076CDF80880FDF715FE4FF090402946B4
:1034D000CDE90076CDF80880FDF70CFE06B0BDE81A
:1034E000F081000080B540F2D00045F20041C2F208
:1034F0000000C4F2000140F61A120023C2F21002CA
:103500004FF0010C80E80E10C0E90433C0E9063327
:103510000362FDF735FF002818BFFDF75FFD40F29D
:10352000D000C2F200000021FDF7E0FE002818BF25
:10353000FDF754FD40F2D000C2F200000021FDF77B
:10354000FBFE002808BF80BDBDE88040FDF746BDFA
:1035500080B540F2241044F20041C2F20000C4F2EF
:10356000000100234FF00C0C4FF4165280E80E00BF
:10357000C0E90333C0E905C3C0E90733C0E9093333
:10358000FFF712FD002818BFFDF728FD40F22410B8
:10359000C2F200000021FFF79BF9002818BFFDF7D9
:1035A0001DFD40F22410C2F200000021FFF748F98F
:1035B000002818BFFDF712FD40F22410C2F20000EF
:1035C000FFF71EF9002808BF80BDBDE88040FDF769
:1035D00005BD0000FEE70000FEE7000010B500207A
:1035E0000021002400F03AFA0020102100F036FA01
:1035F0000020B02100F032FA4020002100F02EFA25
:10360000601C44B2B4F1FF3FF6DC0020002100242E
:1036100000F024FA0020102100F020FA0020B1214F
:1036200000F01CFA4020002100F018FA601C44B29F
:10363000B4F1FF3FF6DC00200021002400F00EFA78
:103640000020102100F00AFA0020B22100F006FA52
:103650004020002100F002FA601C44B2B4F1FF3FA8
:10366000F6DC00200021002400F0F8F900201021F1
:1036700000F0F4F90020B32100F0F0F9402000211F
:1036800000F0ECF9601C44B2B4F1FF3FF6DC10BD71
:1036900080B56420FDF71AFD0020AE2100F0DEF9B0
:1036A0000020D52100F0DAF90020802100F0D6F9C1
:1036B0000020A82100F0D2F900201F2100F0CEF94F
:1036C0000020D32100F0CAF90020002100F0C6F943
:1036D0000020402100F0C2F900208D2100F0BEF949
:1036E0000020142100F0BAF90020A12100F0B6F961
:1036F0000020C82100F0B2F90020DA2100F0AEF974
:103700000020002100F0AAF90020812100F0A6F994
:1037100000208F2100F0A2F90020D92100F09EF9AD
:1037200000201F2100F09AF90020DB2100F096F91B
:103730000020402100F092F90020A42100F08EF931
:10374000FFF74CFF0020AF2100F088F96420BDE8AE
:103750008040FDF7BBBC0000B0B58CB040F27004F7
:10376000C2F2000421790020C829CDE90900CDE981
:103770000700CDE90500CDE9030002900190C0F0FB
:10378000858021782071032974D8DFE801F0026771
:103790001822607818B100206070FFF71FFF44F610
:1037A0005240C0F24400089045F64F70C4F657707E
:1037B000079044F24850C4F64C4006905AE06078B6
:1037C000022803D002206070FFF708FFA27832A120
:1037D0004DE06078032803D003206070FFF7FEFE01
:1037E00040F62430ADF82E0000200C34ADF82C004B
:1037F0000A250BAA2046942102230095FDF712FE0C
:103800000DF12E022046942102230095FDF742FF80
:10381000BDF82C00000400BA01F0AEFB4EF200032C
:10382000C4F26503002201F0CBFB4FF6E073C4F253
:10383000EF03002201F02CFA48F20003CCF2460319
:10384000002201F039F901F045F801F0FBFF0246D2
:103850000B460FA106A8FCF767FD0BE06078012876
:1038600003D001206070FFF7B9FEE2880DA106A821
:10387000FCF75AFD06AA00200021102300F0CEF824
:1038800001AA00200221102300F0C8F80CB0B0BD3E
:10389000543A25332E3166004B45593A253033646E
:1038A0000000000054696D653A2530356400000061
:1038B0002DE9F0410C46064640B2002844BF0234D0
:1038C000002606F00F08002041461F46A2F1200501
:1038D00000F0C4F8300900F110060020314600F075
:1038E000BDF8A4F15000C1B2002000F0B7F8102FCD
:1038F000E8B26CD146F21C050701C0F60005E95D8F
:10390000402000F0ABF8781C295C402000F0A6F8BD
:10391000B81C295C402000F0A1F8F81C295C40206C
:1039200000F09CF8381D295C402000F097F8781DC5
:10393000295C402000F092F8B81D295C402000F07E
:103940008DF8F81D295C402000F088F800204146E1
:1039500000F084F80020314600F080F8A4F14F0018
:10396000C1B2002000F07AF807F10800295C40207D
:1039700000F074F807F10900295C402000F06EF8AF
:1039800007F10A00295C402000F068F807F10B00FD
:10399000295C402000F062F807F10C00295C40200F
:1039A00000F05CF807F10D00295C402000F056F8AB
:1039B00007F10E00295C402000F050F807F10F00DD
:1039C000284401784020BDE8F04100F047B845F6B2
:1039D000F45200EB4000C0F6000212F8101002EBA7
:1039E0004007402000F03AF87978BC78FD783E79BD
:1039F000402000F033F84020214600F02FF840200E
:103A0000294600F02BF84020314600F027F8781DB9
:103A100001784020BDE8F04100F020B82DE9F041E8
:103A200015461278002A08BFBDE8F08198460E4678
:103A300007460024F8B2F1B2D2B24346FFF738FF8E
:103A40000837F8B201347828E0B288BF02362A5C21
:103A500088BF0027002AEDD1BDE8F08180B582B093
:103A60008DF8060040F2D0008DF807104FF00A0CD8
:103A7000C2F200000DF1060278210223CDF800C049
:103A8000FDF708FE02B080BD7047000070470000DF
:103A900080B5FDF781FF40F27300C2F200000178AB
:103AA00009299CBF013101704178C7299CBF0131B0
:103AB000417040F27600C2F20000018801310180BD
:103AC00080BD00007047000080B5816ACA070CD134
:103AD0008A0715D44A071ED40A0727D4CA0630D449
:103AE0008A0639D44A0657D541E00268D0F82CC07E
:103AF000536823F4003343EA0C0353608A07E9D583
:103B00000268D0F830C0536823F4803343EA0C03D2
:103B100053604A07E0D50268D0F834C0536823F4F4
:103B2000802343EA0C0353600A07D7D50268D0F814
:103B300038C0536823F4004343EA0C035360CA06B9
:103B4000CED50268D0F83CC0936823F4805343EA92
:103B50000C0393608A06C5D50268D0F840C093680C
:103B600023F4005343EA0C0393604A0614D5026819
:103B7000D0F844C05368BCF5801F23F4801343EA97
:103B80000C03536008D1D2F804C0D0F848E02CF4FC
:103B9000C00343EA0E035360090658BF80BD0168A5
:103BA000C06C4A6822F400221043486080BD0000C7
:103BB000806A0021A0F85E10A0F85610FEF7D4BE6F
:103BC00070B504462269D4E9021300680A436169AA
:103BD000E6691143026846F6F315CCF6FF753143EA
:103BE0002A4011430160416848F2000E21F440511F
:103BF00019434160A269C4F2000E70451CBF216ADE
:103C00000A4381684FF2FF43C1F2FF131940114389
:103C10008160C16AD4F824C044F2004221F00F014F
:103C2000C4F2000241EA0C019042C1620DD070451D
:103C300011D043F60001C4F20101884245D1882128
:103C4000C5F600010A6874A30EE08821C5F60001DC
:103C500009688A0804E08821C5F6000109688A0A13
:103C600045F6D453C0F6000302F0030153F82120B7
:103C7000704542F20040C0F2F4002DD0B6F5004F7E
:103C800011D1082A4FF0010100F2BD80DFE802F0F7
:103C9000056775BB6DBBBBBB7300FEF73DF9002824
:103CA00040F0608065E0082A4FF0010100F2AB802F
:103CB000DFE802F0058391A989A9A9A98F00FEF781
:103CC0002BF9002840F07C8081E01022704542F200
:103CD0000040C0F2F400D1D1082A4FF0010100F2F7
:103CE0009280DFE802F0059013900B909090110005
:103CF000FEF712F930B1D4F824C007E0FEF744F91A
:103D00000028F8D100217EE04FF4004045F6BC5178
:103D1000C0F6000131F81C106268B0FBF1F002EB54
:103D2000420188424FF001016DD3130398426AD8D3
:103D3000010E000210EB520041F100010023FCF7DC
:103D40007BFA4FF6FF42A0F54071C0F20F0291429C
:103D500003D82168C860002155E0012153E0FEF737
:103D6000F7F830B1D4F824C007E0FEF70DF90028C9
:103D7000F8D1002147E04FF4004045F6BC51C0F6B1
:103D8000000131F81C106268B0FBF1F0510801EB42
:103D90004000B0FBF2F04FF6EF72A0F1100191423B
:103DA00009D84FF6F0710140C0F342002268084480
:103DB000D060002127E0012125E0FEF7C9F830B1ED
:103DC000D4F824C007E0FEF7DFF80028F8D100217E
:103DD00019E04FF4004045F6BC51C0F6000131F83F
:103DE0001C104FF6EF72B0FBF1F0616800EB510070
:103DF000B0FBF1F0A0F11001914203D82168C86036
:103E0000002100E001214FF00110A06600220846C9
:103E10006267A26770BD00BF0100000004000000DF
:103E200002000000080000002DE9F041044600688F
:103E30001546C2690E461140891BB1FA81F1490944
:103E4000A94240F09C80DDF81880B8F1000F26D020
:103E500018F101017CD100BFC1693140891BB1FA61
:103E600081F14909A94240F08A80C1693140891B2A
:103E7000B1FA81F14909A94240F08180C16931401C
:103E8000891BB1FA81F14909A94278D1C169314050
:103E9000891BB1FA81F14909A942DDD06FE0FDF734
:103EA0001FFA00BF206850E8000F216820F4D0708E
:103EB00041E80002BAB3206850E8000F216820F4FE
:103EC000D07041E8000272B3206850E8000F21680A
:103ED00020F4D07041E800022AB3206850E8000FB7
:103EE000216820F4D07041E80002002ADAD11AE0FB
:103EF000206850E8020F216820F0010041E802022A
:103F0000DAB1206850E8020F216820F0010041E892
:103F1000020292B1206850E8020F216820F00100EF
:103F200041E802024AB1206850E8020F216820F0FF
:103F3000010041E80202002ADAD12020C4F88800FA
:103F4000C4F88C00002084F884000320BDE8F081D0
:103F50001F4600BFFDF7C4F9C01B4045A2D820682A
:103F60000168490744BFC1695FEA01510AD4C069C9
:103F70003040801BB0FA80F04009A842EAD000200F
:103F8000BDE8F0814FF40061016200BF50E8000F0E
:103F9000216820F4D07041E80002C2B3206850E8E4
:103FA000000F216820F4D07041E800027AB3206845
:103FB00050E8000F216820F4D07041E8000232B3CD
:103FC000206850E8000F216820F4D07041E800021A
:103FD000EAB12068DAE700BF206850E8020F2168E4
:103FE00020F0010041E80202DAB1206850E8020F37
:103FF000216820F0010041E8020292B1206850E8F7
:10400000020F216820F0010041E802024AB1206855
:1040100050E8020F216820F0010041E80202002A66
:10402000DAD12020C4F88800C4F88C00C4F89000CD
:10403000002084F884000320BDE8F08140F22410C1
:10404000C2F20000FEF792BCFEE700009AB0FDF756
:10405000B1FC08AC201D4421FCF77AFA002540F29F
:104060000040CDE90655CDE90455CDE90255C5F628
:1040700000000168012262F34A210160006800F437
:10408000C0600190019820200890B020CDE9102553
:10409000CDE912052046FDF7EFFF20B1EFF31080C8
:1040A00072B600BFFEE74F20CDE9020502A802214B
:1040B000CDE90455CDE90655FDF720FE18B1EFF323
:1040C000108072B6FEE7FFF7C5F9FFF70BFAFFF7AE
:1040D0003FFAFCF703FF00BFFFF73EFBFFF772F963
:1040E000FAE75FEA400C08BF91F0000F4FEA8C231B
:1040F0004FEAC12243EA51514FEA1C5018BF00F564
:10410000F0404FEA300018BF41F000415FEA6C5CBC
:1041100000F02980BCF1FF3F08BF40F080407047AD
:10412000130C06BF12044FF0100C4FF0000C130ECE
:1041300004BF12020CF1080C130F04BF12010CF1A2
:10414000040C930F04BF92000CF1020CD30F04BFB8
:1041500052000CF1010C11464FF00002A0F11F00BB
:10416000A0EB0C00704711F0004F08BF704731F012
:1041700000413FF4D5AF0B0C06BF09044FF0100C03
:104180004FF0000C0B0E04BF09020CF1080C0B0FD2
:1041900004BF09010CF1040C8B0F04BF89000CF162
:1041A000020CCB0F04BF49000CF1010CCCF1200331
:1041B00022FA03F341EA030102FA0CF2A0EB0C002D
:1041C00000F10100704723F07F4720F07F4C80EA28
:1041D000030000F00040ACEB070303F57C5303F150
:1041E000FF032DE9804909B44FEA144324EA034848
:1041F0004FEA154B25EA0B4E0FF2042606EB132768
:104200003E7803FB0667C7F5000707FB06F64FEA93
:10421000D64606F102064FEA543707FB066CCCF18E
:10422000005C4FEA1C472CEA074C0CFB06F507FB29
:1042300006F404EB15464FEA961649085FEA320287
:1042400034BF00204FF000404FEAD13706FB07FC97
:104250004FEA1C4C0CFB0BF7D21B03FB0CF761EB7A
:1042600007010CFB0EF7B0EB074072EB17420CFB9B
:1042700008F734BFA2EB0742B2EB074261EB1741EC
:104280004FEA0C444FEA910706FB07FC4FEA1C4C2F
:104290000CFB0BF7B0EBC74072EB573203FB0CF78C
:1042A00034BFA2EBC742B2EBC74261EB57310CFB04
:1042B0000EF7B0EBC70072EB57720CFB08F734BF78
:1042C000A2EBC702B2EBC70261EB57714FEA816103
:1042D00041EA92114FEA826242EA90124FEA80600C
:1042E00004EBCC04039F4FEAD13706FB07FC4FEAEF
:1042F0001C4C0CFB0BF7D21B03FB0CF761EB07010B
:104300000CFB0EF7B0EB074072EB17420CFB08F703
:1043100034BFA2EB0742B2EB074261EB17414FEA11
:104320008C5504EB9C244FEA910706FB07FC4FEAEF
:104330001C4C0CFB0BF7B0EBC74072EB573203FB86
:104340000CF734BFA2EBC742B2EBC74261EB573167
:104350000CFB0EF7B0EBC70072EB57720CFB08F7C3
:1043600034BFA2EBC702B2EBC70261EB57714FEA51
:10437000816141EA92114FEA826242EA90124FEA69
:10438000806015EB4C2544F100044FEAD13706FB61
:1043900007FC4FEA1C4C0CFB0BF7D21B03FB0CF782
:1043A00061EB07010CFB0EF7B0EB074072EB174215
:1043B0000CFB08F734BFA2EB0742B2EB074261EBFC
:1043C00017414FEA813141EA92414FEA823242EA93
:1043D00090424FEA80304FEA0C7615EB1C1544F101
:1043E000000448EA03434EEA0B484FF0000EB2EBDC
:1043F000080C71EB030724BF624639464EEB0E0EE4
:104400004FF0000B0018524149414BEB0B0BB2EB44
:10441000080C71EB03077BF1000B24BF62463946A1
:104420004EEB0E0E4FF0000B0018524149414BEB82
:104430000B0BB2EB080C71EB03077BF1000B24BFF5
:10444000624639464EEB0E0E51EA020718BF46F09F
:10445000010616EB0E7655F1000254F1000103D56A
:10446000BDE88901BDE80088BDE88901BDE80048D4
:10447000B619524141EB0101A3F10103704780805D
:104480007F7E7D7C7B7A79787776767574737271AE
:1044900071706F6E6E6D6C6C6B6A6A696868676666
:1044A00066656464636362616160605F5F5E5E5DF8
:1044B0005D5C5C5B5B5A5A5959585857575656556C
:1044C00055555454535352525251515050504F4FCE
:1044D0004F4E4E4D4D4D4C4C4C4B4B4B4A4A4A491E
:1044E0004949484848474747474646464545454461
:1044F00044444443434343424242424141419C4637
:10450000002B30D477002BD04FEA37071CB503B40B
:104510004FF010004FF01001BAF1000F06D0BCF1BF
:10452000000FDCBF40F0080040F0080101F0E2FAA3
:104530000FBCBDE810400BF1010BBBF1010F08BF30
:104540005FEA170722BF12F1010211F101014FF0DA
:10455000004143F1000300F0004043EA00007047CF
:10456000F9D35708D0E746EA06464FEA164613F154
:10457000400F1FDD13F1200FDFBF16430A46002155
:1045800020335B42BED0C3F1200746EA06464FEA1D
:10459000164602FA07F746EA070622FA03F2C3F1C3
:1045A000200701FA07F742EA070221FA03F14FF068
:1045B0000003A7E746EA020646EA06464FEA164621
:1045C00046EA0106BCBF46EA0646360C4FF0000339
:1045D0004FF000024FF0000194E72DE9804C70B4D9
:1045E0009A46934691E8380007C831EA400C48BF24
:1045F00034EA430C03D5FFF7E6FDFFF780FFF0BC7C
:10460000BDE8008C2DE9804C70B49A46934691E841
:10461000380007C810F0804F08BF13F0804F03D157
:1046200000F005F8FFF76BFFF0BCBDE8008C20F050
:104630007F4723F07F4C80EA030000F0004007EB47
:104640000C03A3F57C53A3F1FE0392F0000F00F0DE
:10465000B38095F0000F00F077802DE901494FEA13
:10466000114021EA00484FEA144624EA064700FBBD
:1046700006FC08FB06F607FB08F818EB06484CEBAF
:10468000164C00FB07F718EB07484CEB17404FEAB6
:10469000124B22EA0B4E4FEA154625EA06470BFB62
:1046A00006FC0EFB06F607FB0EFE1EEB064E4CEB61
:1046B000164C0BFB07F71EEB074E4CEB174B18EB9A
:1046C0000B0840F1000018EB0E0B58EB000840F10E
:1046D00000008F1A4FF000014FF000063CBFC943A5
:1046E000661B14BFB5EB040C00213CBFC943F61B8D
:1046F0004FEA174427EA04454FEA1C472CEA074CC7
:1047000004FB076205FB07F70CFB05F616EB0746F3
:1047100042EB174204FB0CFC16EB0C4642EB1C422E
:104720001BEB060658EB020241414EEA8E0E46EAAA
:104730009E0601D5BDE80189B619524141EB010140
:10474000A3F10103BDE801894FEA144524EA0546B7
:104750004FEA114721EA074C05FB07F406FB07F770
:104760000CFB06F111EB074144EB174405FB0CFC75
:1047700011EB0C4144EB1C444FEA124722EA074C70
:1047800005FB07F206FB07F70CFB06F616EB0746E0
:1047900042EB174205FB0CFC16EB0C4642EB1C45AA
:1047A0006A1854F1000148BF7047B619524141EBF5
:1047B0000101A3F10103704795F0000F37D04FEAD4
:1047C000114221EA02464FEA144724EA074C02FB51
:1047D00007F106FB07F70CFB06F414EB074441EB6B
:1047E000174102FB0CFC14EB0C4441EB1C414FEA5B
:1047F000154725EA074C02FB07F506FB07F70CFBFC
:1048000006F616EB074645EB174502FB0CFC16EBCC
:104810000C4645EB1C42121951F1000148BF70478C
:10482000B619524141EB0101A3F1010370474FEA70
:10483000144524EA05464FEA114721EA074C05FBD7
:1048400007F106FB07F70CFB06F212EB074241EB00
:10485000174105FB0CFC12EB0C4251EB1C414FF0D5
:10486000000648BF7047921841EB0101A3F1010314
:104870007047490050EAC12018BF04204A0D18BFF4
:1048800040F0010040F2FF72B2EB515F08BF40F010
:104890000200012808BF0520704730380A2801D2DD
:1048A000012070470020704710B500290AD0087811
:1048B000002807D005487844FCF74EFA002801D0BC
:1048C000002010BD0248784410BD0000761D000095
:1048D0006E1D000021F0004201F00043A2F1605281
:1048E000B2F5801F28BFD2F17E6C0BD95FEA001CA5
:1048F00043EAC20242EB507018BF704728BF20F055
:104900000100704750EA410C04BF084670475FEA57
:10491000125CBCF1FE0F13D15FEA001C4FEAC20C1F
:104920004CEB507C04BFC2002CEAD27C1CF4000F7C
:1049300004BF4CEA0300704721F00042A2F160522C
:104940004FEA410CB2F5801F33DB1CF5001F1FD26C
:1049500003B42DE90C50FBF725FEBDE80C5084464E
:1049600003BCDCF800C01CF4806F06D02CF0005CA7
:104970004CF0805CA1F1406133E04FF07F4043EAAE
:104980005000DFF830C100F081BE084601F017B8D2
:1049900070B500F0D7FB00BF000000B9880000042C
:1049A000FFF7F3BF21F0704243EA507040EAC200C3
:1049B000704703B42DE90C50FBF7F4FDBDE80C5033
:1049C000844603BCDCF800C02CF0805C4CF0005C3A
:1049D0001CF4006F21D04B00B3F5001F2FD301F161
:1049E00040610CF0405C4CF0880CC30011D05CF0CE
:1049F000404C10F0805F0CD0034610F1005041F1A4
:104A00000001020108BF20F00050834218BF2CF0C3
:104A1000004C00F0604001F0E0B812F1406248BF85
:104A200022F07F425FEAC00C43EAC20242EA5070C1
:104A30004FF0880218BF42F0404200F0C5BF01F0BD
:104A4000004321F00041094214D0B1FA81FCACF1DD
:104A50000B0C01FA0CF1CCF1200220FA02F241EA2F
:104A6000020100FA0CF04FEA0C52A1EB020181EABC
:104A700003010FE0B0FA80F200FA02F002F1150231
:104A80004FEAD0214FEA40504FEA0252A1EB020117
:104A900081EA030103B42DE90C50FBF783FDBDE867
:104AA0000C50844603BCDCF800C02CF0805C4CF059
:104AB000005C94E78800001010B5DFF8CCE111F538
:104AC000801C13F580141EEA4C0F18BF1EEA440F19
:104AD00000F08E8091EA030F48BF83F0004300F19D
:104AE0000684841A71EB030C05D2121943EB0C03F4
:104AF000001B61EB0C014FEA1154A4EB135C21EA9B
:104B0000045123EA6E0343F48013DCF1200E35D305
:104B100022FA0CFE10EB0E0023FA0CFE41EB0E0104
:104B2000CCF1200E03FA0EFE10EB0E00CCF1200E9D
:104B300051F10001B1F5801F35D201EB045112FA99
:104B40000EF2BDE8104058BF7047401C38BF5FEA06
:104B5000420218BF7047002814BF20F0010041F145
:104B600000014FEA410313F5001F38BF7047DFF81B
:104B70001CC128BFA1F1C04100F088BD012A43EB50
:104B80000302ACF1200CDCF11F0E32BF4FF0000E1F
:104B900023FA0CF310EB030041EB0451B4EB115F6B
:104BA000CDD0A1EB045101F58011490801EB04516E
:104BB0005FEA30000ED350F1000038BF12FA0EFE4B
:104BC00008D1BDE81040C6E7401C38BF5FEA42028A
:104BD000C7D1C0E7BDE810404FEA410313F5001FFD
:104BE00038BF7047DFF8A4C0A1F1C04100F04EBD4E
:104BF0004EF4001E3EEA410418BF3EEA430439D099
:104C000091EA030F48BF83F0004300F13D84841A0A
:104C100071EB030C05D2121943EB0C03001B61EB83
:104C20000C014FEA1154A4EB135C52EA430E13D06B
:104C30005FEA445E21EA04511CBF23F00043ACF15B
:104C4000010C7FF462AFBDE81040801841EB030116
:104C50004FF0110C00F0FFBB5FEA445EBDE810406E
:104C600018BF704750EA410C08BF70474FF0110C55
:104C700000F0F1BBBDE8104070B500F063FA00BF72
:104C800064FBBE3E110000040000C0FF11000010D4
:104C90002DE9C04130B4DFF8D4C23CEA111418BF8A
:104CA0003CEA131400F003811CEA111481EA0305A5
:104CB00044EAD57418BF1CEA131500F0D580A4EBA4
:104CC000050404F17F7404F500344FF0004545EA13
:104CD000C12145EAC32341EA505143EA52534FEA06
:104CE000C0204FEAC222994208BF904200F0A18042
:104CF0004FEA13650FF27416765D4FEA134506FB13
:104D000005F7C7F1807706FB07F74FEAD737A7FB10
:104D100003687642A7FB06CEC8F5803838BFA8F1F5
:104D2000010807FB08E6A6FB028C4FF0000EE6FB2D
:104D300003CEDCF1000CCEF1004E38BFAEF1010E17
:104D4000A6FB0C584FF00007E6FB0E87A1FB08C638
:104D5000A0FB07CE16EB0E064FF0000545F100054F
:104D6000E1FB076515F1E04E7EBFA4F580345FEAF4
:104D700046066D4116F1800745F100054FEA1727F9
:104D800047EA05674FEA15254FEA0666A6F1DE46B3
:104D9000B6F1805F88BFD4F1004C21D9384605EBCD
:104DA000C47124F0010C01EB0C11BCF1FE6F02D8B0
:104DB000F0BCBDE8008124425CBF01F5801E9EEA84
:104DC000C47F02D4F0BCBDE8008124423AD4A1F1F2
:104DD000C041DFF89CC1F0BCBDE8004100F056BC0A
:104DE0004FEAD02040EA41504FEAD1214FEAD22287
:104DF00042EA43524FEAD323A7FB028607FB03662E
:104E000005FB02661EEA0E0F58BFA6EB0056B6EB76
:104E100000564FEA520E4EEAC37E18EB0E0E56EBCA
:104E2000530EBBD518EB02085E417F1C55F10005FF
:104E3000B4E74FF480154FF000074FF000064FF035
:104E40000008ABE701F1C04156EA080C1CBF06F0B0
:104E5000004C4CF0804C4CF0005C4CF0140CF0BC5E
:104E6000BDE8004100F04EBB0CEA131550EA410EBC
:104E70000BD052EA430E13D000F0E5F9641B240472
:104E800086EA460644EAD6741BE752EA430E00F06F
:104E9000268081EA030101F00041F0BCBDE80081F9
:104EA000F0BCBDE80041DFF8CCC000F0EFBBF0BCC7
:104EB000BDE8004170B500F045F900BF097EFC3E39
:104EC0001400000400F007B84FF0000081EA03016D
:104ED00001F00041704781EA030100F0ECB9F0BC39
:104EE000BDE800415FF828C000F0D0BBFFFDFBF932
:104EF000F7F5F4F2F0EEEDEBE9E8E6E4E3E1E0DE0D
:104F0000DDDBDAD8D7D5D4D3D1D0CFCDCCCBCAC87E
:104F1000C7C6C5C4C2C1C0BFBEBDBCBBBAB9B8B7A5
:104F2000B6B5B4B3B2B1B0AFAEADACABAAA9A8A898
:104F3000A7A6A5A4A3A3A2A1A09F9F9E9D9C9C9B66
:104F40009A99999897979695959493939291919011
:104F50008F8F8E8E8D8C8C8B8B8A898988888787A2
:104F60008685858484838382828181800000FF0717
:104F7000140000101400000810F0004248BF404226
:104F8000B0FA80F310FA03F10AD0C3F11D0303F560
:104F9000806302EB03524FEA415002EBD12170478C
:104FA0004FF000007047B1FA81F201FA02F1C2F14C
:104FB0001D0203EB02534FEA415003EBD12170472E
:104FC00070B5DFF87CC11CEA111E1EBF1CEA131568
:104FD0009EEA0C0F95EA0C0F00F0788081EA03043A
:104FE0004EEAD47EAE4421EA4C1123EA4C1341F43C
:104FF000801143F48013AEF17F7EA1FB024CA0FB35
:105000000365361955EB0C05A1FB034C4CF100036D
:10501000A0FB021C16EB0C06654153F1000309428C
:1050200018BF46F0010613F4007F0BD14FEA03319D
:105030004FEA053041EA155140EA165034036FF04B
:1050400003020AE04FEAC3214FEAC52041EA555165
:1050500040EA5650F4026FF0020202EB2E4201EBDE
:10506000025585EACE7126460BD005465FEA440C10
:1050700018BF24F0004450F1000041F1000120EA83
:10508000D47040F2FD7C624500D270BD08BF11F4BF
:10509000801FFAD0A84214BF4FF080444FF0404424
:1050A000002E08BF0024BEF1806FD8BF01F1C041BF
:1050B000A8BFA1F1C04144F0130CA8BF4CF0805C24
:1050C000BDE8704040F31E8200F0E0BA0CEA131510
:1050D0009EEA0C0F18BF95EA0C0F19D091EA030F46
:1050E00048BF4EF0010E50EA410418BF52EA430493
:1050F00009D000F0A8F864194FEA044E86EA460683
:105100004EEAD67E77E74FF000004FEACE7170BDD1
:1051100000F018F88900013E1300000400F005B803
:1051200000F007B852EA430C06D081EA030100F010
:10513000C2B850EA410CF8D15FF824C000F0A6BA1A
:105140000000FF070EF1020E2EF0030E5EF8086B52
:10515000012841EB010414F5001418BFB4F5801FB9
:1051600023D3364208D4012A43EB030515F5001575
:1051700018BFB5F5801F18D301EB010C1CF5801F7B
:1051800016D2364204D403EB030C1CF5801F0FD259
:10519000002C10D14FEAD17C0CEB4C0C0CF1020C22
:1051A000002D08BF4CEBD37C07E04FF0090C04E066
:1051B0004FF0080C01E04FEAD37C0CEB4C0526FACB
:1051C00005F606F00706B6F1040C06D20EEB860CC7
:1051D000BDE870404CF0010C6047DFE80CF0222481
:1051E00013025EF804CC1B2D08D1002C88BFB4F547
:1051F000801F34BF4CF4804C4CF4004CBDE8704030
:1052000000F044BA002C88BFB4F5001F24BF194633
:10521000104670BD4FF00041A1F500214FF0000095
:1052200070BD19461046012851EB010418BFD4F592
:10523000001484BF5EF804CC2CF0806CBDE8704094
:1052400000F2FC81704780B54FF003065C004FEA26
:105250003606640D4FEA03334FEA133318BF43F4A5
:1052600080131CD104F1010453EA125E02BF1346FD
:105270000022203C1B4202BF130B1205143CB3FA60
:1052800083FEAEF10B0E03FA0EF3A4EB0E04CEF187
:10529000200C22FA0CFC43EA0C0302FA0EF20FB4C3
:1052A0000CBC03BC16F0010F18BF2546CED180BD43
:1052B00080B50126F3E70808A0F500114FEA310197
:1052C0007047000010B5DFF838E211F5801C13F5C7
:1052D00080141EEA4C0F18BF1EEA440F00F0C58070
:1052E00091EA030F48BF83F000433FF5FAAB841AFD
:1052F00071EB030C07D28CF0004C121943EB0C033A
:10530000001B61EB0C014FEA1154A4EB135C21EA82
:10531000045123EAAE035242C3EBAE0338BF5B1E17
:10532000DCF1200E25D322FA0CFE10EB0E0043FA1E
:105330000CFE41EB0E01CCF1200E03FA0EFE10EB39
:105340000E00CCF1200E51F1000129D401EB0451E3
:1053500012FA0EF2BDE8104058BF7047401C1CBF47
:10536000B2F1004F704700280CBF491C20F001002B
:10537000704712EB020E43EB030218BF4FF0010E11
:105380004EEA4202ACF1200CDCF11E0E53D943FA76
:105390000CFE10EB0E00CCF11E0E51F1FF31D5D5F5
:1053A0000EF1010E12FA0EFE404141EB010101EB3C
:1053B000445C5FEA5C5C10D901EB045110EBDE70D9
:1053C00038BFBEF1004FBDE8104018BF704700283D
:1053D0000CBF491C20F0010070472FD24FEAD42C9B
:1053E00024F4006411F500111AD0B1FA81F20B3ADD
:1053F000A41AA41ED2F12003914030FA03F31943FA
:10540000904001EBCC7101EB0451002CBDE8104041
:10541000A8BF704701F1C0414FF0120C00F072B804
:10542000B0FA80F310FA03F100D110BDE41A173C72
:105430004805C90AE5E701EB045110BD49104FEAE0
:10544000300001EB0451BDE8104002E04FF00001D4
:1054500070474FF0120C4A0008BF0042F6D0B2F578
:10546000001F28BF704700F0E9B84EF4001E3EEA66
:10547000410418BF3EEA430434D091EA030F48BF09
:1054800083F000433FF5C3AB841A71EB030C07D2E2
:105490008CF0004C121943EB0C03001B61EB0C0168
:1054A0004FEA1154A4EB135C52EA033E14D05FEAB6
:1054B000445E21EA045109D023F00043ACF1010C11
:1054C0005242C3F1000338BF5B1E29E7801A61EB2B
:1054D0000301BDE81040BCE7BDE8104050EA410CB4
:1054E000B7D1B3E7BDE8104070B5FFF72BFE00BFA2
:1054F00040DFF63E11000004104683F00041704783
:105500000000C0FF03B42DE90C50FBF74BF8BDE8D9
:105510000C50034603BC1B6813F0807F1EBF01F0D4
:1055200000410020704713F4006F40F0A980094249
:1055300048BF4CF4803C4FF4C0634FEA115203F172
:10554000010321EA025122F400629A1A48BF6FF067
:10555000FE0241F48011352A3CD830D0152A1ED3E2
:10556000203A0CD9C2F12003002821FA02F001FAF6
:1055700003F218BF42F001024FF0000130E0C2F127
:10558000000302F1200201FA03F120FA02F241EADB
:10559000020100FA03F208464FF0000120E010B4C7
:1055A000C2F1200300FA03F401FA03F320FA02F037
:1055B00043EA000021FA02F1224610BC10E050EA52
:1055C00001324FF000004FF000014FF0004218BFD1
:1055D000521C05E04FF001024FF000014FF00000B7
:1055E0001CF4803F2CF4803C18BF41F00041124273
:1055F0001DD0520003D310D0401C41F1000103B470
:105600002DE90C50FAF7CEFFBDE80C50024603BC62
:10561000136843F00803136070475FEAAC72EBD481
:10562000EDD1401C41F1000120F00100E7E71CF042
:10563000804F08BF70472CF0004CE0E703B42DE921
:105640000C50FAF7AFFFBDE80C50034603BC1B68D3
:1056500013F0807F1EBF01F000410020704713F45B
:10566000006F08BF70472DE9F050FFF721FE04F5E9
:10567000C064A4F10104314301EB0451BDE8F050D2
:105680004CF0005C4CF0800C00F0A7BA1CF0700FDE
:1056900008BF0A460FB403B42DE90C50FAF782FF95
:1056A000BDE80C50024603BC11680CF0405030EAD3
:1056B000814318BF4CF0804C4FEA4C034FEAD36350
:1056C00023EA112310EA814F18BF23F0100341EAA7
:1056D000030101F0E0734CEA030C11600CF00F03BE
:1056E0000A2B1DBF082B0CF070034CEAC30C4FF4BF
:1056F000003304BF33EA0C034CF4400C1CF0005F91
:1057000014D11CF0805F0BD11CF0804F31D11CF004
:10571000006F12D111F4807F0FBC47D000F05DBA4A
:1057200011F4806F0FBC2BD000F057BA11F4006F4A
:105730000FBC08BF704700F050BA11F4007F0FBCD7
:1057400040F04B821CF0400F1EBF4FF0004040F075
:10575000010070471CF0100F14BF81EA03024240A1
:105760000CF00F000A2808BF4FF0FF324FF0000383
:105770000FE011F4805F0FBC08BF704700F02DBA36
:105780002CF0805C1CF0800F14BF01F0004200F090
:10579000004202F000421CF0100F1DBF0FF28C00FF
:1057A00003C81143234808BF104370471CF0400F43
:1057B00040F028801CF4404F1BD01CF4004F1CBF4D
:1057C000194610460CF4807218BF8CEA520C1CF07B
:1057D000800F0CBF40F4800041F400218CEADC0310
:1057E00013F0100F1CBF2CF00F0C4CF0080C00F045
:1057F0009BB91CF0100F1ABF0FA393E803001048C9
:1058000000F092B91CF0800F14BF01F0004200F0CC
:1058100000421CF0100F1BBF07A393E803000848C9
:10582000114308BF104300F07FB900BF0000000023
:105830000000F07F0000807F000000000000F87F83
:105840000000C07F43004FEAD30C4FEA3C0C4340BA
:105850001FBF40070CF1605113F0FE4F70471CF062
:10586000006F14D133F0004004BF1946704783EA3B
:10587000830383EA430303F0070343EACC010CF0FC
:10588000004303F15A5303F54013FFF78CBB0CF0B0
:10589000004343EA507040EACC0010B500F00FF826
:1058A000000000BA180000044FEA0001FFF703BD32
:1058B0004FEAE0024FEA407042F0E04170470EF1DB
:1058C000020E2EF0030E5EF8084B4FEA400212F172
:1058D000807218BFB2F5000F22D3244207D44FEADA
:1058E000410313F1807318BFB3F5000F18D34FEACB
:1058F000400C1CF5000F16D2244204D44FEA410C90
:105900001CF5000F0FD2002A10D14FEAD07C0CEB0F
:105910004C0C0CF1020C002B08BF4CEBD17C07E0C7
:105920004FF0090C04E04FF0080C01E04FEAD17C85
:105930000CEB4C0324FA03F404F00704B4F1040C58
:1059400006D20EEB840CBDE810404CF0010C604711
:10595000DFE80CF01F2013025EF804CC1B2B08D1EB
:10596000002A88BFB2F5000F34BF4CF4804C4CF4D1
:10597000004CBDE81040FFF789BE002A88BFB2F195
:10598000807F28BF084610BD4FF00040A0F5800082
:1059900010BD0846420018BFD2F1807284BF5EF885
:1059A000042C22F08062BDE8104000F27A8070473B
:1059B00010B5FAF7F7FD4FF00001016010BDFF21AF
:1059C00041EAD050C005704703B42DE90C50FAF7F6
:1059D000E9FDBDE80C50844603BCDCF8001011F072
:1059E000807F1CBF00F00040704711F4006F40F052
:1059F0007C8000F0004343EAD05323F48073C3F16A
:105A0000C10323F0004117292FD8C3F1200310FA56
:105A100003F1C3F1200320F07F4040F4000020FA9E
:105A200003F003F0004340EA030013D00B46DCF818
:105A3000001041F00801CCF80010590009D318BF3C
:105A4000401C06D17FEAE27398BF401C38BF20F0AB
:105A50000100704712F0804F08BF7047DCF800105B
:105A600041F00801CCF80010704703EB912318298E
:105A700018BF6FF000410131DCF8001041F008015F
:105A8000CCF8001068BF03F0004009D6400203F0D4
:105A9000004000F1010004BF12F0004F20F00100AF
:105AA000704703B42DE90C50FAF77CFDBDE80C50AB
:105AB000844603BCDCF8001011F0807F1CBF00F0AE
:105AC0000040704711F4006F08BF704700F00041BC
:105AD00041F0C04120F00040B0FA80F3A3F1080388
